{
  "contractName": "ProductContract",
  "abi": [
    {
      "inputs": [
        {
          "internalType": "address",
          "name": "",
          "type": "address"
        },
        {
          "internalType": "uint256",
          "name": "",
          "type": "uint256"
        }
      ],
      "name": "companyRecipes",
      "outputs": [
        {
          "components": [
            {
              "internalType": "uint256",
              "name": "productId",
              "type": "uint256"
            },
            {
              "internalType": "string",
              "name": "productName",
              "type": "string"
            },
            {
              "internalType": "bool",
              "name": "exist",
              "type": "bool"
            }
          ],
          "internalType": "struct ProductContract.Product",
          "name": "supply",
          "type": "tuple"
        }
      ],
      "stateMutability": "view",
      "type": "function",
      "constant": true
    },
    {
      "inputs": [
        {
          "internalType": "uint256",
          "name": "",
          "type": "uint256"
        }
      ],
      "name": "listOfProducts",
      "outputs": [
        {
          "internalType": "uint256",
          "name": "productId",
          "type": "uint256"
        },
        {
          "internalType": "string",
          "name": "productName",
          "type": "string"
        },
        {
          "internalType": "bool",
          "name": "exist",
          "type": "bool"
        }
      ],
      "stateMutability": "view",
      "type": "function",
      "constant": true
    },
    {
      "inputs": [],
      "name": "networkOwner",
      "outputs": [
        {
          "internalType": "address",
          "name": "",
          "type": "address"
        }
      ],
      "stateMutability": "view",
      "type": "function",
      "constant": true
    },
    {
      "inputs": [
        {
          "internalType": "uint256",
          "name": "",
          "type": "uint256"
        },
        {
          "internalType": "uint256",
          "name": "",
          "type": "uint256"
        }
      ],
      "name": "productOwners",
      "outputs": [
        {
          "internalType": "address",
          "name": "",
          "type": "address"
        }
      ],
      "stateMutability": "view",
      "type": "function",
      "constant": true
    },
    {
      "inputs": [
        {
          "internalType": "uint256",
          "name": "",
          "type": "uint256"
        }
      ],
      "name": "products",
      "outputs": [
        {
          "internalType": "uint256",
          "name": "productId",
          "type": "uint256"
        },
        {
          "internalType": "string",
          "name": "productName",
          "type": "string"
        },
        {
          "internalType": "bool",
          "name": "exist",
          "type": "bool"
        }
      ],
      "stateMutability": "view",
      "type": "function",
      "constant": true
    },
    {
      "inputs": [],
      "name": "getProductLength",
      "outputs": [
        {
          "internalType": "uint256",
          "name": "",
          "type": "uint256"
        }
      ],
      "stateMutability": "view",
      "type": "function",
      "constant": true
    },
    {
      "inputs": [
        {
          "internalType": "uint256",
          "name": "productId",
          "type": "uint256"
        }
      ],
      "name": "getProductOwnerLength",
      "outputs": [
        {
          "internalType": "uint256",
          "name": "",
          "type": "uint256"
        }
      ],
      "stateMutability": "view",
      "type": "function",
      "constant": true
    },
    {
      "inputs": [
        {
          "internalType": "address",
          "name": "owner",
          "type": "address"
        }
      ],
      "name": "addCompany",
      "outputs": [],
      "stateMutability": "nonpayable",
      "type": "function"
    },
    {
      "inputs": [
        {
          "internalType": "address",
          "name": "owner",
          "type": "address"
        }
      ],
      "name": "deleteCompany",
      "outputs": [],
      "stateMutability": "nonpayable",
      "type": "function"
    },
    {
      "inputs": [
        {
          "internalType": "uint256",
          "name": "productId",
          "type": "uint256"
        },
        {
          "internalType": "string",
          "name": "productName",
          "type": "string"
        },
        {
          "internalType": "address",
          "name": "owner",
          "type": "address"
        }
      ],
      "name": "addProductWithoutRecipe",
      "outputs": [],
      "stateMutability": "nonpayable",
      "type": "function"
    },
    {
      "inputs": [
        {
          "internalType": "uint256",
          "name": "productId",
          "type": "uint256"
        },
        {
          "internalType": "string",
          "name": "productName",
          "type": "string"
        },
        {
          "components": [
            {
              "internalType": "uint256",
              "name": "productId",
              "type": "uint256"
            },
            {
              "internalType": "string",
              "name": "productName",
              "type": "string"
            },
            {
              "internalType": "bool",
              "name": "exist",
              "type": "bool"
            }
          ],
          "internalType": "struct ProductContract.Product[]",
          "name": "prerequisiteSupplies",
          "type": "tuple[]"
        },
        {
          "internalType": "uint256[]",
          "name": "quantityPrerequisiteSupplies",
          "type": "uint256[]"
        }
      ],
      "name": "addProductWithRecipe",
      "outputs": [],
      "stateMutability": "nonpayable",
      "type": "function"
    },
    {
      "inputs": [
        {
          "internalType": "uint256",
          "name": "productId",
          "type": "uint256"
        }
      ],
      "name": "getRecipe",
      "outputs": [
        {
          "components": [
            {
              "components": [
                {
                  "internalType": "uint256",
                  "name": "productId",
                  "type": "uint256"
                },
                {
                  "internalType": "string",
                  "name": "productName",
                  "type": "string"
                },
                {
                  "internalType": "bool",
                  "name": "exist",
                  "type": "bool"
                }
              ],
              "internalType": "struct ProductContract.Product",
              "name": "supply",
              "type": "tuple"
            },
            {
              "components": [
                {
                  "internalType": "uint256",
                  "name": "productId",
                  "type": "uint256"
                },
                {
                  "internalType": "string",
                  "name": "productName",
                  "type": "string"
                },
                {
                  "internalType": "bool",
                  "name": "exist",
                  "type": "bool"
                }
              ],
              "internalType": "struct ProductContract.Product[]",
              "name": "prerequisites",
              "type": "tuple[]"
            },
            {
              "internalType": "uint256[]",
              "name": "quantities",
              "type": "uint256[]"
            }
          ],
          "internalType": "struct ProductContract.Recipe",
          "name": "",
          "type": "tuple"
        }
      ],
      "stateMutability": "view",
      "type": "function",
      "constant": true
    }
  ],
  "bytecode": "0x6080604052600080546001600160a01b0319163317905534801561002257600080fd5b5061132c806100326000396000f3fe608060405234801561001057600080fd5b50600436106100a35760003560e01c806262a210146100a85780631c22c591146100d85780632e1b181e146100f9578063634513ca1461010c5780637acc0b2014610121578063a694080114610143578063d1d3849414610156578063e333476014610169578063f0d1f28d1461017c578063f2d618191461019c578063f8d12a41146101a4578063fbf257ea146101c4575b600080fd5b6100bb6100b6366004610fae565b6101d7565b6040516001600160a01b0390911681526020015b60405180910390f35b6100eb6100e6366004610e06565b61020f565b6040519081526020016100cf565b6000546100bb906001600160a01b031681565b61011f61011a366004610dbc565b610224565b005b61013461012f366004610e06565b610262565b6040516100cf939291906111d0565b61011f610151366004610e72565b610323565b610134610164366004610e06565b610479565b61011f610177366004610e1e565b61049b565b61018f61018a366004610ddd565b6104c2565b6040516100cf9190611121565b6004546100eb565b6101b76101b2366004610e06565b6105b4565b6040516100cf9190611134565b61011f6101d2366004610dbc565b610918565b600260205281600052604060002081815481106101f357600080fd5b6000918252602090912001546001600160a01b03169150829050565b6000818152600260205260409020545b919050565b6000546001600160a01b0316331461023b57600080fd5b6001600160a01b03166000908152600160208190526040909120805460ff19169091179055565b6004818154811061027257600080fd5b600091825260209091206003909102018054600182018054919350906102979061127e565b80601f01602080910402602001604051908101604052809291908181526020018280546102c39061127e565b80156103105780601f106102e557610100808354040283529160200191610310565b820191906000526020600020905b8154815290600101906020018083116102f357829003601f168201915b5050506002909301549192505060ff1683565b3360009081526001602052604090205460ff1661033f57600080fd5b61034a848433610950565b33600090815260056020818152604083208054600181018255908452908320910201905b835181101561040c578160030184828151811061039b57634e487b7160e01b600052603260045260246000fd5b6020908102919091018101518254600181810185556000948552938390208251600390920201908155818301518051929491936103de9392850192910190610b3c565b50604091909101516002909101805460ff191691151591909117905580610404816112b9565b91505061036e565b50600085815260036020526040902080548255600180820180548492830191906104359061127e565b610440929190610bc0565b506002918201549101805460ff191660ff909216151591909117905581516104719060048301906020850190610c3b565b505050505050565b600360205260009081526040902080546001820180549192916102979061127e565b6000546001600160a01b031633146104b257600080fd5b6104bd838383610950565b505050565b600560205281600052604060002081815481106104de57600080fd5b906000526020600020906005020160009150915050806000016040518060600160405290816000820154815260200160018201805461051c9061127e565b80601f01602080910402602001604051908101604052809291908181526020018280546105489061127e565b80156105955780601f1061056a57610100808354040283529160200191610595565b820191906000526020600020905b81548152906001019060200180831161057857829003601f168201915b50505091835250506002919091015460ff161515602090910152905081565b6105bc610c75565b3360009081526001602052604090205460ff166105d857600080fd5b60005b336000908152600560205260409020548110156108bf5733600090815260056020526040902080548491908390811061062457634e487b7160e01b600052603260045260246000fd5b600091825260209091206005909102015414156108ad5733600090815260056020526040902080548290811061066a57634e487b7160e01b600052603260045260246000fd5b906000526020600020906005020160405180606001604052908160008201604051806060016040529081600082015481526020016001820180546106ad9061127e565b80601f01602080910402602001604051908101604052809291908181526020018280546106d99061127e565b80156107265780601f106106fb57610100808354040283529160200191610726565b820191906000526020600020905b81548152906001019060200180831161070957829003601f168201915b50505091835250506002919091015460ff1615156020918201529082526003830180546040805182850281018501909152818152938301939260009084015b828210156108455783829060005260206000209060030201604051806060016040529081600082015481526020016001820180546107a29061127e565b80601f01602080910402602001604051908101604052809291908181526020018280546107ce9061127e565b801561081b5780601f106107f05761010080835404028352916020019161081b565b820191906000526020600020905b8154815290600101906020018083116107fe57829003601f168201915b50505091835250506002919091015460ff1615156020918201529082526001929092019101610765565b5050505081526020016004820180548060200260200160405190810160405280929190818152602001828054801561089c57602002820191906000526020600020905b815481526020019060010190808311610888575b50505050508152505091505061021f565b806108b7816112b9565b9150506105db565b5060405162461bcd60e51b8152602060048201526024808201527f526563697065206e6f7420666f756e6420666f7220746861742070726f6475636044820152631d08125160e21b606482015260840160405180910390fd5b6000546001600160a01b0316331461092f57600080fd5b6001600160a01b03166000908152600160205260409020805460ff19169055565b60005b6004548110156109f9578260405160200161096e919061106a565b60405160208183030381529060405280519060200120600482815481106109a557634e487b7160e01b600052603260045260246000fd5b90600052602060002090600302016001016040516020016109c69190611086565b6040516020818303038152906040528051906020012014156109e757600080fd5b806109f1816112b9565b915050610953565b5060008381526002602090815260408083208054600180820183559185528385200180546001600160a01b0319166001600160a01b0387161790558151606081018352878152808401878152818401839052888652600385529290942084518155915180519293610a709392850192910190610b3c565b506040918201516002909101805491151560ff19909216919091179055805160608101825284815260208082018581526001938301849052600480549485018155600052825160039094027f8a35acfbc15ff81a39ae7d344fd709f28e8600b4aa8c65c6b64bfe7fe36bd19b810194855590518051939493610b1b937f8a35acfbc15ff81a39ae7d344fd709f28e8600b4aa8c65c6b64bfe7fe36bd19c909301929190910190610b3c565b50604091909101516002909101805460ff1916911515919091179055505050565b828054610b489061127e565b90600052602060002090601f016020900481019282610b6a5760008555610bb0565b82601f10610b8357805160ff1916838001178555610bb0565b82800160010185558215610bb0579182015b82811115610bb0578251825591602001919060010190610b95565b50610bbc929150610cba565b5090565b828054610bcc9061127e565b90600052602060002090601f016020900481019282610bee5760008555610bb0565b82601f10610bff5780548555610bb0565b82800160010185558215610bb057600052602060002091601f016020900482015b82811115610bb0578254825591600101919060010190610c20565b828054828255906000526020600020908101928215610bb05791602002820182811115610bb0578251825591602001919060010190610b95565b6040518060600160405280610ca6604051806060016040528060008152602001606081526020016000151581525090565b815260200160608152602001606081525090565b5b80821115610bbc5760008155600101610cbb565b80356001600160a01b038116811461021f57600080fd5b600082601f830112610cf6578081fd5b81356020610d0b610d068361122b565b6111fb565b8281528181019085830183850287018401881015610d27578586fd5b855b85811015610d4557813584529284019290840190600101610d29565b5090979650505050505050565b600082601f830112610d62578081fd5b81356001600160401b03811115610d7b57610d7b6112e0565b610d8e601f8201601f19166020016111fb565b818152846020838601011115610da2578283fd5b816020850160208301379081016020019190915292915050565b600060208284031215610dcd578081fd5b610dd682610ccf565b9392505050565b60008060408385031215610def578081fd5b610df883610ccf565b946020939093013593505050565b600060208284031215610e17578081fd5b5035919050565b600080600060608486031215610e32578081fd5b8335925060208401356001600160401b03811115610e4e578182fd5b610e5a86828701610d52565b925050610e6960408501610ccf565b90509250925092565b60008060008060808587031215610e87578081fd5b8435935060208501356001600160401b0380821115610ea4578283fd5b610eb088838901610d52565b94506040870135915080821115610ec5578283fd5b818701915087601f830112610ed8578283fd5b610ee5610d06833561122b565b82358152602080820191908401855b8535811015610f7c57813586016060818e03601f19011215610f14578788fd5b610f1e60606111fb565b60208201358152604082013587811115610f3657898afd5b610f458f602083860101610d52565b602083015250606082013591508115158214610f5f578889fd5b604081019190915284526020938401939190910190600101610ef4565b5090955050506060870135915080821115610f95578283fd5b50610fa287828801610ce6565b91505092959194509250565b60008060408385031215610fc0578182fd5b50508035926020909101359150565b6000815180845260208085019450808401835b83811015610ffe57815187529582019590820190600101610fe2565b509495945050505050565b6000815180845261102181602086016020860161124e565b601f01601f19169290920160200192915050565b6000815183526020820151606060208501526110546060850182611009565b6040938401511515949093019390935250919050565b6000825161107c81846020870161124e565b9190910192915050565b81546000908190600281046001808316806110a257607f831692505b60208084108214156110c257634e487b7160e01b87526022600452602487fd5b8180156110d657600181146110e757611113565b60ff19861689528489019650611113565b60008a815260209020885b8681101561110b5781548b8201529085019083016110f2565b505084890196505b509498975050505050505050565b600060208252610dd66020830184611035565b6000602080835283516060828501526111506080850182611035565b82860151601f19868303810160408801528151808452929350908401918385019080860285018601875b828110156111a65784878303018452611194828751611035565b9588019593880193915060010161117a565b5060408a01519650838982030160608a01526111c28188610fcf565b9a9950505050505050505050565b6000848252606060208301526111e96060830185611009565b90508215156040830152949350505050565b604051601f8201601f191681016001600160401b0381118282101715611223576112236112e0565b604052919050565b60006001600160401b03821115611244576112446112e0565b5060209081020190565b60005b83811015611269578181015183820152602001611251565b83811115611278576000848401525b50505050565b60028104600182168061129257607f821691505b602082108114156112b357634e487b7160e01b600052602260045260246000fd5b50919050565b60006000198214156112d957634e487b7160e01b81526011600452602481fd5b5060010190565b634e487b7160e01b600052604160045260246000fdfea26469706673582212203324cbc59caa0455642c4f9b1e18c50194dde252c0690a086f7915b87d27a2e564736f6c63430008020033",
  "immutableReferences": {},
  "source": "// SPDX-License-Identifier: MIT\npragma solidity ^0.8;\npragma experimental ABIEncoderV2;\n\ncontract ProductContract {\n    address public networkOwner = msg.sender;\n    struct Product {\n        uint productId;\n        string productName;\n        bool exist;\n    }\n    struct Recipe {\n        Product supply;\n        Product[] prerequisites;\n        uint[] quantities;\n    }\n    mapping(address => bool) companies;\n    mapping(uint => address[]) public productOwners;\n    mapping(uint => Product) public listOfProducts;\n    Product[] public products;\n    mapping(address => Recipe[]) public companyRecipes;\n    function getProductLength() public view returns (uint) {\n        return products.length;\n    }\n    function getProductOwnerLength(uint productId) public view returns (uint) {\n        return productOwners[productId].length;\n    }\n    function addCompany(address owner) public {\n        require(msg.sender == networkOwner);\n        companies[owner] = true;\n    }\n    function deleteCompany(address owner) public {\n        require(msg.sender == networkOwner);\n        companies[owner] = false;\n    }\n    function addProduct(uint productId, string memory productName, address owner) private {\n        for(uint i = 0; i < products.length; i++) {\n            if(keccak256(abi.encodePacked(products[i].productName)) == keccak256(abi.encodePacked(productName))) {\n                revert();\n            }\n        }\n        productOwners[productId].push(owner);\n        // companies[owner].listOfSupply.push(Product({\n        //     productId: productId,\n        //     productName: productName,\n        //     exist: true\n        // }));\n        listOfProducts[productId] = Product({\n            productId: productId,\n            productName: productName,\n            exist: true\n        });\n        products.push(Product({\n            productId: productId,\n            productName: productName,\n            exist: true\n        }));\n    }\n    function addProductWithoutRecipe(uint productId, string memory productName, address owner) public {\n        require(msg.sender == networkOwner);\n        addProduct(productId, productName, owner);\n    }\n    function addProductWithRecipe(uint productId, string memory productName, Product[] memory prerequisiteSupplies, uint[] memory quantityPrerequisiteSupplies) public {\n        require(companies[msg.sender]);\n        addProduct(productId, productName, msg.sender);\n        Recipe storage recipe = companyRecipes[msg.sender].push();\n        for(uint i = 0; i < prerequisiteSupplies.length; i++) {\n            recipe.prerequisites.push(prerequisiteSupplies[i]);\n        }\n        recipe.supply = listOfProducts[productId];\n        recipe.quantities = quantityPrerequisiteSupplies;\n    }\n    function getRecipe(uint productId) public view returns (Recipe memory) {\n        require(companies[msg.sender]);\n        for(uint i = 0; i < companyRecipes[msg.sender].length; i++) {\n            if(companyRecipes[msg.sender][i].supply.productId == productId) {\n                return companyRecipes[msg.sender][i];\n            }\n        }\n        revert(\"Recipe not found for that product ID\");\n    }\n}",
  "sourcePath": "/Users/darennathanieljanto/Documents/GitHub/fyp-contract-v2/contracts/ProductContract.sol",
  "compiler": {
    "name": "solc",
    "version": "0.8.2+commit.661d1103.Emscripten.clang"
  },
  "schemaVersion": "3.4.15",
  "updatedAt": "2023-10-20T07:43:25.319Z",
  "networkType": "ethereum",
  "devdoc": {
    "kind": "dev",
    "methods": {},
    "version": 1
  },
  "userdoc": {
    "kind": "user",
    "methods": {},
    "version": 1
  }
}