{
  "contractName": "SupplyChainNetwork",
  "abi": [
    {
      "anonymous": false,
      "inputs": [
        {
          "indexed": false,
          "internalType": "uint256",
          "name": "id",
          "type": "uint256"
        },
        {
          "indexed": false,
          "internalType": "address",
          "name": "from",
          "type": "address"
        },
        {
          "indexed": false,
          "internalType": "address",
          "name": "to",
          "type": "address"
        },
        {
          "indexed": false,
          "internalType": "uint256",
          "name": "productId",
          "type": "uint256"
        },
        {
          "indexed": false,
          "internalType": "enum SupplyChainNetwork.STATE",
          "name": "state",
          "type": "uint8"
        },
        {
          "indexed": false,
          "internalType": "uint256",
          "name": "timestamp",
          "type": "uint256"
        }
      ],
      "name": "Contracts",
      "type": "event"
    },
    {
      "anonymous": false,
      "inputs": [
        {
          "indexed": false,
          "internalType": "uint256",
          "name": "requestId",
          "type": "uint256"
        },
        {
          "indexed": false,
          "internalType": "address",
          "name": "from",
          "type": "address"
        },
        {
          "indexed": false,
          "internalType": "address",
          "name": "to",
          "type": "address"
        },
        {
          "indexed": false,
          "internalType": "uint256",
          "name": "productId",
          "type": "uint256"
        },
        {
          "indexed": false,
          "internalType": "uint256",
          "name": "quantity",
          "type": "uint256"
        },
        {
          "indexed": false,
          "internalType": "enum SupplyChainNetwork.STATE",
          "name": "state",
          "type": "uint8"
        },
        {
          "indexed": false,
          "internalType": "uint256",
          "name": "timestamp",
          "type": "uint256"
        }
      ],
      "name": "Requests",
      "type": "event"
    },
    {
      "inputs": [
        {
          "internalType": "address",
          "name": "",
          "type": "address"
        }
      ],
      "name": "companies",
      "outputs": [
        {
          "internalType": "address",
          "name": "owner",
          "type": "address"
        },
        {
          "internalType": "bool",
          "name": "exist",
          "type": "bool"
        },
        {
          "internalType": "string",
          "name": "name",
          "type": "string"
        }
      ],
      "stateMutability": "view",
      "type": "function",
      "constant": true
    },
    {
      "inputs": [
        {
          "internalType": "address",
          "name": "",
          "type": "address"
        },
        {
          "internalType": "uint256",
          "name": "",
          "type": "uint256"
        }
      ],
      "name": "companyPrerequisiteSupplies",
      "outputs": [
        {
          "internalType": "uint256",
          "name": "total",
          "type": "uint256"
        },
        {
          "internalType": "bool",
          "name": "exist",
          "type": "bool"
        }
      ],
      "stateMutability": "view",
      "type": "function",
      "constant": true
    },
    {
      "inputs": [
        {
          "internalType": "address",
          "name": "",
          "type": "address"
        },
        {
          "internalType": "uint256",
          "name": "",
          "type": "uint256"
        }
      ],
      "name": "companySupplies",
      "outputs": [
        {
          "internalType": "uint256",
          "name": "total",
          "type": "uint256"
        },
        {
          "internalType": "bool",
          "name": "exist",
          "type": "bool"
        }
      ],
      "stateMutability": "view",
      "type": "function",
      "constant": true
    },
    {
      "inputs": [
        {
          "internalType": "uint256",
          "name": "",
          "type": "uint256"
        }
      ],
      "name": "headCompanies",
      "outputs": [
        {
          "internalType": "address",
          "name": "owner",
          "type": "address"
        },
        {
          "internalType": "bool",
          "name": "exist",
          "type": "bool"
        },
        {
          "internalType": "string",
          "name": "name",
          "type": "string"
        }
      ],
      "stateMutability": "view",
      "type": "function",
      "constant": true
    },
    {
      "inputs": [],
      "name": "networkOwner",
      "outputs": [
        {
          "internalType": "address",
          "name": "",
          "type": "address"
        }
      ],
      "stateMutability": "view",
      "type": "function",
      "constant": true
    },
    {
      "inputs": [
        {
          "internalType": "uint256",
          "name": "",
          "type": "uint256"
        }
      ],
      "name": "pastSupplies",
      "outputs": [
        {
          "internalType": "bool",
          "name": "exist",
          "type": "bool"
        }
      ],
      "stateMutability": "view",
      "type": "function",
      "constant": true
    },
    {
      "inputs": [
        {
          "internalType": "uint256",
          "name": "",
          "type": "uint256"
        }
      ],
      "name": "productNames",
      "outputs": [
        {
          "internalType": "string",
          "name": "",
          "type": "string"
        }
      ],
      "stateMutability": "view",
      "type": "function",
      "constant": true
    },
    {
      "inputs": [
        {
          "internalType": "address",
          "name": "owner",
          "type": "address"
        }
      ],
      "name": "getCompany",
      "outputs": [
        {
          "components": [
            {
              "internalType": "address",
              "name": "owner",
              "type": "address"
            },
            {
              "internalType": "bool",
              "name": "exist",
              "type": "bool"
            },
            {
              "internalType": "string",
              "name": "name",
              "type": "string"
            },
            {
              "internalType": "uint256[]",
              "name": "listOfSupply",
              "type": "uint256[]"
            },
            {
              "internalType": "uint256[]",
              "name": "listOfPrerequisites",
              "type": "uint256[]"
            },
            {
              "internalType": "address[]",
              "name": "upstream",
              "type": "address[]"
            },
            {
              "components": [
                {
                  "internalType": "address",
                  "name": "companyId",
                  "type": "address"
                },
                {
                  "internalType": "uint256",
                  "name": "productId",
                  "type": "uint256"
                }
              ],
              "internalType": "struct SupplyChainNetwork.CompanyProduct[]",
              "name": "downstream",
              "type": "tuple[]"
            },
            {
              "components": [
                {
                  "internalType": "uint256",
                  "name": "id",
                  "type": "uint256"
                },
                {
                  "internalType": "address",
                  "name": "from",
                  "type": "address"
                },
                {
                  "internalType": "address",
                  "name": "to",
                  "type": "address"
                },
                {
                  "internalType": "uint256",
                  "name": "productId",
                  "type": "uint256"
                },
                {
                  "internalType": "uint256",
                  "name": "quantity",
                  "type": "uint256"
                }
              ],
              "internalType": "struct SupplyChainNetwork.Request[]",
              "name": "incomingRequests",
              "type": "tuple[]"
            },
            {
              "components": [
                {
                  "internalType": "uint256",
                  "name": "id",
                  "type": "uint256"
                },
                {
                  "internalType": "address",
                  "name": "from",
                  "type": "address"
                },
                {
                  "internalType": "address",
                  "name": "to",
                  "type": "address"
                },
                {
                  "internalType": "uint256",
                  "name": "productId",
                  "type": "uint256"
                },
                {
                  "internalType": "uint256",
                  "name": "quantity",
                  "type": "uint256"
                }
              ],
              "internalType": "struct SupplyChainNetwork.Request[]",
              "name": "outgoingRequests",
              "type": "tuple[]"
            },
            {
              "components": [
                {
                  "internalType": "uint256",
                  "name": "id",
                  "type": "uint256"
                },
                {
                  "internalType": "address",
                  "name": "from",
                  "type": "address"
                },
                {
                  "internalType": "address",
                  "name": "to",
                  "type": "address"
                },
                {
                  "internalType": "uint256",
                  "name": "productId",
                  "type": "uint256"
                }
              ],
              "internalType": "struct SupplyChainNetwork.CompanyContract[]",
              "name": "incomingContract",
              "type": "tuple[]"
            },
            {
              "components": [
                {
                  "internalType": "uint256",
                  "name": "id",
                  "type": "uint256"
                },
                {
                  "internalType": "address",
                  "name": "from",
                  "type": "address"
                },
                {
                  "internalType": "address",
                  "name": "to",
                  "type": "address"
                },
                {
                  "internalType": "uint256",
                  "name": "productId",
                  "type": "uint256"
                }
              ],
              "internalType": "struct SupplyChainNetwork.CompanyContract[]",
              "name": "outgoingContract",
              "type": "tuple[]"
            }
          ],
          "internalType": "struct SupplyChainNetwork.Company",
          "name": "",
          "type": "tuple"
        }
      ],
      "stateMutability": "view",
      "type": "function",
      "constant": true
    },
    {
      "inputs": [
        {
          "internalType": "address",
          "name": "owner",
          "type": "address"
        },
        {
          "internalType": "string",
          "name": "name",
          "type": "string"
        }
      ],
      "name": "addCompany",
      "outputs": [],
      "stateMutability": "nonpayable",
      "type": "function"
    },
    {
      "inputs": [],
      "name": "getHeadCompaniesLength",
      "outputs": [
        {
          "internalType": "uint256",
          "name": "",
          "type": "uint256"
        }
      ],
      "stateMutability": "view",
      "type": "function",
      "constant": true
    },
    {
      "inputs": [
        {
          "internalType": "uint256",
          "name": "productId",
          "type": "uint256"
        },
        {
          "internalType": "string",
          "name": "productName",
          "type": "string"
        },
        {
          "internalType": "address",
          "name": "company_address",
          "type": "address"
        }
      ],
      "name": "addProduct",
      "outputs": [],
      "stateMutability": "nonpayable",
      "type": "function"
    },
    {
      "inputs": [
        {
          "internalType": "uint256",
          "name": "supplyId",
          "type": "uint256"
        }
      ],
      "name": "getPastSupply",
      "outputs": [
        {
          "internalType": "uint256[]",
          "name": "",
          "type": "uint256[]"
        }
      ],
      "stateMutability": "view",
      "type": "function",
      "constant": true
    },
    {
      "inputs": [
        {
          "internalType": "uint256",
          "name": "productId",
          "type": "uint256"
        }
      ],
      "name": "getSupply",
      "outputs": [
        {
          "components": [
            {
              "internalType": "uint256",
              "name": "total",
              "type": "uint256"
            },
            {
              "internalType": "uint256[]",
              "name": "supplyId",
              "type": "uint256[]"
            },
            {
              "internalType": "uint256[]",
              "name": "quantities",
              "type": "uint256[]"
            },
            {
              "internalType": "bool",
              "name": "exist",
              "type": "bool"
            }
          ],
          "internalType": "struct SupplyChainNetwork.Supply",
          "name": "",
          "type": "tuple"
        }
      ],
      "stateMutability": "view",
      "type": "function",
      "constant": true
    },
    {
      "inputs": [
        {
          "internalType": "uint256",
          "name": "productId",
          "type": "uint256"
        }
      ],
      "name": "getPrerequisiteSupply",
      "outputs": [
        {
          "components": [
            {
              "internalType": "uint256",
              "name": "total",
              "type": "uint256"
            },
            {
              "internalType": "uint256[]",
              "name": "supplyId",
              "type": "uint256[]"
            },
            {
              "internalType": "uint256[]",
              "name": "quantities",
              "type": "uint256[]"
            },
            {
              "internalType": "bool",
              "name": "exist",
              "type": "bool"
            }
          ],
          "internalType": "struct SupplyChainNetwork.Supply",
          "name": "",
          "type": "tuple"
        }
      ],
      "stateMutability": "view",
      "type": "function",
      "constant": true
    },
    {
      "inputs": [
        {
          "internalType": "uint256",
          "name": "productId",
          "type": "uint256"
        },
        {
          "internalType": "uint256",
          "name": "numberOfSupply",
          "type": "uint256"
        },
        {
          "internalType": "uint256",
          "name": "supplyId",
          "type": "uint256"
        }
      ],
      "name": "convertToSupply",
      "outputs": [],
      "stateMutability": "nonpayable",
      "type": "function"
    },
    {
      "inputs": [
        {
          "internalType": "uint256",
          "name": "newSupplyProductId",
          "type": "uint256"
        },
        {
          "internalType": "uint256",
          "name": "numberOfNewSupply",
          "type": "uint256"
        },
        {
          "internalType": "uint256",
          "name": "newSupplyId",
          "type": "uint256"
        },
        {
          "internalType": "uint256[]",
          "name": "prerequisiteProductIds",
          "type": "uint256[]"
        },
        {
          "internalType": "uint256[]",
          "name": "prerequisiteSupplyIds",
          "type": "uint256[]"
        },
        {
          "internalType": "uint256[]",
          "name": "prerequisiteQuantities",
          "type": "uint256[]"
        }
      ],
      "name": "convertPrerequisiteToSupply",
      "outputs": [],
      "stateMutability": "nonpayable",
      "type": "function"
    },
    {
      "inputs": [
        {
          "components": [
            {
              "internalType": "uint256",
              "name": "id",
              "type": "uint256"
            },
            {
              "internalType": "address",
              "name": "from",
              "type": "address"
            },
            {
              "internalType": "address",
              "name": "to",
              "type": "address"
            },
            {
              "internalType": "uint256",
              "name": "productId",
              "type": "uint256"
            },
            {
              "internalType": "uint256",
              "name": "quantity",
              "type": "uint256"
            }
          ],
          "internalType": "struct SupplyChainNetwork.Request",
          "name": "request",
          "type": "tuple"
        }
      ],
      "name": "sendRequest",
      "outputs": [],
      "stateMutability": "nonpayable",
      "type": "function"
    },
    {
      "inputs": [
        {
          "components": [
            {
              "internalType": "uint256",
              "name": "id",
              "type": "uint256"
            },
            {
              "internalType": "address",
              "name": "from",
              "type": "address"
            },
            {
              "internalType": "address",
              "name": "to",
              "type": "address"
            },
            {
              "internalType": "uint256",
              "name": "productId",
              "type": "uint256"
            },
            {
              "internalType": "uint256",
              "name": "quantity",
              "type": "uint256"
            }
          ],
          "internalType": "struct SupplyChainNetwork.Request",
          "name": "request",
          "type": "tuple"
        },
        {
          "internalType": "uint256[]",
          "name": "supplyIds",
          "type": "uint256[]"
        },
        {
          "internalType": "uint256[]",
          "name": "quantities",
          "type": "uint256[]"
        }
      ],
      "name": "approveRequest",
      "outputs": [],
      "stateMutability": "nonpayable",
      "type": "function"
    },
    {
      "inputs": [
        {
          "components": [
            {
              "internalType": "uint256",
              "name": "id",
              "type": "uint256"
            },
            {
              "internalType": "address",
              "name": "from",
              "type": "address"
            },
            {
              "internalType": "address",
              "name": "to",
              "type": "address"
            },
            {
              "internalType": "uint256",
              "name": "productId",
              "type": "uint256"
            },
            {
              "internalType": "uint256",
              "name": "quantity",
              "type": "uint256"
            }
          ],
          "internalType": "struct SupplyChainNetwork.Request",
          "name": "request",
          "type": "tuple"
        }
      ],
      "name": "declineRequest",
      "outputs": [],
      "stateMutability": "nonpayable",
      "type": "function"
    },
    {
      "inputs": [
        {
          "components": [
            {
              "internalType": "uint256",
              "name": "id",
              "type": "uint256"
            },
            {
              "internalType": "address",
              "name": "from",
              "type": "address"
            },
            {
              "internalType": "address",
              "name": "to",
              "type": "address"
            },
            {
              "internalType": "uint256",
              "name": "productId",
              "type": "uint256"
            }
          ],
          "internalType": "struct SupplyChainNetwork.CompanyContract",
          "name": "companyContract",
          "type": "tuple"
        }
      ],
      "name": "sendContract",
      "outputs": [],
      "stateMutability": "nonpayable",
      "type": "function"
    },
    {
      "inputs": [
        {
          "components": [
            {
              "internalType": "uint256",
              "name": "id",
              "type": "uint256"
            },
            {
              "internalType": "address",
              "name": "from",
              "type": "address"
            },
            {
              "internalType": "address",
              "name": "to",
              "type": "address"
            },
            {
              "internalType": "uint256",
              "name": "productId",
              "type": "uint256"
            }
          ],
          "internalType": "struct SupplyChainNetwork.CompanyContract",
          "name": "companyContract",
          "type": "tuple"
        }
      ],
      "name": "approveContract",
      "outputs": [],
      "stateMutability": "nonpayable",
      "type": "function"
    },
    {
      "inputs": [
        {
          "components": [
            {
              "internalType": "uint256",
              "name": "id",
              "type": "uint256"
            },
            {
              "internalType": "address",
              "name": "from",
              "type": "address"
            },
            {
              "internalType": "address",
              "name": "to",
              "type": "address"
            },
            {
              "internalType": "uint256",
              "name": "productId",
              "type": "uint256"
            }
          ],
          "internalType": "struct SupplyChainNetwork.CompanyContract",
          "name": "companyContract",
          "type": "tuple"
        }
      ],
      "name": "declineContract",
      "outputs": [],
      "stateMutability": "nonpayable",
      "type": "function"
    }
  ],
  "bytecode": "0x6080604052600080546001600160a01b0319163317905534801561002257600080fd5b50614bf2806100326000396000f3fe608060405234801561001057600080fd5b50600436106101125760003560e01c80632e1b181e14610117578063355e6ce814610147578063460c7d6314610169578063461a218a1461019f5780634f36e0b3146101b45780635bd9668c146101c557806360349e03146101d857806362bc56e6146101eb5780636cbcb9ad1461020b57806376d1094f1461021e5780637d7a14341461023157806389f3fecf146102445780638f96fedf1461025757806391c103f71461026a578063aca0ad791461028a578063b33cf82b146102d1578063de449555146102e4578063e595028214610319578063e6f4cc1814610339578063ed234e2014610359578063f77ee79d1461036c578063fa309ae61461037f575b600080fd5b60005461012a906001600160a01b031681565b6040516001600160a01b0390911681526020015b60405180910390f35b61015a6101553660046142c2565b610392565b60405161013e939291906147ec565b61018f610177366004614438565b60066020526000908152604090206001015460ff1681565b604051901515815260200161013e565b6101b26101ad3660046143ac565b61044e565b005b60045460405190815260200161013e565b6101b26101d3366004614357565b610912565b61015a6101e6366004614438565b6109fe565b6101fe6101f93660046142c2565b610a48565b60405161013e9190614847565b6101b2610219366004614357565b610f5d565b6101b261022c366004614357565b6113f8565b6101b261023f3660046144a4565b611c21565b6101b2610252366004614450565b611d82565b6101b26102653660046143c7565b611f10565b61027d610278366004614438565b612d0d565b60405161013e9190614821565b6102bc61029836600461432e565b60036020818152600093845260408085209091529183529120805491015460ff1682565b6040805192835290151560208301520161013e565b6101b26102df3660046143ac565b612d8e565b6102bc6102f236600461432e565b60026020908152600092835260408084209091529082529020805460039091015460ff1682565b61032c610327366004614438565b612e86565b60405161013e9190614834565b61034c610347366004614438565b612f32565b60405161013e9190614985565b6101b26103673660046142e3565b61304a565b61034c61037a366004614438565b613209565b6101b261038d3660046144cf565b613324565b6001602081905260009182526040909120805491810180546001600160a01b03841693600160a01b900460ff169291906103cb90614afa565b80601f01602080910402602001604051908101604052809291908181526020018280546103f790614afa565b80156104445780601f1061041957610100808354040283529160200191610444565b820191906000526020600020905b81548152906001019060200180831161042757829003601f168201915b5050505050905083565b60408101516001600160a01b0316331461046757600080fd5b60005b6020808301516001600160a01b03166000908152600190915260409020600701548110156106185781516020808401516001600160a01b031660009081526001909152604090206007018054839081106104d457634e487b7160e01b600052603260045260246000fd5b906000526020600020906005020160000154141561060657602080830180516001600160a01b0390811660009081526001938490526040808220935190921681522060079081015491019161052891614ab7565b8154811061054657634e487b7160e01b600052603260045260246000fd5b90600052602060002090600502016001600084602001516001600160a01b03166001600160a01b03168152602001908152602001600020600701828154811061059f57634e487b7160e01b600052603260045260246000fd5b60009182526020909120825460059092020190815560018083015490820180546001600160a01b039283166001600160a01b031991821617909155600280850154908401805491909316911617905560038083015490820155600491820154910155610618565b8061061081614b35565b91505061046a565b506020808201516001600160a01b0316600090815260019091526040902060070180548061065657634e487b7160e01b600052603160045260246000fd5b6000828152602081206005600019909301928302018181556001810180546001600160a01b031990811690915560028201805490911690556003810182905560040181905591555b6040808301516001600160a01b03166000908152600160205220600601548110156108485781516040808401516001600160a01b0316600090815260016020522060060180548390811061070257634e487b7160e01b600052603260045260246000fd5b906000526020600020906005020160000154141561083657604080830180516001600160a01b03908116600090815260016020819052848220935190921681529290922060069081015491019161075891614ab7565b8154811061077657634e487b7160e01b600052603260045260246000fd5b90600052602060002090600502016001600084604001516001600160a01b03166001600160a01b0316815260200190815260200160002060060182815481106107cf57634e487b7160e01b600052603260045260246000fd5b60009182526020909120825460059092020190815560018083015490820180546001600160a01b039283166001600160a01b031991821617909155600280850154908401805491909316911617905560038083015490820155600491820154910155610848565b8061084081614b35565b91505061069e565b506040808201516001600160a01b0316600090815260016020522060060180548061088357634e487b7160e01b600052603160045260246000fd5b60008281526020808220600560001990940193840201828155600181810180546001600160a01b031990811690915560028301805490911690556003820184905560049091019290925591909255825190830151604080850151606086015160808701519251600080516020614b7d83398151915296610907969594914290614a24565b60405180910390a150565b80602001516001600160a01b0316336001600160a01b03161461093457600080fd5b602080820180516001600160a01b039081166000908152600180855260408083206009018054808401825590845286842088516004928302909101908155865181850180549188166001600160a01b0319928316179055838a01805160028085018054928b169285168317905560608d018051600396870155918952958820600801805480890182559089529a9097209a51999093029099019788559551928701805493861693891693909317909255905190850180549190931695169490941790559151910155565b60048181548110610a0e57600080fd5b60009182526020909120600a9091020180546001820180546001600160a01b0383169450600160a01b90920460ff1692916103cb90614afa565b610ab060405180610160016040528060006001600160a01b031681526020016000151581526020016060815260200160608152602001606081526020016060815260200160608152602001606081526020016060815260200160608152602001606081525090565b6001600160a01b0382811660009081526001602081815260409283902083516101608101855281549586168152600160a01b90950460ff1615159185019190915290810180549192840191610b0490614afa565b80601f0160208091040260200160405190810160405280929190818152602001828054610b3090614afa565b8015610b7d5780601f10610b5257610100808354040283529160200191610b7d565b820191906000526020600020905b815481529060010190602001808311610b6057829003601f168201915b5050505050815260200160028201805480602002602001604051908101604052809291908181526020018280548015610bd557602002820191906000526020600020905b815481526020019060010190808311610bc1575b5050505050815260200160038201805480602002602001604051908101604052809291908181526020018280548015610c2d57602002820191906000526020600020905b815481526020019060010190808311610c19575b5050505050815260200160048201805480602002602001604051908101604052809291908181526020018280548015610c8f57602002820191906000526020600020905b81546001600160a01b03168152600190910190602001808311610c71575b5050505050815260200160058201805480602002602001604051908101604052809291908181526020016000905b82821015610d05576000848152602090819020604080518082019091526002850290910180546001600160a01b03168252600190810154828401529083529092019101610cbd565b50505050815260200160068201805480602002602001604051908101604052809291908181526020016000905b82821015610d9c5760008481526020908190206040805160a08101825260058602909201805483526001808201546001600160a01b039081168587015260028301541692840192909252600381015460608401526004015460808301529083529092019101610d32565b50505050815260200160078201805480602002602001604051908101604052809291908181526020016000905b82821015610e335760008481526020908190206040805160a08101825260058602909201805483526001808201546001600160a01b039081168587015260028301541692840192909252600381015460608401526004015460808301529083529092019101610dc9565b50505050815260200160088201805480602002602001604051908101604052809291908181526020016000905b82821015610ec05760008481526020908190206040805160808101825260048602909201805483526001808201546001600160a01b0390811685870152600283015416928401929092526003015460608301529083529092019101610e60565b50505050815260200160098201805480602002602001604051908101604052809291908181526020016000905b82821015610f4d5760008481526020908190206040805160808101825260048602909201805483526001808201546001600160a01b0390811685870152600283015416928401929092526003015460608301529083529092019101610eed565b505050508152505090505b919050565b80604001516001600160a01b0316336001600160a01b031614610f7f57600080fd5b60005b6020808301516001600160a01b03166000908152600190915260409020600901548110156111265781516020808401516001600160a01b03166000908152600190915260409020600901805483908110610fec57634e487b7160e01b600052603260045260246000fd5b906000526020600020906004020160000154141561111457602080830180516001600160a01b0390811660009081526001938490526040808220935190921681522060099081015491019161104091614ab7565b8154811061105e57634e487b7160e01b600052603260045260246000fd5b90600052602060002090600402016001600084602001516001600160a01b03166001600160a01b0316815260200190815260200160002060090182815481106110b757634e487b7160e01b600052603260045260246000fd5b60009182526020909120825460049092020190815560018083015490820180546001600160a01b039283166001600160a01b0319918216179091556002808501549084018054919093169116179055600391820154910155611126565b8061111e81614b35565b915050610f82565b506020808201516001600160a01b0316600090815260019091526040902060090180548061116457634e487b7160e01b600052603160045260246000fd5b6000828152602081206004600019909301928302018181556001810180546001600160a01b0319908116909155600282018054909116905560030181905591555b6040808301516001600160a01b03166000908152600160205220600801548110156113455781516040808401516001600160a01b0316600090815260016020522060080180548390811061120957634e487b7160e01b600052603260045260246000fd5b906000526020600020906004020160000154141561133357604080830180516001600160a01b03908116600090815260016020819052848220935190921681529290922060089081015491019161125f91614ab7565b8154811061127d57634e487b7160e01b600052603260045260246000fd5b90600052602060002090600402016001600084604001516001600160a01b03166001600160a01b0316815260200190815260200160002060080182815481106112d657634e487b7160e01b600052603260045260246000fd5b60009182526020909120825460049092020190815560018083015490820180546001600160a01b039283166001600160a01b0319918216179091556002808501549084018054919093169116179055600391820154910155611345565b8061133d81614b35565b9150506111a5565b506040808201516001600160a01b0316600090815260016020522060080180548061138057634e487b7160e01b600052603160045260246000fd5b60008281526020808220600460001990940193840201828155600181810180546001600160a01b031990811690915560028301805490911690556003909101929092559190925582519083015160408085015160608601519151600080516020614b9d833981519152956109079594939142906149e1565b80604001516001600160a01b0316336001600160a01b03161461141a57600080fd5b602080820180516001600160a01b0390811660009081526003808552604080832060608801805185529087528184208301805460ff191660019081179091558651861685528088528285208251940180548083018255908652888620019390935585518516845281842082518084018452838a018051881682529251818a019081526005909201805480870182559087528987209151600290910290910180549188166001600160a01b03199283161781559151918501919091559051851684528287529083209451600490950180549283018155835294822001805493909216929093169190911790555b6004548110156117ab57336001600160a01b03166004828154811061153b57634e487b7160e01b600052603260045260246000fd5b60009182526020909120600a90910201546001600160a01b03161415611799576004805461156b90600190614ab7565b8154811061158957634e487b7160e01b600052603260045260246000fd5b90600052602060002090600a0201600482815481106115b857634e487b7160e01b600052603260045260246000fd5b600091825260209091208254600a9092020180546001600160a01b0319166001600160a01b0390921691909117808255825460ff600160a01b918290041615150260ff60a01b19909116178155600180830180549183019161161990614afa565b611624929190613c9f565b50600282810180546116399284019190613d2a565b506003828101805461164e9284019190613d2a565b50600482810180546116639284019190613d2a565b50600582810180546116789284019190613d69565b506006828101805461168d9284019190613ddd565b50600782810180546116a29284019190613ddd565b50600882810180546116b79284019190613e7d565b50600982810180546116cc9284019190613e7d565b5090505060048054806116ef57634e487b7160e01b600052603160045260246000fd5b600082815260208120600a6000199093019283020180546001600160a81b0319168155906117206001830182613f13565b61172e600283016000613f52565b61173c600383016000613f52565b61174a600483016000613f52565b611758600583016000613f70565b611766600683016000613f91565b611774600783016000613f91565b611782600883016000613fb2565b611790600983016000613fb2565b505090556117ab565b806117a381614b35565b915050611506565b5060005b6020808301516001600160a01b03166000908152600190915260409020600901548110156119535781516020808401516001600160a01b0316600090815260019091526040902060090180548390811061181957634e487b7160e01b600052603260045260246000fd5b906000526020600020906004020160000154141561194157602080830180516001600160a01b0390811660009081526001938490526040808220935190921681522060099081015491019161186d91614ab7565b8154811061188b57634e487b7160e01b600052603260045260246000fd5b90600052602060002090600402016001600084602001516001600160a01b03166001600160a01b0316815260200190815260200160002060090182815481106118e457634e487b7160e01b600052603260045260246000fd5b60009182526020909120825460049092020190815560018083015490820180546001600160a01b039283166001600160a01b0319918216179091556002808501549084018054919093169116179055600391820154910155611953565b8061194b81614b35565b9150506117af565b506020808201516001600160a01b0316600090815260019091526040902060090180548061199157634e487b7160e01b600052603160045260246000fd5b6000828152602081206004600019909301928302018181556001810180546001600160a01b0319908116909155600282018054909116905560030181905591555b6040808301516001600160a01b0316600090815260016020522060080154811015611b725781516040808401516001600160a01b03166000908152600160205220600801805483908110611a3657634e487b7160e01b600052603260045260246000fd5b9060005260206000209060040201600001541415611b6057604080830180516001600160a01b039081166000908152600160208190528482209351909216815292909220600890810154910191611a8c91614ab7565b81548110611aaa57634e487b7160e01b600052603260045260246000fd5b90600052602060002090600402016001600084604001516001600160a01b03166001600160a01b031681526020019081526020016000206008018281548110611b0357634e487b7160e01b600052603260045260246000fd5b60009182526020909120825460049092020190815560018083015490820180546001600160a01b039283166001600160a01b0319918216179091556002808501549084018054919093169116179055600391820154910155611b72565b80611b6a81614b35565b9150506119d2565b506040808201516001600160a01b03166000908152600160205220600801805480611bad57634e487b7160e01b600052603160045260246000fd5b600082815260208082206004600019909401938402018281556001810180546001600160a01b031990811690915560028201805490911690556003018290559190925582519083015160408085015160608601519151600080516020614b9d833981519152956109079594939142906149e1565b60005b33600090815260016020526040902060020154811015611d2457336000908152600160205260409020600201805485919083908110611c7357634e487b7160e01b600052603260045260246000fd5b90600052602060002001541415611d125733600090815260026020908152604080832087845290915281208054859290611cae908490614a9f565b9091555050336000908152600260208181526040808420888552825283206001808201805480830182559086528386200187905592810180548085018255908552918420909101869055918690526003909101805460ff1916909117905550611d7d565b80611d1c81614b35565b915050611c24565b5060405162461bcd60e51b815260206004820152602360248201527f6d73672e73656e646572206973206e6f74207468652070726f64756374206f776044820152623732b960e91b606482015260840160405180910390fd5b505050565b33600090815260016020526040902054600160a01b900460ff1680611db157506000546001600160a01b031633145b611dba57600080fd5b60005b600554811015611e5c5782604051602001611dd89190614735565b6040516020818303038152906040528051906020012060058281548110611e0f57634e487b7160e01b600052603260045260246000fd5b90600052602060002001604051602001611e299190614751565b604051602081830303815290604052805190602001201415611e4a57600080fd5b80611e5481614b35565b915050611dbd565b506000546001600160a01b0316331415611ea2576001600160a01b0381166000908152600160208181526040832060020180549283018155835290912001839055611ec7565b3360009081526001602081815260408320600201805492830181558352909120018390555b600580546001810182556000919091528251611f0a917f036b6384b5eca791c62761152d0c79bb0604c104a5fb6f4eb0703f3154bb3db001906020850190613fd3565b50505050565b60408301516001600160a01b03163314611f2957600080fd5b60005b6040808501516001600160a01b031660009081526002602090815282822060608801518352905220600101548110156121185760005b835181101561210557838181518110611f8b57634e487b7160e01b600052603260045260246000fd5b6020908102919091018101516040808801516001600160a01b031660009081526002845281812060608a01518252909352909120600101805484908110611fe257634e487b7160e01b600052603260045260246000fd5b906000526020600020015414156120f35782818151811061201357634e487b7160e01b600052603260045260246000fd5b6020908102919091018101516040808801516001600160a01b031660009081526002845281812060608a015182529093528220805491929091612057908490614ab7565b9250508190555082818151811061207e57634e487b7160e01b600052603260045260246000fd5b6020908102919091018101516040808801516001600160a01b03166000908152600280855282822060608b01518352909452209091018054849081106120d457634e487b7160e01b600052603260045260246000fd5b9060005260206000200160008282546120ed9190614ab7565b90915550505b806120fd81614b35565b915050611f62565b508061211081614b35565b915050611f2c565b506040808401516001600160a01b0316600090815260026020908152828220606087015183529052908120600101546001600160401b0381111561216c57634e487b7160e01b600052604160045260246000fd5b604051908082528060200260200182016040528015612195578160200160208202803683370190505b506040808601516001600160a01b031660009081526002602081815283832060608a01518452905291812090910154919250906001600160401b038111156121ed57634e487b7160e01b600052604160045260246000fd5b604051908082528060200260200182016040528015612216578160200160208202803683370190505b5090506000805b6040808801516001600160a01b031660009081526002602081815283832060608c01518452905291902001548110156123d1576040808801516001600160a01b031660009081526002602081815283832060608c01518452905291812090910180548390811061229d57634e487b7160e01b600052603260045260246000fd5b906000526020600020015411156123bf576040808801516001600160a01b031660009081526002602090815282822060608b015183529052206001018054829081106122f957634e487b7160e01b600052603260045260246000fd5b906000526020600020015484838151811061232457634e487b7160e01b600052603260045260246000fd5b6020908102919091018101919091526040808901516001600160a01b03166000908152600280845282822060608c01518352909352200180548290811061237b57634e487b7160e01b600052603260045260246000fd5b90600052602060002001548383815181106123a657634e487b7160e01b600052603260045260246000fd5b6020908102919091010152816123bb81614b35565b9250505b806123c981614b35565b91505061221d565b506000816001600160401b038111156123fa57634e487b7160e01b600052604160045260246000fd5b604051908082528060200260200182016040528015612423578160200160208202803683370190505b50905060005b828110156124965784818151811061245157634e487b7160e01b600052603260045260246000fd5b602002602001015182828151811061247957634e487b7160e01b600052603260045260246000fd5b60209081029190910101528061248e81614b35565b915050612429565b506040808801516001600160a01b031660009081526002602090815282822060608b01518352815291902082516124d592600190920191840190614047565b5060005b828110156125465783818151811061250157634e487b7160e01b600052603260045260246000fd5b602002602001015182828151811061252957634e487b7160e01b600052603260045260246000fd5b60209081029190910101528061253e81614b35565b9150506124d9565b506040808801516001600160a01b031660009081526002602081815283832060608c01518452815292909120835161258693919092019190840190614047565b5060005b865181101561285f576000805b6020808b01516001600160a01b0316600090815260038252604080822060608e015183529092522060010154811015612700578883815181106125ea57634e487b7160e01b600052603260045260246000fd5b6020908102919091018101518b8201516001600160a01b0316600090815260038352604080822060608f015183529093529190912060010180548390811061264257634e487b7160e01b600052603260045260246000fd5b906000526020600020015414156126ee5787838151811061267357634e487b7160e01b600052603260045260246000fd5b6020908102919091018101518b8201516001600160a01b0316600090815260038352604080822060608f01518352909352919091206002018054839081106126cb57634e487b7160e01b600052603260045260246000fd5b9060005260206000200160008282546126e49190614a9f565b9091555060019250505b806126f881614b35565b915050612597565b50806127e0576020808a01516001600160a01b0316600090815260038252604080822060608d0151835290925220885160019091019089908490811061275657634e487b7160e01b600052603260045260246000fd5b6020908102919091018101518254600181018455600093845282842001558a8101516001600160a01b0316825260038152604080832060608d01518452909152902087516002909101908890849081106127c057634e487b7160e01b600052603260045260246000fd5b602090810291909101810151825460018101845560009384529190922001555b86828151811061280057634e487b7160e01b600052603260045260246000fd5b6020908102919091018101518a8201516001600160a01b0316600090815260038352604080822060608e01518352909352918220805491929091612845908490614a9f565b90915550829150612857905081614b35565b91505061258a565b5060005b6020808901516001600160a01b0316600090815260019091526040902060070154811015612a115787516020808a01516001600160a01b031660009081526001909152604090206007018054839081106128cd57634e487b7160e01b600052603260045260246000fd5b90600052602060002090600502016000015414156129ff57602080890180516001600160a01b0390811660009081526001938490526040808220935190921681522060079081015491019161292191614ab7565b8154811061293f57634e487b7160e01b600052603260045260246000fd5b9060005260206000209060050201600160008a602001516001600160a01b03166001600160a01b03168152602001908152602001600020600701828154811061299857634e487b7160e01b600052603260045260246000fd5b60009182526020909120825460059092020190815560018083015490820180546001600160a01b039283166001600160a01b031991821617909155600280850154908401805491909316911617905560038083015490820155600491820154910155612a11565b80612a0981614b35565b915050612863565b506020808801516001600160a01b03166000908152600190915260409020600701805480612a4f57634e487b7160e01b600052603160045260246000fd5b6000828152602081206005600019909301928302018181556001810180546001600160a01b031990811690915560028201805490911690556003810182905560040181905591555b6040808901516001600160a01b0316600090815260016020522060060154811015612c415787516040808a01516001600160a01b03166000908152600160205220600601805483908110612afb57634e487b7160e01b600052603260045260246000fd5b9060005260206000209060050201600001541415612c2f57604080890180516001600160a01b039081166000908152600160208190528482209351909216815292909220600690810154910191612b5191614ab7565b81548110612b6f57634e487b7160e01b600052603260045260246000fd5b9060005260206000209060050201600160008a604001516001600160a01b03166001600160a01b031681526020019081526020016000206006018281548110612bc857634e487b7160e01b600052603260045260246000fd5b60009182526020909120825460059092020190815560018083015490820180546001600160a01b039283166001600160a01b031991821617909155600280850154908401805491909316911617905560038083015490820155600491820154910155612c41565b80612c3981614b35565b915050612a97565b506040808801516001600160a01b03166000908152600160205220600601805480612c7c57634e487b7160e01b600052603160045260246000fd5b600082815260208082206005600019909401938402018281556001810180546001600160a01b0319908116909155600282018054909116905560038101839055600401829055919092558851908901516040808b015160608c015160808d01519251600080516020614b7d83398151915296612cfc969594914290614a24565b60405180910390a150505050505050565b60008181526006602052604090206001015460609060ff16612d2e57600080fd5b60008281526006602090815260409182902080548351818402810184019094528084529091830182828015612d8257602002820191906000526020600020905b815481526020019060010190808311612d6e575b50505050509050919050565b60208101516001600160a01b03163314612da757600080fd5b602080820180516001600160a01b039081166000908152600180855260408083206007018054808401825590845286842088516005928302909101908155865181850180549188166001600160a01b0319928316179055838a01805160028085018054928b169285168317905560608d01805160038088019190915560808f018051600498890155938b52978a206006018054808b018255908b529c9099209c519b909502909b01998a559751948901805495881695821695909517909455955190870180549190951692169190911790925551908301559151910155565b60058181548110612e9657600080fd5b906000526020600020016000915090508054612eb190614afa565b80601f0160208091040260200160405190810160405280929190818152602001828054612edd90614afa565b8015612f2a5780601f10612eff57610100808354040283529160200191612f2a565b820191906000526020600020905b815481529060010190602001808311612f0d57829003601f168201915b505050505081565b612f3a614081565b336000818152600160205260409020546001600160a01b031614612f5d57600080fd5b33600090815260036020908152604080832085845282529182902082516080810184528154815260018201805485518186028101860190965280865291949293858101939290830182828015612fd257602002820191906000526020600020905b815481526020019060010190808311612fbe575b505050505081526020016002820180548060200260200160405190810160405280929190818152602001828054801561302a57602002820191906000526020600020905b815481526020019060010190808311613016575b50505091835250506003919091015460ff16151560209091015292915050565b6000546001600160a01b0316331461306157600080fd5b6001600160a01b0382166000908152600160208181526040909220835190926130909284019190850190613fd3565b50805460ff60a01b196001600160a01b038086166001600160a01b0319938416178216600160a01b908117855560048054600181810183556000929092528654600a9091027f8a35acfbc15ff81a39ae7d344fd709f28e8600b4aa8c65c6b64bfe7fe36bd19b810180549097169190941617808655865483900460ff1615159092029190931617835590830180548493927f8a35acfbc15ff81a39ae7d344fd709f28e8600b4aa8c65c6b64bfe7fe36bd19c01919061314e90614afa565b613159929190613c9f565b506002828101805461316e9284019190613d2a565b50600382810180546131839284019190613d2a565b50600482810180546131989284019190613d2a565b50600582810180546131ad9284019190613d69565b50600682810180546131c29284019190613ddd565b50600782810180546131d79284019190613ddd565b50600882810180546131ec9284019190613e7d565b50600982810180546132019284019190613e7d565b505050505050565b613211614081565b33600090815260026020908152604080832085845290915290206003015460ff1661323b57600080fd5b33600090815260026020908152604080832085845282529182902082516080810184528154815260018201805485518186028101860190965280865291949293858101939290830182828015612fd25760200282019190600052602060002090815481526020019060010190808311612fbe57505050505081526020016002820180548060200260200160405190810160405280929190818152602001828054801561302a57602002820191906000526020600020908154815260200190600101908083116130165750505091835250506003919091015460ff16151560209091015292915050565b336000818152600160205260409020546001600160a01b03161461334757600080fd5b60005b8351811015613c115760005b336000908152600360205260408120865190919087908590811061338a57634e487b7160e01b600052603260045260246000fd5b602002602001015181526020019081526020016000206001018054905081101561366b5760005b845181101561365857600087815260066020526040902085518690839081106133ea57634e487b7160e01b600052603260045260246000fd5b602090810291909101810151825460018181018555600094855283852090910191909155898352600690915260409091208101805460ff19169091179055845185908290811061344a57634e487b7160e01b600052603260045260246000fd5b602002602001015160036000336001600160a01b03166001600160a01b03168152602001908152602001600020600088868151811061349957634e487b7160e01b600052603260045260246000fd5b6020026020010151815260200190815260200160002060010183815481106134d157634e487b7160e01b600052603260045260246000fd5b906000526020600020015414156136465783818151811061350257634e487b7160e01b600052603260045260246000fd5b602002602001015160036000336001600160a01b03166001600160a01b03168152602001908152602001600020600088868151811061355157634e487b7160e01b600052603260045260246000fd5b60200260200101518152602001908152602001600020600201838154811061358957634e487b7160e01b600052603260045260246000fd5b9060005260206000200160008282546135a29190614ab7565b925050819055508381815181106135c957634e487b7160e01b600052603260045260246000fd5b602002602001015160036000336001600160a01b03166001600160a01b03168152602001908152602001600020600088868151811061361857634e487b7160e01b600052603260045260246000fd5b6020026020010151815260200190815260200160002060000160008282546136409190614ab7565b90915550505b8061365081614b35565b9150506133b1565b508061366381614b35565b915050613356565b503360009081526003602052604081208551829087908590811061369f57634e487b7160e01b600052603260045260246000fd5b60200260200101518152602001908152602001600020600101805490506001600160401b038111156136e157634e487b7160e01b600052604160045260246000fd5b60405190808252806020026020018201604052801561370a578160200160208202803683370190505b5033600090815260036020526040812087519293509091829088908690811061374357634e487b7160e01b600052603260045260246000fd5b60200260200101518152602001908152602001600020600201805490506001600160401b0381111561378557634e487b7160e01b600052604160045260246000fd5b6040519080825280602002602001820160405280156137ae578160200160208202803683370190505b5090506000805b33600090815260036020526040812089519091908a90889081106137e957634e487b7160e01b600052603260045260246000fd5b6020026020010151815260200190815260200160002060020180549050811015613a0157336000908152600360205260408120895182908b908990811061384057634e487b7160e01b600052603260045260246000fd5b60200260200101518152602001908152602001600020600201828154811061387857634e487b7160e01b600052603260045260246000fd5b906000526020600020015411156139ef5733600090815260036020526040812089519091908a90889081106138bd57634e487b7160e01b600052603260045260246000fd5b6020026020010151815260200190815260200160002060010181815481106138f557634e487b7160e01b600052603260045260246000fd5b906000526020600020015484838151811061392057634e487b7160e01b600052603260045260246000fd5b60200260200101818152505060036000336001600160a01b03166001600160a01b03168152602001908152602001600020600089878151811061397357634e487b7160e01b600052603260045260246000fd5b6020026020010151815260200190815260200160002060020181815481106139ab57634e487b7160e01b600052603260045260246000fd5b90600052602060002001548383815181106139d657634e487b7160e01b600052603260045260246000fd5b6020908102919091010152816139eb81614b35565b9250505b806139f981614b35565b9150506137b5565b506000816001600160401b03811115613a2a57634e487b7160e01b600052604160045260246000fd5b604051908082528060200260200182016040528015613a53578160200160208202803683370190505b50905060005b82811015613ac657848181518110613a8157634e487b7160e01b600052603260045260246000fd5b6020026020010151828281518110613aa957634e487b7160e01b600052603260045260246000fd5b602090810291909101015280613abe81614b35565b915050613a59565b5033600090815260036020526040812089518392908b9089908110613afb57634e487b7160e01b600052603260045260246000fd5b602002602001015181526020019081526020016000206001019080519060200190613b27929190614047565b5060005b82811015613b9857838181518110613b5357634e487b7160e01b600052603260045260246000fd5b6020026020010151828281518110613b7b57634e487b7160e01b600052603260045260246000fd5b602090810291909101015280613b9081614b35565b915050613b2b565b5033600090815260036020526040812089518392908b9089908110613bcd57634e487b7160e01b600052603260045260246000fd5b602002602001015181526020019081526020016000206002019080519060200190613bf9929190614047565b50505050508080613c0990614b35565b91505061334a565b5033600090815260026020908152604080832089845290915281208054879290613c3c908490614a9f565b90915550503360009081526002602081815260408084208a85528252832060018082018054808301825590865283862001989098559182018054808901825590845290832001969096559590955250506003909101805460ff1916909117905550565b828054613cab90614afa565b90600052602060002090601f016020900481019282613ccd5760008555613d1a565b82601f10613cde5780548555613d1a565b82800160010185558215613d1a57600052602060002091601f016020900482015b82811115613d1a578254825591600101919060010190613cff565b50613d269291506140ab565b5090565b828054828255906000526020600020908101928215613d1a57600052602060002091820182811115613d1a578254825591600101919060010190613cff565b828054828255906000526020600020906002028101928215613dd15760005260206000209160020282015b82811115613dd157825482546001600160a01b0319166001600160a01b039091161782556001808401549083015560029283019290910190613d94565b50613d269291506140c0565b828054828255906000526020600020906005028101928215613e715760005260206000209160050282015b82811115613e71578254825560018084015490830180546001600160a01b039283166001600160a01b0319918216179091556002808601549085018054919093169116179055600380840154908301556004808401549083015560059283019290910190613e08565b50613d269291506140e6565b828054828255906000526020600020906004028101928215613f075760005260206000209160040282015b82811115613f07578254825560018084015490830180546001600160a01b039283166001600160a01b03199182161790915560028086015490850180549190931691161790556003808401549083015560049283019290910190613ea8565b50613d26929150614128565b508054613f1f90614afa565b6000825580601f10613f315750613f4f565b601f016020900490600052602060002090810190613f4f91906140ab565b50565b5080546000825590600052602060002090810190613f4f91906140ab565b5080546000825560020290600052602060002090810190613f4f91906140c0565b5080546000825560050290600052602060002090810190613f4f91906140e6565b5080546000825560040290600052602060002090810190613f4f9190614128565b828054613fdf90614afa565b90600052602060002090601f0160209004810192826140015760008555613d1a565b82601f1061401a57805160ff1916838001178555613d1a565b82800160010185558215613d1a579182015b82811115613d1a57825182559160200191906001019061402c565b828054828255906000526020600020908101928215613d1a5791602002820182811115613d1a57825182559160200191906001019061402c565b60405180608001604052806000815260200160608152602001606081526020016000151581525090565b5b80821115613d2657600081556001016140ac565b5b80821115613d265780546001600160a01b0319168155600060018201556002016140c1565b5b80821115613d265760008082556001820180546001600160a01b031990811690915560028301805490911690556003820181905560048201556005016140e7565b5b80821115613d265760008082556001820180546001600160a01b031990811690915560028301805490911690556003820155600401614129565b80356001600160a01b0381168114610f5857600080fd5b600082601f83011261418a578081fd5b813560206001600160401b038211156141a5576141a5614b66565b8082026141b3828201614a6f565b8381528281019086840183880185018910156141cd578687fd5b8693505b858410156141ef5780358352600193909301929184019184016141d1565b50979650505050505050565b600082601f83011261420b578081fd5b81356001600160401b0381111561422457614224614b66565b614237601f8201601f1916602001614a6f565b81815284602083860101111561424b578283fd5b816020850160208301379081016020019190915292915050565b600060a08284031215614276578081fd5b61428060a0614a6f565b90508135815261429260208301614163565b60208201526142a360408301614163565b6040820152606082013560608201526080820135608082015292915050565b6000602082840312156142d3578081fd5b6142dc82614163565b9392505050565b600080604083850312156142f5578081fd5b6142fe83614163565b915060208301356001600160401b03811115614318578182fd5b614324858286016141fb565b9150509250929050565b60008060408385031215614340578182fd5b61434983614163565b946020939093013593505050565b600060808284031215614368578081fd5b6143726080614a6f565b8235815261438260208401614163565b602082015261439360408401614163565b6040820152606083013560608201528091505092915050565b600060a082840312156143bd578081fd5b6142dc8383614265565b600080600060e084860312156143db578081fd5b6143e58585614265565b925060a08401356001600160401b0380821115614400578283fd5b61440c8783880161417a565b935060c0860135915080821115614421578283fd5b5061442e8682870161417a565b9150509250925092565b600060208284031215614449578081fd5b5035919050565b600080600060608486031215614464578283fd5b8335925060208401356001600160401b03811115614480578283fd5b61448c868287016141fb565b92505061449b60408501614163565b90509250925092565b6000806000606084860312156144b8578283fd5b505081359360208301359350604090920135919050565b60008060008060008060c087890312156144e7578182fd5b86359550602087013594506040870135935060608701356001600160401b0380821115614512578384fd5b61451e8a838b0161417a565b94506080890135915080821115614533578384fd5b61453f8a838b0161417a565b935060a0890135915080821115614554578283fd5b5061456189828a0161417a565b9150509295509295509295565b6000815180845260208085019450808401835b838110156145a65781516001600160a01b031687529582019590820190600101614581565b509495945050505050565b6000815180845260208085019450808401835b838110156145a657815180518852838101516001600160a01b03908116858a01526040808301519091169089015260609081015190880152608090960195908201906001016145c4565b6000815180845260208085019450808401835b838110156145a657815180516001600160a01b031688528301518388015260409096019590820190600101614621565b6000815180845260208085019450808401835b838110156145a657815180518852838101516001600160a01b03908116858a015260408083015190911690890152606080820151908901526080908101519088015260a09096019590820190600101614664565b6000815180845260208085019450808401835b838110156145a6578151875295820195908201906001016146cb565b6002811061470557634e487b7160e01b600052602160045260246000fd5b9052565b60008151808452614721816020860160208601614ace565b601f01601f19169290920160200192915050565b60008251614747818460208701614ace565b9190910192915050565b815460009081906002810460018083168061476d57607f831692505b602080841082141561478d57634e487b7160e01b87526022600452602487fd5b8180156147a157600181146147b2576147de565b60ff198616895284890196506147de565b60008a815260209020885b868110156147d65781548b8201529085019083016147bd565b505084890196505b509498975050505050505050565b6001600160a01b0384168152821515602082015260606040820181905260009061481890830184614709565b95945050505050565b6000602082526142dc60208301846146b8565b6000602082526142dc6020830184614709565b6000602082526148636020830184516001600160a01b03169052565b6020830151801515604084015250604083015161016080606085015261488d610180850183614709565b91506060850151601f19808685030160808701526148ab84836146b8565b935060808701519150808685030160a08701526148c884836146b8565b935060a08701519150808685030160c08701526148e5848361456e565b935060c08701519150808685030160e0870152614902848361460e565b935060e087015191506101008187860301818801526149218584614651565b9450808801519250506101208187860301818801526149408584614651565b94508088015192505061014081878603018188015261495f85846145b1565b90880151878203909201848801529350905061497b83826145b1565b9695505050505050565b600060208252825160208301526020830151608060408401526149ab60a08401826146b8565b90506040840151601f198483030160608501526149c882826146b8565b9150506060840151151560808401528091505092915050565b8681526001600160a01b038681166020830152851660408201526060810184905260c08101614a1360808301856146e7565b8260a0830152979650505050505050565b8781526001600160a01b03878116602083015286166040820152606081018590526080810184905260e08101614a5d60a08301856146e7565b8260c083015298975050505050505050565b604051601f8201601f191681016001600160401b0381118282101715614a9757614a97614b66565b604052919050565b60008219821115614ab257614ab2614b50565b500190565b600082821015614ac957614ac9614b50565b500390565b60005b83811015614ae9578181015183820152602001614ad1565b83811115611f0a5750506000910152565b600281046001821680614b0e57607f821691505b60208210811415614b2f57634e487b7160e01b600052602260045260246000fd5b50919050565b6000600019821415614b4957614b49614b50565b5060010190565b634e487b7160e01b600052601160045260246000fd5b634e487b7160e01b600052604160045260246000fdfe68b37f68a2bc54c3d620d48da778df9369fa9e2a3a8fef7d7e57cecd1e860d8c227887aafc5cf62347d1151727ff1d51b157f84ee8159c8b3b37ae225fd1c06da26469706673582212202933ef73ab68adb89cc8622cd2ae3aa4904c3cd7d6c2f1746cc94c3ae0cfa92664736f6c63430008020033",
  "immutableReferences": {},
  "source": "// SPDX-License-Identifier: MIT\npragma solidity ^0.8;\npragma experimental ABIEncoderV2;\n\ncontract SupplyChainNetwork {\n    address public networkOwner = msg.sender;\n    // struct Product {\n    //     uint productId;\n    //     string productName;\n    //     bool exist;\n    // }\n    struct CompanyContract {\n        uint id;\n        address from;\n        address to;\n        uint productId;\n    }\n    struct CompanyProduct {\n        address companyId;\n        uint productId;\n    }\n    // struct Recipe {\n    //     Product supply;\n    //     Product[] prerequisites;\n    //     uint[] quantities;\n    // }\n    struct Request {\n        uint id;\n        address from;\n        address to;\n        uint productId;\n        uint quantity;\n    }\n    struct Supply {\n        uint total;\n        uint[] supplyId;\n        uint[] quantities;\n        bool exist;\n    }\n    struct PastSupply {\n        uint[] pastSupply;\n        bool exist;\n    }\n    struct Company {\n        address owner;\n        bool exist;\n        string name;\n        uint[] listOfSupply;\n        uint[] listOfPrerequisites;\n        address[] upstream;\n        CompanyProduct[] downstream;\n        Request[] incomingRequests;\n        Request[] outgoingRequests;\n        CompanyContract[] incomingContract;\n        CompanyContract[] outgoingContract;\n    }\n    mapping(address => Company) public companies;\n    mapping(address => mapping(uint => Supply)) public companySupplies;\n    mapping(address => mapping(uint => Supply)) public companyPrerequisiteSupplies;\n    Company[] public headCompanies;\n    // mapping(uint => address[]) public productOwners;\n    // mapping(uint => uint) public listOfProducts;\n    // Product[] public products;\n    string[] public productNames;\n    mapping(uint => PastSupply) public pastSupplies; // uint[] refers to supplyId from MongoDB\n    enum STATE {\n        APPROVED,\n        REJECTED\n    }\n    event Requests(uint requestId, address from, address to, uint productId, uint quantity, STATE state, uint256 timestamp);\n    event Contracts(uint id, address from, address to, uint productId, STATE state, uint256 timestamp);\n\n    function getCompany(address owner) public view returns (Company memory) {\n        return companies[owner];\n    }\n    function addCompany(address owner, string memory name) public {\n        require(msg.sender == networkOwner);\n        Company storage company = companies[owner];\n        company.name = name;\n        company.owner = owner;\n        company.exist = true;\n        headCompanies.push(company);\n    }\n    // function deleteCompany(address companyAddress) public {}\n    function getHeadCompaniesLength() public view returns (uint) {\n        return headCompanies.length;\n    }\n    // function getProductLength() public view returns (uint) {\n    //     return products.length;\n    // }\n    // function getProductOwnerLength(uint productId) public view returns (uint) {\n    //     return productOwners[productId].length;\n    // }\n    function addProduct(uint productId, string memory productName, address company_address) public {\n        require(companies[msg.sender].exist || msg.sender == networkOwner);\n        // for(uint i = 0; i < products.length; i++) {\n        //     if(keccak256(abi.encodePacked(products[i].productName)) == keccak256(abi.encodePacked(productName))) {\n        //         revert();\n        //     }\n        // }\n        for(uint i = 0; i < productNames.length; i++) {\n            if(keccak256(abi.encodePacked(productNames[i])) == keccak256(abi.encodePacked(productName))) {\n                revert();\n            }\n        }\n        // productOwners[productId].push(owner);\n        // companies[owner].listOfSupply.push(Product({\n        //     productId: productId,\n        //     productName: productName,\n        //     exist: true\n        // }));\n        if(msg.sender == networkOwner) {\n            companies[company_address].listOfSupply.push(productId);\n        } else {\n            companies[msg.sender].listOfSupply.push(productId);\n        }\n        productNames.push(productName);\n        // listOfProducts[productId] = Product({\n        //     productId: productId,\n        //     productName: productName,\n        //     exist: true\n        // });\n        // products.push(Product({\n        //     productId: productId,\n        //     productName: productName,\n        //     exist: true\n        // }));\n    }\n    // function addProductWithoutRecipe(uint productId, string memory productName, address owner) public {\n    //     require(msg.sender == networkOwner);\n    //     addProduct(productId, productName, owner);\n    // }\n    // function addProductWithRecipe(uint productId, string memory productName, uint[] memory prerequisiteSupplies, uint[] memory quantityPrerequisiteSupplies) public {\n    //     require(companies[msg.sender].exist);\n    //     addProduct(productId, productName, msg.sender);\n    //     Recipe storage recipe = companies[msg.sender].recipes.push();\n    //     for(uint i = 0; i < prerequisiteSupplies.length; i++) {\n    //         recipe.prerequisites.push(prerequisiteSupplies[i]);\n    //     }\n    //     recipe.supply = listOfProducts[productId];\n    //     recipe.quantities = quantityPrerequisiteSupplies;\n    // }\n    // function deleteProduct(uint productId) public {\n    //     require(companies[msg.sender].exist);\n    //     for(uint i = 0; i < productOwners[msg.sender].length; i++) {\n    //         if(productOwners[msg.sender][i].productId == productId) {\n    //             productOwners[msg.sender][i] = productOwners[msg.sender][productOwners[msg.sender].length - 1];\n    //             productOwners[msg.sender].pop();\n    //             uint productIndex = 0;\n    //             for(uint index = 0; index < products.length; index++) {\n    //                 Product memory product = products[index];\n    //                 if(product.productId == productId) {\n    //                     productIndex = index;\n    //                     break;\n    //                 }\n    //             }\n    //             products[productIndex] = products[products.length - 1];\n    //             products.pop();\n    //             delete listOfProducts[productId];\n    //             break;\n    //         }\n    //     }\n    //     // revert(\"Company owner does not own this product\");\n    //     revert();\n    // }\n    function getPastSupply(uint supplyId) public view returns (uint[] memory) {\n        require(pastSupplies[supplyId].exist);\n        return pastSupplies[supplyId].pastSupply;\n    }\n    function getSupply(uint productId) public view returns (Supply memory) {\n        require(companySupplies[msg.sender][productId].exist);\n        return companySupplies[msg.sender][productId];\n    }\n    function getPrerequisiteSupply(uint productId) public view returns (Supply memory) {\n        require(companies[msg.sender].owner == msg.sender);\n        return companyPrerequisiteSupplies[msg.sender][productId];\n    }\n    // function getRecipe(uint productId) public view returns (Recipe memory) {\n    //     require(companies[msg.sender].owner == msg.sender);\n    //     for(uint i = 0; i < companies[msg.sender].recipes.length; i++) {\n    //         if(companies[msg.sender].recipes[i].supply.productId == productId) {\n    //             return companies[msg.sender].recipes[i];\n    //         }\n    //     }\n    //     revert(\"Recipe not found for that product ID\");\n    // }\n    function convertToSupply(uint productId, uint numberOfSupply, uint supplyId) public {\n        for(uint i = 0; i < companies[msg.sender].listOfSupply.length; i++) {\n            // if(companies[msg.sender].listOfSupply[i].productId == productId) {\n            if(companies[msg.sender].listOfSupply[i] == productId) {\n                companySupplies[msg.sender][productId].total += numberOfSupply;\n                companySupplies[msg.sender][productId].supplyId.push(supplyId);\n                companySupplies[msg.sender][productId].quantities.push(numberOfSupply);\n                companySupplies[msg.sender][productId].exist = true;\n                return;\n            }\n        }\n        revert(\"msg.sender is not the product owner\");\n    }\n    function convertPrerequisiteToSupply(uint newSupplyProductId, uint numberOfNewSupply, uint newSupplyId, uint[] memory prerequisiteProductIds, uint[] memory prerequisiteSupplyIds, uint[] memory prerequisiteQuantities) public {\n        require(companies[msg.sender].owner == msg.sender);\n        for(uint i = 0; i < prerequisiteProductIds.length; i++) { // loops through prerequisite product IDs\n            // Supply memory prerequisiteSupply = getPrerequisiteSupply(prerequisiteProductIds[i]);\n            for(uint j = 0; j < companyPrerequisiteSupplies[msg.sender][prerequisiteProductIds[i]].supplyId.length; j++) { // loops through storage prerequisite supply IDs\n                for(uint k = 0; k < prerequisiteSupplyIds.length; k++) { // loops through prerequisite supply ID passed in by backend, indicates the supply IDs to be deducted\n                    pastSupplies[newSupplyId].pastSupply.push(prerequisiteSupplyIds[k]); // adds all prerequisite supply IDs that is part of creating the new supply\n                    pastSupplies[newSupplyId].exist = true;\n                    if(companyPrerequisiteSupplies[msg.sender][prerequisiteProductIds[i]].supplyId[j] == prerequisiteSupplyIds[k]) {\n                        companyPrerequisiteSupplies[msg.sender][prerequisiteProductIds[i]].quantities[j] -= prerequisiteQuantities[k]; // deducts the storage prerequisite supply quantity\n                        companyPrerequisiteSupplies[msg.sender][prerequisiteProductIds[i]].total -= prerequisiteQuantities[k]; // deducts the total storage of prerequisite supply quantity\n                    }\n                }\n            }\n            // removing supply IDs that is below and equal to 0 quantity\n            uint[] memory newSupplyIds = new uint[](companyPrerequisiteSupplies[msg.sender][prerequisiteProductIds[i]].supplyId.length);\n            uint[] memory newQuantities = new uint[](companyPrerequisiteSupplies[msg.sender][prerequisiteProductIds[i]].quantities.length);\n            uint newSize = 0;\n            for (uint j = 0; j < companyPrerequisiteSupplies[msg.sender][prerequisiteProductIds[i]].quantities.length; j++) {\n                if (companyPrerequisiteSupplies[msg.sender][prerequisiteProductIds[i]].quantities[j] > 0) {\n                    newSupplyIds[newSize] = companyPrerequisiteSupplies[msg.sender][prerequisiteProductIds[i]].supplyId[j];\n                    newQuantities[newSize] = companyPrerequisiteSupplies[msg.sender][prerequisiteProductIds[i]].quantities[j];\n                    newSize++;\n                }\n            }\n            uint[] memory finalArray = new uint[](newSize);\n            for (uint k = 0; k < newSize; k++) {\n                finalArray[k] = newSupplyIds[k];\n            }\n            companyPrerequisiteSupplies[msg.sender][prerequisiteProductIds[i]].supplyId = finalArray;\n            for (uint k = 0; k < newSize; k++) {\n                finalArray[k] = newQuantities[k];\n            }\n            companyPrerequisiteSupplies[msg.sender][prerequisiteProductIds[i]].quantities = finalArray;\n        }\n        // adds the new supply to storage\n        companySupplies[msg.sender][newSupplyProductId].total += numberOfNewSupply;\n        companySupplies[msg.sender][newSupplyProductId].supplyId.push(newSupplyId); \n        companySupplies[msg.sender][newSupplyProductId].quantities.push(numberOfNewSupply);\n        companySupplies[msg.sender][newSupplyProductId].exist = true;\n    }\n    function sendRequest(Request memory request) public {\n        require(request.from == msg.sender);\n        companies[request.from].outgoingRequests.push(request);\n        companies[request.to].incomingRequests.push(request);\n    }\n    function approveRequest(Request memory request, uint[] memory supplyIds, uint[] memory quantities) public {\n        // require(companySupplies[msg.sender][request.product.productId].total >= request.quantity, \"\");\n        // require(companyPrerequisiteSupplies[request.from][request.product.productId].exist, \"\");\n        require(request.to == msg.sender);\n        // reduce the supply quantity of to company\n        for(uint i = 0; i < companySupplies[request.to][request.productId].supplyId.length; i++) {\n            for(uint j = 0; j < supplyIds.length; j++) {\n                if(companySupplies[request.to][request.productId].supplyId[i] == supplyIds[j]) {\n                    companySupplies[request.to][request.productId].total -= quantities[j];\n                    companySupplies[request.to][request.productId].quantities[i] -= quantities[j];\n                }\n            }\n        }\n        // removing supply IDs that is below and equal to 0 quantity\n        uint[] memory newSupplyIds = new uint[](companySupplies[request.to][request.productId].supplyId.length);\n        uint[] memory newQuantities = new uint[](companySupplies[request.to][request.productId].quantities.length);\n        uint newSize = 0;\n        for (uint i = 0; i < companySupplies[request.to][request.productId].quantities.length; i++) {\n            if (companySupplies[request.to][request.productId].quantities[i] > 0) {\n                newSupplyIds[newSize] = companySupplies[request.to][request.productId].supplyId[i];\n                newQuantities[newSize] = companySupplies[request.to][request.productId].quantities[i];\n                newSize++;\n            }\n        }\n        uint[] memory finalArray = new uint[](newSize);\n        for (uint k = 0; k < newSize; k++) {\n            finalArray[k] = newSupplyIds[k];\n        }\n        companySupplies[request.to][request.productId].supplyId = finalArray;\n        for (uint k = 0; k < newSize; k++) {\n            finalArray[k] = newQuantities[k];\n        }\n        companySupplies[request.to][request.productId].quantities = finalArray;\n        // increment the supply quantity for from company\n        for(uint i = 0; i < supplyIds.length; i++) {\n            bool added = false;\n            for(uint j = 0; j < companyPrerequisiteSupplies[request.from][request.productId].supplyId.length; j++) {\n                if(companyPrerequisiteSupplies[request.from][request.productId].supplyId[j] == supplyIds[i]) {\n                    companyPrerequisiteSupplies[request.from][request.productId].quantities[j] += quantities[i];\n                    added = true;\n                }\n            }\n            if(!added) {\n                companyPrerequisiteSupplies[request.from][request.productId].supplyId.push(supplyIds[i]);\n                companyPrerequisiteSupplies[request.from][request.productId].quantities.push(quantities[i]);\n            }\n            companyPrerequisiteSupplies[request.from][request.productId].total += quantities[i];\n        }\n        // remove the request from outgoingContract\n        for(uint i = 0; i < companies[request.from].outgoingRequests.length; i++) {\n            if(companies[request.from].outgoingRequests[i].id == request.id) {\n                companies[request.from].outgoingRequests[i] = companies[request.from].outgoingRequests[companies[request.from].outgoingRequests.length - 1];\n                break;\n            }\n        }\n        companies[request.from].outgoingRequests.pop();\n        // remove the contract request from incomingContract\n        for(uint i = 0; i < companies[request.to].incomingRequests.length; i++) {\n            if(companies[request.to].incomingRequests[i].id == request.id) {\n                companies[request.to].incomingRequests[i] = companies[request.to].incomingRequests[companies[request.to].incomingRequests.length - 1];\n                break;\n            }\n        }\n        companies[request.to].incomingRequests.pop();\n        emit Requests(request.id, request.from, request.to, request.productId, request.quantity, STATE.APPROVED, block.timestamp);\n    }\n    function declineRequest(Request memory request) public {\n        require(request.to == msg.sender);\n        // remove the request from outgoingContract\n        for(uint i = 0; i < companies[request.from].outgoingRequests.length; i++) {\n            if(companies[request.from].outgoingRequests[i].id == request.id) {\n                companies[request.from].outgoingRequests[i] = companies[request.from].outgoingRequests[companies[request.from].outgoingRequests.length - 1];\n                break;\n            }\n        }\n        companies[request.from].outgoingRequests.pop();\n        // remove the contract request from incomingContract\n        for(uint i = 0; i < companies[request.to].incomingRequests.length; i++) {\n            if(companies[request.to].incomingRequests[i].id == request.id) {\n                companies[request.to].incomingRequests[i] = companies[request.to].incomingRequests[companies[request.to].incomingRequests.length - 1];\n                break;\n            }\n        }\n        companies[request.to].incomingRequests.pop();\n        emit Requests(request.id, request.from, request.to, request.productId, request.quantity, STATE.REJECTED, block.timestamp);\n    }\n    // The sender sends contract to ask which PRODUCT it wants\n    function sendContract(CompanyContract memory companyContract) public {\n        require(msg.sender == companyContract.from);\n        // put inside outgoing contract to track down which company and what product I've asked for\n        companies[companyContract.from].outgoingContract.push(companyContract);\n        // gets who sends the contract and what product he wants from MY stash\n        companies[companyContract.to].incomingContract.push(companyContract);\n    }\n    function approveContract(CompanyContract memory companyContract) public {\n        require(msg.sender == companyContract.to);\n        // sets pre requisite supply exists\n        companyPrerequisiteSupplies[companyContract.from][companyContract.productId].exist = true;\n        // pushes new product in the contract sender's list of prerequisites\n        // companies[companyContract.from].listOfPrerequisites.push(listOfProducts[companyContract.productId]);\n        companies[companyContract.from].listOfPrerequisites.push(companyContract.productId);\n        // adds a new company in the contract sender's list of downstreams\n        companies[companyContract.from].downstream.push(CompanyProduct({\n            companyId: companyContract.to,\n            productId: companyContract.productId\n        }));\n        // adds a new company in the supplier's list of upstreams\n        companies[companyContract.to].upstream.push(companyContract.from);\n        // if supplier is a headCompany, remove it\n        for(uint i = 0; i < headCompanies.length; i++) {\n            if(headCompanies[i].owner == msg.sender) {\n                headCompanies[i] = headCompanies[headCompanies.length - 1];\n                headCompanies.pop();\n                break;\n            }\n        }\n        // remove the contract request from outgoingContract\n        for(uint i = 0; i < companies[companyContract.from].outgoingContract.length; i++) {\n            if(companies[companyContract.from].outgoingContract[i].id == companyContract.id) {\n                companies[companyContract.from].outgoingContract[i] = companies[companyContract.from].outgoingContract[companies[companyContract.from].outgoingContract.length - 1];\n                break;\n            }\n        }\n        companies[companyContract.from].outgoingContract.pop();\n        // remove the contract request from incomingContract\n        for(uint i = 0; i < companies[companyContract.to].incomingContract.length; i++) {\n            if(companies[companyContract.to].incomingContract[i].id == companyContract.id) {\n                companies[companyContract.to].incomingContract[i] = companies[companyContract.to].incomingContract[companies[companyContract.to].incomingContract.length - 1];\n                break;\n            }\n        }\n        companies[companyContract.to].incomingContract.pop();\n        emit Contracts(companyContract.id, companyContract.from, companyContract.to, companyContract.productId, STATE.APPROVED, block.timestamp);\n    }\n    function declineContract(CompanyContract memory companyContract) public {\n        require(msg.sender == companyContract.to);\n        // remove the contract request from outgoingContract\n        for(uint i = 0; i < companies[companyContract.from].outgoingContract.length; i++) {\n            if(companies[companyContract.from].outgoingContract[i].id == companyContract.id) {\n                companies[companyContract.from].outgoingContract[i] = companies[companyContract.from].outgoingContract[companies[companyContract.from].outgoingContract.length - 1];\n                break;\n            }\n        }\n        companies[companyContract.from].outgoingContract.pop();\n        // remove the contract request from incomingContract\n        for(uint i = 0; i < companies[companyContract.to].incomingContract.length; i++) {\n            if(companies[companyContract.to].incomingContract[i].id == companyContract.id) {\n                companies[companyContract.to].incomingContract[i] = companies[companyContract.to].incomingContract[companies[companyContract.to].incomingContract.length - 1];\n                break;\n            }\n        }\n        companies[companyContract.to].incomingContract.pop();\n        emit Contracts(companyContract.id, companyContract.from, companyContract.to, companyContract.productId, STATE.REJECTED, block.timestamp);\n    }\n}\n",
  "sourcePath": "/Users/darennathanieljanto/Documents/GitHub/fyp-contract-v2/contracts/SupplyChainNetwork.sol",
  "compiler": {
    "name": "solc",
    "version": "0.8.2+commit.661d1103.Emscripten.clang"
  },
  "schemaVersion": "3.4.15",
  "updatedAt": "2023-10-20T07:43:25.297Z",
  "networkType": "ethereum",
  "devdoc": {
    "kind": "dev",
    "methods": {},
    "version": 1
  },
  "userdoc": {
    "kind": "user",
    "methods": {},
    "version": 1
  }
}