{
  "contractName": "SupplyChainNetwork",
  "abi": [
    {
      "anonymous": false,
      "inputs": [
        {
          "indexed": false,
          "internalType": "uint256",
          "name": "id",
          "type": "uint256"
        },
        {
          "indexed": false,
          "internalType": "address",
          "name": "from",
          "type": "address"
        },
        {
          "indexed": false,
          "internalType": "address",
          "name": "to",
          "type": "address"
        },
        {
          "indexed": false,
          "internalType": "uint256",
          "name": "productId",
          "type": "uint256"
        },
        {
          "indexed": false,
          "internalType": "enum SupplyChainNetwork.STATE",
          "name": "state",
          "type": "uint8"
        },
        {
          "indexed": false,
          "internalType": "uint256",
          "name": "timestamp",
          "type": "uint256"
        }
      ],
      "name": "Contracts",
      "type": "event"
    },
    {
      "anonymous": false,
      "inputs": [
        {
          "indexed": false,
          "internalType": "uint256",
          "name": "requestId",
          "type": "uint256"
        },
        {
          "indexed": false,
          "internalType": "address",
          "name": "from",
          "type": "address"
        },
        {
          "indexed": false,
          "internalType": "address",
          "name": "to",
          "type": "address"
        },
        {
          "indexed": false,
          "internalType": "uint256",
          "name": "productId",
          "type": "uint256"
        },
        {
          "indexed": false,
          "internalType": "uint256",
          "name": "quantity",
          "type": "uint256"
        },
        {
          "indexed": false,
          "internalType": "enum SupplyChainNetwork.STATE",
          "name": "state",
          "type": "uint8"
        },
        {
          "indexed": false,
          "internalType": "uint256",
          "name": "timestamp",
          "type": "uint256"
        }
      ],
      "name": "Requests",
      "type": "event"
    },
    {
      "inputs": [
        {
          "internalType": "address",
          "name": "",
          "type": "address"
        }
      ],
      "name": "companies",
      "outputs": [
        {
          "internalType": "address",
          "name": "owner",
          "type": "address"
        },
        {
          "internalType": "bool",
          "name": "exist",
          "type": "bool"
        },
        {
          "internalType": "string",
          "name": "name",
          "type": "string"
        }
      ],
      "stateMutability": "view",
      "type": "function",
      "constant": true
    },
    {
      "inputs": [
        {
          "internalType": "address",
          "name": "",
          "type": "address"
        },
        {
          "internalType": "uint256",
          "name": "",
          "type": "uint256"
        }
      ],
      "name": "companyPrerequisiteSupplies",
      "outputs": [
        {
          "internalType": "uint256",
          "name": "total",
          "type": "uint256"
        },
        {
          "internalType": "bool",
          "name": "exist",
          "type": "bool"
        }
      ],
      "stateMutability": "view",
      "type": "function",
      "constant": true
    },
    {
      "inputs": [
        {
          "internalType": "address",
          "name": "",
          "type": "address"
        },
        {
          "internalType": "uint256",
          "name": "",
          "type": "uint256"
        }
      ],
      "name": "companySupplies",
      "outputs": [
        {
          "internalType": "uint256",
          "name": "total",
          "type": "uint256"
        },
        {
          "internalType": "bool",
          "name": "exist",
          "type": "bool"
        }
      ],
      "stateMutability": "view",
      "type": "function",
      "constant": true
    },
    {
      "inputs": [
        {
          "internalType": "uint256",
          "name": "",
          "type": "uint256"
        }
      ],
      "name": "headCompanies",
      "outputs": [
        {
          "internalType": "address",
          "name": "owner",
          "type": "address"
        },
        {
          "internalType": "bool",
          "name": "exist",
          "type": "bool"
        },
        {
          "internalType": "string",
          "name": "name",
          "type": "string"
        }
      ],
      "stateMutability": "view",
      "type": "function",
      "constant": true
    },
    {
      "inputs": [
        {
          "internalType": "uint256",
          "name": "",
          "type": "uint256"
        }
      ],
      "name": "listOfProducts",
      "outputs": [
        {
          "internalType": "uint256",
          "name": "productId",
          "type": "uint256"
        },
        {
          "internalType": "string",
          "name": "productName",
          "type": "string"
        },
        {
          "internalType": "bool",
          "name": "exist",
          "type": "bool"
        }
      ],
      "stateMutability": "view",
      "type": "function",
      "constant": true
    },
    {
      "inputs": [],
      "name": "networkOwner",
      "outputs": [
        {
          "internalType": "address",
          "name": "",
          "type": "address"
        }
      ],
      "stateMutability": "view",
      "type": "function",
      "constant": true
    },
    {
      "inputs": [
        {
          "internalType": "uint256",
          "name": "",
          "type": "uint256"
        }
      ],
      "name": "pastSupplies",
      "outputs": [
        {
          "internalType": "bool",
          "name": "exist",
          "type": "bool"
        }
      ],
      "stateMutability": "view",
      "type": "function",
      "constant": true
    },
    {
      "inputs": [
        {
          "internalType": "address",
          "name": "",
          "type": "address"
        },
        {
          "internalType": "uint256",
          "name": "",
          "type": "uint256"
        }
      ],
      "name": "productOwners",
      "outputs": [
        {
          "internalType": "uint256",
          "name": "productId",
          "type": "uint256"
        },
        {
          "internalType": "string",
          "name": "productName",
          "type": "string"
        },
        {
          "internalType": "bool",
          "name": "exist",
          "type": "bool"
        }
      ],
      "stateMutability": "view",
      "type": "function",
      "constant": true
    },
    {
      "inputs": [
        {
          "internalType": "uint256",
          "name": "",
          "type": "uint256"
        }
      ],
      "name": "products",
      "outputs": [
        {
          "internalType": "uint256",
          "name": "productId",
          "type": "uint256"
        },
        {
          "internalType": "string",
          "name": "productName",
          "type": "string"
        },
        {
          "internalType": "bool",
          "name": "exist",
          "type": "bool"
        }
      ],
      "stateMutability": "view",
      "type": "function",
      "constant": true
    },
    {
      "inputs": [
        {
          "internalType": "address",
          "name": "owner",
          "type": "address"
        },
        {
          "internalType": "string",
          "name": "name",
          "type": "string"
        }
      ],
      "name": "addCompany",
      "outputs": [],
      "stateMutability": "nonpayable",
      "type": "function"
    },
    {
      "inputs": [
        {
          "internalType": "address",
          "name": "companyAddress",
          "type": "address"
        }
      ],
      "name": "deleteCompany",
      "outputs": [],
      "stateMutability": "nonpayable",
      "type": "function"
    },
    {
      "inputs": [
        {
          "internalType": "uint256",
          "name": "productId",
          "type": "uint256"
        },
        {
          "internalType": "string",
          "name": "productName",
          "type": "string"
        },
        {
          "internalType": "address",
          "name": "owner",
          "type": "address"
        }
      ],
      "name": "addProductWithoutRecipe",
      "outputs": [],
      "stateMutability": "nonpayable",
      "type": "function"
    },
    {
      "inputs": [
        {
          "internalType": "uint256",
          "name": "productId",
          "type": "uint256"
        },
        {
          "internalType": "string",
          "name": "productName",
          "type": "string"
        },
        {
          "components": [
            {
              "internalType": "uint256",
              "name": "productId",
              "type": "uint256"
            },
            {
              "internalType": "string",
              "name": "productName",
              "type": "string"
            },
            {
              "internalType": "bool",
              "name": "exist",
              "type": "bool"
            }
          ],
          "internalType": "struct SupplyChainNetwork.Product[]",
          "name": "prerequisiteSupplies",
          "type": "tuple[]"
        },
        {
          "internalType": "uint256[]",
          "name": "quantityPrerequisiteSupplies",
          "type": "uint256[]"
        }
      ],
      "name": "addProductWithRecipe",
      "outputs": [],
      "stateMutability": "nonpayable",
      "type": "function"
    },
    {
      "inputs": [
        {
          "internalType": "uint256",
          "name": "productId",
          "type": "uint256"
        }
      ],
      "name": "deleteProduct",
      "outputs": [],
      "stateMutability": "nonpayable",
      "type": "function"
    },
    {
      "inputs": [],
      "name": "getCompany",
      "outputs": [
        {
          "components": [
            {
              "internalType": "address",
              "name": "owner",
              "type": "address"
            },
            {
              "internalType": "bool",
              "name": "exist",
              "type": "bool"
            },
            {
              "internalType": "string",
              "name": "name",
              "type": "string"
            },
            {
              "components": [
                {
                  "internalType": "uint256",
                  "name": "productId",
                  "type": "uint256"
                },
                {
                  "internalType": "string",
                  "name": "productName",
                  "type": "string"
                },
                {
                  "internalType": "bool",
                  "name": "exist",
                  "type": "bool"
                }
              ],
              "internalType": "struct SupplyChainNetwork.Product[]",
              "name": "listOfSupply",
              "type": "tuple[]"
            },
            {
              "components": [
                {
                  "internalType": "uint256",
                  "name": "productId",
                  "type": "uint256"
                },
                {
                  "internalType": "string",
                  "name": "productName",
                  "type": "string"
                },
                {
                  "internalType": "bool",
                  "name": "exist",
                  "type": "bool"
                }
              ],
              "internalType": "struct SupplyChainNetwork.Product[]",
              "name": "listOfPrerequisites",
              "type": "tuple[]"
            },
            {
              "components": [
                {
                  "components": [
                    {
                      "internalType": "uint256",
                      "name": "productId",
                      "type": "uint256"
                    },
                    {
                      "internalType": "string",
                      "name": "productName",
                      "type": "string"
                    },
                    {
                      "internalType": "bool",
                      "name": "exist",
                      "type": "bool"
                    }
                  ],
                  "internalType": "struct SupplyChainNetwork.Product",
                  "name": "supply",
                  "type": "tuple"
                },
                {
                  "components": [
                    {
                      "internalType": "uint256",
                      "name": "productId",
                      "type": "uint256"
                    },
                    {
                      "internalType": "string",
                      "name": "productName",
                      "type": "string"
                    },
                    {
                      "internalType": "bool",
                      "name": "exist",
                      "type": "bool"
                    }
                  ],
                  "internalType": "struct SupplyChainNetwork.Product[]",
                  "name": "prerequisites",
                  "type": "tuple[]"
                },
                {
                  "internalType": "uint256[]",
                  "name": "quantities",
                  "type": "uint256[]"
                }
              ],
              "internalType": "struct SupplyChainNetwork.Recipe[]",
              "name": "recipes",
              "type": "tuple[]"
            },
            {
              "internalType": "address[]",
              "name": "upstream",
              "type": "address[]"
            },
            {
              "components": [
                {
                  "internalType": "address",
                  "name": "companyId",
                  "type": "address"
                },
                {
                  "internalType": "uint256",
                  "name": "productId",
                  "type": "uint256"
                }
              ],
              "internalType": "struct SupplyChainNetwork.CompanyProduct[]",
              "name": "downstream",
              "type": "tuple[]"
            },
            {
              "components": [
                {
                  "internalType": "uint256",
                  "name": "id",
                  "type": "uint256"
                },
                {
                  "internalType": "address",
                  "name": "from",
                  "type": "address"
                },
                {
                  "internalType": "address",
                  "name": "to",
                  "type": "address"
                },
                {
                  "internalType": "uint256",
                  "name": "productId",
                  "type": "uint256"
                },
                {
                  "internalType": "uint256",
                  "name": "quantity",
                  "type": "uint256"
                }
              ],
              "internalType": "struct SupplyChainNetwork.Request[]",
              "name": "incomingRequests",
              "type": "tuple[]"
            },
            {
              "components": [
                {
                  "internalType": "uint256",
                  "name": "id",
                  "type": "uint256"
                },
                {
                  "internalType": "address",
                  "name": "from",
                  "type": "address"
                },
                {
                  "internalType": "address",
                  "name": "to",
                  "type": "address"
                },
                {
                  "internalType": "uint256",
                  "name": "productId",
                  "type": "uint256"
                },
                {
                  "internalType": "uint256",
                  "name": "quantity",
                  "type": "uint256"
                }
              ],
              "internalType": "struct SupplyChainNetwork.Request[]",
              "name": "outgoingRequests",
              "type": "tuple[]"
            },
            {
              "components": [
                {
                  "internalType": "uint256",
                  "name": "id",
                  "type": "uint256"
                },
                {
                  "internalType": "address",
                  "name": "from",
                  "type": "address"
                },
                {
                  "internalType": "address",
                  "name": "to",
                  "type": "address"
                },
                {
                  "internalType": "uint256",
                  "name": "productId",
                  "type": "uint256"
                }
              ],
              "internalType": "struct SupplyChainNetwork.CompanyContract[]",
              "name": "incomingContract",
              "type": "tuple[]"
            },
            {
              "components": [
                {
                  "internalType": "uint256",
                  "name": "id",
                  "type": "uint256"
                },
                {
                  "internalType": "address",
                  "name": "from",
                  "type": "address"
                },
                {
                  "internalType": "address",
                  "name": "to",
                  "type": "address"
                },
                {
                  "internalType": "uint256",
                  "name": "productId",
                  "type": "uint256"
                }
              ],
              "internalType": "struct SupplyChainNetwork.CompanyContract[]",
              "name": "outgoingContract",
              "type": "tuple[]"
            }
          ],
          "internalType": "struct SupplyChainNetwork.Company",
          "name": "",
          "type": "tuple"
        }
      ],
      "stateMutability": "view",
      "type": "function",
      "constant": true
    },
    {
      "inputs": [
        {
          "internalType": "uint256",
          "name": "supplyId",
          "type": "uint256"
        }
      ],
      "name": "getPastSupply",
      "outputs": [
        {
          "internalType": "uint256[]",
          "name": "",
          "type": "uint256[]"
        }
      ],
      "stateMutability": "view",
      "type": "function",
      "constant": true
    },
    {
      "inputs": [
        {
          "internalType": "uint256",
          "name": "productId",
          "type": "uint256"
        }
      ],
      "name": "getSupply",
      "outputs": [
        {
          "components": [
            {
              "internalType": "uint256",
              "name": "total",
              "type": "uint256"
            },
            {
              "internalType": "uint256[]",
              "name": "supplyId",
              "type": "uint256[]"
            },
            {
              "internalType": "uint256[]",
              "name": "quantities",
              "type": "uint256[]"
            },
            {
              "internalType": "bool",
              "name": "exist",
              "type": "bool"
            }
          ],
          "internalType": "struct SupplyChainNetwork.Supply",
          "name": "",
          "type": "tuple"
        }
      ],
      "stateMutability": "view",
      "type": "function",
      "constant": true
    },
    {
      "inputs": [
        {
          "internalType": "uint256",
          "name": "productId",
          "type": "uint256"
        }
      ],
      "name": "getPrerequisiteSupply",
      "outputs": [
        {
          "components": [
            {
              "internalType": "uint256",
              "name": "total",
              "type": "uint256"
            },
            {
              "internalType": "uint256[]",
              "name": "supplyId",
              "type": "uint256[]"
            },
            {
              "internalType": "uint256[]",
              "name": "quantities",
              "type": "uint256[]"
            },
            {
              "internalType": "bool",
              "name": "exist",
              "type": "bool"
            }
          ],
          "internalType": "struct SupplyChainNetwork.Supply",
          "name": "",
          "type": "tuple"
        }
      ],
      "stateMutability": "view",
      "type": "function",
      "constant": true
    },
    {
      "inputs": [
        {
          "internalType": "uint256",
          "name": "productId",
          "type": "uint256"
        }
      ],
      "name": "getRecipe",
      "outputs": [
        {
          "components": [
            {
              "components": [
                {
                  "internalType": "uint256",
                  "name": "productId",
                  "type": "uint256"
                },
                {
                  "internalType": "string",
                  "name": "productName",
                  "type": "string"
                },
                {
                  "internalType": "bool",
                  "name": "exist",
                  "type": "bool"
                }
              ],
              "internalType": "struct SupplyChainNetwork.Product",
              "name": "supply",
              "type": "tuple"
            },
            {
              "components": [
                {
                  "internalType": "uint256",
                  "name": "productId",
                  "type": "uint256"
                },
                {
                  "internalType": "string",
                  "name": "productName",
                  "type": "string"
                },
                {
                  "internalType": "bool",
                  "name": "exist",
                  "type": "bool"
                }
              ],
              "internalType": "struct SupplyChainNetwork.Product[]",
              "name": "prerequisites",
              "type": "tuple[]"
            },
            {
              "internalType": "uint256[]",
              "name": "quantities",
              "type": "uint256[]"
            }
          ],
          "internalType": "struct SupplyChainNetwork.Recipe",
          "name": "",
          "type": "tuple"
        }
      ],
      "stateMutability": "view",
      "type": "function",
      "constant": true
    },
    {
      "inputs": [
        {
          "internalType": "uint256",
          "name": "productId",
          "type": "uint256"
        },
        {
          "internalType": "uint256",
          "name": "numberOfSupply",
          "type": "uint256"
        },
        {
          "internalType": "uint256",
          "name": "supplyId",
          "type": "uint256"
        }
      ],
      "name": "convertToSupply",
      "outputs": [],
      "stateMutability": "nonpayable",
      "type": "function"
    },
    {
      "inputs": [
        {
          "internalType": "uint256",
          "name": "newSupplyProductId",
          "type": "uint256"
        },
        {
          "internalType": "uint256",
          "name": "numberOfNewSupply",
          "type": "uint256"
        },
        {
          "internalType": "uint256",
          "name": "newSupplyId",
          "type": "uint256"
        },
        {
          "internalType": "uint256[]",
          "name": "prerequisiteProductIds",
          "type": "uint256[]"
        },
        {
          "internalType": "uint256[]",
          "name": "prerequisiteSupplyIds",
          "type": "uint256[]"
        },
        {
          "internalType": "uint256[]",
          "name": "prerequisiteQuantities",
          "type": "uint256[]"
        }
      ],
      "name": "convertPrerequisiteToSupply",
      "outputs": [],
      "stateMutability": "nonpayable",
      "type": "function"
    },
    {
      "inputs": [
        {
          "components": [
            {
              "internalType": "uint256",
              "name": "id",
              "type": "uint256"
            },
            {
              "internalType": "address",
              "name": "from",
              "type": "address"
            },
            {
              "internalType": "address",
              "name": "to",
              "type": "address"
            },
            {
              "internalType": "uint256",
              "name": "productId",
              "type": "uint256"
            },
            {
              "internalType": "uint256",
              "name": "quantity",
              "type": "uint256"
            }
          ],
          "internalType": "struct SupplyChainNetwork.Request",
          "name": "request",
          "type": "tuple"
        }
      ],
      "name": "sendRequest",
      "outputs": [],
      "stateMutability": "nonpayable",
      "type": "function"
    },
    {
      "inputs": [
        {
          "components": [
            {
              "internalType": "uint256",
              "name": "id",
              "type": "uint256"
            },
            {
              "internalType": "address",
              "name": "from",
              "type": "address"
            },
            {
              "internalType": "address",
              "name": "to",
              "type": "address"
            },
            {
              "internalType": "uint256",
              "name": "productId",
              "type": "uint256"
            },
            {
              "internalType": "uint256",
              "name": "quantity",
              "type": "uint256"
            }
          ],
          "internalType": "struct SupplyChainNetwork.Request",
          "name": "request",
          "type": "tuple"
        },
        {
          "internalType": "uint256[][]",
          "name": "supplyIdsAndQuantities",
          "type": "uint256[][]"
        }
      ],
      "name": "approveRequest",
      "outputs": [],
      "stateMutability": "nonpayable",
      "type": "function"
    },
    {
      "inputs": [
        {
          "components": [
            {
              "internalType": "uint256",
              "name": "id",
              "type": "uint256"
            },
            {
              "internalType": "address",
              "name": "from",
              "type": "address"
            },
            {
              "internalType": "address",
              "name": "to",
              "type": "address"
            },
            {
              "internalType": "uint256",
              "name": "productId",
              "type": "uint256"
            },
            {
              "internalType": "uint256",
              "name": "quantity",
              "type": "uint256"
            }
          ],
          "internalType": "struct SupplyChainNetwork.Request",
          "name": "request",
          "type": "tuple"
        }
      ],
      "name": "declineRequest",
      "outputs": [],
      "stateMutability": "nonpayable",
      "type": "function"
    },
    {
      "inputs": [
        {
          "components": [
            {
              "internalType": "uint256",
              "name": "id",
              "type": "uint256"
            },
            {
              "internalType": "address",
              "name": "from",
              "type": "address"
            },
            {
              "internalType": "address",
              "name": "to",
              "type": "address"
            },
            {
              "internalType": "uint256",
              "name": "productId",
              "type": "uint256"
            }
          ],
          "internalType": "struct SupplyChainNetwork.CompanyContract",
          "name": "companyContract",
          "type": "tuple"
        }
      ],
      "name": "sendContract",
      "outputs": [],
      "stateMutability": "nonpayable",
      "type": "function"
    },
    {
      "inputs": [
        {
          "components": [
            {
              "internalType": "uint256",
              "name": "id",
              "type": "uint256"
            },
            {
              "internalType": "address",
              "name": "from",
              "type": "address"
            },
            {
              "internalType": "address",
              "name": "to",
              "type": "address"
            },
            {
              "internalType": "uint256",
              "name": "productId",
              "type": "uint256"
            }
          ],
          "internalType": "struct SupplyChainNetwork.CompanyContract",
          "name": "companyContract",
          "type": "tuple"
        }
      ],
      "name": "approveContract",
      "outputs": [],
      "stateMutability": "nonpayable",
      "type": "function"
    },
    {
      "inputs": [
        {
          "components": [
            {
              "internalType": "uint256",
              "name": "id",
              "type": "uint256"
            },
            {
              "internalType": "address",
              "name": "from",
              "type": "address"
            },
            {
              "internalType": "address",
              "name": "to",
              "type": "address"
            },
            {
              "internalType": "uint256",
              "name": "productId",
              "type": "uint256"
            }
          ],
          "internalType": "struct SupplyChainNetwork.CompanyContract",
          "name": "companyContract",
          "type": "tuple"
        }
      ],
      "name": "declineContract",
      "outputs": [],
      "stateMutability": "nonpayable",
      "type": "function"
    }
  ],
  "bytecode": "0x6080604052600080546001600160a01b0319163317905534801561002257600080fd5b50615f1180620000336000396000f3fe608060405234801561001057600080fd5b50600436106101495760003560e01c8063127810bc1461014e5780632e1b181e1461016c578063355e6ce814610197578063460c7d63146101b9578063461a218a146101ef5780635bd9668c1461020457806360349e03146102175780636cbcb9ad1461022a57806376d1094f1461023d5780637acc0b20146102505780637d7a14341461027257806391c103f714610285578063a6940801146102a5578063aca0ad79146102b8578063aec0b813146102ff578063b33cf82b14610312578063d1d3849414610325578063d989f5f214610338578063de4495551461034b578063e333476014610380578063e6f4cc1814610393578063ed234e20146103b3578063ed90c7b7146103c6578063f77ee79d146103d9578063f8d12a41146103ec578063fa309ae61461040c578063fbf257ea1461041f575b600080fd5b610156610430565b6040516101639190615b12565b60405180910390f35b60005461017f906001600160a01b031681565b6040516001600160a01b039091168152602001610163565b6101aa6101a53660046153bc565b610d29565b60405161016393929190615ad3565b6101df6101c736600461555c565b60086020526000908152604090206001015460ff1681565b6040519015158152602001610163565b6102026101fd3660046154a6565b610de5565b005b610202610212366004615451565b6112a9565b6101aa61022536600461555c565b611395565b610202610238366004615451565b6113df565b61020261024b366004615451565b61187a565b61026361025e36600461555c565b612128565b60405161016393929190615d6c565b610202610280366004615704565b6121e9565b61029861029336600461555c565b61234c565b6040516101639190615aff565b6102026102b33660046155c8565b6123ce565b6102ea6102c6366004615428565b60036020818152600093845260408085209091529183529120805491015460ff1682565b60408051928352901515602083015201610163565b61020261030d3660046154c1565b61252e565b6102026103203660046154a6565b61346a565b61026361033336600461555c565b613562565b610263610346366004615428565b613584565b6102ea610359366004615428565b60026020908152600092835260408084209091529082529020805460039091015460ff1682565b61020261038e366004615574565b6135ca565b6103a66103a136600461555c565b6135ec565b6040516101639190615c82565b6102026103c13660046153dd565b613704565b6102026103d436600461555c565b6138d0565b6103a66103e736600461555c565b613b45565b6103ff6103fa36600461555c565b613c60565b6040516101639190615c6f565b61020261041a36600461572f565b613fd0565b61020261042d3660046153bc565b50565b61049f60405180610180016040528060006001600160a01b03168152602001600015158152602001606081526020016060815260200160608152602001606081526020016060815260200160608152602001606081526020016060815260200160608152602001606081525090565b3360009081526001602081815260409283902083516101808101855281546001600160a01b0381168252600160a01b900460ff16151592810192909252918201805491938401916104ef90615e19565b80601f016020809104026020016040519081016040528092919081815260200182805461051b90615e19565b80156105685780601f1061053d57610100808354040283529160200191610568565b820191906000526020600020905b81548152906001019060200180831161054b57829003601f168201915b5050505050815260200160028201805480602002602001604051908101604052809291908181526020016000905b828210156106765783829060005260206000209060030201604051806060016040529081600082015481526020016001820180546105d390615e19565b80601f01602080910402602001604051908101604052809291908181526020018280546105ff90615e19565b801561064c5780601f106106215761010080835404028352916020019161064c565b820191906000526020600020905b81548152906001019060200180831161062f57829003601f168201915b50505091835250506002919091015460ff1615156020918201529082526001929092019101610596565b50505050815260200160038201805480602002602001604051908101604052809291908181526020016000905b828210156107835783829060005260206000209060030201604051806060016040529081600082015481526020016001820180546106e090615e19565b80601f016020809104026020016040519081016040528092919081815260200182805461070c90615e19565b80156107595780601f1061072e57610100808354040283529160200191610759565b820191906000526020600020905b81548152906001019060200180831161073c57829003601f168201915b50505091835250506002919091015460ff16151560209182015290825260019290920191016106a3565b50505050815260200160048201805480602002602001604051908101604052809291908181526020016000905b828210156109fd576000848152602090206040805160c081019091526005840290910180546060830190815260018201805484929184916080850191906107f690615e19565b80601f016020809104026020016040519081016040528092919081815260200182805461082290615e19565b801561086f5780601f106108445761010080835404028352916020019161086f565b820191906000526020600020905b81548152906001019060200180831161085257829003601f168201915b50505091835250506002919091015460ff1615156020918201529082526003830180546040805182850281018501909152818152938301939260009084015b8282101561098e5783829060005260206000209060030201604051806060016040529081600082015481526020016001820180546108eb90615e19565b80601f016020809104026020016040519081016040528092919081815260200182805461091790615e19565b80156109645780601f1061093957610100808354040283529160200191610964565b820191906000526020600020905b81548152906001019060200180831161094757829003601f168201915b50505091835250506002919091015460ff16151560209182015290825260019290920191016108ae565b505050508152602001600482018054806020026020016040519081016040528092919081815260200182805480156109e557602002820191906000526020600020905b8154815260200190600101908083116109d1575b505050505081525050815260200190600101906107b0565b50505050815260200160058201805480602002602001604051908101604052809291908181526020018280548015610a5e57602002820191906000526020600020905b81546001600160a01b03168152600190910190602001808311610a40575b5050505050815260200160068201805480602002602001604051908101604052809291908181526020016000905b82821015610ad4576000848152602090819020604080518082019091526002850290910180546001600160a01b03168252600190810154828401529083529092019101610a8c565b50505050815260200160078201805480602002602001604051908101604052809291908181526020016000905b82821015610b6b5760008481526020908190206040805160a08101825260058602909201805483526001808201546001600160a01b039081168587015260028301541692840192909252600381015460608401526004015460808301529083529092019101610b01565b50505050815260200160088201805480602002602001604051908101604052809291908181526020016000905b82821015610c025760008481526020908190206040805160a08101825260058602909201805483526001808201546001600160a01b039081168587015260028301541692840192909252600381015460608401526004015460808301529083529092019101610b98565b50505050815260200160098201805480602002602001604051908101604052809291908181526020016000905b82821015610c8f5760008481526020908190206040805160808101825260048602909201805483526001808201546001600160a01b0390811685870152600283015416928401929092526003015460608301529083529092019101610c2f565b505050508152602001600a8201805480602002602001604051908101604052809291908181526020016000905b82821015610d1c5760008481526020908190206040805160808101825260048602909201805483526001808201546001600160a01b0390811685870152600283015416928401929092526003015460608301529083529092019101610cbc565b5050505081525050905090565b6001602081905260009182526040909120805491810180546001600160a01b03841693600160a01b900460ff16929190610d6290615e19565b80601f0160208091040260200160405190810160405280929190818152602001828054610d8e90615e19565b8015610ddb5780601f10610db057610100808354040283529160200191610ddb565b820191906000526020600020905b815481529060010190602001808311610dbe57829003601f168201915b5050505050905083565b60408101516001600160a01b03163314610dfe57600080fd5b60005b6020808301516001600160a01b0316600090815260019091526040902060080154811015610faf5781516020808401516001600160a01b03166000908152600190915260409020600801805483908110610e6b57634e487b7160e01b600052603260045260246000fd5b9060005260206000209060050201600001541415610f9d57602080830180516001600160a01b03908116600090815260019384905260408082209351909216815220600890810154910191610ebf91615e02565b81548110610edd57634e487b7160e01b600052603260045260246000fd5b90600052602060002090600502016001600084602001516001600160a01b03166001600160a01b031681526020019081526020016000206008018281548110610f3657634e487b7160e01b600052603260045260246000fd5b60009182526020909120825460059092020190815560018083015490820180546001600160a01b039283166001600160a01b031991821617909155600280850154908401805491909316911617905560038083015490820155600491820154910155610faf565b80610fa781615e54565b915050610e01565b506020808201516001600160a01b03166000908152600190915260409020600801805480610fed57634e487b7160e01b600052603160045260246000fd5b6000828152602081206005600019909301928302018181556001810180546001600160a01b031990811690915560028201805490911690556003810182905560040181905591555b6040808301516001600160a01b03166000908152600160205220600701548110156111df5781516040808401516001600160a01b0316600090815260016020522060070180548390811061109957634e487b7160e01b600052603260045260246000fd5b90600052602060002090600502016000015414156111cd57604080830180516001600160a01b0390811660009081526001602081905284822093519092168152929092206007908101549101916110ef91615e02565b8154811061110d57634e487b7160e01b600052603260045260246000fd5b90600052602060002090600502016001600084604001516001600160a01b03166001600160a01b03168152602001908152602001600020600701828154811061116657634e487b7160e01b600052603260045260246000fd5b60009182526020909120825460059092020190815560018083015490820180546001600160a01b039283166001600160a01b0319918216179091556002808501549084018054919093169116179055600380830154908201556004918201549101556111df565b806111d781615e54565b915050611035565b506040808201516001600160a01b0316600090815260016020522060070180548061121a57634e487b7160e01b600052603160045260246000fd5b60008281526020808220600560001990940193840201828155600181810180546001600160a01b031990811690915560028301805490911690556003820184905560049091019290925591909255825190830151604080850151606086015160808701519251600080516020615e9c8339815191529661129e969594914290615d21565b60405180910390a150565b80602001516001600160a01b0316336001600160a01b0316146112cb57600080fd5b602080820180516001600160a01b03908116600090815260018085526040808320600a018054808401825590845286842088516004928302909101908155865181850180549188166001600160a01b0319928316179055838a01805160028085018054928b169285168317905560608d018051600396870155918952958820600901805480890182559089529a9097209a51999093029099019788559551928701805493861693891693909317909255905190850180549190931695169490941790559151910155565b600481815481106113a557600080fd5b60009182526020909120600b9091020180546001820180546001600160a01b0383169450600160a01b90920460ff169291610d6290615e19565b80604001516001600160a01b0316336001600160a01b03161461140157600080fd5b60005b6020808301516001600160a01b03166000908152600190915260409020600a01548110156115a85781516020808401516001600160a01b03166000908152600190915260409020600a0180548390811061146e57634e487b7160e01b600052603260045260246000fd5b906000526020600020906004020160000154141561159657602080830180516001600160a01b03908116600090815260019384905260408082209351909216815220600a908101549101916114c291615e02565b815481106114e057634e487b7160e01b600052603260045260246000fd5b90600052602060002090600402016001600084602001516001600160a01b03166001600160a01b03168152602001908152602001600020600a01828154811061153957634e487b7160e01b600052603260045260246000fd5b60009182526020909120825460049092020190815560018083015490820180546001600160a01b039283166001600160a01b03199182161790915560028085015490840180549190931691161790556003918201549101556115a8565b806115a081615e54565b915050611404565b506020808201516001600160a01b03166000908152600190915260409020600a018054806115e657634e487b7160e01b600052603160045260246000fd5b6000828152602081206004600019909301928302018181556001810180546001600160a01b0319908116909155600282018054909116905560030181905591555b6040808301516001600160a01b03166000908152600160205220600901548110156117c75781516040808401516001600160a01b0316600090815260016020522060090180548390811061168b57634e487b7160e01b600052603260045260246000fd5b90600052602060002090600402016000015414156117b557604080830180516001600160a01b0390811660009081526001602081905284822093519092168152929092206009908101549101916116e191615e02565b815481106116ff57634e487b7160e01b600052603260045260246000fd5b90600052602060002090600402016001600084604001516001600160a01b03166001600160a01b03168152602001908152602001600020600901828154811061175857634e487b7160e01b600052603260045260246000fd5b60009182526020909120825460049092020190815560018083015490820180546001600160a01b039283166001600160a01b03199182161790915560028085015490840180549190931691161790556003918201549101556117c7565b806117bf81615e54565b915050611627565b506040808201516001600160a01b0316600090815260016020522060090180548061180257634e487b7160e01b600052603160045260246000fd5b60008281526020808220600460001990940193840201828155600181810180546001600160a01b031990811690915560028301805490911690556003909101929092559190925582519083015160408085015160608601519151600080516020615ebc8339815191529561129e959493914290615cde565b80604001516001600160a01b0316336001600160a01b03161461189c57600080fd5b602080820180516001600160a01b0390811660009081526003808552604080832060608801805185529087528184208301805460ff191660019081179091559551909416835284865280832093518352600686528220928101805480860182559083529490912082549490910201928355808201805491939283019161192190615e19565b61192c929190614b5b565b50600291820154908201805460ff191660ff9092161515919091179055602082810180516001600160a01b0390811660009081526001808552604080832081518083018352828a0180518716825260608b0151828a0190815260069093018054808701825590875289872092519a0290910180546001600160a01b03199081169a88169a909a178155915191840191909155518416835281865282209351600590940180549182018155825293812090930180549094169116179091555b600454811015611cb257336001600160a01b031660048281548110611a1f57634e487b7160e01b600052603260045260246000fd5b60009182526020909120600b90910201546001600160a01b03161415611ca05760048054611a4f90600190615e02565b81548110611a6d57634e487b7160e01b600052603260045260246000fd5b90600052602060002090600b020160048281548110611a9c57634e487b7160e01b600052603260045260246000fd5b600091825260209091208254600b9092020180546001600160a01b0319166001600160a01b0390921691909117808255825460ff600160a01b918290041615150260ff60a01b199091161781556001808301805491830191611afd90615e19565b611b08929190614b5b565b5060028281018054611b1d9284019190614be6565b5060038281018054611b329284019190614be6565b5060048281018054611b479284019190614c78565b5060058281018054611b5c9284019190614d39565b5060068281018054611b719284019190614d78565b5060078281018054611b869284019190614dec565b5060088281018054611b9b9284019190614dec565b5060098281018054611bb09284019190614e8c565b50600a8281018054611bc59284019190614e8c565b509050506004805480611be857634e487b7160e01b600052603160045260246000fd5b600082815260208120600b6000199093019283020180546001600160a81b031916815590611c196001830182614f22565b611c27600283016000614f5e565b611c35600383016000614f5e565b611c43600483016000614f7f565b611c51600583016000614fa0565b611c5f600683016000614fbe565b611c6d600783016000614fdf565b611c7b600883016000614fdf565b611c89600983016000615000565b611c97600a83016000615000565b50509055611cb2565b80611caa81615e54565b9150506119ea565b5060005b6020808301516001600160a01b03166000908152600190915260409020600a0154811015611e5a5781516020808401516001600160a01b03166000908152600190915260409020600a01805483908110611d2057634e487b7160e01b600052603260045260246000fd5b9060005260206000209060040201600001541415611e4857602080830180516001600160a01b03908116600090815260019384905260408082209351909216815220600a90810154910191611d7491615e02565b81548110611d9257634e487b7160e01b600052603260045260246000fd5b90600052602060002090600402016001600084602001516001600160a01b03166001600160a01b03168152602001908152602001600020600a018281548110611deb57634e487b7160e01b600052603260045260246000fd5b60009182526020909120825460049092020190815560018083015490820180546001600160a01b039283166001600160a01b0319918216179091556002808501549084018054919093169116179055600391820154910155611e5a565b80611e5281615e54565b915050611cb6565b506020808201516001600160a01b03166000908152600190915260409020600a01805480611e9857634e487b7160e01b600052603160045260246000fd5b6000828152602081206004600019909301928302018181556001810180546001600160a01b0319908116909155600282018054909116905560030181905591555b6040808301516001600160a01b03166000908152600160205220600901548110156120795781516040808401516001600160a01b03166000908152600160205220600901805483908110611f3d57634e487b7160e01b600052603260045260246000fd5b906000526020600020906004020160000154141561206757604080830180516001600160a01b039081166000908152600160208190528482209351909216815292909220600990810154910191611f9391615e02565b81548110611fb157634e487b7160e01b600052603260045260246000fd5b90600052602060002090600402016001600084604001516001600160a01b03166001600160a01b03168152602001908152602001600020600901828154811061200a57634e487b7160e01b600052603260045260246000fd5b60009182526020909120825460049092020190815560018083015490820180546001600160a01b039283166001600160a01b0319918216179091556002808501549084018054919093169116179055600391820154910155612079565b8061207181615e54565b915050611ed9565b506040808201516001600160a01b031660009081526001602052206009018054806120b457634e487b7160e01b600052603160045260246000fd5b600082815260208082206004600019909401938402018281556001810180546001600160a01b031990811690915560028201805490911690556003018290559190925582519083015160408085015160608601519151600080516020615ebc8339815191529561129e959493914290615cde565b6007818154811061213857600080fd5b6000918252602090912060039091020180546001820180549193509061215d90615e19565b80601f016020809104026020016040519081016040528092919081815260200182805461218990615e19565b80156121d65780601f106121ab576101008083540402835291602001916121d6565b820191906000526020600020905b8154815290600101906020018083116121b957829003601f168201915b5050506002909301549192505060ff1683565b60005b336000908152600560205260409020548110156122ed5733600090815260056020526040902080548591908390811061223557634e487b7160e01b600052603260045260246000fd5b90600052602060002090600302016000015414156122db5733600090815260026020908152604080832087845290915281208054859290612277908490615dea565b9091555050336000908152600260208181526040808420888552825283206001808201805480830182559086528386200187905592810180548085018255908552918420909101869055918690526003909101805460ff1916909117905550612347565b806122e581615e54565b9150506121ec565b5060405162461bcd60e51b815260206004820152602360248201527f6d73672e73656e646572206973206e6f74207468652070726f64756374206f776044820152623732b960e91b60648201526084015b60405180910390fd5b505050565b60008181526008602052604090206001015460609060ff1661236d57600080fd5b600082815260086020908152604091829020805483518184028101840190945280845290918301828280156123c157602002820191906000526020600020905b8154815260200190600101908083116123ad575b505050505090505b919050565b33600090815260016020526040902054600160a01b900460ff166123f157600080fd5b6123fc84843361494b565b33600090815260016020818152604083206004018054928301815583528220600590910201905b83518110156124c1578160030184828151811061245057634e487b7160e01b600052603260045260246000fd5b6020908102919091018101518254600181810185556000948552938390208251600390920201908155818301518051929491936124939392850192910190615021565b50604091909101516002909101805460ff1916911515919091179055806124b981615e54565b915050612423565b50600085815260066020526040902080548255600180820180548492830191906124ea90615e19565b6124f5929190614b5b565b506002918201549101805460ff191660ff909216151591909117905581516125269060048301906020850190615095565b505050505050565b60408201516001600160a01b0316331461254757600080fd5b60005b6040808401516001600160a01b031660009081526002602090815282822060608701518352905220600101548110156127ae5760005b825181101561279b578281815181106125a957634e487b7160e01b600052603260045260246000fd5b60200260200101516000815181106125d157634e487b7160e01b600052603260045260246000fd5b6020908102919091018101516040808701516001600160a01b03166000908152600284528181206060890151825290935290912060010180548490811061262857634e487b7160e01b600052603260045260246000fd5b906000526020600020015414156127895782818151811061265957634e487b7160e01b600052603260045260246000fd5b602002602001015160018151811061268157634e487b7160e01b600052603260045260246000fd5b6020908102919091018101516040808701516001600160a01b03166000908152600284528181206060890151825290935282208054919290916126c5908490615e02565b925050819055508281815181106126ec57634e487b7160e01b600052603260045260246000fd5b602002602001015160018151811061271457634e487b7160e01b600052603260045260246000fd5b6020908102919091018101516040808701516001600160a01b03166000908152600280855282822060608a015183529094522090910180548490811061276a57634e487b7160e01b600052603260045260246000fd5b9060005260206000200160008282546127839190615e02565b90915550505b8061279381615e54565b915050612580565b50806127a681615e54565b91505061254a565b506040808301516001600160a01b0316600090815260026020908152828220606086015183529052908120600101546001600160401b0381111561280257634e487b7160e01b600052604160045260246000fd5b60405190808252806020026020018201604052801561282b578160200160208202803683370190505b506040808501516001600160a01b031660009081526002602081815283832060608901518452905291812090910154919250906001600160401b0381111561288357634e487b7160e01b600052604160045260246000fd5b6040519080825280602002602001820160405280156128ac578160200160208202803683370190505b5090506000805b6040808701516001600160a01b031660009081526002602081815283832060608b0151845290529190200154811015612a67576040808701516001600160a01b031660009081526002602081815283832060608b01518452905291812090910180548390811061293357634e487b7160e01b600052603260045260246000fd5b90600052602060002001541115612a55576040808701516001600160a01b031660009081526002602090815282822060608a0151835290522060010180548290811061298f57634e487b7160e01b600052603260045260246000fd5b90600052602060002001548483815181106129ba57634e487b7160e01b600052603260045260246000fd5b6020908102919091018101919091526040808801516001600160a01b03166000908152600280845282822060608b015183529093522001805482908110612a1157634e487b7160e01b600052603260045260246000fd5b9060005260206000200154838381518110612a3c57634e487b7160e01b600052603260045260246000fd5b602090810291909101015281612a5181615e54565b9250505b80612a5f81615e54565b9150506128b3565b506000816001600160401b03811115612a9057634e487b7160e01b600052604160045260246000fd5b604051908082528060200260200182016040528015612ab9578160200160208202803683370190505b50905060005b82811015612b2c57848181518110612ae757634e487b7160e01b600052603260045260246000fd5b6020026020010151828281518110612b0f57634e487b7160e01b600052603260045260246000fd5b602090810291909101015280612b2481615e54565b915050612abf565b506040808701516001600160a01b031660009081526002602090815282822060608a0151835281529190208251612b6b92600190920191840190615095565b5060005b82811015612bdc57838181518110612b9757634e487b7160e01b600052603260045260246000fd5b6020026020010151828281518110612bbf57634e487b7160e01b600052603260045260246000fd5b602090810291909101015280612bd481615e54565b915050612b6f565b506040808701516001600160a01b031660009081526002602081815283832060608b015184528152929091208351612c1c93919092019190840190615095565b5060005b8551811015612fbd576000805b6020808a01516001600160a01b0316600090815260038252604080822060608d015183529092522060010154811015612de657878381518110612c8057634e487b7160e01b600052603260045260246000fd5b6020026020010151600081518110612ca857634e487b7160e01b600052603260045260246000fd5b6020908102919091018101518a8201516001600160a01b0316600090815260038352604080822060608e0151835290935291909120600101805483908110612d0057634e487b7160e01b600052603260045260246000fd5b90600052602060002001541415612dd457878381518110612d3157634e487b7160e01b600052603260045260246000fd5b6020026020010151600181518110612d5957634e487b7160e01b600052603260045260246000fd5b6020908102919091018101518a8201516001600160a01b0316600090815260038352604080822060608e0151835290935291909120600201805483908110612db157634e487b7160e01b600052603260045260246000fd5b906000526020600020016000828254612dca9190615dea565b9091555060019250505b80612dde81615e54565b915050612c2d565b5080612f16576020808901516001600160a01b0316600090815260038252604080822060608c01518352909252208751600190910190889084908110612e3c57634e487b7160e01b600052603260045260246000fd5b6020026020010151600081518110612e6457634e487b7160e01b600052603260045260246000fd5b602090810291909101810151825460018101845560009384528284200155898101516001600160a01b0316825260038152604080832060608c0151845290915290208751600290910190889084908110612ece57634e487b7160e01b600052603260045260246000fd5b6020026020010151600181518110612ef657634e487b7160e01b600052603260045260246000fd5b602090810291909101810151825460018101845560009384529190922001555b868281518110612f3657634e487b7160e01b600052603260045260246000fd5b6020026020010151600181518110612f5e57634e487b7160e01b600052603260045260246000fd5b602090810291909101810151898201516001600160a01b0316600090815260038352604080822060608d01518352909352918220805491929091612fa3908490615dea565b90915550829150612fb5905081615e54565b915050612c20565b5060005b6020808801516001600160a01b031660009081526001909152604090206008015481101561316f5786516020808901516001600160a01b0316600090815260019091526040902060080180548390811061302b57634e487b7160e01b600052603260045260246000fd5b906000526020600020906005020160000154141561315d57602080880180516001600160a01b0390811660009081526001938490526040808220935190921681522060089081015491019161307f91615e02565b8154811061309d57634e487b7160e01b600052603260045260246000fd5b90600052602060002090600502016001600089602001516001600160a01b03166001600160a01b0316815260200190815260200160002060080182815481106130f657634e487b7160e01b600052603260045260246000fd5b60009182526020909120825460059092020190815560018083015490820180546001600160a01b039283166001600160a01b03199182161790915560028085015490840180549190931691161790556003808301549082015560049182015491015561316f565b8061316781615e54565b915050612fc1565b506020808701516001600160a01b031660009081526001909152604090206008018054806131ad57634e487b7160e01b600052603160045260246000fd5b6000828152602081206005600019909301928302018181556001810180546001600160a01b031990811690915560028201805490911690556003810182905560040181905591555b6040808801516001600160a01b031660009081526001602052206007015481101561339f5786516040808901516001600160a01b0316600090815260016020522060070180548390811061325957634e487b7160e01b600052603260045260246000fd5b906000526020600020906005020160000154141561338d57604080880180516001600160a01b0390811660009081526001602081905284822093519092168152929092206007908101549101916132af91615e02565b815481106132cd57634e487b7160e01b600052603260045260246000fd5b90600052602060002090600502016001600089604001516001600160a01b03166001600160a01b03168152602001908152602001600020600701828154811061332657634e487b7160e01b600052603260045260246000fd5b60009182526020909120825460059092020190815560018083015490820180546001600160a01b039283166001600160a01b03199182161790915560028085015490840180549190931691161790556003808301549082015560049182015491015561339f565b8061339781615e54565b9150506131f5565b506040808701516001600160a01b031660009081526001602052206007018054806133da57634e487b7160e01b600052603160045260246000fd5b600082815260208082206005600019909401938402018281556001810180546001600160a01b0319908116909155600282018054909116905560038101839055600401829055919092558751908801516040808a015160608b015160808c01519251600080516020615e9c8339815191529661345a969594914290615d21565b60405180910390a1505050505050565b60208101516001600160a01b0316331461348357600080fd5b602080820180516001600160a01b039081166000908152600180855260408083206008018054808401825590845286842088516005928302909101908155865181850180549188166001600160a01b0319928316179055838a01805160028085018054928b169285168317905560608d01805160038088019190915560808f018051600498890155938b52978a206007018054808b018255908b529c9099209c519b909502909b01998a559751948901805495881695821695909517909455955190870180549190951692169190911790925551908301559151910155565b6006602052600090815260409020805460018201805491929161215d90615e19565b600560205281600052604060002081815481106135a057600080fd5b90600052602060002090600302016000915091505080600001549080600101805461215d90615e19565b6000546001600160a01b031633146135e157600080fd5b61234783838361494b565b6135f46150cf565b336000818152600160205260409020546001600160a01b03161461361757600080fd5b3360009081526003602090815260408083208584528252918290208251608081018452815481526001820180548551818602810186019096528086529194929385810193929083018282801561368c57602002820191906000526020600020905b815481526020019060010190808311613678575b50505050508152602001600282018054806020026020016040519081016040528092919081815260200182805480156136e457602002820191906000526020600020905b8154815260200190600101908083116136d0575b50505091835250506003919091015460ff16151560209091015292915050565b6000546001600160a01b0316331461371b57600080fd5b6001600160a01b03821660009081526001602081815260409092208351909261374a9284019190850190615021565b50805460ff60a01b196001600160a01b038086166001600160a01b0319938416178216600160a01b908117855560048054600181810183556000929092528654600b9091027f8a35acfbc15ff81a39ae7d344fd709f28e8600b4aa8c65c6b64bfe7fe36bd19b810180549097169190941617808655865483900460ff1615159092029190931617835590830180548493927f8a35acfbc15ff81a39ae7d344fd709f28e8600b4aa8c65c6b64bfe7fe36bd19c01919061380890615e19565b613813929190614b5b565b50600282810180546138289284019190614be6565b506003828101805461383d9284019190614be6565b50600482810180546138529284019190614c78565b50600582810180546138679284019190614d39565b506006828101805461387c9284019190614d78565b50600782810180546138919284019190614dec565b50600882810180546138a69284019190614dec565b50600982810180546138bb9284019190614e8c565b50600a82810180546125269284019190614e8c565b33600090815260016020526040902054600160a01b900460ff166138f357600080fd5b6000805b600754811015613a125760006007828154811061392457634e487b7160e01b600052603260045260246000fd5b90600052602060002090600302016040518060600160405290816000820154815260200160018201805461395790615e19565b80601f016020809104026020016040519081016040528092919081815260200182805461398390615e19565b80156139d05780601f106139a5576101008083540402835291602001916139d0565b820191906000526020600020905b8154815290600101906020018083116139b357829003601f168201915b50505091835250506002919091015460ff16151560209091015280519091508414156139ff5781925050613a12565b5080613a0a81615e54565b9150506138f7565b5060078054613a2390600190615e02565b81548110613a4157634e487b7160e01b600052603260045260246000fd5b906000526020600020906003020160078281548110613a7057634e487b7160e01b600052603260045260246000fd5b9060005260206000209060030201600082015481600001556001820181600101908054613a9c90615e19565b613aa7929190614b5b565b506002918201549101805460ff191660ff90921615159190911790556007805480613ae257634e487b7160e01b600052603160045260246000fd5b60008281526020812060036000199093019283020181815590613b086001830182614f22565b50600201805460ff191690559055600082815260066020526040812081815590613b356001830182614f22565b50600201805460ff191690555050565b613b4d6150cf565b33600090815260026020908152604080832085845290915290206003015460ff16613b7757600080fd5b3360009081526002602090815260408083208584528252918290208251608081018452815481526001820180548551818602810186019096528086529194929385810193929083018282801561368c57602002820191906000526020600020908154815260200190600101908083116136785750505050508152602001600282018054806020026020016040519081016040528092919081815260200182805480156136e457602002820191906000526020600020908154815260200190600101908083116136d05750505091835250506003919091015460ff16151560209091015292915050565b613c686150f9565b336000818152600160205260409020546001600160a01b031614613c8b57600080fd5b60005b33600090815260016020526040902060040154811015613f7b57336000908152600160205260409020600401805484919083908110613cdd57634e487b7160e01b600052603260045260246000fd5b60009182526020909120600590910201541415613f6957336000908152600160205260409020600401805482908110613d2657634e487b7160e01b600052603260045260246000fd5b90600052602060002090600502016040518060600160405290816000820160405180606001604052908160008201548152602001600182018054613d6990615e19565b80601f0160208091040260200160405190810160405280929190818152602001828054613d9590615e19565b8015613de25780601f10613db757610100808354040283529160200191613de2565b820191906000526020600020905b815481529060010190602001808311613dc557829003601f168201915b50505091835250506002919091015460ff1615156020918201529082526003830180546040805182850281018501909152818152938301939260009084015b82821015613f01578382906000526020600020906003020160405180606001604052908160008201548152602001600182018054613e5e90615e19565b80601f0160208091040260200160405190810160405280929190818152602001828054613e8a90615e19565b8015613ed75780601f10613eac57610100808354040283529160200191613ed7565b820191906000526020600020905b815481529060010190602001808311613eba57829003601f168201915b50505091835250506002919091015460ff1615156020918201529082526001929092019101613e21565b50505050815260200160048201805480602002602001604051908101604052809291908181526020018280548015613f5857602002820191906000526020600020905b815481526020019060010190808311613f44575b5050505050815250509150506123c9565b80613f7381615e54565b915050613c8e565b5060405162461bcd60e51b8152602060048201526024808201527f526563697065206e6f7420666f756e6420666f7220746861742070726f6475636044820152631d08125160e21b606482015260840161233e565b336000818152600160205260409020546001600160a01b031614613ff357600080fd5b60005b83518110156148bd5760005b336000908152600360205260408120865190919087908590811061403657634e487b7160e01b600052603260045260246000fd5b60200260200101518152602001908152602001600020600101805490508110156143175760005b8451811015614304576000878152600860205260409020855186908390811061409657634e487b7160e01b600052603260045260246000fd5b602090810291909101810151825460018181018555600094855283852090910191909155898352600890915260409091208101805460ff1916909117905584518590829081106140f657634e487b7160e01b600052603260045260246000fd5b602002602001015160036000336001600160a01b03166001600160a01b03168152602001908152602001600020600088868151811061414557634e487b7160e01b600052603260045260246000fd5b60200260200101518152602001908152602001600020600101838154811061417d57634e487b7160e01b600052603260045260246000fd5b906000526020600020015414156142f2578381815181106141ae57634e487b7160e01b600052603260045260246000fd5b602002602001015160036000336001600160a01b03166001600160a01b0316815260200190815260200160002060008886815181106141fd57634e487b7160e01b600052603260045260246000fd5b60200260200101518152602001908152602001600020600201838154811061423557634e487b7160e01b600052603260045260246000fd5b90600052602060002001600082825461424e9190615e02565b9250508190555083818151811061427557634e487b7160e01b600052603260045260246000fd5b602002602001015160036000336001600160a01b03166001600160a01b0316815260200190815260200160002060008886815181106142c457634e487b7160e01b600052603260045260246000fd5b6020026020010151815260200190815260200160002060000160008282546142ec9190615e02565b90915550505b806142fc81615e54565b91505061405d565b508061430f81615e54565b915050614002565b503360009081526003602052604081208551829087908590811061434b57634e487b7160e01b600052603260045260246000fd5b60200260200101518152602001908152602001600020600101805490506001600160401b0381111561438d57634e487b7160e01b600052604160045260246000fd5b6040519080825280602002602001820160405280156143b6578160200160208202803683370190505b503360009081526003602052604081208751929350909182908890869081106143ef57634e487b7160e01b600052603260045260246000fd5b60200260200101518152602001908152602001600020600201805490506001600160401b0381111561443157634e487b7160e01b600052604160045260246000fd5b60405190808252806020026020018201604052801561445a578160200160208202803683370190505b5090506000805b33600090815260036020526040812089519091908a908890811061449557634e487b7160e01b600052603260045260246000fd5b60200260200101518152602001908152602001600020600201805490508110156146ad57336000908152600360205260408120895182908b90899081106144ec57634e487b7160e01b600052603260045260246000fd5b60200260200101518152602001908152602001600020600201828154811061452457634e487b7160e01b600052603260045260246000fd5b9060005260206000200154111561469b5733600090815260036020526040812089519091908a908890811061456957634e487b7160e01b600052603260045260246000fd5b6020026020010151815260200190815260200160002060010181815481106145a157634e487b7160e01b600052603260045260246000fd5b90600052602060002001548483815181106145cc57634e487b7160e01b600052603260045260246000fd5b60200260200101818152505060036000336001600160a01b03166001600160a01b03168152602001908152602001600020600089878151811061461f57634e487b7160e01b600052603260045260246000fd5b60200260200101518152602001908152602001600020600201818154811061465757634e487b7160e01b600052603260045260246000fd5b906000526020600020015483838151811061468257634e487b7160e01b600052603260045260246000fd5b60209081029190910101528161469781615e54565b9250505b806146a581615e54565b915050614461565b506000816001600160401b038111156146d657634e487b7160e01b600052604160045260246000fd5b6040519080825280602002602001820160405280156146ff578160200160208202803683370190505b50905060005b828110156147725784818151811061472d57634e487b7160e01b600052603260045260246000fd5b602002602001015182828151811061475557634e487b7160e01b600052603260045260246000fd5b60209081029190910101528061476a81615e54565b915050614705565b5033600090815260036020526040812089518392908b90899081106147a757634e487b7160e01b600052603260045260246000fd5b6020026020010151815260200190815260200160002060010190805190602001906147d3929190615095565b5060005b82811015614844578381815181106147ff57634e487b7160e01b600052603260045260246000fd5b602002602001015182828151811061482757634e487b7160e01b600052603260045260246000fd5b60209081029190910101528061483c81615e54565b9150506147d7565b5033600090815260036020526040812089518392908b908990811061487957634e487b7160e01b600052603260045260246000fd5b6020026020010151815260200190815260200160002060020190805190602001906148a5929190615095565b505050505080806148b590615e54565b915050613ff6565b50336000908152600260209081526040808320898452909152812080548792906148e8908490615dea565b90915550503360009081526002602081815260408084208a85528252832060018082018054808301825590865283862001989098559182018054808901825590845290832001969096559590955250506003909101805460ff1916909117905550565b6001600160a01b038116600090815260056020908152604080832081516060810183528781528084018781526001938201849052825480850184559286529484902081516003909302019182559351805191936149ad93850192910190615021565b506040918201516002918201805460ff19169115159190911790556001600160a01b03831660009081526001602081815284832085516060810187528981528083018981529681018490529401805480840182559084529281902084516003909402019283559351805193949293614a2d93928501929190910190615021565b50604091820151600291909101805460ff191691151591909117905580516060810182528481526020808201858152600183850181905260008881526006845294909420835181559051805193949193614a8f93928501929190910190615021565b506040918201516002909101805491151560ff19909216919091179055805160608101825284815260208082018581526001938301849052600780549485018155600052825160039094027fa66cc928b5edb82af9bd49922954155ab7b0942694bea4ce44661d9a8736c688810194855590518051939493614b3a937fa66cc928b5edb82af9bd49922954155ab7b0942694bea4ce44661d9a8736c689909301929190910190615021565b50604091909101516002909101805460ff1916911515919091179055505050565b828054614b6790615e19565b90600052602060002090601f016020900481019282614b895760008555614bd6565b82601f10614b9a5780548555614bd6565b82800160010185558215614bd657600052602060002091601f016020900482015b82811115614bd6578254825591600101919060010190614bbb565b50614be292915061513e565b5090565b828054828255906000526020600020906003028101928215614c6c5760005260206000209160030282015b82811115614c6c5782548255600180840180548592859290830191614c3590615e19565b614c40929190614b5b565b506002918201549101805460ff191660ff90921615159190911790556003928301929190910190614c11565b50614be2929150615153565b828054828255906000526020600020906005028101928215614d2d5760005260206000209160050282015b82811115614d2d578254825560018084018054859285928492849283019190614ccb90615e19565b614cd6929190614b5b565b506002918201549101805460ff191660ff909216151591909117905560038281018054614d069284019190614be6565b5060048281018054614d1b9284019190614d39565b50505091600501919060050190614ca3565b50614be2929150615182565b828054828255906000526020600020908101928215614bd657600052602060002091820182811115614bd6578254825591600101919060010190614bbb565b828054828255906000526020600020906002028101928215614de05760005260206000209160020282015b82811115614de057825482546001600160a01b0319166001600160a01b039091161782556001808401549083015560029283019290910190614da3565b50614be29291506151cf565b828054828255906000526020600020906005028101928215614e805760005260206000209160050282015b82811115614e80578254825560018084015490830180546001600160a01b039283166001600160a01b0319918216179091556002808601549085018054919093169116179055600380840154908301556004808401549083015560059283019290910190614e17565b50614be29291506151f5565b828054828255906000526020600020906004028101928215614f165760005260206000209160040282015b82811115614f16578254825560018084015490830180546001600160a01b039283166001600160a01b03199182161790915560028086015490850180549190931691161790556003808401549083015560049283019290910190614eb7565b50614be2929150615237565b508054614f2e90615e19565b6000825580601f10614f40575061042d565b601f01602090049060005260206000209081019061042d919061513e565b508054600082556003029060005260206000209081019061042d9190615153565b508054600082556005029060005260206000209081019061042d9190615182565b508054600082559060005260206000209081019061042d919061513e565b508054600082556002029060005260206000209081019061042d91906151cf565b508054600082556005029060005260206000209081019061042d91906151f5565b508054600082556004029060005260206000209081019061042d9190615237565b82805461502d90615e19565b90600052602060002090601f01602090048101928261504f5760008555614bd6565b82601f1061506857805160ff1916838001178555614bd6565b82800160010185558215614bd6579182015b82811115614bd657825182559160200191906001019061507a565b828054828255906000526020600020908101928215614bd65791602002820182811115614bd657825182559160200191906001019061507a565b60405180608001604052806000815260200160608152602001606081526020016000151581525090565b604051806060016040528061512a604051806060016040528060008152602001606081526020016000151581525090565b815260200160608152602001606081525090565b5b80821115614be2576000815560010161513f565b80821115614be257600080825561516d6001830182614f22565b5060028101805460ff19169055600301615153565b80821115614be2576000808255818161519e6001830182614f22565b50600201805460ff191690556151b8600383016000614f5e565b6151c6600483016000614fa0565b50600501615182565b5b80821115614be25780546001600160a01b0319168155600060018201556002016151d0565b5b80821115614be25760008082556001820180546001600160a01b031990811690915560028301805490911690556003820181905560048201556005016151f6565b5b80821115614be25760008082556001820180546001600160a01b031990811690915560028301805490911690556003820155600401615238565b80356001600160a01b03811681146123c957600080fd5b600082601f830112615299578081fd5b813560206152ae6152a983615dc7565b615d97565b82815281810190858301838502870184018810156152ca578586fd5b855b858110156152e8578135845292840192908401906001016152cc565b5090979650505050505050565b600082601f830112615305578081fd5b81356001600160401b0381111561531e5761531e615e85565b615331601f8201601f1916602001615d97565b818152846020838601011115615345578283fd5b816020850160208301379081016020019190915292915050565b600060a08284031215615370578081fd5b61537a60a0615d97565b90508135815261538c60208301615272565b602082015261539d60408301615272565b6040820152606082013560608201526080820135608082015292915050565b6000602082840312156153cd578081fd5b6153d682615272565b9392505050565b600080604083850312156153ef578081fd5b6153f883615272565b915060208301356001600160401b03811115615412578182fd5b61541e858286016152f5565b9150509250929050565b6000806040838503121561543a578182fd5b61544383615272565b946020939093013593505050565b600060808284031215615462578081fd5b61546c6080615d97565b8235815261547c60208401615272565b602082015261548d60408401615272565b6040820152606083013560608201528091505092915050565b600060a082840312156154b7578081fd5b6153d6838361535f565b60008060c083850312156154d3578182fd5b6154dd848461535f565b915060a08301356001600160401b038111156154f7578182fd5b8301601f81018513615507578182fd5b803560206155176152a983615dc7565b82815281810190848301865b8581101561554c5761553a8b8684358a0101615289565b84529284019290840190600101615523565b5096999098509650505050505050565b60006020828403121561556d578081fd5b5035919050565b600080600060608486031215615588578081fd5b8335925060208401356001600160401b038111156155a4578182fd5b6155b0868287016152f5565b9250506155bf60408501615272565b90509250925092565b600080600080608085870312156155dd578182fd5b8435935060208501356001600160401b03808211156155fa578384fd5b615606888389016152f5565b9450604087013591508082111561561b578384fd5b818701915087601f83011261562e578384fd5b61563b6152a98335615dc7565b82358152602080820191908401865b85358110156156d257813586016060818e03601f1901121561566a578889fd5b6156746060615d97565b6020820135815260408201358781111561568c578a8bfd5b61569b8f6020838601016152f5565b6020830152506060820135915081151582146156b557898afd5b60408101919091528452602093840193919091019060010161564a565b50909550505060608701359150808211156156eb578283fd5b506156f887828801615289565b91505092959194509250565b600080600060608486031215615718578081fd5b505081359360208301359350604090920135919050565b60008060008060008060c08789031215615747578384fd5b86359550602087013594506040870135935060608701356001600160401b0380821115615772578384fd5b61577e8a838b01615289565b94506080890135915080821115615793578384fd5b61579f8a838b01615289565b935060a08901359150808211156157b4578283fd5b506157c189828a01615289565b9150509295509295509295565b6000815180845260208085019450808401835b838110156158065781516001600160a01b0316875295820195908201906001016157e1565b509495945050505050565b6000815180845260208085019450808401835b8381101561580657815180518852838101516001600160a01b03908116858a0152604080830151909116908901526060908101519088015260809096019590820190600101615824565b6000815180845260208085019450808401835b8381101561580657815180516001600160a01b031688528301518388015260409096019590820190600101615881565b6000815180845260208085018081965082840281019150828601855b858110156158f75782840389526158e5848351615a4d565b988501989350908401906001016158cd565b5091979650505050505050565b6000815180845260208085018081965082840281019150828601855b858110156158f7578284038952615938848351615a82565b98850198935090840190600101615920565b6000815180845260208085019450808401835b8381101561580657815180518852838101516001600160a01b03908116858a015260408083015190911690890152606080820151908901526080908101519088015260a0909601959082019060010161595d565b6000815180845260208085019450808401835b83811015615806578151875295820195908201906001016159c4565b600281106159fe57634e487b7160e01b600052602160045260246000fd5b9052565b60008151808452815b81811015615a2757602081850181015186830182015201615a0b565b81811115615a385782602083870101525b50601f01601f19169290920160200192915050565b600081518352602082015160606020850152615a6c6060850182615a02565b6040938401511515949093019390935250919050565b6000815160608452615a976060850182615a4d565b905060208301518482036020860152615ab082826158b1565b91505060408301518482036040860152615aca82826159b1565b95945050505050565b6001600160a01b03841681528215156020820152606060408201819052600090615aca90830184615a02565b6000602082526153d660208301846159b1565b600060208252615b2e6020830184516001600160a01b03169052565b60208301518015156040840152506040830151610180806060850152615b586101a0850183615a02565b91506060850151601f1980868503016080870152615b7684836158b1565b935060808701519150808685030160a0870152615b9384836158b1565b935060a08701519150808685030160c0870152615bb08483615904565b935060c08701519150808685030160e0870152615bcd84836157ce565b935060e08701519150610100818786030181880152615bec858461586e565b945080880151925050610120818786030181880152615c0b858461594a565b945080880151925050610140818786030181880152615c2a858461594a565b945080880151925050610160818786030181880152615c498584615811565b908801518782039092018488015293509050615c658382615811565b9695505050505050565b6000602082526153d66020830184615a82565b60006020825282516020830152602083015160806040840152615ca860a08401826159b1565b90506040840151601f19848303016060850152615cc582826159b1565b9150506060840151151560808401528091505092915050565b8681526001600160a01b038681166020830152851660408201526060810184905260c08101615d1060808301856159e0565b8260a0830152979650505050505050565b8781526001600160a01b03878116602083015286166040820152606081018590526080810184905260e08101615d5a60a08301856159e0565b8260c083015298975050505050505050565b600084825260606020830152615d856060830185615a02565b90508215156040830152949350505050565b604051601f8201601f191681016001600160401b0381118282101715615dbf57615dbf615e85565b604052919050565b60006001600160401b03821115615de057615de0615e85565b5060209081020190565b60008219821115615dfd57615dfd615e6f565b500190565b600082821015615e1457615e14615e6f565b500390565b600281046001821680615e2d57607f821691505b60208210811415615e4e57634e487b7160e01b600052602260045260246000fd5b50919050565b6000600019821415615e6857615e68615e6f565b5060010190565b634e487b7160e01b600052601160045260246000fd5b634e487b7160e01b600052604160045260246000fdfe68b37f68a2bc54c3d620d48da778df9369fa9e2a3a8fef7d7e57cecd1e860d8c227887aafc5cf62347d1151727ff1d51b157f84ee8159c8b3b37ae225fd1c06da26469706673582212201280fdaab5291b6798d02ac4992c157024dd40f1ece33eb6deaded93e27145cf64736f6c63430008020033",
  "immutableReferences": {},
  "source": "// SPDX-License-Identifier: MIT\npragma solidity ^0.8;\npragma experimental ABIEncoderV2;\n\ncontract SupplyChainNetwork {\n    address public networkOwner = msg.sender;\n    struct Product {\n        uint productId;\n        string productName;\n        bool exist;\n    }\n    struct CompanyContract {\n        uint id;\n        address from;\n        address to;\n        uint productId;\n    }\n    struct CompanyProduct {\n        address companyId;\n        uint productId;\n    }\n    struct Recipe {\n        Product supply;\n        Product[] prerequisites;\n        uint[] quantities;\n    }\n    struct Request {\n        uint id;\n        address from;\n        address to;\n        uint productId;\n        uint quantity;\n    }\n    struct Supply {\n        uint total;\n        uint[] supplyId;\n        uint[] quantities;\n        bool exist;\n    }\n    struct PastSupply {\n        uint[] pastSupply;\n        bool exist;\n    }\n    struct Company {\n        address owner;\n        bool exist;\n        string name;\n        Product[] listOfSupply;\n        Product[] listOfPrerequisites;\n        Recipe[] recipes;\n        address[] upstream;\n        CompanyProduct[] downstream;\n        Request[] incomingRequests;\n        Request[] outgoingRequests;\n        CompanyContract[] incomingContract;\n        CompanyContract[] outgoingContract;\n    }\n    mapping(address => Company) public companies;\n    mapping(address => mapping(uint => Supply)) public companySupplies;\n    mapping(address => mapping(uint => Supply)) public companyPrerequisiteSupplies;\n    Company[] public headCompanies;\n    mapping(address => Product[]) public productOwners;\n    mapping(uint => Product) public listOfProducts;\n    Product[] public products;\n    mapping(uint => PastSupply) public pastSupplies; // uint[] refers to supplyId from MongoDB\n    enum STATE {\n        APPROVED,\n        REJECTED\n    }\n    event Requests(uint requestId, address from, address to, uint productId, uint quantity, STATE state, uint256 timestamp);\n    event Contracts(uint id, address from, address to, uint productId, STATE state, uint256 timestamp);\n\n    function addCompany(address owner, string memory name) public {\n        require(msg.sender == networkOwner);\n        // require(!companies[owner].exist, \"Address has a company already\");\n        Company storage company = companies[owner];\n        company.name = name;\n        company.owner = owner;\n        company.exist = true;\n        headCompanies.push(company);\n    }\n    function deleteCompany(address companyAddress) public {}\n    function addProduct(uint productId, string memory productName, address owner) private {\n        // require(!listOfProducts[productId].exist, \"Product already exists in the network\");\n        productOwners[owner].push(Product({\n            productId: productId,\n            productName: productName,\n            exist: true\n        }));\n        companies[owner].listOfSupply.push(Product({\n            productId: productId,\n            productName: productName,\n            exist: true\n        }));\n        listOfProducts[productId] = Product({\n            productId: productId,\n            productName: productName,\n            exist: true\n        });\n        products.push(Product({\n            productId: productId,\n            productName: productName,\n            exist: true\n        }));\n    }\n    function addProductWithoutRecipe(uint productId, string memory productName, address owner) public {\n        require(msg.sender == networkOwner);\n        // require(!listOfProducts[productId].exist, \"Product already exists in the network\");\n        addProduct(productId, productName, owner);\n    }\n    function addProductWithRecipe(uint productId, string memory productName, Product[] memory prerequisiteSupplies, uint[] memory quantityPrerequisiteSupplies) public {\n        require(companies[msg.sender].exist);\n        addProduct(productId, productName, msg.sender);\n        Recipe storage recipe = companies[msg.sender].recipes.push();\n        for(uint i = 0; i < prerequisiteSupplies.length; i++) {\n            recipe.prerequisites.push(prerequisiteSupplies[i]);\n        }\n        recipe.supply = listOfProducts[productId];\n        recipe.quantities = quantityPrerequisiteSupplies;\n    }\n    function deleteProduct(uint productId) public {\n        require(companies[msg.sender].exist);\n        // require(listOfProducts[productId].exist, \"Product does not exist in the network\");\n        uint productIndex = 0;\n        for(uint index = 0; index < products.length; index++) {\n            Product memory product = products[index];\n            if(product.productId == productId) {\n                productIndex = index;\n                break;\n            }\n        }\n        products[productIndex] = products[products.length - 1];\n        products.pop();\n        delete listOfProducts[productId];\n    }\n    function getCompany() public view returns (Company memory) {\n        return companies[msg.sender];\n    }\n    function getPastSupply(uint supplyId) public view returns (uint[] memory) {\n        require(pastSupplies[supplyId].exist);\n        return pastSupplies[supplyId].pastSupply;\n    }\n    function getSupply(uint productId) public view returns (Supply memory) {\n        require(companySupplies[msg.sender][productId].exist);\n        return companySupplies[msg.sender][productId];\n    }\n    function getPrerequisiteSupply(uint productId) public view returns (Supply memory) {\n        require(companies[msg.sender].owner == msg.sender);\n        // require(companyPrerequisiteSupplies[msg.sender][productId].exist, \"Prerequisite supply ID does not exist\");\n        return companyPrerequisiteSupplies[msg.sender][productId];\n    }\n    function getRecipe(uint productId) public view returns (Recipe memory) {\n        require(companies[msg.sender].owner == msg.sender);\n        for(uint i = 0; i < companies[msg.sender].recipes.length; i++) {\n            if(companies[msg.sender].recipes[i].supply.productId == productId) {\n                return companies[msg.sender].recipes[i];\n            }\n        }\n        revert(\"Recipe not found for that product ID\");\n    }\n    function convertToSupply(uint productId, uint numberOfSupply, uint supplyId) public {\n        for(uint i = 0; i < productOwners[msg.sender].length; i++) {\n            if(productOwners[msg.sender][i].productId == productId) {\n                companySupplies[msg.sender][productId].total += numberOfSupply;\n                companySupplies[msg.sender][productId].supplyId.push(supplyId);\n                companySupplies[msg.sender][productId].quantities.push(numberOfSupply);\n                companySupplies[msg.sender][productId].exist = true;\n                return;\n            }\n        }\n        revert(\"msg.sender is not the product owner\");\n    }\n    function convertPrerequisiteToSupply(uint newSupplyProductId, uint numberOfNewSupply, uint newSupplyId, uint[] memory prerequisiteProductIds, uint[] memory prerequisiteSupplyIds, uint[] memory prerequisiteQuantities) public {\n        require(companies[msg.sender].owner == msg.sender);\n        for(uint i = 0; i < prerequisiteProductIds.length; i++) { // loops through prerequisite product IDs\n            // Supply memory prerequisiteSupply = getPrerequisiteSupply(prerequisiteProductIds[i]);\n            for(uint j = 0; j < companyPrerequisiteSupplies[msg.sender][prerequisiteProductIds[i]].supplyId.length; j++) { // loops through storage prerequisite supply IDs\n                for(uint k = 0; k < prerequisiteSupplyIds.length; k++) { // loops through prerequisite supply ID passed in by backend, indicates the supply IDs to be deducted\n                    pastSupplies[newSupplyId].pastSupply.push(prerequisiteSupplyIds[k]); // adds all prerequisite supply IDs that is part of creating the new supply\n                    pastSupplies[newSupplyId].exist = true;\n                    if(companyPrerequisiteSupplies[msg.sender][prerequisiteProductIds[i]].supplyId[j] == prerequisiteSupplyIds[k]) {\n                        companyPrerequisiteSupplies[msg.sender][prerequisiteProductIds[i]].quantities[j] -= prerequisiteQuantities[k]; // deducts the storage prerequisite supply quantity\n                        companyPrerequisiteSupplies[msg.sender][prerequisiteProductIds[i]].total -= prerequisiteQuantities[k]; // deducts the total storage of prerequisite supply quantity\n                    }\n                }\n            }\n            // removing supply IDs that is below and equal to 0 quantity\n            uint[] memory newSupplyIds = new uint[](companyPrerequisiteSupplies[msg.sender][prerequisiteProductIds[i]].supplyId.length);\n            uint[] memory newQuantities = new uint[](companyPrerequisiteSupplies[msg.sender][prerequisiteProductIds[i]].quantities.length);\n            uint newSize = 0;\n            for (uint j = 0; j < companyPrerequisiteSupplies[msg.sender][prerequisiteProductIds[i]].quantities.length; j++) {\n                if (companyPrerequisiteSupplies[msg.sender][prerequisiteProductIds[i]].quantities[j] > 0) {\n                    newSupplyIds[newSize] = companyPrerequisiteSupplies[msg.sender][prerequisiteProductIds[i]].supplyId[j];\n                    newQuantities[newSize] = companyPrerequisiteSupplies[msg.sender][prerequisiteProductIds[i]].quantities[j];\n                    newSize++;\n                }\n            }\n            uint[] memory finalArray = new uint[](newSize);\n            for (uint k = 0; k < newSize; k++) {\n                finalArray[k] = newSupplyIds[k];\n            }\n            companyPrerequisiteSupplies[msg.sender][prerequisiteProductIds[i]].supplyId = finalArray;\n            for (uint k = 0; k < newSize; k++) {\n                finalArray[k] = newQuantities[k];\n            }\n            companyPrerequisiteSupplies[msg.sender][prerequisiteProductIds[i]].quantities = finalArray;\n        }\n        // adds the new supply to storage\n        companySupplies[msg.sender][newSupplyProductId].total += numberOfNewSupply;\n        companySupplies[msg.sender][newSupplyProductId].supplyId.push(newSupplyId); \n        companySupplies[msg.sender][newSupplyProductId].quantities.push(numberOfNewSupply);\n        companySupplies[msg.sender][newSupplyProductId].exist = true;\n    }\n    function sendRequest(Request memory request) public {\n        require(request.from == msg.sender);\n        companies[request.from].outgoingRequests.push(request);\n        companies[request.to].incomingRequests.push(request);\n    }\n    function approveRequest(Request memory request, uint[][] memory supplyIdsAndQuantities) public {\n        // require(companySupplies[msg.sender][request.product.productId].total >= request.quantity, \"\");\n        // require(companyPrerequisiteSupplies[request.from][request.product.productId].exist, \"\");\n        require(request.to == msg.sender);\n        // reduce the supply quantity of to company\n        for(uint i = 0; i < companySupplies[request.to][request.productId].supplyId.length; i++) {\n            for(uint j = 0; j < supplyIdsAndQuantities.length; j++) {\n                if(companySupplies[request.to][request.productId].supplyId[i] == supplyIdsAndQuantities[j][0]) {\n                    companySupplies[request.to][request.productId].total -= supplyIdsAndQuantities[j][1];\n                    companySupplies[request.to][request.productId].quantities[i] -= supplyIdsAndQuantities[j][1];\n                }\n            }\n        }\n        // removing supply IDs that is below and equal to 0 quantity\n        uint[] memory newSupplyIds = new uint[](companySupplies[request.to][request.productId].supplyId.length);\n        uint[] memory newQuantities = new uint[](companySupplies[request.to][request.productId].quantities.length);\n        uint newSize = 0;\n        for (uint i = 0; i < companySupplies[request.to][request.productId].quantities.length; i++) {\n            if (companySupplies[request.to][request.productId].quantities[i] > 0) {\n                newSupplyIds[newSize] = companySupplies[request.to][request.productId].supplyId[i];\n                newQuantities[newSize] = companySupplies[request.to][request.productId].quantities[i];\n                newSize++;\n            }\n        }\n        uint[] memory finalArray = new uint[](newSize);\n        for (uint k = 0; k < newSize; k++) {\n            finalArray[k] = newSupplyIds[k];\n        }\n        companySupplies[request.to][request.productId].supplyId = finalArray;\n        for (uint k = 0; k < newSize; k++) {\n            finalArray[k] = newQuantities[k];\n        }\n        companySupplies[request.to][request.productId].quantities = finalArray;\n        // increment the supply quantity for from company\n        for(uint i = 0; i < supplyIdsAndQuantities.length; i++) {\n            bool added = false;\n            for(uint j = 0; j < companyPrerequisiteSupplies[request.from][request.productId].supplyId.length; j++) {\n                if(companyPrerequisiteSupplies[request.from][request.productId].supplyId[j] == supplyIdsAndQuantities[i][0]) {\n                    companyPrerequisiteSupplies[request.from][request.productId].quantities[j] += supplyIdsAndQuantities[i][1];\n                    added = true;\n                }\n            }\n            if(!added) {\n                companyPrerequisiteSupplies[request.from][request.productId].supplyId.push(supplyIdsAndQuantities[i][0]);\n                companyPrerequisiteSupplies[request.from][request.productId].quantities.push(supplyIdsAndQuantities[i][1]);\n            }\n            companyPrerequisiteSupplies[request.from][request.productId].total += supplyIdsAndQuantities[i][1];\n        }\n        // remove the request from outgoingContract\n        for(uint i = 0; i < companies[request.from].outgoingRequests.length; i++) {\n            if(companies[request.from].outgoingRequests[i].id == request.id) {\n                companies[request.from].outgoingRequests[i] = companies[request.from].outgoingRequests[companies[request.from].outgoingRequests.length - 1];\n                break;\n            }\n        }\n        companies[request.from].outgoingRequests.pop();\n        // remove the contract request from incomingContract\n        for(uint i = 0; i < companies[request.to].incomingRequests.length; i++) {\n            if(companies[request.to].incomingRequests[i].id == request.id) {\n                companies[request.to].incomingRequests[i] = companies[request.to].incomingRequests[companies[request.to].incomingRequests.length - 1];\n                break;\n            }\n        }\n        companies[request.to].incomingRequests.pop();\n        emit Requests(request.id, request.from, request.to, request.productId, request.quantity, STATE.APPROVED, block.timestamp);\n    }\n    function declineRequest(Request memory request) public {\n        require(request.to == msg.sender);\n        // remove the request from outgoingContract\n        for(uint i = 0; i < companies[request.from].outgoingRequests.length; i++) {\n            if(companies[request.from].outgoingRequests[i].id == request.id) {\n                companies[request.from].outgoingRequests[i] = companies[request.from].outgoingRequests[companies[request.from].outgoingRequests.length - 1];\n                break;\n            }\n        }\n        companies[request.from].outgoingRequests.pop();\n        // remove the contract request from incomingContract\n        for(uint i = 0; i < companies[request.to].incomingRequests.length; i++) {\n            if(companies[request.to].incomingRequests[i].id == request.id) {\n                companies[request.to].incomingRequests[i] = companies[request.to].incomingRequests[companies[request.to].incomingRequests.length - 1];\n                break;\n            }\n        }\n        companies[request.to].incomingRequests.pop();\n        emit Requests(request.id, request.from, request.to, request.productId, request.quantity, STATE.REJECTED, block.timestamp);\n    }\n    // The sender sends contract to ask which PRODUCT it wants\n    function sendContract(CompanyContract memory companyContract) public {\n        require(msg.sender == companyContract.from);\n        // put inside outgoing contract to track down which company and what product I've asked for\n        companies[companyContract.from].outgoingContract.push(companyContract);\n        // gets who sends the contract and what product he wants from MY stash\n        companies[companyContract.to].incomingContract.push(companyContract);\n    }\n    function approveContract(CompanyContract memory companyContract) public {\n        require(msg.sender == companyContract.to);\n        // sets pre requisite supply exists\n        companyPrerequisiteSupplies[companyContract.from][companyContract.productId].exist = true;\n        // pushes new product in the contract sender's list of prerequisites\n        companies[companyContract.from].listOfPrerequisites.push(listOfProducts[companyContract.productId]);\n        // adds a new company in the contract sender's list of downstreams\n        companies[companyContract.from].downstream.push(CompanyProduct({\n            companyId: companyContract.to,\n            productId: companyContract.productId\n        }));\n        // adds a new company in the supplier's list of upstreams\n        companies[companyContract.to].upstream.push(companyContract.from);\n        // if supplier is a headCompany, remove it\n        for(uint i = 0; i < headCompanies.length; i++) {\n            if(headCompanies[i].owner == msg.sender) {\n                headCompanies[i] = headCompanies[headCompanies.length - 1];\n                headCompanies.pop();\n                break;\n            }\n        }\n        // remove the contract request from outgoingContract\n        for(uint i = 0; i < companies[companyContract.from].outgoingContract.length; i++) {\n            if(companies[companyContract.from].outgoingContract[i].id == companyContract.id) {\n                companies[companyContract.from].outgoingContract[i] = companies[companyContract.from].outgoingContract[companies[companyContract.from].outgoingContract.length - 1];\n                break;\n            }\n        }\n        companies[companyContract.from].outgoingContract.pop();\n        // remove the contract request from incomingContract\n        for(uint i = 0; i < companies[companyContract.to].incomingContract.length; i++) {\n            if(companies[companyContract.to].incomingContract[i].id == companyContract.id) {\n                companies[companyContract.to].incomingContract[i] = companies[companyContract.to].incomingContract[companies[companyContract.to].incomingContract.length - 1];\n                break;\n            }\n        }\n        companies[companyContract.to].incomingContract.pop();\n        emit Contracts(companyContract.id, companyContract.from, companyContract.to, companyContract.productId, STATE.APPROVED, block.timestamp);\n    }\n    function declineContract(CompanyContract memory companyContract) public {\n        require(msg.sender == companyContract.to);\n        // remove the contract request from outgoingContract\n        for(uint i = 0; i < companies[companyContract.from].outgoingContract.length; i++) {\n            if(companies[companyContract.from].outgoingContract[i].id == companyContract.id) {\n                companies[companyContract.from].outgoingContract[i] = companies[companyContract.from].outgoingContract[companies[companyContract.from].outgoingContract.length - 1];\n                break;\n            }\n        }\n        companies[companyContract.from].outgoingContract.pop();\n        // remove the contract request from incomingContract\n        for(uint i = 0; i < companies[companyContract.to].incomingContract.length; i++) {\n            if(companies[companyContract.to].incomingContract[i].id == companyContract.id) {\n                companies[companyContract.to].incomingContract[i] = companies[companyContract.to].incomingContract[companies[companyContract.to].incomingContract.length - 1];\n                break;\n            }\n        }\n        companies[companyContract.to].incomingContract.pop();\n        emit Contracts(companyContract.id, companyContract.from, companyContract.to, companyContract.productId, STATE.REJECTED, block.timestamp);\n    }\n}\n",
  "sourcePath": "/Users/darennathanieljanto/Documents/GitHub/fyp-contract-v2/contracts/SupplyChainNetwork.sol",
  "compiler": {
    "name": "solc",
    "version": "0.8.2+commit.661d1103.Emscripten.clang"
  },
  "schemaVersion": "3.4.15",
  "updatedAt": "2023-10-09T12:14:15.775Z",
  "networkType": "ethereum",
  "devdoc": {
    "kind": "dev",
    "methods": {},
    "version": 1
  },
  "userdoc": {
    "kind": "user",
    "methods": {},
    "version": 1
  }
}