{
  "contractName": "DeleteRequestContract",
  "abi": [
    {
      "anonymous": false,
      "inputs": [
        {
          "indexed": true,
          "internalType": "uint256",
          "name": "requestId",
          "type": "uint256"
        },
        {
          "indexed": true,
          "internalType": "address",
          "name": "owner",
          "type": "address"
        },
        {
          "indexed": true,
          "internalType": "address",
          "name": "responder",
          "type": "address"
        },
        {
          "indexed": false,
          "internalType": "uint256",
          "name": "productId",
          "type": "uint256"
        },
        {
          "indexed": false,
          "internalType": "enum DeleteRequestContract.STATE",
          "name": "state",
          "type": "uint8"
        },
        {
          "indexed": false,
          "internalType": "uint256",
          "name": "timestamp",
          "type": "uint256"
        }
      ],
      "name": "DeleteRequests",
      "type": "event"
    },
    {
      "inputs": [],
      "name": "networkOwner",
      "outputs": [
        {
          "internalType": "address",
          "name": "",
          "type": "address"
        }
      ],
      "stateMutability": "view",
      "type": "function",
      "constant": true
    },
    {
      "inputs": [
        {
          "internalType": "address",
          "name": "owner",
          "type": "address"
        }
      ],
      "name": "getCompany",
      "outputs": [
        {
          "components": [
            {
              "internalType": "uint256[]",
              "name": "listOfSupply",
              "type": "uint256[]"
            },
            {
              "components": [
                {
                  "internalType": "address",
                  "name": "companyId",
                  "type": "address"
                },
                {
                  "internalType": "uint256",
                  "name": "productId",
                  "type": "uint256"
                }
              ],
              "internalType": "struct DeleteRequestContract.CompanyProduct[]",
              "name": "upstream",
              "type": "tuple[]"
            },
            {
              "components": [
                {
                  "internalType": "uint256",
                  "name": "id",
                  "type": "uint256"
                },
                {
                  "internalType": "address",
                  "name": "owner",
                  "type": "address"
                },
                {
                  "internalType": "uint256",
                  "name": "productId",
                  "type": "uint256"
                },
                {
                  "internalType": "address[]",
                  "name": "approvals",
                  "type": "address[]"
                },
                {
                  "internalType": "bool",
                  "name": "rejected",
                  "type": "bool"
                },
                {
                  "internalType": "string",
                  "name": "code",
                  "type": "string"
                }
              ],
              "internalType": "struct DeleteRequestContract.DeleteRequest[]",
              "name": "incomingDeleteRequests",
              "type": "tuple[]"
            },
            {
              "components": [
                {
                  "internalType": "uint256",
                  "name": "id",
                  "type": "uint256"
                },
                {
                  "internalType": "address",
                  "name": "owner",
                  "type": "address"
                },
                {
                  "internalType": "uint256",
                  "name": "productId",
                  "type": "uint256"
                },
                {
                  "internalType": "address[]",
                  "name": "approvals",
                  "type": "address[]"
                },
                {
                  "internalType": "bool",
                  "name": "rejected",
                  "type": "bool"
                },
                {
                  "internalType": "string",
                  "name": "code",
                  "type": "string"
                }
              ],
              "internalType": "struct DeleteRequestContract.DeleteRequest[]",
              "name": "outgoingDeleteRequests",
              "type": "tuple[]"
            },
            {
              "internalType": "bool",
              "name": "exist",
              "type": "bool"
            }
          ],
          "internalType": "struct DeleteRequestContract.Company",
          "name": "",
          "type": "tuple"
        }
      ],
      "stateMutability": "view",
      "type": "function",
      "constant": true
    },
    {
      "inputs": [
        {
          "internalType": "address",
          "name": "owner",
          "type": "address"
        }
      ],
      "name": "addCompany",
      "outputs": [],
      "stateMutability": "nonpayable",
      "type": "function"
    },
    {
      "inputs": [
        {
          "internalType": "uint256",
          "name": "productId",
          "type": "uint256"
        },
        {
          "internalType": "address",
          "name": "owner",
          "type": "address"
        }
      ],
      "name": "addProduct",
      "outputs": [],
      "stateMutability": "nonpayable",
      "type": "function"
    },
    {
      "inputs": [
        {
          "components": [
            {
              "internalType": "address",
              "name": "companyId",
              "type": "address"
            },
            {
              "internalType": "uint256",
              "name": "productId",
              "type": "uint256"
            }
          ],
          "internalType": "struct DeleteRequestContract.CompanyProduct",
          "name": "upstream",
          "type": "tuple"
        }
      ],
      "name": "addUpstream",
      "outputs": [],
      "stateMutability": "nonpayable",
      "type": "function"
    },
    {
      "inputs": [
        {
          "internalType": "uint256",
          "name": "id",
          "type": "uint256"
        }
      ],
      "name": "checkEnoughApproval",
      "outputs": [
        {
          "internalType": "bool",
          "name": "",
          "type": "bool"
        }
      ],
      "stateMutability": "view",
      "type": "function",
      "constant": true
    },
    {
      "inputs": [
        {
          "internalType": "uint256",
          "name": "id",
          "type": "uint256"
        },
        {
          "internalType": "uint256",
          "name": "productId",
          "type": "uint256"
        },
        {
          "internalType": "string",
          "name": "code",
          "type": "string"
        }
      ],
      "name": "sendDeleteRequest",
      "outputs": [],
      "stateMutability": "nonpayable",
      "type": "function"
    },
    {
      "inputs": [
        {
          "internalType": "uint256",
          "name": "id",
          "type": "uint256"
        },
        {
          "internalType": "uint256",
          "name": "productId",
          "type": "uint256"
        },
        {
          "internalType": "address",
          "name": "from",
          "type": "address"
        },
        {
          "internalType": "bool",
          "name": "approve",
          "type": "bool"
        },
        {
          "internalType": "string",
          "name": "code",
          "type": "string"
        }
      ],
      "name": "respondDeleteRequest",
      "outputs": [],
      "stateMutability": "nonpayable",
      "type": "function"
    },
    {
      "inputs": [
        {
          "internalType": "uint256",
          "name": "id",
          "type": "uint256"
        },
        {
          "internalType": "uint256",
          "name": "productId",
          "type": "uint256"
        },
        {
          "components": [
            {
              "internalType": "address",
              "name": "companyId",
              "type": "address"
            },
            {
              "internalType": "uint256",
              "name": "productId",
              "type": "uint256"
            }
          ],
          "internalType": "struct DeleteRequestContract.CompanyProduct[]",
          "name": "upstreamLeft",
          "type": "tuple[]"
        },
        {
          "internalType": "string",
          "name": "code",
          "type": "string"
        }
      ],
      "name": "deleteSupply",
      "outputs": [],
      "stateMutability": "nonpayable",
      "type": "function"
    }
  ],
  "bytecode": "0x6080604052600080546001600160a01b0319163317905534801561002257600080fd5b50611e78806100326000396000f3fe608060405234801561001057600080fd5b50600436106100835760003560e01c8063244033cf146100885780632e1b181e1461009d57806362bc56e6146100cd578063634513ca146100ed578063853b9c8914610100578063b6c2cb821461015e578063cc4886eb14610171578063d20b483514610194578063dd57cd46146101a7575b600080fd5b61009b6100963660046119e1565b6101de565b005b6000546100b0906001600160a01b031681565b6040516001600160a01b0390911681526020015b60405180910390f35b6100e06100db366004611807565b61045a565b6040516100c49190611c36565b61009b6100fb366004611807565b610899565b61009b61010e366004611828565b336000908152600160208181526040832082018054808401825590845292819020845160029094020180546001600160a01b0319166001600160a01b039094169390931783559290920151910155565b61009b61016c366004611886565b6108da565b61018461017f366004611843565b610f3b565b60405190151581526020016100c4565b61009b6101a23660046118fb565b611011565b61009b6101b536600461185b565b6001600160a01b0316600090815260016020818152604083208054928301815583529091200155565b3360009081526001602052604090206004015460ff166101fd57600080fd5b60005b3360009081526001602052604090205481101561044f5733600090815260016020526040902080548491908390811061024957634e487b7160e01b600052603260045260246000fd5b9060005260206000200154141561043d573360008181526001602081815260408320600301805480840182559084529281902060069093029092018781556002810187905590810180546001600160a01b03191690931790925583516102b791600584019190860190611557565b5060005b3360009081526001602081905260409091200154811015610435573360009081526001602081905260409091200180548691908390811061030c57634e487b7160e01b600052603260045260246000fd5b9060005260206000209060020201600101541415610423573360009081526001602081905260408220810180549192918490811061035a57634e487b7160e01b600052603260045260246000fd5b60009182526020808320600292830201546001600160a01b039081168552848201959095526040909301822081018054600181810183559184529390922086546006909402019283558582015491830180546001600160a01b03191692909416919091179092558382015491810191909155600380840180548593926103e392908401916115db565b50600482810154908201805460ff191660ff9092161515919091179055600580830180549183019161041490611da0565b61041f92919061161b565b5050505b8061042d81611ddb565b9150506102bb565b505050610455565b8061044781611ddb565b915050610200565b50600080fd5b505050565b61048e6040518060a00160405280606081526020016060815260200160608152602001606081526020016000151581525090565b6001600160a01b0382166000908152600160209081526040918290208251815460c09381028201840190945260a0810184815290939192849284918401828280156104f857602002820191906000526020600020905b8154815260200190600101908083116104e4575b5050505050815260200160018201805480602002602001604051908101604052809291908181526020016000905b8282101561056e576000848152602090819020604080518082019091526002850290910180546001600160a01b03168252600190810154828401529083529092019101610526565b50505050815260200160028201805480602002602001604051908101604052809291908181526020016000905b828210156106f35760008481526020908190206040805160c081018252600686029092018054835260018101546001600160a01b0316838501526002810154838301526003810180548351818702810187019094528084529394919360608601939283018282801561063657602002820191906000526020600020905b81546001600160a01b03168152600190910190602001808311610618575b5050509183525050600482015460ff161515602082015260058201805460409092019161066290611da0565b80601f016020809104026020016040519081016040528092919081815260200182805461068e90611da0565b80156106db5780601f106106b0576101008083540402835291602001916106db565b820191906000526020600020905b8154815290600101906020018083116106be57829003601f168201915b5050505050815250508152602001906001019061059b565b50505050815260200160038201805480602002602001604051908101604052809291908181526020016000905b828210156108785760008481526020908190206040805160c081018252600686029092018054835260018101546001600160a01b031683850152600281015483830152600381018054835181870281018701909452808452939491936060860193928301828280156107bb57602002820191906000526020600020905b81546001600160a01b0316815260019091019060200180831161079d575b5050509183525050600482015460ff16151560208201526005820180546040909201916107e790611da0565b80601f016020809104026020016040519081016040528092919081815260200182805461081390611da0565b80156108605780601f1061083557610100808354040283529160200191610860565b820191906000526020600020905b81548152906001019060200180831161084357829003601f168201915b50505050508152505081526020019060010190610720565b505050908252506004919091015460ff16151560209091015290505b919050565b6000546001600160a01b031633146108b057600080fd5b6001600160a01b03166000908152600160208190526040909120600401805460ff19169091179055565b60005b6001600160a01b0384166000908152600160208190526040909120015481101561044f576001600160a01b03841660009081526001602081905260409091200180543391908390811061094057634e487b7160e01b600052603260045260246000fd5b60009182526020909120600290910201546001600160a01b03161480156109be57508460016000866001600160a01b03166001600160a01b0316815260200190815260200160002060010182815481106109aa57634e487b7160e01b600052603260045260246000fd5b906000526020600020906002020160010154145b15610f225760005b6001600160a01b038516600090815260016020526040902060030154811015610cde576001600160a01b0385166000908152600160205260409020600301805488919083908110610a2757634e487b7160e01b600052603260045260246000fd5b906000526020600020906006020160000154148015610adc575082604051602001610a529190611b7f565b60408051601f1981840301815291815281516020928301206001600160a01b038816600090815260019093529120600301805483908110610aa357634e487b7160e01b600052603260045260246000fd5b9060005260206000209060060201600501604051602001610ac49190611b9b565b60405160208183030381529060405280519060200120145b15610ccc578315610bdc576001600160a01b0385166000908152600160205260409020600301805482908110610b2257634e487b7160e01b600052603260045260246000fd5b60009182526020808320600360069093020182018054600181810183559185528285200180546001600160a01b031916339081179091556001600160a01b038a1685529152604090922001805483908110610b8d57634e487b7160e01b600052603260045260246000fd5b600091825260208220600160069092020101546040516001600160a01b03909116918a91600080516020611e2383398151915291610bcf918c91904290611cf3565b60405180910390a4610cc7565b6001600160a01b0385166000908152600160205260409020600301805433919083908110610c1a57634e487b7160e01b600052603260045260246000fd5b6000918252602090912060016006909202018101546040516001600160a01b03909116918a91600080516020611e2383398151915291610c5e918c91904290611cf3565b60405180910390a46001600160a01b0385166000908152600160208190526040909120600301805483908110610ca457634e487b7160e01b600052603260045260246000fd5b60009182526020909120600690910201600401805460ff19169115159190911790555b610cde565b80610cd681611ddb565b9150506109c6565b5060005b33600090815260016020526040902060020154811015610f1b57336000908152600160205260409020600201805488919083908110610d3157634e487b7160e01b600052603260045260246000fd5b9060005260206000209060060201600001541415610f095733600090815260016020819052604090912060020180549091610d6b91611d59565b81548110610d8957634e487b7160e01b600052603260045260246000fd5b906000526020600020906006020160016000336001600160a01b03166001600160a01b031681526020019081526020016000206002018281548110610dde57634e487b7160e01b600052603260045260246000fd5b60009182526020909120825460069092020190815560018083015490820180546001600160a01b0319166001600160a01b039092169190911790556002808301549082015560038083018054610e3792840191906115db565b50600482810154908201805460ff191660ff90921615159190911790556005808301805491830191610e6890611da0565b610e7392919061161b565b5050336000908152600160205260409020600201805490915080610ea757634e487b7160e01b600052603160045260246000fd5b6000828152602081206006600019909301928302018181556001810180546001600160a01b03191690556002810182905590610ee66003830182611695565b60048201805460ff19169055610f006005830160006116b6565b50509055610f1b565b80610f1381611ddb565b915050610ce2565b5050610f34565b80610f2c81611ddb565b9150506108dd565b5050505050565b6000805b3360009081526001602052604090206003015481101561044f57336000908152600160205260409020600301805484919083908110610f8e57634e487b7160e01b600052603260045260246000fd5b9060005260206000209060060201600001541415610fff57336000908152600160208190526040909120908101546003909101805483908110610fe157634e487b7160e01b600052603260045260246000fd5b90600052602060002090600602016003018054905014915050610894565b8061100981611ddb565b915050610f3f565b60005b33600090815260016020526040902060030154811015610f345733600090815260016020526040902060030180548691908390811061106357634e487b7160e01b600052603260045260246000fd5b90600052602060002090600602016000015414801561110f57508160405160200161108e9190611b7f565b60408051601f198184030181529181528151602092830120336000908152600190935291206003018054839081106110d657634e487b7160e01b600052603260045260246000fd5b90600052602060002090600602016005016040516020016110f79190611b9b565b60405160208183030381529060405280519060200120145b156115455760005b336000908152600160205260409020548110156112505733600090815260016020526040902080548691908390811061116057634e487b7160e01b600052603260045260246000fd5b9060005260206000200154141561123e573360009081526001602081905260409091208054909161119091611d59565b815481106111ae57634e487b7160e01b600052603260045260246000fd5b6000918252602080832090910154338352600190915260409091208054839081106111e957634e487b7160e01b600052603260045260246000fd5b600091825260208083209091019290925533815260019091526040902080548061122357634e487b7160e01b600052603160045260246000fd5b60019003818190600052602060002001600090559055611250565b8061124881611ddb565b915050611117565b50336000908152600160208190526040822061126e929101906116f2565b60005b835181101561130c5733600090815260016020819052604090912085519101908590839081106112b157634e487b7160e01b600052603260045260246000fd5b602090810291909101810151825460018082018555600094855293839020825160029092020180546001600160a01b0319166001600160a01b039092169190911781559101519101558061130481611ddb565b915050611271565b5033600081815260016020526040902060030180548390811061133f57634e487b7160e01b600052603260045260246000fd5b600091825260208220600160069092020101546040516001600160a01b03909116918891600080516020611e2383398151915291611381918a91904290611cf3565b60405180910390a4336000908152600160208190526040909120600301805490916113ab91611d59565b815481106113c957634e487b7160e01b600052603260045260246000fd5b906000526020600020906006020160016000336001600160a01b03166001600160a01b03168152602001908152602001600020600301828154811061141e57634e487b7160e01b600052603260045260246000fd5b60009182526020909120825460069092020190815560018083015490820180546001600160a01b0319166001600160a01b03909216919091179055600280830154908201556003808301805461147792840191906115db565b50600482810154908201805460ff191660ff909216151591909117905560058083018054918301916114a890611da0565b6114b392919061161b565b50503360009081526001602052604090206003018054909150806114e757634e487b7160e01b600052603160045260246000fd5b6000828152602081206006600019909301928302018181556001810180546001600160a01b031916905560028101829055906115266003830182611695565b60048201805460ff191690556115406005830160006116b6565b505090555b8061154f81611ddb565b915050611014565b82805461156390611da0565b90600052602060002090601f01602090048101928261158557600085556115cb565b82601f1061159e57805160ff19168380011785556115cb565b828001600101855582156115cb579182015b828111156115cb5782518255916020019190600101906115b0565b506115d7929150611713565b5090565b8280548282559060005260206000209081019282156115cb5760005260206000209182015b828111156115cb578254825591600101919060010190611600565b82805461162790611da0565b90600052602060002090601f01602090048101928261164957600085556115cb565b82601f1061165a57805485556115cb565b828001600101855582156115cb57600052602060002091601f01602090048201828111156115cb578254825591600101919060010190611600565b50805460008255906000526020600020908101906116b39190611713565b50565b5080546116c290611da0565b6000825580601f106116d457506116b3565b601f0160209004906000526020600020908101906116b39190611713565b50805460008255600202906000526020600020908101906116b39190611728565b5b808211156115d75760008155600101611714565b5b808211156115d75780546001600160a01b031916815560006001820155600201611729565b80356001600160a01b038116811461089457600080fd5b600082601f830112611775578081fd5b81356001600160401b0381111561178e5761178e611e0c565b6117a1601f8201601f1916602001611d29565b8181528460208386010111156117b5578283fd5b816020850160208301379081016020019190915292915050565b6000604082840312156117e0578081fd5b6117ea6040611d29565b90506117f58261174e565b81526020820135602082015292915050565b600060208284031215611818578081fd5b6118218261174e565b9392505050565b600060408284031215611839578081fd5b61182183836117cf565b600060208284031215611854578081fd5b5035919050565b6000806040838503121561186d578081fd5b8235915061187d6020840161174e565b90509250929050565b600080600080600060a0868803121561189d578081fd5b85359450602086013593506118b46040870161174e565b9250606086013580151581146118c8578182fd5b915060808601356001600160401b038111156118e2578182fd5b6118ee88828901611765565b9150509295509295909350565b60008060008060808587031215611910578384fd5b8435935060208086013593506040808701356001600160401b0380821115611936578586fd5b818901915089601f830112611949578586fd5b81358181111561195b5761195b611e0c565b6119688586830201611d29565b81815285810190848701868402860188018e101561198457898afd5b8995505b838610156119ae5761199a8e826117cf565b835260019590950194918701918601611988565b509750505060608901359350808411156119c6578485fd5b5050506119d587828801611765565b91505092959194509250565b6000806000606084860312156119f5578283fd5b833592506020840135915060408401356001600160401b03811115611a18578182fd5b611a2486828701611765565b9150509250925092565b6000815180845260208085019450808401835b83811015611a7157815180516001600160a01b031688528301518388015260409096019590820190600101611a41565b509495945050505050565b6000815180845260208085018081965082840281019150828601855b85811015611b46578284038952815180518552858101516001600160a01b03908116878701526040808301519087015260608083015160c0918801829052805191880182905260e088019290890191908b5b82811015611b0857835182168552938a0193928a0192600101611aea565b5050505060808281015115159087015260a09182015186820392870192909252611b328183611b53565b9a87019a9550505090840190600101611a98565b5091979650505050505050565b60008151808452611b6b816020860160208601611d70565b601f01601f19169290920160200192915050565b60008251611b91818460208701611d70565b9190910192915050565b8154600090819060028104600180831680611bb757607f831692505b6020808410821415611bd757634e487b7160e01b87526022600452602487fd5b818015611beb5760018114611bfc57611c28565b60ff19861689528489019650611c28565b60008a815260209020885b86811015611c205781548b820152908501908301611c07565b505084890196505b509498975050505050505050565b6020808252825160a083830152805160c0840181905260009291820190839060e08601905b80831015611c7b5783518252928401926001929092019190840190611c5b565b50838701519350601f19925082868203016040870152611c9b8185611a2e565b93505050604085015181858403016060860152611cb88382611a7c565b925050606085015181858403016080860152611cd48382611a7c565b925050506080840151611ceb60a085018215159052565b509392505050565b8381526060810160028410611d1857634e487b7160e01b600052602160045260246000fd5b602082019390935260400152919050565b604051601f8201601f191681016001600160401b0381118282101715611d5157611d51611e0c565b604052919050565b600082821015611d6b57611d6b611df6565b500390565b60005b83811015611d8b578181015183820152602001611d73565b83811115611d9a576000848401525b50505050565b600281046001821680611db457607f821691505b60208210811415611dd557634e487b7160e01b600052602260045260246000fd5b50919050565b6000600019821415611def57611def611df6565b5060010190565b634e487b7160e01b600052601160045260246000fd5b634e487b7160e01b600052604160045260246000fdfea063ad1efd2a90a891b5a24528fd05699d86ce2ed69982c1f8bc0a52bf8f35caa264697066735822122073c5f0535f9222ab2ea1067cc7b337e394ae10d4120e778c969b055c99688dfe64736f6c63430008020033",
  "immutableReferences": {},
  "source": "// SPDX-License-Identifier: MIT\npragma solidity ^0.8;\npragma experimental ABIEncoderV2;\n\ncontract DeleteRequestContract {\n    address public networkOwner = msg.sender;\n    struct DeleteRequest {\n        uint id;\n        address owner;\n        uint productId;\n        address[] approvals;\n        bool rejected;\n        string code;\n    }\n    struct CompanyProduct {\n        address companyId;\n        uint productId;\n    }\n    struct Company {\n        uint[] listOfSupply;\n        CompanyProduct[] upstream;\n        DeleteRequest[] incomingDeleteRequests;\n        DeleteRequest[] outgoingDeleteRequests;\n        bool exist;\n    }\n    enum STATE {\n        APPROVED,\n        REJECTED\n    }\n    mapping(address => Company) companies;\n    event DeleteRequests(uint indexed requestId, address indexed owner, address indexed responder, uint productId, STATE state, uint256 timestamp);\n    function getCompany(address owner) public view returns (Company memory) {\n        return companies[owner];\n    }\n    function addCompany(address owner) public {\n        require(msg.sender == networkOwner);\n        companies[owner].exist = true;\n    }\n    function addProduct(uint productId, address owner) public {\n        companies[owner].listOfSupply.push(productId);\n    }\n    function addUpstream(CompanyProduct memory upstream) public {\n        companies[msg.sender].upstream.push(upstream);\n    }\n    function checkEnoughApproval(uint id) public view returns (bool) {\n        for(uint i = 0; i < companies[msg.sender].outgoingDeleteRequests.length; i++) {\n            if(companies[msg.sender].outgoingDeleteRequests[i].id == id) {\n                return companies[msg.sender].outgoingDeleteRequests[i].approvals.length == companies[msg.sender].upstream.length;\n            }\n        }\n        revert();\n    }\n    function sendDeleteRequest(uint id, uint productId, string memory code) public {\n        require(companies[msg.sender].exist);\n        for(uint j = 0; j < companies[msg.sender].listOfSupply.length; j++) {\n            if(companies[msg.sender].listOfSupply[j] == productId) {\n                DeleteRequest storage outgoingDeleteRequest = companies[msg.sender].outgoingDeleteRequests.push();\n                outgoingDeleteRequest.id = id;\n                outgoingDeleteRequest.productId = productId;\n                outgoingDeleteRequest.owner = msg.sender;\n                outgoingDeleteRequest.code = code;\n                for(uint i = 0; i < companies[msg.sender].upstream.length; i++) {\n                    if(companies[msg.sender].upstream[i].productId == productId) {\n                        companies[companies[msg.sender].upstream[i].companyId].incomingDeleteRequests.push(outgoingDeleteRequest);\n                    }\n                }\n                return;\n            }\n        }\n        revert();\n    }\n    function respondDeleteRequest(uint id, uint productId, address from, bool approve, string memory code) public {\n        for(uint i = 0; i < companies[from].upstream.length; i++) {\n            // check if the approval is the sender's upstream and has the same product ID\n            if(companies[from].upstream[i].companyId == msg.sender && companies[from].upstream[i].productId == productId) {\n                for(uint j = 0; j < companies[from].outgoingDeleteRequests.length; j++) {\n                    if(companies[from].outgoingDeleteRequests[j].id == id && keccak256(abi.encodePacked(companies[from].outgoingDeleteRequests[j].code)) == keccak256(abi.encodePacked(code))) {\n                        if(approve) {\n                            companies[from].outgoingDeleteRequests[j].approvals.push(msg.sender);\n                            emit DeleteRequests(id, companies[from].outgoingDeleteRequests[j].owner, msg.sender, productId, STATE.APPROVED, block.timestamp);\n                        } else {\n                            emit DeleteRequests(id, companies[from].outgoingDeleteRequests[j].owner, msg.sender, productId, STATE.REJECTED, block.timestamp);\n                            companies[from].outgoingDeleteRequests[j].rejected = true;\n                        }\n                        break;\n                    }\n                }\n                // remove the deleteRequest ID from approval's incomingDeleteRequests\n                for(uint j = 0; j < companies[msg.sender].incomingDeleteRequests.length; j++) {\n                    if(companies[msg.sender].incomingDeleteRequests[j].id == id) {\n                        companies[msg.sender].incomingDeleteRequests[j] = companies[msg.sender].incomingDeleteRequests[companies[msg.sender].incomingDeleteRequests.length - 1];\n                        companies[msg.sender].incomingDeleteRequests.pop();\n                        break;\n                    }\n                }\n                return;\n            }\n        }\n        revert();\n    }\n    function deleteSupply(uint id, uint productId, CompanyProduct[] memory upstreamLeft, string memory code) public {\n        for(uint i = 0; i < companies[msg.sender].outgoingDeleteRequests.length; i++) {\n            if(companies[msg.sender].outgoingDeleteRequests[i].id == id && keccak256(abi.encodePacked(companies[msg.sender].outgoingDeleteRequests[i].code)) == keccak256(abi.encodePacked(code))) {\n                for(uint j = 0; j < companies[msg.sender].listOfSupply.length; j++) {\n                    if(companies[msg.sender].listOfSupply[j] == productId) {\n                        companies[msg.sender].listOfSupply[j] = companies[msg.sender].listOfSupply[companies[msg.sender].listOfSupply.length - 1];\n                        companies[msg.sender].listOfSupply.pop();\n                        break;\n                    }\n                }\n                delete companies[msg.sender].upstream;\n                for(uint j = 0; j < upstreamLeft.length; j++) {\n                    companies[msg.sender].upstream.push(upstreamLeft[j]);\n                }\n                emit DeleteRequests(id, companies[msg.sender].outgoingDeleteRequests[i].owner, msg.sender, productId, STATE.APPROVED, block.timestamp);\n                companies[msg.sender].outgoingDeleteRequests[i] = companies[msg.sender].outgoingDeleteRequests[companies[msg.sender].outgoingDeleteRequests.length - 1];\n                companies[msg.sender].outgoingDeleteRequests.pop();\n            }\n        }\n    }\n}\n",
  "sourcePath": "/Users/darennathanieljanto/Documents/GitHub/fyp-contract-v2/contracts/DeleteRequestContract.sol",
  "compiler": {
    "name": "solc",
    "version": "0.8.2+commit.661d1103.Emscripten.clang"
  },
  "schemaVersion": "3.4.15",
  "updatedAt": "2024-03-12T13:57:59.363Z",
  "networkType": "ethereum",
  "devdoc": {
    "kind": "dev",
    "methods": {},
    "version": 1
  },
  "userdoc": {
    "kind": "user",
    "methods": {},
    "version": 1
  }
}