{
  "contractName": "DeleteRequestContract",
  "abi": [
    {
      "anonymous": false,
      "inputs": [
        {
          "indexed": true,
          "internalType": "uint256",
          "name": "requestId",
          "type": "uint256"
        },
        {
          "indexed": true,
          "internalType": "address",
          "name": "owner",
          "type": "address"
        },
        {
          "indexed": true,
          "internalType": "address",
          "name": "responder",
          "type": "address"
        },
        {
          "indexed": false,
          "internalType": "uint256",
          "name": "productId",
          "type": "uint256"
        },
        {
          "indexed": false,
          "internalType": "enum DeleteRequestContract.STATE",
          "name": "state",
          "type": "uint8"
        },
        {
          "indexed": false,
          "internalType": "uint256",
          "name": "timestamp",
          "type": "uint256"
        }
      ],
      "name": "DeleteRequests",
      "type": "event"
    },
    {
      "inputs": [],
      "name": "networkOwner",
      "outputs": [
        {
          "internalType": "address",
          "name": "",
          "type": "address"
        }
      ],
      "stateMutability": "view",
      "type": "function",
      "constant": true
    },
    {
      "inputs": [
        {
          "internalType": "address",
          "name": "owner",
          "type": "address"
        }
      ],
      "name": "getCompany",
      "outputs": [
        {
          "components": [
            {
              "internalType": "uint256[]",
              "name": "listOfSupply",
              "type": "uint256[]"
            },
            {
              "components": [
                {
                  "internalType": "address",
                  "name": "companyId",
                  "type": "address"
                },
                {
                  "internalType": "uint256",
                  "name": "productId",
                  "type": "uint256"
                }
              ],
              "internalType": "struct DeleteRequestContract.CompanyProduct[]",
              "name": "upstream",
              "type": "tuple[]"
            },
            {
              "components": [
                {
                  "internalType": "uint256",
                  "name": "id",
                  "type": "uint256"
                },
                {
                  "internalType": "address",
                  "name": "owner",
                  "type": "address"
                },
                {
                  "internalType": "uint256",
                  "name": "productId",
                  "type": "uint256"
                },
                {
                  "internalType": "address[]",
                  "name": "approvals",
                  "type": "address[]"
                },
                {
                  "internalType": "bool",
                  "name": "rejected",
                  "type": "bool"
                },
                {
                  "internalType": "string",
                  "name": "code",
                  "type": "string"
                }
              ],
              "internalType": "struct DeleteRequestContract.DeleteRequest[]",
              "name": "incomingDeleteRequests",
              "type": "tuple[]"
            },
            {
              "components": [
                {
                  "internalType": "uint256",
                  "name": "id",
                  "type": "uint256"
                },
                {
                  "internalType": "address",
                  "name": "owner",
                  "type": "address"
                },
                {
                  "internalType": "uint256",
                  "name": "productId",
                  "type": "uint256"
                },
                {
                  "internalType": "address[]",
                  "name": "approvals",
                  "type": "address[]"
                },
                {
                  "internalType": "bool",
                  "name": "rejected",
                  "type": "bool"
                },
                {
                  "internalType": "string",
                  "name": "code",
                  "type": "string"
                }
              ],
              "internalType": "struct DeleteRequestContract.DeleteRequest[]",
              "name": "outgoingDeleteRequests",
              "type": "tuple[]"
            },
            {
              "internalType": "bool",
              "name": "exist",
              "type": "bool"
            }
          ],
          "internalType": "struct DeleteRequestContract.Company",
          "name": "",
          "type": "tuple"
        }
      ],
      "stateMutability": "view",
      "type": "function",
      "constant": true
    },
    {
      "inputs": [
        {
          "internalType": "address",
          "name": "owner",
          "type": "address"
        }
      ],
      "name": "addCompany",
      "outputs": [],
      "stateMutability": "nonpayable",
      "type": "function"
    },
    {
      "inputs": [
        {
          "internalType": "uint256",
          "name": "productId",
          "type": "uint256"
        },
        {
          "internalType": "address",
          "name": "owner",
          "type": "address"
        }
      ],
      "name": "addProduct",
      "outputs": [],
      "stateMutability": "nonpayable",
      "type": "function"
    },
    {
      "inputs": [
        {
          "components": [
            {
              "internalType": "address",
              "name": "companyId",
              "type": "address"
            },
            {
              "internalType": "uint256",
              "name": "productId",
              "type": "uint256"
            }
          ],
          "internalType": "struct DeleteRequestContract.CompanyProduct",
          "name": "upstream",
          "type": "tuple"
        }
      ],
      "name": "addUpstream",
      "outputs": [],
      "stateMutability": "nonpayable",
      "type": "function"
    },
    {
      "inputs": [
        {
          "internalType": "uint256",
          "name": "id",
          "type": "uint256"
        }
      ],
      "name": "checkEnoughApproval",
      "outputs": [
        {
          "internalType": "bool",
          "name": "",
          "type": "bool"
        }
      ],
      "stateMutability": "view",
      "type": "function",
      "constant": true
    },
    {
      "inputs": [
        {
          "internalType": "uint256",
          "name": "id",
          "type": "uint256"
        },
        {
          "internalType": "uint256",
          "name": "productId",
          "type": "uint256"
        },
        {
          "internalType": "string",
          "name": "code",
          "type": "string"
        }
      ],
      "name": "sendDeleteRequest",
      "outputs": [],
      "stateMutability": "nonpayable",
      "type": "function"
    },
    {
      "inputs": [
        {
          "internalType": "uint256",
          "name": "id",
          "type": "uint256"
        },
        {
          "internalType": "uint256",
          "name": "productId",
          "type": "uint256"
        },
        {
          "internalType": "address",
          "name": "from",
          "type": "address"
        },
        {
          "internalType": "bool",
          "name": "approve",
          "type": "bool"
        },
        {
          "internalType": "string",
          "name": "code",
          "type": "string"
        }
      ],
      "name": "respondDeleteRequest",
      "outputs": [],
      "stateMutability": "nonpayable",
      "type": "function"
    },
    {
      "inputs": [
        {
          "internalType": "uint256",
          "name": "id",
          "type": "uint256"
        },
        {
          "internalType": "uint256",
          "name": "productId",
          "type": "uint256"
        },
        {
          "components": [
            {
              "internalType": "address",
              "name": "companyId",
              "type": "address"
            },
            {
              "internalType": "uint256",
              "name": "productId",
              "type": "uint256"
            }
          ],
          "internalType": "struct DeleteRequestContract.CompanyProduct[]",
          "name": "upstreamLeft",
          "type": "tuple[]"
        },
        {
          "internalType": "string",
          "name": "code",
          "type": "string"
        }
      ],
      "name": "deleteSupply",
      "outputs": [],
      "stateMutability": "nonpayable",
      "type": "function"
    }
  ],
  "bytecode": "0x6080604052600080546001600160a01b0319163317905534801561002257600080fd5b50611ec9806100326000396000f3fe608060405234801561001057600080fd5b50600436106100835760003560e01c8063244033cf146100885780632e1b181e1461009d57806362bc56e6146100cd578063634513ca146100ed578063853b9c8914610100578063b6c2cb821461015e578063cc4886eb14610171578063d20b483514610194578063dd57cd46146101a7575b600080fd5b61009b610096366004611a32565b6101de565b005b6000546100b0906001600160a01b031681565b6040516001600160a01b0390911681526020015b60405180910390f35b6100e06100db366004611858565b61045a565b6040516100c49190611c87565b61009b6100fb366004611858565b610899565b61009b61010e366004611879565b336000908152600160208181526040832082018054808401825590845292819020845160029094020180546001600160a01b0319166001600160a01b039094169390931783559290920151910155565b61009b61016c3660046118d7565b6108da565b61018461017f366004611894565b610f8c565b60405190151581526020016100c4565b61009b6101a236600461194c565b611062565b61009b6101b53660046118ac565b6001600160a01b0316600090815260016020818152604083208054928301815583529091200155565b3360009081526001602052604090206004015460ff166101fd57600080fd5b60005b3360009081526001602052604090205481101561044f5733600090815260016020526040902080548491908390811061024957634e487b7160e01b600052603260045260246000fd5b9060005260206000200154141561043d573360008181526001602081815260408320600301805480840182559084529281902060069093029092018781556002810187905590810180546001600160a01b03191690931790925583516102b7916005840191908601906115a8565b5060005b3360009081526001602081905260409091200154811015610435573360009081526001602081905260409091200180548691908390811061030c57634e487b7160e01b600052603260045260246000fd5b9060005260206000209060020201600101541415610423573360009081526001602081905260408220810180549192918490811061035a57634e487b7160e01b600052603260045260246000fd5b60009182526020808320600292830201546001600160a01b039081168552848201959095526040909301822081018054600181810183559184529390922086546006909402019283558582015491830180546001600160a01b03191692909416919091179092558382015491810191909155600380840180548593926103e3929084019161162c565b50600482810154908201805460ff191660ff9092161515919091179055600580830180549183019161041490611df1565b61041f92919061166c565b5050505b8061042d81611e2c565b9150506102bb565b505050610455565b8061044781611e2c565b915050610200565b50600080fd5b505050565b61048e6040518060a00160405280606081526020016060815260200160608152602001606081526020016000151581525090565b6001600160a01b0382166000908152600160209081526040918290208251815460c09381028201840190945260a0810184815290939192849284918401828280156104f857602002820191906000526020600020905b8154815260200190600101908083116104e4575b5050505050815260200160018201805480602002602001604051908101604052809291908181526020016000905b8282101561056e576000848152602090819020604080518082019091526002850290910180546001600160a01b03168252600190810154828401529083529092019101610526565b50505050815260200160028201805480602002602001604051908101604052809291908181526020016000905b828210156106f35760008481526020908190206040805160c081018252600686029092018054835260018101546001600160a01b0316838501526002810154838301526003810180548351818702810187019094528084529394919360608601939283018282801561063657602002820191906000526020600020905b81546001600160a01b03168152600190910190602001808311610618575b5050509183525050600482015460ff161515602082015260058201805460409092019161066290611df1565b80601f016020809104026020016040519081016040528092919081815260200182805461068e90611df1565b80156106db5780601f106106b0576101008083540402835291602001916106db565b820191906000526020600020905b8154815290600101906020018083116106be57829003601f168201915b5050505050815250508152602001906001019061059b565b50505050815260200160038201805480602002602001604051908101604052809291908181526020016000905b828210156108785760008481526020908190206040805160c081018252600686029092018054835260018101546001600160a01b031683850152600281015483830152600381018054835181870281018701909452808452939491936060860193928301828280156107bb57602002820191906000526020600020905b81546001600160a01b0316815260019091019060200180831161079d575b5050509183525050600482015460ff16151560208201526005820180546040909201916107e790611df1565b80601f016020809104026020016040519081016040528092919081815260200182805461081390611df1565b80156108605780601f1061083557610100808354040283529160200191610860565b820191906000526020600020905b81548152906001019060200180831161084357829003601f168201915b50505050508152505081526020019060010190610720565b505050908252506004919091015460ff16151560209091015290505b919050565b6000546001600160a01b031633146108b057600080fd5b6001600160a01b03166000908152600160208190526040909120600401805460ff19169091179055565b60005b6001600160a01b0384166000908152600160208190526040909120015481101561044f576001600160a01b03841660009081526001602081905260409091200180543391908390811061094057634e487b7160e01b600052603260045260246000fd5b60009182526020909120600290910201546001600160a01b03161480156109be57508460016000866001600160a01b03166001600160a01b0316815260200190815260200160002060010182815481106109aa57634e487b7160e01b600052603260045260246000fd5b906000526020600020906002020160010154145b15610f735760005b6001600160a01b038516600090815260016020526040902060030154811015610d2f576001600160a01b0385166000908152600160205260409020600301805488919083908110610a2757634e487b7160e01b600052603260045260246000fd5b906000526020600020906006020160000154148015610adc575082604051602001610a529190611bd0565b60408051601f1981840301815291815281516020928301206001600160a01b038816600090815260019093529120600301805483908110610aa357634e487b7160e01b600052603260045260246000fd5b9060005260206000209060060201600501604051602001610ac49190611bec565b60405160208183030381529060405280519060200120145b15610d1d578315610bdc576001600160a01b0385166000908152600160205260409020600301805482908110610b2257634e487b7160e01b600052603260045260246000fd5b60009182526020808320600360069093020182018054600181810183559185528285200180546001600160a01b031916339081179091556001600160a01b038a1685529152604090922001805483908110610b8d57634e487b7160e01b600052603260045260246000fd5b600091825260208220600160069092020101546040516001600160a01b03909116918a91600080516020611e7483398151915291610bcf918c91904290611d44565b60405180910390a4610d18565b6001600160a01b0385166000908152600160205260409020600301805482908110610c1757634e487b7160e01b600052603260045260246000fd5b6000918252602080832060016006909302018201546001600160a01b038981168552929091526040909220600301805491909216919083908110610c6b57634e487b7160e01b600052603260045260246000fd5b6000918252602090912060016006909202018101546040516001600160a01b03909116918a91600080516020611e7483398151915291610caf918c91904290611d44565b60405180910390a46001600160a01b0385166000908152600160208190526040909120600301805483908110610cf557634e487b7160e01b600052603260045260246000fd5b60009182526020909120600690910201600401805460ff19169115159190911790555b610d2f565b80610d2781611e2c565b9150506109c6565b5060005b33600090815260016020526040902060020154811015610f6c57336000908152600160205260409020600201805488919083908110610d8257634e487b7160e01b600052603260045260246000fd5b9060005260206000209060060201600001541415610f5a5733600090815260016020819052604090912060020180549091610dbc91611daa565b81548110610dda57634e487b7160e01b600052603260045260246000fd5b906000526020600020906006020160016000336001600160a01b03166001600160a01b031681526020019081526020016000206002018281548110610e2f57634e487b7160e01b600052603260045260246000fd5b60009182526020909120825460069092020190815560018083015490820180546001600160a01b0319166001600160a01b039092169190911790556002808301549082015560038083018054610e88928401919061162c565b50600482810154908201805460ff191660ff90921615159190911790556005808301805491830191610eb990611df1565b610ec492919061166c565b5050336000908152600160205260409020600201805490915080610ef857634e487b7160e01b600052603160045260246000fd5b6000828152602081206006600019909301928302018181556001810180546001600160a01b03191690556002810182905590610f3760038301826116e6565b60048201805460ff19169055610f51600583016000611707565b50509055610f6c565b80610f6481611e2c565b915050610d33565b5050610f85565b80610f7d81611e2c565b9150506108dd565b5050505050565b6000805b3360009081526001602052604090206003015481101561044f57336000908152600160205260409020600301805484919083908110610fdf57634e487b7160e01b600052603260045260246000fd5b90600052602060002090600602016000015414156110505733600090815260016020819052604090912090810154600390910180548390811061103257634e487b7160e01b600052603260045260246000fd5b90600052602060002090600602016003018054905014915050610894565b8061105a81611e2c565b915050610f90565b60005b33600090815260016020526040902060030154811015610f85573360009081526001602052604090206003018054869190839081106110b457634e487b7160e01b600052603260045260246000fd5b9060005260206000209060060201600001541480156111605750816040516020016110df9190611bd0565b60408051601f1981840301815291815281516020928301203360009081526001909352912060030180548390811061112757634e487b7160e01b600052603260045260246000fd5b90600052602060002090600602016005016040516020016111489190611bec565b60405160208183030381529060405280519060200120145b156115965760005b336000908152600160205260409020548110156112a1573360009081526001602052604090208054869190839081106111b157634e487b7160e01b600052603260045260246000fd5b9060005260206000200154141561128f57336000908152600160208190526040909120805490916111e191611daa565b815481106111ff57634e487b7160e01b600052603260045260246000fd5b60009182526020808320909101543383526001909152604090912080548390811061123a57634e487b7160e01b600052603260045260246000fd5b600091825260208083209091019290925533815260019091526040902080548061127457634e487b7160e01b600052603160045260246000fd5b600190038181906000526020600020016000905590556112a1565b8061129981611e2c565b915050611168565b5033600090815260016020819052604082206112bf92910190611743565b60005b835181101561135d57336000908152600160208190526040909120855191019085908390811061130257634e487b7160e01b600052603260045260246000fd5b602090810291909101810151825460018082018555600094855293839020825160029092020180546001600160a01b0319166001600160a01b039092169190911781559101519101558061135581611e2c565b9150506112c2565b5033600081815260016020526040902060030180548390811061139057634e487b7160e01b600052603260045260246000fd5b600091825260208220600160069092020101546040516001600160a01b03909116918891600080516020611e74833981519152916113d2918a91904290611d44565b60405180910390a4336000908152600160208190526040909120600301805490916113fc91611daa565b8154811061141a57634e487b7160e01b600052603260045260246000fd5b906000526020600020906006020160016000336001600160a01b03166001600160a01b03168152602001908152602001600020600301828154811061146f57634e487b7160e01b600052603260045260246000fd5b60009182526020909120825460069092020190815560018083015490820180546001600160a01b0319166001600160a01b0390921691909117905560028083015490820155600380830180546114c8928401919061162c565b50600482810154908201805460ff191660ff909216151591909117905560058083018054918301916114f990611df1565b61150492919061166c565b505033600090815260016020526040902060030180549091508061153857634e487b7160e01b600052603160045260246000fd5b6000828152602081206006600019909301928302018181556001810180546001600160a01b0319169055600281018290559061157760038301826116e6565b60048201805460ff19169055611591600583016000611707565b505090555b806115a081611e2c565b915050611065565b8280546115b490611df1565b90600052602060002090601f0160209004810192826115d6576000855561161c565b82601f106115ef57805160ff191683800117855561161c565b8280016001018555821561161c579182015b8281111561161c578251825591602001919060010190611601565b50611628929150611764565b5090565b82805482825590600052602060002090810192821561161c5760005260206000209182015b8281111561161c578254825591600101919060010190611651565b82805461167890611df1565b90600052602060002090601f01602090048101928261169a576000855561161c565b82601f106116ab578054855561161c565b8280016001018555821561161c57600052602060002091601f016020900482018281111561161c578254825591600101919060010190611651565b50805460008255906000526020600020908101906117049190611764565b50565b50805461171390611df1565b6000825580601f106117255750611704565b601f0160209004906000526020600020908101906117049190611764565b50805460008255600202906000526020600020908101906117049190611779565b5b808211156116285760008155600101611765565b5b808211156116285780546001600160a01b03191681556000600182015560020161177a565b80356001600160a01b038116811461089457600080fd5b600082601f8301126117c6578081fd5b81356001600160401b038111156117df576117df611e5d565b6117f2601f8201601f1916602001611d7a565b818152846020838601011115611806578283fd5b816020850160208301379081016020019190915292915050565b600060408284031215611831578081fd5b61183b6040611d7a565b90506118468261179f565b81526020820135602082015292915050565b600060208284031215611869578081fd5b6118728261179f565b9392505050565b60006040828403121561188a578081fd5b6118728383611820565b6000602082840312156118a5578081fd5b5035919050565b600080604083850312156118be578081fd5b823591506118ce6020840161179f565b90509250929050565b600080600080600060a086880312156118ee578081fd5b85359450602086013593506119056040870161179f565b925060608601358015158114611919578182fd5b915060808601356001600160401b03811115611933578182fd5b61193f888289016117b6565b9150509295509295909350565b60008060008060808587031215611961578384fd5b8435935060208086013593506040808701356001600160401b0380821115611987578586fd5b818901915089601f83011261199a578586fd5b8135818111156119ac576119ac611e5d565b6119b98586830201611d7a565b81815285810190848701868402860188018e10156119d557898afd5b8995505b838610156119ff576119eb8e82611820565b8352600195909501949187019186016119d9565b50975050506060890135935080841115611a17578485fd5b505050611a26878288016117b6565b91505092959194509250565b600080600060608486031215611a46578283fd5b833592506020840135915060408401356001600160401b03811115611a69578182fd5b611a75868287016117b6565b9150509250925092565b6000815180845260208085019450808401835b83811015611ac257815180516001600160a01b031688528301518388015260409096019590820190600101611a92565b509495945050505050565b6000815180845260208085018081965082840281019150828601855b85811015611b97578284038952815180518552858101516001600160a01b03908116878701526040808301519087015260608083015160c0918801829052805191880182905260e088019290890191908b5b82811015611b5957835182168552938a0193928a0192600101611b3b565b5050505060808281015115159087015260a09182015186820392870192909252611b838183611ba4565b9a87019a9550505090840190600101611ae9565b5091979650505050505050565b60008151808452611bbc816020860160208601611dc1565b601f01601f19169290920160200192915050565b60008251611be2818460208701611dc1565b9190910192915050565b8154600090819060028104600180831680611c0857607f831692505b6020808410821415611c2857634e487b7160e01b87526022600452602487fd5b818015611c3c5760018114611c4d57611c79565b60ff19861689528489019650611c79565b60008a815260209020885b86811015611c715781548b820152908501908301611c58565b505084890196505b509498975050505050505050565b6020808252825160a083830152805160c0840181905260009291820190839060e08601905b80831015611ccc5783518252928401926001929092019190840190611cac565b50838701519350601f19925082868203016040870152611cec8185611a7f565b93505050604085015181858403016060860152611d098382611acd565b925050606085015181858403016080860152611d258382611acd565b925050506080840151611d3c60a085018215159052565b509392505050565b8381526060810160028410611d6957634e487b7160e01b600052602160045260246000fd5b602082019390935260400152919050565b604051601f8201601f191681016001600160401b0381118282101715611da257611da2611e5d565b604052919050565b600082821015611dbc57611dbc611e47565b500390565b60005b83811015611ddc578181015183820152602001611dc4565b83811115611deb576000848401525b50505050565b600281046001821680611e0557607f821691505b60208210811415611e2657634e487b7160e01b600052602260045260246000fd5b50919050565b6000600019821415611e4057611e40611e47565b5060010190565b634e487b7160e01b600052601160045260246000fd5b634e487b7160e01b600052604160045260246000fdfea063ad1efd2a90a891b5a24528fd05699d86ce2ed69982c1f8bc0a52bf8f35caa26469706673582212200cce16b984a2673388daf681a6aadec6dd5d1dfffe71c4178fdb673981d9604f64736f6c63430008020033",
  "immutableReferences": {},
  "source": "// SPDX-License-Identifier: MIT\npragma solidity ^0.8;\npragma experimental ABIEncoderV2;\n\ncontract DeleteRequestContract {\n    address public networkOwner = msg.sender;\n    struct DeleteRequest {\n        uint id;\n        address owner;\n        uint productId;\n        address[] approvals;\n        bool rejected;\n        string code;\n    }\n    struct CompanyProduct {\n        address companyId;\n        uint productId;\n    }\n    struct Company {\n        uint[] listOfSupply;\n        CompanyProduct[] upstream;\n        DeleteRequest[] incomingDeleteRequests;\n        DeleteRequest[] outgoingDeleteRequests;\n        bool exist;\n    }\n    enum STATE {\n        APPROVED,\n        REJECTED\n    }\n    mapping(address => Company) companies;\n    event DeleteRequests(uint indexed requestId, address indexed owner, address indexed responder, uint productId, STATE state, uint256 timestamp);\n    function getCompany(address owner) public view returns (Company memory) {\n        return companies[owner];\n    }\n    function addCompany(address owner) public {\n        require(msg.sender == networkOwner);\n        companies[owner].exist = true;\n    }\n    function addProduct(uint productId, address owner) public {\n        companies[owner].listOfSupply.push(productId);\n    }\n    function addUpstream(CompanyProduct memory upstream) public {\n        companies[msg.sender].upstream.push(upstream);\n    }\n    function checkEnoughApproval(uint id) public view returns (bool) {\n        for(uint i = 0; i < companies[msg.sender].outgoingDeleteRequests.length; i++) {\n            if(companies[msg.sender].outgoingDeleteRequests[i].id == id) {\n                return companies[msg.sender].outgoingDeleteRequests[i].approvals.length == companies[msg.sender].upstream.length;\n            }\n        }\n        revert();\n    }\n    function sendDeleteRequest(uint id, uint productId, string memory code) public {\n        require(companies[msg.sender].exist);\n        for(uint j = 0; j < companies[msg.sender].listOfSupply.length; j++) {\n            if(companies[msg.sender].listOfSupply[j] == productId) {\n                DeleteRequest storage outgoingDeleteRequest = companies[msg.sender].outgoingDeleteRequests.push();\n                outgoingDeleteRequest.id = id;\n                outgoingDeleteRequest.productId = productId;\n                outgoingDeleteRequest.owner = msg.sender;\n                outgoingDeleteRequest.code = code;\n                for(uint i = 0; i < companies[msg.sender].upstream.length; i++) {\n                    if(companies[msg.sender].upstream[i].productId == productId) {\n                        companies[companies[msg.sender].upstream[i].companyId].incomingDeleteRequests.push(outgoingDeleteRequest);\n                    }\n                }\n                return;\n            }\n        }\n        revert();\n    }\n    function respondDeleteRequest(uint id, uint productId, address from, bool approve, string memory code) public {\n        for(uint i = 0; i < companies[from].upstream.length; i++) {\n            // check if the approval is the sender's upstream and has the same product ID\n            if(companies[from].upstream[i].companyId == msg.sender && companies[from].upstream[i].productId == productId) {\n                for(uint j = 0; j < companies[from].outgoingDeleteRequests.length; j++) {\n                    if(companies[from].outgoingDeleteRequests[j].id == id && keccak256(abi.encodePacked(companies[from].outgoingDeleteRequests[j].code)) == keccak256(abi.encodePacked(code))) {\n                        if(approve) {\n                            companies[from].outgoingDeleteRequests[j].approvals.push(msg.sender);\n                            emit DeleteRequests(id, companies[from].outgoingDeleteRequests[j].owner, msg.sender, productId, STATE.APPROVED, block.timestamp);\n                        } else {\n                            emit DeleteRequests(id, companies[from].outgoingDeleteRequests[j].owner, companies[from].outgoingDeleteRequests[j].owner, productId, STATE.REJECTED, block.timestamp);\n                            companies[from].outgoingDeleteRequests[j].rejected = true;\n                        }\n                        break;\n                    }\n                }\n                // remove the deleteRequest ID from approval's incomingDeleteRequests\n                for(uint j = 0; j < companies[msg.sender].incomingDeleteRequests.length; j++) {\n                    if(companies[msg.sender].incomingDeleteRequests[j].id == id) {\n                        companies[msg.sender].incomingDeleteRequests[j] = companies[msg.sender].incomingDeleteRequests[companies[msg.sender].incomingDeleteRequests.length - 1];\n                        companies[msg.sender].incomingDeleteRequests.pop();\n                        break;\n                    }\n                }\n                return;\n            }\n        }\n        revert();\n    }\n    function deleteSupply(uint id, uint productId, CompanyProduct[] memory upstreamLeft, string memory code) public {\n        for(uint i = 0; i < companies[msg.sender].outgoingDeleteRequests.length; i++) {\n            if(companies[msg.sender].outgoingDeleteRequests[i].id == id && keccak256(abi.encodePacked(companies[msg.sender].outgoingDeleteRequests[i].code)) == keccak256(abi.encodePacked(code))) {\n                for(uint j = 0; j < companies[msg.sender].listOfSupply.length; j++) {\n                    if(companies[msg.sender].listOfSupply[j] == productId) {\n                        companies[msg.sender].listOfSupply[j] = companies[msg.sender].listOfSupply[companies[msg.sender].listOfSupply.length - 1];\n                        companies[msg.sender].listOfSupply.pop();\n                        break;\n                    }\n                }\n                delete companies[msg.sender].upstream;\n                for(uint j = 0; j < upstreamLeft.length; j++) {\n                    companies[msg.sender].upstream.push(upstreamLeft[j]);\n                }\n                emit DeleteRequests(id, companies[msg.sender].outgoingDeleteRequests[i].owner, msg.sender, productId, STATE.APPROVED, block.timestamp);\n                companies[msg.sender].outgoingDeleteRequests[i] = companies[msg.sender].outgoingDeleteRequests[companies[msg.sender].outgoingDeleteRequests.length - 1];\n                companies[msg.sender].outgoingDeleteRequests.pop();\n            }\n        }\n    }\n}\n",
  "sourcePath": "/Users/darennathanieljanto/Documents/GitHub/fyp-contract-v2/contracts/DeleteRequestContract.sol",
  "compiler": {
    "name": "solc",
    "version": "0.8.2+commit.661d1103.Emscripten.clang"
  },
  "schemaVersion": "3.4.15",
  "updatedAt": "2024-05-08T12:41:27.118Z",
  "networkType": "ethereum",
  "devdoc": {
    "kind": "dev",
    "methods": {},
    "version": 1
  },
  "userdoc": {
    "kind": "user",
    "methods": {},
    "version": 1
  }
}