{
  "contractName": "ProductContract",
  "abi": [
    {
      "inputs": [
        {
          "internalType": "address",
          "name": "",
          "type": "address"
        },
        {
          "internalType": "uint256",
          "name": "",
          "type": "uint256"
        }
      ],
      "name": "companyRecipes",
      "outputs": [
        {
          "components": [
            {
              "internalType": "uint256",
              "name": "productId",
              "type": "uint256"
            },
            {
              "internalType": "string",
              "name": "productName",
              "type": "string"
            },
            {
              "internalType": "bool",
              "name": "exist",
              "type": "bool"
            },
            {
              "internalType": "bool",
              "name": "has_recipe",
              "type": "bool"
            }
          ],
          "internalType": "struct ProductContract.Product",
          "name": "supply",
          "type": "tuple"
        },
        {
          "internalType": "bool",
          "name": "exist",
          "type": "bool"
        }
      ],
      "stateMutability": "view",
      "type": "function",
      "constant": true
    },
    {
      "inputs": [
        {
          "internalType": "uint256",
          "name": "",
          "type": "uint256"
        }
      ],
      "name": "listOfProducts",
      "outputs": [
        {
          "internalType": "uint256",
          "name": "productId",
          "type": "uint256"
        },
        {
          "internalType": "string",
          "name": "productName",
          "type": "string"
        },
        {
          "internalType": "bool",
          "name": "exist",
          "type": "bool"
        },
        {
          "internalType": "bool",
          "name": "has_recipe",
          "type": "bool"
        }
      ],
      "stateMutability": "view",
      "type": "function",
      "constant": true
    },
    {
      "inputs": [],
      "name": "networkOwner",
      "outputs": [
        {
          "internalType": "address",
          "name": "",
          "type": "address"
        }
      ],
      "stateMutability": "view",
      "type": "function",
      "constant": true
    },
    {
      "inputs": [
        {
          "internalType": "uint256",
          "name": "",
          "type": "uint256"
        },
        {
          "internalType": "uint256",
          "name": "",
          "type": "uint256"
        }
      ],
      "name": "productOwners",
      "outputs": [
        {
          "internalType": "address",
          "name": "",
          "type": "address"
        }
      ],
      "stateMutability": "view",
      "type": "function",
      "constant": true
    },
    {
      "inputs": [
        {
          "internalType": "uint256",
          "name": "",
          "type": "uint256"
        }
      ],
      "name": "products",
      "outputs": [
        {
          "internalType": "uint256",
          "name": "productId",
          "type": "uint256"
        },
        {
          "internalType": "string",
          "name": "productName",
          "type": "string"
        },
        {
          "internalType": "bool",
          "name": "exist",
          "type": "bool"
        },
        {
          "internalType": "bool",
          "name": "has_recipe",
          "type": "bool"
        }
      ],
      "stateMutability": "view",
      "type": "function",
      "constant": true
    },
    {
      "inputs": [],
      "name": "getProductLength",
      "outputs": [
        {
          "internalType": "uint256",
          "name": "",
          "type": "uint256"
        }
      ],
      "stateMutability": "view",
      "type": "function",
      "constant": true
    },
    {
      "inputs": [
        {
          "internalType": "uint256",
          "name": "productId",
          "type": "uint256"
        }
      ],
      "name": "getProductOwnerLength",
      "outputs": [
        {
          "internalType": "uint256",
          "name": "",
          "type": "uint256"
        }
      ],
      "stateMutability": "view",
      "type": "function",
      "constant": true
    },
    {
      "inputs": [
        {
          "internalType": "address",
          "name": "owner",
          "type": "address"
        }
      ],
      "name": "addCompany",
      "outputs": [],
      "stateMutability": "nonpayable",
      "type": "function"
    },
    {
      "inputs": [
        {
          "internalType": "address",
          "name": "owner",
          "type": "address"
        }
      ],
      "name": "deleteCompany",
      "outputs": [],
      "stateMutability": "nonpayable",
      "type": "function"
    },
    {
      "inputs": [
        {
          "internalType": "uint256",
          "name": "productId",
          "type": "uint256"
        },
        {
          "internalType": "string",
          "name": "productName",
          "type": "string"
        },
        {
          "internalType": "address",
          "name": "owner",
          "type": "address"
        }
      ],
      "name": "addProductWithoutRecipe",
      "outputs": [],
      "stateMutability": "nonpayable",
      "type": "function"
    },
    {
      "inputs": [
        {
          "internalType": "uint256",
          "name": "productId",
          "type": "uint256"
        },
        {
          "internalType": "string",
          "name": "productName",
          "type": "string"
        },
        {
          "components": [
            {
              "internalType": "uint256",
              "name": "productId",
              "type": "uint256"
            },
            {
              "internalType": "string",
              "name": "productName",
              "type": "string"
            },
            {
              "internalType": "bool",
              "name": "exist",
              "type": "bool"
            },
            {
              "internalType": "bool",
              "name": "has_recipe",
              "type": "bool"
            }
          ],
          "internalType": "struct ProductContract.Product[]",
          "name": "prerequisiteSupplies",
          "type": "tuple[]"
        },
        {
          "internalType": "uint256[]",
          "name": "quantityPrerequisiteSupplies",
          "type": "uint256[]"
        }
      ],
      "name": "addProductWithRecipe",
      "outputs": [],
      "stateMutability": "nonpayable",
      "type": "function"
    },
    {
      "inputs": [
        {
          "internalType": "uint256",
          "name": "productId",
          "type": "uint256"
        },
        {
          "internalType": "address",
          "name": "owner",
          "type": "address"
        }
      ],
      "name": "addProductOwnerWithoutRecipe",
      "outputs": [],
      "stateMutability": "nonpayable",
      "type": "function"
    },
    {
      "inputs": [
        {
          "internalType": "uint256",
          "name": "productId",
          "type": "uint256"
        },
        {
          "components": [
            {
              "internalType": "uint256",
              "name": "productId",
              "type": "uint256"
            },
            {
              "internalType": "string",
              "name": "productName",
              "type": "string"
            },
            {
              "internalType": "bool",
              "name": "exist",
              "type": "bool"
            },
            {
              "internalType": "bool",
              "name": "has_recipe",
              "type": "bool"
            }
          ],
          "internalType": "struct ProductContract.Product[]",
          "name": "prerequisiteSupplies",
          "type": "tuple[]"
        },
        {
          "internalType": "uint256[]",
          "name": "quantityPrerequisiteSupplies",
          "type": "uint256[]"
        }
      ],
      "name": "addProductOwnerWithRecipe",
      "outputs": [],
      "stateMutability": "nonpayable",
      "type": "function"
    },
    {
      "inputs": [
        {
          "internalType": "uint256",
          "name": "productId",
          "type": "uint256"
        }
      ],
      "name": "deleteProductOwner",
      "outputs": [],
      "stateMutability": "nonpayable",
      "type": "function"
    },
    {
      "inputs": [
        {
          "internalType": "uint256",
          "name": "productId",
          "type": "uint256"
        }
      ],
      "name": "getRecipe",
      "outputs": [
        {
          "components": [
            {
              "components": [
                {
                  "internalType": "uint256",
                  "name": "productId",
                  "type": "uint256"
                },
                {
                  "internalType": "string",
                  "name": "productName",
                  "type": "string"
                },
                {
                  "internalType": "bool",
                  "name": "exist",
                  "type": "bool"
                },
                {
                  "internalType": "bool",
                  "name": "has_recipe",
                  "type": "bool"
                }
              ],
              "internalType": "struct ProductContract.Product",
              "name": "supply",
              "type": "tuple"
            },
            {
              "components": [
                {
                  "internalType": "uint256",
                  "name": "productId",
                  "type": "uint256"
                },
                {
                  "internalType": "string",
                  "name": "productName",
                  "type": "string"
                },
                {
                  "internalType": "bool",
                  "name": "exist",
                  "type": "bool"
                },
                {
                  "internalType": "bool",
                  "name": "has_recipe",
                  "type": "bool"
                }
              ],
              "internalType": "struct ProductContract.Product[]",
              "name": "prerequisites",
              "type": "tuple[]"
            },
            {
              "internalType": "uint256[]",
              "name": "quantities",
              "type": "uint256[]"
            },
            {
              "internalType": "bool",
              "name": "exist",
              "type": "bool"
            }
          ],
          "internalType": "struct ProductContract.Recipe",
          "name": "",
          "type": "tuple"
        }
      ],
      "stateMutability": "view",
      "type": "function",
      "constant": true
    },
    {
      "inputs": [
        {
          "internalType": "uint256",
          "name": "productId",
          "type": "uint256"
        }
      ],
      "name": "getProduct",
      "outputs": [
        {
          "components": [
            {
              "internalType": "uint256",
              "name": "productId",
              "type": "uint256"
            },
            {
              "internalType": "string",
              "name": "productName",
              "type": "string"
            },
            {
              "internalType": "bool",
              "name": "exist",
              "type": "bool"
            },
            {
              "internalType": "bool",
              "name": "has_recipe",
              "type": "bool"
            }
          ],
          "internalType": "struct ProductContract.Product",
          "name": "",
          "type": "tuple"
        }
      ],
      "stateMutability": "view",
      "type": "function",
      "constant": true
    }
  ],
  "bytecode": "0x6080604052600080546001600160a01b0319163317905534801561002257600080fd5b50611b3c806100326000396000f3fe608060405234801561001057600080fd5b50600436106100cf5760003560e01c806262a210146100d45780631c22c591146101045780632e1b181e1461012557806334e3989c14610138578063634513ca1461014d5780636b4ab8ab146101605780637907a8b2146101735780637acc0b2014610186578063b9db15b4146101a9578063d1d38494146101c9578063e3334760146101dc578063f0d1f28d146101ef578063f2d6181914610210578063f8d12a4114610218578063f999062d14610238578063fbf257ea1461024b575b600080fd5b6100e76100e2366004611750565b61025e565b6040516001600160a01b0390911681526020015b60405180910390f35b6101176101123660046115c3565b610296565b6040519081526020016100fb565b6000546100e7906001600160a01b031681565b61014b610146366004611606565b6102ab565b005b61014b61015b366004611579565b6104d3565b61014b61016e3660046115c3565b610511565b61014b6101813660046116c3565b610684565b6101996101943660046115c3565b610813565b6040516100fb94939291906119b9565b6101bc6101b73660046115c3565b6108dd565b6040516100fb91906118d1565b6101996101d73660046115c3565b6109c6565b61014b6101ea36600461166f565b6109e8565b6102026101fd36600461159a565b610a11565b6040516100fb9291906118e4565b600454610117565b61022b6102263660046115c3565b610b1e565b6040516100fb9190611908565b61014b6102463660046115db565b610ec1565b61014b610259366004611579565b610fb2565b6002602052816000526040600020818154811061027a57600080fd5b6000918252602090912001546001600160a01b03169150829050565b6000818152600260205260409020545b919050565b60008381526003602052604090206002015460ff166102c957600080fd5b60005b60008481526002602052604090205481101561034357600084815260026020526040902080548290811061031057634e487b7160e01b600052603260045260246000fd5b6000918252602090912001546001600160a01b031633141561033157600080fd5b8061033b81611abf565b9150506102cc565b5060008381526002602090815260408083208054600181810183559185528385200180546001600160a01b03191633908117909155845260058352908320805491820181558352908220600690910201905b835181101561044b57816003018482815181106103c257634e487b7160e01b600052603260045260246000fd5b6020908102919091018101518254600181810185556000948552938390208251600390920201908155818301518051929491936104059392850192910190611219565b5060408201516002909101805460609093015115156101000261ff001992151560ff1990941693909317919091169190911790558061044381611abf565b915050610395565b506000848152600360205260409020805482556001808201805484928301919061047490611a84565b61047f92919061129d565b506002918201805491909201805460ff191660ff928316151517808255925461ff001990931661010093849004909216151590920217905581516104cc9060048301906020850190611318565b5050505050565b6000546001600160a01b031633146104ea57600080fd5b6001600160a01b03166000908152600160208190526040909120805460ff19169091179055565b60005b60008281526002602052604090205481101561068057600082815260026020526040902080548290811061055857634e487b7160e01b600052603260045260246000fd5b6000918252602090912001546001600160a01b031633141561066e576000828152600260205260409020805461059090600190611a3d565b815481106105ae57634e487b7160e01b600052603260045260246000fd5b60009182526020808320909101548483526002909152604090912080546001600160a01b0390921691839081106105f557634e487b7160e01b600052603260045260246000fd5b600091825260208083209190910180546001600160a01b0319166001600160a01b03949094169390931790925583815260029091526040902080548061064b57634e487b7160e01b600052603160045260246000fd5b600082815260209020810160001990810180546001600160a01b03191690550190555b8061067881611abf565b915050610514565b5050565b3360009081526001602052604090205460ff166106a057600080fd5b6106ad8484336001610fea565b33600090815260056020908152604082208054600181018255908352908220600690910201905b835181101561078a578160030184828151811061070157634e487b7160e01b600052603260045260246000fd5b6020908102919091018101518254600181810185556000948552938390208251600390920201908155818301518051929491936107449392850192910190611219565b5060408201516002909101805460609093015115156101000261ff001992151560ff1990941693909317919091169190911790558061078281611abf565b9150506106d4565b50600085815260036020526040902080548255600180820180548492830191906107b390611a84565b6107be92919061129d565b506002918201805491909201805460ff191660ff928316151517808255925461ff0019909316610100938490049092161515909202179055815161080b9060048301906020850190611318565b505050505050565b6004818154811061082357600080fd5b6000918252602090912060039091020180546001820180549193509061084890611a84565b80601f016020809104026020016040519081016040528092919081815260200182805461087490611a84565b80156108c15780601f10610896576101008083540402835291602001916108c1565b820191906000526020600020905b8154815290600101906020018083116108a457829003601f168201915b5050506002909301549192505060ff8082169161010090041684565b6108e5611352565b600360008381526020019081526020016000206040518060800160405290816000820154815260200160018201805461091d90611a84565b80601f016020809104026020016040519081016040528092919081815260200182805461094990611a84565b80156109965780601f1061096b57610100808354040283529160200191610996565b820191906000526020600020905b81548152906001019060200180831161097957829003601f168201915b50505091835250506002919091015460ff8082161515602084015261010090910416151560409091015292915050565b6003602052600090815260409020805460018201805491929161084890611a84565b6000546001600160a01b031633146109ff57600080fd5b610a0c8383836000610fea565b505050565b60056020528160005260406000208181548110610a2d57600080fd5b9060005260206000209060060201600091509150508060000160405180608001604052908160008201548152602001600182018054610a6b90611a84565b80601f0160208091040260200160405190810160405280929190818152602001828054610a9790611a84565b8015610ae45780601f10610ab957610100808354040283529160200191610ae4565b820191906000526020600020905b815481529060010190602001808311610ac757829003601f168201915b50505091835250506002919091015460ff808216151560208401526101009091048116151560409092019190915260059092015490911682565b610b2661137e565b3360009081526001602052604090205460ff16610b4257600080fd5b60005b33600090815260056020526040902054811015610e6857336000908152600560205260409020805484919083908110610b8e57634e487b7160e01b600052603260045260246000fd5b60009182526020909120600690910201541415610e5657336000908152600560205260409020805482908110610bd457634e487b7160e01b600052603260045260246000fd5b90600052602060002090600602016040518060800160405290816000820160405180608001604052908160008201548152602001600182018054610c1790611a84565b80601f0160208091040260200160405190810160405280929190818152602001828054610c4390611a84565b8015610c905780601f10610c6557610100808354040283529160200191610c90565b820191906000526020600020905b815481529060010190602001808311610c7357829003601f168201915b50505091835250506002919091015460ff808216151560208085019190915261010090920416151560409283015291835260038401805482518185028101850190935280835293830193919290919060009084015b82821015610ddc578382906000526020600020906003020160405180608001604052908160008201548152602001600182018054610d2290611a84565b80601f0160208091040260200160405190810160405280929190818152602001828054610d4e90611a84565b8015610d9b5780601f10610d7057610100808354040283529160200191610d9b565b820191906000526020600020905b815481529060010190602001808311610d7e57829003601f168201915b50505091835250506002919091015460ff80821615156020808501919091526101009092041615156040909201919091529082526001929092019101610ce5565b50505050815260200160048201805480602002602001604051908101604052809291908181526020018280548015610e3357602002820191906000526020600020905b815481526020019060010190808311610e1f575b50505091835250506005919091015460ff16151560209091015291506102a69050565b80610e6081611abf565b915050610b45565b5060405162461bcd60e51b8152602060048201526024808201527f526563697065206e6f7420666f756e6420666f7220746861742070726f6475636044820152631d08125160e21b606482015260840160405180910390fd5b6000546001600160a01b031633148015610eec575060008281526003602052604090206002015460ff165b610ef557600080fd5b60005b600083815260026020526040902054811015610f72576000838152600260205260409020805482908110610f3c57634e487b7160e01b600052603260045260246000fd5b6000918252602090912001546001600160a01b0383811691161415610f6057600080fd5b80610f6a81611abf565b915050610ef8565b50600091825260026020908152604083208054600181018255908452922090910180546001600160a01b0319166001600160a01b03909216919091179055565b6000546001600160a01b03163314610fc957600080fd5b6001600160a01b03166000908152600160205260409020805460ff19169055565b60005b6004548110156110935783604051602001611008919061181a565b604051602081830303815290604052805190602001206004828154811061103f57634e487b7160e01b600052603260045260246000fd5b90600052602060002090600302016001016040516020016110609190611836565b60405160208183030381529060405280519060200120141561108157600080fd5b8061108b81611abf565b915050610fed565b5060008481526002602090815260408083208054600180820183559185528385200180546001600160a01b0319166001600160a01b038816179055815160808101835288815280840188815281840183905286151560608301528986526003855292909420845181559151805192936111129392850192910190611219565b506040828101516002909201805460609485015115156101000261ff001994151560ff1990921691909117939093169290921790915580516080810182528681526020808201878152600193830184905285151594830194909452600480549384018155600052815160039093027f8a35acfbc15ff81a39ae7d344fd709f28e8600b4aa8c65c6b64bfe7fe36bd19b81019384559351805192946111df937f8a35acfbc15ff81a39ae7d344fd709f28e8600b4aa8c65c6b64bfe7fe36bd19c909101929190910190611219565b5060408201516002909101805460609093015115156101000261ff001992151560ff19909416939093179190911691909117905550505050565b82805461122590611a84565b90600052602060002090601f016020900481019282611247576000855561128d565b82601f1061126057805160ff191683800117855561128d565b8280016001018555821561128d579182015b8281111561128d578251825591602001919060010190611272565b506112999291506113ab565b5090565b8280546112a990611a84565b90600052602060002090601f0160209004810192826112cb576000855561128d565b82601f106112dc578054855561128d565b8280016001018555821561128d57600052602060002091601f016020900482015b8281111561128d5782548255916001019190600101906112fd565b82805482825590600052602060002090810192821561128d579160200282018281111561128d578251825591602001919060010190611272565b604051806080016040528060008152602001606081526020016000151581526020016000151581525090565b6040518060800160405280611391611352565b815260606020820181905260408201819052600091015290565b5b8082111561129957600081556001016113ac565b80356001600160a01b03811681146102a657600080fd5b600082601f8301126113e7578081fd5b813560206113fc6113f783611a1a565b6119ea565b82815281810190858301855b858110156114985781358801608080601f19838d03011215611428578889fd5b611431816119ea565b8288013581526040808401356001600160401b03811115611450578b8cfd5b61145e8e8b8388010161150f565b8a8401525060606114708186016114ff565b8284015261147f8486016114ff565b9083015250865250509284019290840190600101611408565b5090979650505050505050565b600082601f8301126114b5578081fd5b813560206114c56113f783611a1a565b82815281810190858301838502870184018810156114e1578586fd5b855b85811015611498578135845292840192908401906001016114e3565b803580151581146102a657600080fd5b600082601f83011261151f578081fd5b81356001600160401b0381111561153857611538611af0565b61154b601f8201601f19166020016119ea565b81815284602083860101111561155f578283fd5b816020850160208301379081016020019190915292915050565b60006020828403121561158a578081fd5b611593826113c0565b9392505050565b600080604083850312156115ac578081fd5b6115b5836113c0565b946020939093013593505050565b6000602082840312156115d4578081fd5b5035919050565b600080604083850312156115ed578182fd5b823591506115fd602084016113c0565b90509250929050565b60008060006060848603121561161a578081fd5b8335925060208401356001600160401b0380821115611637578283fd5b611643878388016113d7565b93506040860135915080821115611658578283fd5b50611665868287016114a5565b9150509250925092565b600080600060608486031215611683578283fd5b8335925060208401356001600160401b0381111561169f578283fd5b6116ab8682870161150f565b9250506116ba604085016113c0565b90509250925092565b600080600080608085870312156116d8578081fd5b8435935060208501356001600160401b03808211156116f5578283fd5b6117018883890161150f565b94506040870135915080821115611716578283fd5b611722888389016113d7565b93506060870135915080821115611737578283fd5b50611744878288016114a5565b91505092959194509250565b60008060408385031215611762578182fd5b50508035926020909101359150565b6000815180845260208085019450808401835b838110156117a057815187529582019590820190600101611784565b509495945050505050565b600081518084526117c3816020860160208601611a54565b601f01601f19169290920160200192915050565b6000815183526020820151608060208501526117f660808501826117ab565b90506040830151151560408501526060830151151560608501528091505092915050565b6000825161182c818460208701611a54565b9190910192915050565b815460009081906002810460018083168061185257607f831692505b602080841082141561187257634e487b7160e01b87526022600452602487fd5b8180156118865760018114611897576118c3565b60ff198616895284890196506118c3565b60008a815260209020885b868110156118bb5781548b8201529085019083016118a2565b505084890196505b509498975050505050505050565b60006020825261159360208301846117d7565b6000604082526118f760408301856117d7565b905082151560208301529392505050565b60006020808352835160808285015261192460a08501826117d7565b82860151601f19868303810160408801528151808452929350908401918385019080860285018601875b8281101561197a57848783030184526119688287516117d7565b9588019593880193915060010161194e565b5060408a01519650838982030160608a01526119968188611771565b965050505050505060608401516119b1608085018215159052565b509392505050565b6000858252608060208301526119d260808301866117ab565b93151560408301525090151560609091015292915050565b604051601f8201601f191681016001600160401b0381118282101715611a1257611a12611af0565b604052919050565b60006001600160401b03821115611a3357611a33611af0565b5060209081020190565b600082821015611a4f57611a4f611ada565b500390565b60005b83811015611a6f578181015183820152602001611a57565b83811115611a7e576000848401525b50505050565b600281046001821680611a9857607f821691505b60208210811415611ab957634e487b7160e01b600052602260045260246000fd5b50919050565b6000600019821415611ad357611ad3611ada565b5060010190565b634e487b7160e01b600052601160045260246000fd5b634e487b7160e01b600052604160045260246000fdfea26469706673582212202c74439e9205d9e56f95f7d1497ae22d8ff1dc10366f3870fc234a6df278ebd264736f6c63430008020033",
  "immutableReferences": {},
  "source": "// SPDX-License-Identifier: MIT\npragma solidity ^0.8;\npragma experimental ABIEncoderV2;\n\ncontract ProductContract {\n    address public networkOwner = msg.sender;\n    struct Product {\n        uint productId;\n        string productName;\n        bool exist;\n        bool has_recipe;\n    }\n    struct Recipe {\n        Product supply;\n        Product[] prerequisites;\n        uint[] quantities;\n        bool exist;\n    }\n    mapping(address => bool) companies;\n    mapping(uint => address[]) public productOwners;\n    mapping(uint => Product) public listOfProducts;\n    Product[] public products;\n    mapping(address => Recipe[]) public companyRecipes;\n    function getProductLength() public view returns (uint) {\n        return products.length;\n    }\n    function getProductOwnerLength(uint productId) public view returns (uint) {\n        return productOwners[productId].length;\n    }\n    function addCompany(address owner) public {\n        require(msg.sender == networkOwner);\n        companies[owner] = true;\n    }\n    function deleteCompany(address owner) public {\n        require(msg.sender == networkOwner);\n        companies[owner] = false;\n    }\n    function addProduct(uint productId, string memory productName, address owner, bool has_recipe) private {\n        for(uint i = 0; i < products.length; i++) {\n            if(keccak256(abi.encodePacked(products[i].productName)) == keccak256(abi.encodePacked(productName))) {\n                revert();\n            }\n        }\n        productOwners[productId].push(owner);\n        listOfProducts[productId] = Product({\n            productId: productId,\n            productName: productName,\n            exist: true,\n            has_recipe: has_recipe\n        });\n        products.push(Product({\n            productId: productId,\n            productName: productName,\n            exist: true,\n            has_recipe: has_recipe\n        }));\n    }\n    function addProductWithoutRecipe(uint productId, string memory productName, address owner) public {\n        require(msg.sender == networkOwner);\n        addProduct(productId, productName, owner, false);\n    }\n    function addProductWithRecipe(uint productId, string memory productName, Product[] memory prerequisiteSupplies, uint[] memory quantityPrerequisiteSupplies) public {\n        require(companies[msg.sender]);\n        addProduct(productId, productName, msg.sender, true);\n        Recipe storage recipe = companyRecipes[msg.sender].push();\n        for(uint i = 0; i < prerequisiteSupplies.length; i++) {\n            recipe.prerequisites.push(prerequisiteSupplies[i]);\n        }\n        recipe.supply = listOfProducts[productId];\n        recipe.quantities = quantityPrerequisiteSupplies;\n    }\n    function addProductOwnerWithoutRecipe(uint productId, address owner) public {\n        require(msg.sender == networkOwner && listOfProducts[productId].exist);\n        for(uint i = 0; i < productOwners[productId].length; i++) {\n            if(owner == productOwners[productId][i]) {\n                revert();\n            }\n        }\n        productOwners[productId].push(owner);\n    }\n    function addProductOwnerWithRecipe(uint productId, Product[] memory prerequisiteSupplies, uint[] memory quantityPrerequisiteSupplies) public {\n        require(listOfProducts[productId].exist);\n        for(uint i = 0; i < productOwners[productId].length; i++) {\n            if(msg.sender == productOwners[productId][i]) {\n                revert();\n            }\n        }\n        productOwners[productId].push(msg.sender);\n        Recipe storage recipe = companyRecipes[msg.sender].push();\n        for(uint i = 0; i < prerequisiteSupplies.length; i++) {\n            recipe.prerequisites.push(prerequisiteSupplies[i]);\n        }\n        recipe.supply = listOfProducts[productId];\n        recipe.quantities = quantityPrerequisiteSupplies;\n    }\n    function deleteProductOwner(uint productId) public {\n        for(uint i = 0; i < productOwners[productId].length; i++) {\n            if(msg.sender == productOwners[productId][i]) {\n                productOwners[productId][i] = productOwners[productId][productOwners[productId].length - 1];\n                productOwners[productId].pop();\n            }\n        }\n    }\n    function getRecipe(uint productId) public view returns (Recipe memory) {\n        require(companies[msg.sender]);\n        for(uint i = 0; i < companyRecipes[msg.sender].length; i++) {\n            if(companyRecipes[msg.sender][i].supply.productId == productId) {\n                return companyRecipes[msg.sender][i];\n            }\n        }\n        revert(\"Recipe not found for that product ID\");\n    }\n    function getProduct(uint productId) public view returns (Product memory) {\n        return listOfProducts[productId];\n    }\n}\n",
  "sourcePath": "/Users/darennathanieljanto/Documents/GitHub/fyp-contract-v2/contracts/ProductContract.sol",
  "compiler": {
    "name": "solc",
    "version": "0.8.2+commit.661d1103.Emscripten.clang"
  },
  "schemaVersion": "3.4.15",
  "updatedAt": "2024-03-12T13:57:59.355Z",
  "networkType": "ethereum",
  "devdoc": {
    "kind": "dev",
    "methods": {},
    "version": 1
  },
  "userdoc": {
    "kind": "user",
    "methods": {},
    "version": 1
  }
}