{
  "contractName": "SupplyChainNetwork",
  "abi": [
    {
      "anonymous": false,
      "inputs": [
        {
          "indexed": true,
          "internalType": "uint256",
          "name": "contractId",
          "type": "uint256"
        },
        {
          "indexed": true,
          "internalType": "address",
          "name": "from",
          "type": "address"
        },
        {
          "indexed": true,
          "internalType": "address",
          "name": "to",
          "type": "address"
        },
        {
          "indexed": false,
          "internalType": "uint256",
          "name": "productId",
          "type": "uint256"
        },
        {
          "indexed": false,
          "internalType": "enum SupplyChainNetwork.STATE",
          "name": "state",
          "type": "uint8"
        },
        {
          "indexed": false,
          "internalType": "uint256",
          "name": "timestamp",
          "type": "uint256"
        }
      ],
      "name": "Contracts",
      "type": "event"
    },
    {
      "anonymous": false,
      "inputs": [
        {
          "indexed": true,
          "internalType": "uint256",
          "name": "requestId",
          "type": "uint256"
        },
        {
          "indexed": true,
          "internalType": "address",
          "name": "from",
          "type": "address"
        },
        {
          "indexed": true,
          "internalType": "address",
          "name": "to",
          "type": "address"
        },
        {
          "indexed": false,
          "internalType": "uint256",
          "name": "productId",
          "type": "uint256"
        },
        {
          "indexed": false,
          "internalType": "uint256",
          "name": "quantity",
          "type": "uint256"
        },
        {
          "indexed": false,
          "internalType": "enum SupplyChainNetwork.STATE",
          "name": "state",
          "type": "uint8"
        },
        {
          "indexed": false,
          "internalType": "uint256",
          "name": "timestamp",
          "type": "uint256"
        }
      ],
      "name": "Requests",
      "type": "event"
    },
    {
      "inputs": [
        {
          "internalType": "address",
          "name": "",
          "type": "address"
        }
      ],
      "name": "companies",
      "outputs": [
        {
          "internalType": "address",
          "name": "owner",
          "type": "address"
        },
        {
          "internalType": "bool",
          "name": "exist",
          "type": "bool"
        },
        {
          "internalType": "string",
          "name": "name",
          "type": "string"
        }
      ],
      "stateMutability": "view",
      "type": "function",
      "constant": true
    },
    {
      "inputs": [
        {
          "internalType": "address",
          "name": "",
          "type": "address"
        },
        {
          "internalType": "uint256",
          "name": "",
          "type": "uint256"
        }
      ],
      "name": "companyPrerequisiteSupplies",
      "outputs": [
        {
          "internalType": "uint256",
          "name": "total",
          "type": "uint256"
        },
        {
          "internalType": "bool",
          "name": "exist",
          "type": "bool"
        }
      ],
      "stateMutability": "view",
      "type": "function",
      "constant": true
    },
    {
      "inputs": [
        {
          "internalType": "address",
          "name": "",
          "type": "address"
        },
        {
          "internalType": "uint256",
          "name": "",
          "type": "uint256"
        }
      ],
      "name": "companySupplies",
      "outputs": [
        {
          "internalType": "uint256",
          "name": "total",
          "type": "uint256"
        },
        {
          "internalType": "bool",
          "name": "exist",
          "type": "bool"
        }
      ],
      "stateMutability": "view",
      "type": "function",
      "constant": true
    },
    {
      "inputs": [
        {
          "internalType": "uint256",
          "name": "",
          "type": "uint256"
        }
      ],
      "name": "headCompanies",
      "outputs": [
        {
          "internalType": "address",
          "name": "owner",
          "type": "address"
        },
        {
          "internalType": "bool",
          "name": "exist",
          "type": "bool"
        },
        {
          "internalType": "string",
          "name": "name",
          "type": "string"
        }
      ],
      "stateMutability": "view",
      "type": "function",
      "constant": true
    },
    {
      "inputs": [],
      "name": "networkOwner",
      "outputs": [
        {
          "internalType": "address",
          "name": "",
          "type": "address"
        }
      ],
      "stateMutability": "view",
      "type": "function",
      "constant": true
    },
    {
      "inputs": [
        {
          "internalType": "uint256",
          "name": "",
          "type": "uint256"
        }
      ],
      "name": "pastSupplies",
      "outputs": [
        {
          "internalType": "bool",
          "name": "exist",
          "type": "bool"
        }
      ],
      "stateMutability": "view",
      "type": "function",
      "constant": true
    },
    {
      "inputs": [
        {
          "internalType": "uint256",
          "name": "",
          "type": "uint256"
        }
      ],
      "name": "productNames",
      "outputs": [
        {
          "internalType": "string",
          "name": "",
          "type": "string"
        }
      ],
      "stateMutability": "view",
      "type": "function",
      "constant": true
    },
    {
      "inputs": [
        {
          "internalType": "address",
          "name": "owner",
          "type": "address"
        }
      ],
      "name": "getCompany",
      "outputs": [
        {
          "components": [
            {
              "internalType": "address",
              "name": "owner",
              "type": "address"
            },
            {
              "internalType": "bool",
              "name": "exist",
              "type": "bool"
            },
            {
              "internalType": "string",
              "name": "name",
              "type": "string"
            },
            {
              "internalType": "uint256[]",
              "name": "listOfSupply",
              "type": "uint256[]"
            },
            {
              "internalType": "uint256[]",
              "name": "listOfPrerequisites",
              "type": "uint256[]"
            },
            {
              "components": [
                {
                  "internalType": "address",
                  "name": "companyId",
                  "type": "address"
                },
                {
                  "internalType": "uint256",
                  "name": "productId",
                  "type": "uint256"
                }
              ],
              "internalType": "struct SupplyChainNetwork.CompanyProduct[]",
              "name": "upstream",
              "type": "tuple[]"
            },
            {
              "components": [
                {
                  "internalType": "address",
                  "name": "companyId",
                  "type": "address"
                },
                {
                  "internalType": "uint256",
                  "name": "productId",
                  "type": "uint256"
                }
              ],
              "internalType": "struct SupplyChainNetwork.CompanyProduct[]",
              "name": "downstream",
              "type": "tuple[]"
            },
            {
              "components": [
                {
                  "internalType": "uint256",
                  "name": "id",
                  "type": "uint256"
                },
                {
                  "internalType": "address",
                  "name": "from",
                  "type": "address"
                },
                {
                  "internalType": "address",
                  "name": "to",
                  "type": "address"
                },
                {
                  "internalType": "uint256",
                  "name": "productId",
                  "type": "uint256"
                },
                {
                  "internalType": "uint256",
                  "name": "quantity",
                  "type": "uint256"
                }
              ],
              "internalType": "struct SupplyChainNetwork.Request[]",
              "name": "incomingRequests",
              "type": "tuple[]"
            },
            {
              "components": [
                {
                  "internalType": "uint256",
                  "name": "id",
                  "type": "uint256"
                },
                {
                  "internalType": "address",
                  "name": "from",
                  "type": "address"
                },
                {
                  "internalType": "address",
                  "name": "to",
                  "type": "address"
                },
                {
                  "internalType": "uint256",
                  "name": "productId",
                  "type": "uint256"
                },
                {
                  "internalType": "uint256",
                  "name": "quantity",
                  "type": "uint256"
                }
              ],
              "internalType": "struct SupplyChainNetwork.Request[]",
              "name": "outgoingRequests",
              "type": "tuple[]"
            },
            {
              "components": [
                {
                  "internalType": "uint256",
                  "name": "id",
                  "type": "uint256"
                },
                {
                  "internalType": "address",
                  "name": "from",
                  "type": "address"
                },
                {
                  "internalType": "address",
                  "name": "to",
                  "type": "address"
                },
                {
                  "internalType": "uint256",
                  "name": "productId",
                  "type": "uint256"
                }
              ],
              "internalType": "struct SupplyChainNetwork.CompanyContract[]",
              "name": "incomingContract",
              "type": "tuple[]"
            },
            {
              "components": [
                {
                  "internalType": "uint256",
                  "name": "id",
                  "type": "uint256"
                },
                {
                  "internalType": "address",
                  "name": "from",
                  "type": "address"
                },
                {
                  "internalType": "address",
                  "name": "to",
                  "type": "address"
                },
                {
                  "internalType": "uint256",
                  "name": "productId",
                  "type": "uint256"
                }
              ],
              "internalType": "struct SupplyChainNetwork.CompanyContract[]",
              "name": "outgoingContract",
              "type": "tuple[]"
            },
            {
              "components": [
                {
                  "internalType": "uint256",
                  "name": "id",
                  "type": "uint256"
                },
                {
                  "internalType": "uint256",
                  "name": "approvals",
                  "type": "uint256"
                },
                {
                  "internalType": "string",
                  "name": "code",
                  "type": "string"
                }
              ],
              "internalType": "struct SupplyChainNetwork.DeleteRequest[]",
              "name": "deleteRequest",
              "type": "tuple[]"
            }
          ],
          "internalType": "struct SupplyChainNetwork.Company",
          "name": "",
          "type": "tuple"
        }
      ],
      "stateMutability": "view",
      "type": "function",
      "constant": true
    },
    {
      "inputs": [
        {
          "internalType": "address",
          "name": "owner",
          "type": "address"
        },
        {
          "internalType": "string",
          "name": "name",
          "type": "string"
        }
      ],
      "name": "addCompany",
      "outputs": [],
      "stateMutability": "nonpayable",
      "type": "function"
    },
    {
      "inputs": [],
      "name": "getHeadCompaniesLength",
      "outputs": [
        {
          "internalType": "uint256",
          "name": "",
          "type": "uint256"
        }
      ],
      "stateMutability": "view",
      "type": "function",
      "constant": true
    },
    {
      "inputs": [
        {
          "internalType": "uint256",
          "name": "productId",
          "type": "uint256"
        },
        {
          "internalType": "string",
          "name": "productName",
          "type": "string"
        },
        {
          "internalType": "address",
          "name": "company_address",
          "type": "address"
        }
      ],
      "name": "addProduct",
      "outputs": [],
      "stateMutability": "nonpayable",
      "type": "function"
    },
    {
      "inputs": [
        {
          "internalType": "uint256",
          "name": "productId",
          "type": "uint256"
        },
        {
          "internalType": "string",
          "name": "productName",
          "type": "string"
        }
      ],
      "name": "addProductOwner",
      "outputs": [],
      "stateMutability": "nonpayable",
      "type": "function"
    },
    {
      "inputs": [
        {
          "internalType": "uint256",
          "name": "supplyId",
          "type": "uint256"
        }
      ],
      "name": "getPastSupply",
      "outputs": [
        {
          "internalType": "uint256[]",
          "name": "",
          "type": "uint256[]"
        }
      ],
      "stateMutability": "view",
      "type": "function",
      "constant": true
    },
    {
      "inputs": [
        {
          "internalType": "uint256",
          "name": "productId",
          "type": "uint256"
        }
      ],
      "name": "getSupply",
      "outputs": [
        {
          "components": [
            {
              "internalType": "uint256",
              "name": "total",
              "type": "uint256"
            },
            {
              "internalType": "uint256[]",
              "name": "supplyId",
              "type": "uint256[]"
            },
            {
              "internalType": "uint256[]",
              "name": "quantities",
              "type": "uint256[]"
            },
            {
              "internalType": "bool",
              "name": "exist",
              "type": "bool"
            }
          ],
          "internalType": "struct SupplyChainNetwork.Supply",
          "name": "",
          "type": "tuple"
        }
      ],
      "stateMutability": "view",
      "type": "function",
      "constant": true
    },
    {
      "inputs": [
        {
          "internalType": "uint256",
          "name": "productId",
          "type": "uint256"
        }
      ],
      "name": "getPrerequisiteSupply",
      "outputs": [
        {
          "components": [
            {
              "internalType": "uint256",
              "name": "total",
              "type": "uint256"
            },
            {
              "internalType": "uint256[]",
              "name": "supplyId",
              "type": "uint256[]"
            },
            {
              "internalType": "uint256[]",
              "name": "quantities",
              "type": "uint256[]"
            },
            {
              "internalType": "bool",
              "name": "exist",
              "type": "bool"
            }
          ],
          "internalType": "struct SupplyChainNetwork.Supply",
          "name": "",
          "type": "tuple"
        }
      ],
      "stateMutability": "view",
      "type": "function",
      "constant": true
    },
    {
      "inputs": [
        {
          "internalType": "uint256",
          "name": "productId",
          "type": "uint256"
        },
        {
          "internalType": "uint256",
          "name": "numberOfSupply",
          "type": "uint256"
        },
        {
          "internalType": "uint256",
          "name": "supplyId",
          "type": "uint256"
        }
      ],
      "name": "convertToSupply",
      "outputs": [],
      "stateMutability": "nonpayable",
      "type": "function"
    },
    {
      "inputs": [
        {
          "internalType": "uint256",
          "name": "newSupplyProductId",
          "type": "uint256"
        },
        {
          "internalType": "uint256",
          "name": "numberOfNewSupply",
          "type": "uint256"
        },
        {
          "internalType": "uint256",
          "name": "newSupplyId",
          "type": "uint256"
        },
        {
          "internalType": "uint256[]",
          "name": "prerequisiteProductIds",
          "type": "uint256[]"
        },
        {
          "internalType": "uint256[]",
          "name": "prerequisiteSupplyIds",
          "type": "uint256[]"
        },
        {
          "internalType": "uint256[]",
          "name": "prerequisiteQuantities",
          "type": "uint256[]"
        }
      ],
      "name": "convertPrerequisiteToSupply",
      "outputs": [],
      "stateMutability": "nonpayable",
      "type": "function"
    },
    {
      "inputs": [
        {
          "components": [
            {
              "internalType": "uint256",
              "name": "id",
              "type": "uint256"
            },
            {
              "internalType": "address",
              "name": "from",
              "type": "address"
            },
            {
              "internalType": "address",
              "name": "to",
              "type": "address"
            },
            {
              "internalType": "uint256",
              "name": "productId",
              "type": "uint256"
            },
            {
              "internalType": "uint256",
              "name": "quantity",
              "type": "uint256"
            }
          ],
          "internalType": "struct SupplyChainNetwork.Request",
          "name": "request",
          "type": "tuple"
        }
      ],
      "name": "sendRequest",
      "outputs": [],
      "stateMutability": "nonpayable",
      "type": "function"
    },
    {
      "inputs": [
        {
          "components": [
            {
              "internalType": "uint256",
              "name": "id",
              "type": "uint256"
            },
            {
              "internalType": "address",
              "name": "from",
              "type": "address"
            },
            {
              "internalType": "address",
              "name": "to",
              "type": "address"
            },
            {
              "internalType": "uint256",
              "name": "productId",
              "type": "uint256"
            },
            {
              "internalType": "uint256",
              "name": "quantity",
              "type": "uint256"
            }
          ],
          "internalType": "struct SupplyChainNetwork.Request",
          "name": "request",
          "type": "tuple"
        },
        {
          "internalType": "uint256[]",
          "name": "supplyIds",
          "type": "uint256[]"
        },
        {
          "internalType": "uint256[]",
          "name": "quantities",
          "type": "uint256[]"
        }
      ],
      "name": "approveRequest",
      "outputs": [],
      "stateMutability": "nonpayable",
      "type": "function"
    },
    {
      "inputs": [
        {
          "components": [
            {
              "internalType": "uint256",
              "name": "id",
              "type": "uint256"
            },
            {
              "internalType": "address",
              "name": "from",
              "type": "address"
            },
            {
              "internalType": "address",
              "name": "to",
              "type": "address"
            },
            {
              "internalType": "uint256",
              "name": "productId",
              "type": "uint256"
            },
            {
              "internalType": "uint256",
              "name": "quantity",
              "type": "uint256"
            }
          ],
          "internalType": "struct SupplyChainNetwork.Request",
          "name": "request",
          "type": "tuple"
        }
      ],
      "name": "declineRequest",
      "outputs": [],
      "stateMutability": "nonpayable",
      "type": "function"
    },
    {
      "inputs": [
        {
          "components": [
            {
              "internalType": "uint256",
              "name": "id",
              "type": "uint256"
            },
            {
              "internalType": "address",
              "name": "from",
              "type": "address"
            },
            {
              "internalType": "address",
              "name": "to",
              "type": "address"
            },
            {
              "internalType": "uint256",
              "name": "productId",
              "type": "uint256"
            }
          ],
          "internalType": "struct SupplyChainNetwork.CompanyContract",
          "name": "companyContract",
          "type": "tuple"
        }
      ],
      "name": "sendContract",
      "outputs": [],
      "stateMutability": "nonpayable",
      "type": "function"
    },
    {
      "inputs": [
        {
          "components": [
            {
              "internalType": "uint256",
              "name": "id",
              "type": "uint256"
            },
            {
              "internalType": "address",
              "name": "from",
              "type": "address"
            },
            {
              "internalType": "address",
              "name": "to",
              "type": "address"
            },
            {
              "internalType": "uint256",
              "name": "productId",
              "type": "uint256"
            }
          ],
          "internalType": "struct SupplyChainNetwork.CompanyContract",
          "name": "companyContract",
          "type": "tuple"
        }
      ],
      "name": "approveContract",
      "outputs": [],
      "stateMutability": "nonpayable",
      "type": "function"
    },
    {
      "inputs": [
        {
          "components": [
            {
              "internalType": "uint256",
              "name": "id",
              "type": "uint256"
            },
            {
              "internalType": "address",
              "name": "from",
              "type": "address"
            },
            {
              "internalType": "address",
              "name": "to",
              "type": "address"
            },
            {
              "internalType": "uint256",
              "name": "productId",
              "type": "uint256"
            }
          ],
          "internalType": "struct SupplyChainNetwork.CompanyContract",
          "name": "companyContract",
          "type": "tuple"
        }
      ],
      "name": "declineContract",
      "outputs": [],
      "stateMutability": "nonpayable",
      "type": "function"
    },
    {
      "inputs": [
        {
          "internalType": "uint256",
          "name": "id",
          "type": "uint256"
        },
        {
          "internalType": "uint256",
          "name": "productId",
          "type": "uint256"
        },
        {
          "internalType": "string",
          "name": "code",
          "type": "string"
        }
      ],
      "name": "sendDeleteRequest",
      "outputs": [],
      "stateMutability": "nonpayable",
      "type": "function"
    },
    {
      "inputs": [
        {
          "internalType": "uint256",
          "name": "id",
          "type": "uint256"
        },
        {
          "internalType": "string",
          "name": "code",
          "type": "string"
        },
        {
          "internalType": "address",
          "name": "owner",
          "type": "address"
        }
      ],
      "name": "addApproval",
      "outputs": [],
      "stateMutability": "nonpayable",
      "type": "function"
    },
    {
      "inputs": [
        {
          "internalType": "uint256",
          "name": "id",
          "type": "uint256"
        },
        {
          "internalType": "uint256",
          "name": "productId",
          "type": "uint256"
        },
        {
          "components": [
            {
              "internalType": "address",
              "name": "companyId",
              "type": "address"
            },
            {
              "internalType": "uint256",
              "name": "productId",
              "type": "uint256"
            }
          ],
          "internalType": "struct SupplyChainNetwork.CompanyProduct[]",
          "name": "upstreamLeft",
          "type": "tuple[]"
        },
        {
          "internalType": "string",
          "name": "code",
          "type": "string"
        },
        {
          "internalType": "bool",
          "name": "isHeadCompany",
          "type": "bool"
        }
      ],
      "name": "deleteSupply",
      "outputs": [],
      "stateMutability": "nonpayable",
      "type": "function"
    }
  ],
  "bytecode": "0x6080604052600080546001600160a01b0319163317905534801561002257600080fd5b50615e7780620000336000396000f3fe608060405234801561001057600080fd5b506004361061013e5760003560e01c8063244033cf146101435780632e1b181e14610158578063355e6ce814610188578063460c7d63146101aa578063461a218a146101e05780634f36e0b3146101f35780635bd9668c1461020457806360349e031461021757806362bc56e61461022a5780636a32206b1461024a5780636cbcb9ad1461025d5780637043ef891461027057806376d1094f146102835780637d7a14341461029657806389f3fecf146102a95780638f96fedf146102bc57806391c103f7146102cf5780639c8316c5146102ef578063aca0ad7914610302578063b33cf82b14610349578063de4495551461035c578063e595028214610391578063e6f4cc18146103b1578063ed234e20146103d1578063f77ee79d146103e4578063fa309ae6146103f7575b600080fd5b61015661015136600461564b565b61040a565b005b60005461016b906001600160a01b031681565b6040516001600160a01b0390911681526020015b60405180910390f35b61019b610196366004615333565b6104fa565b60405161017f93929190615a11565b6101d06101b83660046154a9565b60066020526000908152604090206001015460ff1681565b604051901515815260200161017f565b6101566101ee36600461541d565b6105b6565b60045460405190815260200161017f565b6101566102123660046153c8565b610a8a565b61019b6102253660046154a9565b610b76565b61023d610238366004615333565b610bc0565b60405161017f9190615a6c565b610156610258366004615543565b6111f4565b61015661026b3660046153c8565b611c84565b61015661027e3660046154ef565b61212f565b6101566102913660046153c8565b6122c9565b6101566102a436600461568e565b612b45565b6101566102b73660046154ef565b612c48565b6101566102ca366004615438565b612dc4565b6102e26102dd3660046154a9565b613bd1565b60405161017f9190615a46565b6101566102fd3660046154c1565b613c52565b61033461031036600461539f565b60036020818152600093845260408085209091529183529120805491015460ff1682565b6040805192835290151560208301520161017f565b61015661035736600461541d565b613d42565b61033461036a36600461539f565b60026020908152600092835260408084209091529082529020805460039091015460ff1682565b6103a461039f3660046154a9565b613e3a565b60405161017f9190615a59565b6103c46103bf3660046154a9565b613ee6565b60405161017f9190615bc9565b6101566103df366004615354565b613ffe565b6103c46103f23660046154a9565b6141ae565b6101566104053660046156b9565b6142c9565b60005b336000908152600160205260409020600201548110156104ef5733600090815260016020526040902060020180548491908390811061045c57634e487b7160e01b600052603260045260246000fd5b906000526020600020015414156104dd573360009081526001602081815260408084208151606081018352898152808401868152928101888152600a90920180548087018255908752958490208151600390970201958655915193850193909355915180519293926104d49260028501920190614c44565b505050506104f5565b806104e781615d5a565b91505061040d565b50600080fd5b505050565b6001602081905260009182526040909120805491810180546001600160a01b03841693600160a01b900460ff1692919061053390615d1f565b80601f016020809104026020016040519081016040528092919081815260200182805461055f90615d1f565b80156105ac5780601f10610581576101008083540402835291602001916105ac565b820191906000526020600020905b81548152906001019060200180831161058f57829003601f168201915b5050505050905083565b60408101516001600160a01b031633146105cf57600080fd5b60005b6020808301516001600160a01b03166000908152600190915260409020600701548110156107805781516020808401516001600160a01b0316600090815260019091526040902060070180548390811061063c57634e487b7160e01b600052603260045260246000fd5b906000526020600020906005020160000154141561076e57602080830180516001600160a01b0390811660009081526001938490526040808220935190921681522060079081015491019161069091615cdc565b815481106106ae57634e487b7160e01b600052603260045260246000fd5b90600052602060002090600502016001600084602001516001600160a01b03166001600160a01b03168152602001908152602001600020600701828154811061070757634e487b7160e01b600052603260045260246000fd5b60009182526020909120825460059092020190815560018083015490820180546001600160a01b039283166001600160a01b031991821617909155600280850154908401805491909316911617905560038083015490820155600491820154910155610780565b8061077881615d5a565b9150506105d2565b506020808201516001600160a01b031660009081526001909152604090206007018054806107be57634e487b7160e01b600052603160045260246000fd5b6000828152602081206005600019909301928302018181556001810180546001600160a01b031990811690915560028201805490911690556003810182905560040181905591555b6040808301516001600160a01b03166000908152600160205220600601548110156109b05781516040808401516001600160a01b0316600090815260016020522060060180548390811061086a57634e487b7160e01b600052603260045260246000fd5b906000526020600020906005020160000154141561099e57604080830180516001600160a01b0390811660009081526001602081905284822093519092168152929092206006908101549101916108c091615cdc565b815481106108de57634e487b7160e01b600052603260045260246000fd5b90600052602060002090600502016001600084604001516001600160a01b03166001600160a01b03168152602001908152602001600020600601828154811061093757634e487b7160e01b600052603260045260246000fd5b60009182526020909120825460059092020190815560018083015490820180546001600160a01b039283166001600160a01b0319918216179091556002808501549084018054919093169116179055600380830154908201556004918201549101556109b0565b806109a881615d5a565b915050610806565b506040808201516001600160a01b031660009081526001602052206006018054806109eb57634e487b7160e01b600052603160045260246000fd5b60008281526020808220600560001990940193840201828155600181810180546001600160a01b0319908116909155600283018054909116905560038201849055600490910192909255919092556040808401519184015184516060860151608087015193516001600160a01b039586169693909516949193600080516020615da283398151915293610a7f934290615c47565b60405180910390a450565b80602001516001600160a01b0316336001600160a01b031614610aac57600080fd5b602080820180516001600160a01b039081166000908152600180855260408083206009018054808401825590845286842088516004928302909101908155865181850180549188166001600160a01b0319928316179055838a01805160028085018054928b169285168317905560608d018051600396870155918952958820600801805480890182559089529a9097209a51999093029099019788559551928701805493861693891693909317909255905190850180549190931695169490941790559151910155565b60048181548110610b8657600080fd5b60009182526020909120600b9091020180546001820180546001600160a01b0383169450600160a01b90920460ff16929161053390615d1f565b610c2f60405180610180016040528060006001600160a01b03168152602001600015158152602001606081526020016060815260200160608152602001606081526020016060815260200160608152602001606081526020016060815260200160608152602001606081525090565b6001600160a01b0382811660009081526001602081815260409283902083516101808101855281549586168152600160a01b90950460ff1615159185019190915290810180549192840191610c8390615d1f565b80601f0160208091040260200160405190810160405280929190818152602001828054610caf90615d1f565b8015610cfc5780601f10610cd157610100808354040283529160200191610cfc565b820191906000526020600020905b815481529060010190602001808311610cdf57829003601f168201915b5050505050815260200160028201805480602002602001604051908101604052809291908181526020018280548015610d5457602002820191906000526020600020905b815481526020019060010190808311610d40575b5050505050815260200160038201805480602002602001604051908101604052809291908181526020018280548015610dac57602002820191906000526020600020905b815481526020019060010190808311610d98575b5050505050815260200160048201805480602002602001604051908101604052809291908181526020016000905b82821015610e22576000848152602090819020604080518082019091526002850290910180546001600160a01b03168252600190810154828401529083529092019101610dda565b50505050815260200160058201805480602002602001604051908101604052809291908181526020016000905b82821015610e97576000848152602090819020604080518082019091526002850290910180546001600160a01b03168252600190810154828401529083529092019101610e4f565b50505050815260200160068201805480602002602001604051908101604052809291908181526020016000905b82821015610f2e5760008481526020908190206040805160a08101825260058602909201805483526001808201546001600160a01b039081168587015260028301541692840192909252600381015460608401526004015460808301529083529092019101610ec4565b50505050815260200160078201805480602002602001604051908101604052809291908181526020016000905b82821015610fc55760008481526020908190206040805160a08101825260058602909201805483526001808201546001600160a01b039081168587015260028301541692840192909252600381015460608401526004015460808301529083529092019101610f5b565b50505050815260200160088201805480602002602001604051908101604052809291908181526020016000905b828210156110525760008481526020908190206040805160808101825260048602909201805483526001808201546001600160a01b0390811685870152600283015416928401929092526003015460608301529083529092019101610ff2565b50505050815260200160098201805480602002602001604051908101604052809291908181526020016000905b828210156110df5760008481526020908190206040805160808101825260048602909201805483526001808201546001600160a01b039081168587015260028301541692840192909252600301546060830152908352909201910161107f565b505050508152602001600a8201805480602002602001604051908101604052809291908181526020016000905b828210156111e45783829060005260206000209060030201604051806060016040529081600082015481526020016001820154815260200160028201805461115390615d1f565b80601f016020809104026020016040519081016040528092919081815260200182805461117f90615d1f565b80156111cc5780601f106111a1576101008083540402835291602001916111cc565b820191906000526020600020905b8154815290600101906020018083116111af57829003601f168201915b5050505050815250508152602001906001019061110c565b505050508152505090505b919050565b60005b336000908152600160205260409020600a01548110156104ef57336000908152600160205260409020600a0180548791908390811061124657634e487b7160e01b600052603260045260246000fd5b9060005260206000209060030201600001541480156112f2575082604051602001611271919061595a565b60408051601f19818403018152918152815160209283012033600090815260019093529120600a018054839081106112b957634e487b7160e01b600052603260045260246000fd5b90600052602060002090600302016002016040516020016112da9190615976565b60405160208183030381529060405280519060200120145b801561134657503360009081526001602052604090206004810154600a90910180548390811061133257634e487b7160e01b600052603260045260246000fd5b906000526020600020906003020160010154145b15611c6b5760005b336000908152600160205260409020600401548110156117b45760005b33600090815260016020819052604082206004018054919291859081106113a257634e487b7160e01b600052603260045260246000fd5b600091825260208083206002909202909101546001600160a01b031683528201929092526040019020600501548110156117a157336000818152600160208190526040822060040180549192918690811061140d57634e487b7160e01b600052603260045260246000fd5b600091825260208083206002909202909101546001600160a01b03168352820192909252604001902060050180548390811061145957634e487b7160e01b600052603260045260246000fd5b60009182526020909120600290910201546001600160a01b03161480156115135750336000908152600160208190526040822060040180548a939190869081106114b357634e487b7160e01b600052603260045260246000fd5b600091825260208083206002909202909101546001600160a01b0316835282019290925260400190206005018054839081106114ff57634e487b7160e01b600052603260045260246000fd5b906000526020600020906002020160010154145b1561178f57336000908152600160208190526040822060040180549192918590811061154f57634e487b7160e01b600052603260045260246000fd5b600091825260208083206002909202909101546001600160a01b03168352828101939093526040918201812033825260019384905291812060040180546005909301939283929190879081106115b557634e487b7160e01b600052603260045260246000fd5b600091825260208083206002909202909101546001600160a01b031683528201929092526040019020600501546115ec9190615cdc565b8154811061160a57634e487b7160e01b600052603260045260246000fd5b90600052602060002090600202016001600060016000336001600160a01b03166001600160a01b03168152602001908152602001600020600401858154811061166357634e487b7160e01b600052603260045260246000fd5b600091825260208083206002909202909101546001600160a01b0316835282019290925260400190206005018054839081106116af57634e487b7160e01b600052603260045260246000fd5b60009182526020808320845460029093020180546001600160a01b0319166001600160a01b03909316929092178255600193840154918401919091553382528290526040812060040180548590811061171857634e487b7160e01b600052603260045260246000fd5b600091825260208083206002909202909101546001600160a01b03168352820192909252604001902060050180548061176157634e487b7160e01b600052603160045260246000fd5b60008281526020812060026000199093019283020180546001600160a01b03191681556001015590556117a1565b8061179981615d5a565b91505061136b565b50806117ac81615d5a565b91505061134e565b503360009081526001602052604081206117d391600490910190614cc8565b60005b845181101561187157336000908152600160205260409020855160049091019086908390811061181657634e487b7160e01b600052603260045260246000fd5b602090810291909101810151825460018082018555600094855293839020825160029092020180546001600160a01b0319166001600160a01b039092169190911781559101519101558061186981615d5a565b9150506117d6565b50835115801561187f575081155b156119e257336000908152600160208190526040822060048054808401825593528054600b909302600080516020615e02833981519152810180546001600160a01b0319166001600160a01b039590951694909417808555825460ff600160a01b918290041615150260ff60a01b199091161784559181018054919392600080516020615de2833981519152019161191690615d1f565b611921929190614cec565b50600282810180546119369284019190614d67565b506003828101805461194b9284019190614d67565b50600482810180546119609284019190614da6565b50600582810180546119759284019190614da6565b506006828101805461198a9284019190614e1a565b506007828101805461199f9284019190614e1a565b50600882810180546119b49284019190614eba565b50600982810180546119c99284019190614eba565b50600a82810180546119de9284019190614f50565b5050505b60005b33600090815260016020526040902060020154811015611b2957336000908152600160205260409020600201805487919083908110611a3457634e487b7160e01b600052603260045260246000fd5b90600052602060002001541415611b175733600090815260016020819052604090912060020180549091611a6791615cdc565b81548110611a8557634e487b7160e01b600052603260045260246000fd5b600091825260208083209091015433835260019091526040909120600201805483908110611ac357634e487b7160e01b600052603260045260246000fd5b6000918252602080832090910192909255338152600190915260409020600201805480611b0057634e487b7160e01b600052603160045260246000fd5b600190038181906000526020600020016000905590555b80611b2181615d5a565b9150506119e5565b50336000908152600160208190526040909120600a0180549091611b4c91615cdc565b81548110611b6a57634e487b7160e01b600052603260045260246000fd5b906000526020600020906003020160016000336001600160a01b03166001600160a01b03168152602001908152602001600020600a018281548110611bbf57634e487b7160e01b600052603260045260246000fd5b906000526020600020906003020160008201548160000155600182015481600101556002820181600201908054611bf590615d1f565b611c00929190614cec565b5050336000908152600160205260409020600a01805490915080611c3457634e487b7160e01b600052603160045260246000fd5b6000828152602081206003600019909301928302018181556001810182905590611c616002830182614fd6565b5050905550611c7d565b80611c7581615d5a565b9150506111f7565b5050505050565b80604001516001600160a01b0316336001600160a01b031614611ca657600080fd5b60005b6020808301516001600160a01b0316600090815260019091526040902060090154811015611e4d5781516020808401516001600160a01b03166000908152600190915260409020600901805483908110611d1357634e487b7160e01b600052603260045260246000fd5b9060005260206000209060040201600001541415611e3b57602080830180516001600160a01b03908116600090815260019384905260408082209351909216815220600990810154910191611d6791615cdc565b81548110611d8557634e487b7160e01b600052603260045260246000fd5b90600052602060002090600402016001600084602001516001600160a01b03166001600160a01b031681526020019081526020016000206009018281548110611dde57634e487b7160e01b600052603260045260246000fd5b60009182526020909120825460049092020190815560018083015490820180546001600160a01b039283166001600160a01b0319918216179091556002808501549084018054919093169116179055600391820154910155611e4d565b80611e4581615d5a565b915050611ca9565b506020808201516001600160a01b03166000908152600190915260409020600901805480611e8b57634e487b7160e01b600052603160045260246000fd5b6000828152602081206004600019909301928302018181556001810180546001600160a01b0319908116909155600282018054909116905560030181905591555b6040808301516001600160a01b031660009081526001602052206008015481101561206c5781516040808401516001600160a01b03166000908152600160205220600801805483908110611f3057634e487b7160e01b600052603260045260246000fd5b906000526020600020906004020160000154141561205a57604080830180516001600160a01b039081166000908152600160208190528482209351909216815292909220600890810154910191611f8691615cdc565b81548110611fa457634e487b7160e01b600052603260045260246000fd5b90600052602060002090600402016001600084604001516001600160a01b03166001600160a01b031681526020019081526020016000206008018281548110611ffd57634e487b7160e01b600052603260045260246000fd5b60009182526020909120825460049092020190815560018083015490820180546001600160a01b039283166001600160a01b031991821617909155600280850154908401805491909316911617905560039182015491015561206c565b8061206481615d5a565b915050611ecc565b506040808201516001600160a01b031660009081526001602052206008018054806120a757634e487b7160e01b600052603160045260246000fd5b60008281526020808220600460001990940193840201828155600181810180546001600160a01b0319908116909155600283018054909116905560039091019290925591909255604080840151918401518451606086015192516001600160a01b039485169592909416939092600080516020615e2283398151915292610a7f924290615c25565b60005b6001600160a01b0382166000908152600160205260409020600a01548110156104ef576001600160a01b0382166000908152600160205260409020600a0180548591908390811061219357634e487b7160e01b600052603260045260246000fd5b9060005260206000209060030201600001541480156122485750826040516020016121be919061595a565b60408051601f1981840301815291815281516020928301206001600160a01b038516600090815260019093529120600a0180548390811061220f57634e487b7160e01b600052603260045260246000fd5b90600052602060002090600302016002016040516020016122309190615976565b60405160208183030381529060405280519060200120145b156122b7576001600160a01b0382166000908152600160208190526040909120600a0180548390811061228b57634e487b7160e01b600052603260045260246000fd5b906000526020600020906003020160010160008282546122ab9190615cc4565b909155506104f5915050565b806122c181615d5a565b915050612132565b80604001516001600160a01b0316336001600160a01b0316146122eb57600080fd5b602080820180516001600160a01b0390811660009081526003808552604080832060608801805185529087528184208301805460ff191660019081179091558651861685528088528285208251940180548083018255908652888620019390935585518516845281842082518084018452838a018051881682528351828b019081526005909301805480880182559088528a8820925160029182029093018054938a166001600160a01b031994851617815593519387019390935551871686528489528386208451808601909552975187168452915183890190815260049097018054808601825590865297852092519702909101805496909416951694909417825591519201919091555b6004548110156126bf57336001600160a01b03166004828154811061242c57634e487b7160e01b600052603260045260246000fd5b60009182526020909120600b90910201546001600160a01b031614156126ad576004805461245c90600190615cdc565b8154811061247a57634e487b7160e01b600052603260045260246000fd5b90600052602060002090600b0201600482815481106124a957634e487b7160e01b600052603260045260246000fd5b600091825260209091208254600b9092020180546001600160a01b0319166001600160a01b0390921691909117808255825460ff600160a01b918290041615150260ff60a01b19909116178155600180830180549183019161250a90615d1f565b612515929190614cec565b506002828101805461252a9284019190614d67565b506003828101805461253f9284019190614d67565b50600482810180546125549284019190614da6565b50600582810180546125699284019190614da6565b506006828101805461257e9284019190614e1a565b50600782810180546125939284019190614e1a565b50600882810180546125a89284019190614eba565b50600982810180546125bd9284019190614eba565b50600a82810180546125d29284019190614f50565b5090505060048054806125f557634e487b7160e01b600052603160045260246000fd5b600082815260208120600b6000199093019283020180546001600160a81b0319168155906126266001830182614fd6565b612634600283016000615012565b612642600383016000615012565b612650600483016000614cc8565b61265e600583016000614cc8565b61266c600683016000615030565b61267a600783016000615030565b612688600883016000615051565b612696600983016000615051565b6126a4600a83016000615072565b505090556126bf565b806126b781615d5a565b9150506123f7565b5060005b6020808301516001600160a01b03166000908152600190915260409020600901548110156128675781516020808401516001600160a01b0316600090815260019091526040902060090180548390811061272d57634e487b7160e01b600052603260045260246000fd5b906000526020600020906004020160000154141561285557602080830180516001600160a01b0390811660009081526001938490526040808220935190921681522060099081015491019161278191615cdc565b8154811061279f57634e487b7160e01b600052603260045260246000fd5b90600052602060002090600402016001600084602001516001600160a01b03166001600160a01b0316815260200190815260200160002060090182815481106127f857634e487b7160e01b600052603260045260246000fd5b60009182526020909120825460049092020190815560018083015490820180546001600160a01b039283166001600160a01b0319918216179091556002808501549084018054919093169116179055600391820154910155612867565b8061285f81615d5a565b9150506126c3565b506020808201516001600160a01b031660009081526001909152604090206009018054806128a557634e487b7160e01b600052603160045260246000fd5b6000828152602081206004600019909301928302018181556001810180546001600160a01b0319908116909155600282018054909116905560030181905591555b6040808301516001600160a01b0316600090815260016020522060080154811015612a865781516040808401516001600160a01b0316600090815260016020522060080180548390811061294a57634e487b7160e01b600052603260045260246000fd5b9060005260206000209060040201600001541415612a7457604080830180516001600160a01b0390811660009081526001602081905284822093519092168152929092206008908101549101916129a091615cdc565b815481106129be57634e487b7160e01b600052603260045260246000fd5b90600052602060002090600402016001600084604001516001600160a01b03166001600160a01b031681526020019081526020016000206008018281548110612a1757634e487b7160e01b600052603260045260246000fd5b60009182526020909120825460049092020190815560018083015490820180546001600160a01b039283166001600160a01b0319918216179091556002808501549084018054919093169116179055600391820154910155612a86565b80612a7e81615d5a565b9150506128e6565b506040808201516001600160a01b03166000908152600160205220600801805480612ac157634e487b7160e01b600052603160045260246000fd5b600082815260208082206004600019909401938402018281556001810180546001600160a01b0319908116909155600282018054909116905560030182905591909255604080840151918401518451606086015192516001600160a01b039485169592909416939092600080516020615e2283398151915292610a7f924290615c25565b60005b336000908152600160205260409020600201548110156104ef57336000908152600160205260409020600201805485919083908110612b9757634e487b7160e01b600052603260045260246000fd5b90600052602060002001541415612c365733600090815260026020908152604080832087845290915281208054859290612bd2908490615cc4565b9091555050336000908152600260208181526040808420888552825283206001808201805480830182559086528386200187905592810180548085018255908552918420909101869055918690526003909101805460ff19169091179055506104f5565b80612c4081615d5a565b915050612b48565b33600090815260016020526040902054600160a01b900460ff1680612c7757506000546001600160a01b031633145b612c8057600080fd5b60005b600554811015612d225782604051602001612c9e919061595a565b6040516020818303038152906040528051906020012060058281548110612cd557634e487b7160e01b600052603260045260246000fd5b90600052602060002001604051602001612cef9190615976565b604051602081830303815290604052805190602001201415612d1057600080fd5b80612d1a81615d5a565b915050612c83565b506000546001600160a01b0316331415612d68576001600160a01b0381166000908152600160208181526040832060020180549283018155835290912001839055612d8d565b3360009081526001602081815260408320600201805492830181558352909120018390555b600580546001810182556000919091528251612dbe91600080516020615dc283398151915201906020850190614c44565b50505050565b60408301516001600160a01b03163314612ddd57600080fd5b60005b6040808501516001600160a01b03166000908152600260209081528282206060880151835290522060010154811015612fcc5760005b8351811015612fb957838181518110612e3f57634e487b7160e01b600052603260045260246000fd5b6020908102919091018101516040808801516001600160a01b031660009081526002845281812060608a01518252909352909120600101805484908110612e9657634e487b7160e01b600052603260045260246000fd5b90600052602060002001541415612fa757828181518110612ec757634e487b7160e01b600052603260045260246000fd5b6020908102919091018101516040808801516001600160a01b031660009081526002845281812060608a015182529093528220805491929091612f0b908490615cdc565b92505081905550828181518110612f3257634e487b7160e01b600052603260045260246000fd5b6020908102919091018101516040808801516001600160a01b03166000908152600280855282822060608b0151835290945220909101805484908110612f8857634e487b7160e01b600052603260045260246000fd5b906000526020600020016000828254612fa19190615cdc565b90915550505b80612fb181615d5a565b915050612e16565b5080612fc481615d5a565b915050612de0565b506040808401516001600160a01b0316600090815260026020908152828220606087015183529052908120600101546001600160401b0381111561302057634e487b7160e01b600052604160045260246000fd5b604051908082528060200260200182016040528015613049578160200160208202803683370190505b506040808601516001600160a01b031660009081526002602081815283832060608a01518452905291812090910154919250906001600160401b038111156130a157634e487b7160e01b600052604160045260246000fd5b6040519080825280602002602001820160405280156130ca578160200160208202803683370190505b5090506000805b6040808801516001600160a01b031660009081526002602081815283832060608c0151845290529190200154811015613285576040808801516001600160a01b031660009081526002602081815283832060608c01518452905291812090910180548390811061315157634e487b7160e01b600052603260045260246000fd5b90600052602060002001541115613273576040808801516001600160a01b031660009081526002602090815282822060608b015183529052206001018054829081106131ad57634e487b7160e01b600052603260045260246000fd5b90600052602060002001548483815181106131d857634e487b7160e01b600052603260045260246000fd5b6020908102919091018101919091526040808901516001600160a01b03166000908152600280845282822060608c01518352909352200180548290811061322f57634e487b7160e01b600052603260045260246000fd5b906000526020600020015483838151811061325a57634e487b7160e01b600052603260045260246000fd5b60209081029190910101528161326f81615d5a565b9250505b8061327d81615d5a565b9150506130d1565b506000816001600160401b038111156132ae57634e487b7160e01b600052604160045260246000fd5b6040519080825280602002602001820160405280156132d7578160200160208202803683370190505b50905060005b8281101561334a5784818151811061330557634e487b7160e01b600052603260045260246000fd5b602002602001015182828151811061332d57634e487b7160e01b600052603260045260246000fd5b60209081029190910101528061334281615d5a565b9150506132dd565b506040808801516001600160a01b031660009081526002602090815282822060608b015183528152919020825161338992600190920191840190615093565b5060005b828110156133fa578381815181106133b557634e487b7160e01b600052603260045260246000fd5b60200260200101518282815181106133dd57634e487b7160e01b600052603260045260246000fd5b6020908102919091010152806133f281615d5a565b91505061338d565b506040808801516001600160a01b031660009081526002602081815283832060608c01518452815292909120835161343a93919092019190840190615093565b5060005b8651811015613713576000805b6020808b01516001600160a01b0316600090815260038252604080822060608e0151835290925220600101548110156135b45788838151811061349e57634e487b7160e01b600052603260045260246000fd5b6020908102919091018101518b8201516001600160a01b0316600090815260038352604080822060608f01518352909352919091206001018054839081106134f657634e487b7160e01b600052603260045260246000fd5b906000526020600020015414156135a25787838151811061352757634e487b7160e01b600052603260045260246000fd5b6020908102919091018101518b8201516001600160a01b0316600090815260038352604080822060608f015183529093529190912060020180548390811061357f57634e487b7160e01b600052603260045260246000fd5b9060005260206000200160008282546135989190615cc4565b9091555060019250505b806135ac81615d5a565b91505061344b565b5080613694576020808a01516001600160a01b0316600090815260038252604080822060608d0151835290925220885160019091019089908490811061360a57634e487b7160e01b600052603260045260246000fd5b6020908102919091018101518254600181018455600093845282842001558a8101516001600160a01b0316825260038152604080832060608d015184529091529020875160029091019088908490811061367457634e487b7160e01b600052603260045260246000fd5b602090810291909101810151825460018101845560009384529190922001555b8682815181106136b457634e487b7160e01b600052603260045260246000fd5b6020908102919091018101518a8201516001600160a01b0316600090815260038352604080822060608e015183529093529182208054919290916136f9908490615cc4565b9091555082915061370b905081615d5a565b91505061343e565b5060005b6020808901516001600160a01b03166000908152600190915260409020600701548110156138c55787516020808a01516001600160a01b0316600090815260019091526040902060070180548390811061378157634e487b7160e01b600052603260045260246000fd5b90600052602060002090600502016000015414156138b357602080890180516001600160a01b039081166000908152600193849052604080822093519092168152206007908101549101916137d591615cdc565b815481106137f357634e487b7160e01b600052603260045260246000fd5b9060005260206000209060050201600160008a602001516001600160a01b03166001600160a01b03168152602001908152602001600020600701828154811061384c57634e487b7160e01b600052603260045260246000fd5b60009182526020909120825460059092020190815560018083015490820180546001600160a01b039283166001600160a01b0319918216179091556002808501549084018054919093169116179055600380830154908201556004918201549101556138c5565b806138bd81615d5a565b915050613717565b506020808801516001600160a01b0316600090815260019091526040902060070180548061390357634e487b7160e01b600052603160045260246000fd5b6000828152602081206005600019909301928302018181556001810180546001600160a01b031990811690915560028201805490911690556003810182905560040181905591555b6040808901516001600160a01b0316600090815260016020522060060154811015613af55787516040808a01516001600160a01b031660009081526001602052206006018054839081106139af57634e487b7160e01b600052603260045260246000fd5b9060005260206000209060050201600001541415613ae357604080890180516001600160a01b039081166000908152600160208190528482209351909216815292909220600690810154910191613a0591615cdc565b81548110613a2357634e487b7160e01b600052603260045260246000fd5b9060005260206000209060050201600160008a604001516001600160a01b03166001600160a01b031681526020019081526020016000206006018281548110613a7c57634e487b7160e01b600052603260045260246000fd5b60009182526020909120825460059092020190815560018083015490820180546001600160a01b039283166001600160a01b031991821617909155600280850154908401805491909316911617905560038083015490820155600491820154910155613af5565b80613aed81615d5a565b91505061394b565b506040808801516001600160a01b03166000908152600160205220600601805480613b3057634e487b7160e01b600052603160045260246000fd5b600082815260208082206005600019909401938402018281556001810180546001600160a01b0319908116909155600282018054909116905560038101839055600401829055919092556040808a0151918a01518a5160608c015160808d015193516001600160a01b039586169693909516949193600080516020615da283398151915293613bc0934290615c47565b60405180910390a450505050505050565b60008181526006602052604090206001015460609060ff16613bf257600080fd5b60008281526006602090815260409182902080548351818402810184019094528084529091830182828015613c4657602002820191906000526020600020905b815481526020019060010190808311613c32575b50505050509050919050565b33600090815260016020526040902054600160a01b900460ff16613c7557600080fd5b60005b33600090815260016020526040902060020154811015613cef57336000908152600160205260409020600201805484919083908110613cc757634e487b7160e01b600052603260045260246000fd5b90600052602060002001541415613cdd57600080fd5b80613ce781615d5a565b915050613c78565b503360009081526001602081815260408320600201805480840182559084528184200185905560058054928301815590925282516104f592600080516020615dc283398151915290920191840190614c44565b60208101516001600160a01b03163314613d5b57600080fd5b602080820180516001600160a01b039081166000908152600180855260408083206007018054808401825590845286842088516005928302909101908155865181850180549188166001600160a01b0319928316179055838a01805160028085018054928b169285168317905560608d01805160038088019190915560808f018051600498890155938b52978a206006018054808b018255908b529c9099209c519b909502909b01998a559751948901805495881695821695909517909455955190870180549190951692169190911790925551908301559151910155565b60058181548110613e4a57600080fd5b906000526020600020016000915090508054613e6590615d1f565b80601f0160208091040260200160405190810160405280929190818152602001828054613e9190615d1f565b8015613ede5780601f10613eb357610100808354040283529160200191613ede565b820191906000526020600020905b815481529060010190602001808311613ec157829003601f168201915b505050505081565b613eee6150cd565b336000818152600160205260409020546001600160a01b031614613f1157600080fd5b33600090815260036020908152604080832085845282529182902082516080810184528154815260018201805485518186028101860190965280865291949293858101939290830182828015613f8657602002820191906000526020600020905b815481526020019060010190808311613f72575b5050505050815260200160028201805480602002602001604051908101604052809291908181526020018280548015613fde57602002820191906000526020600020905b815481526020019060010190808311613fca575b50505091835250506003919091015460ff16151560209091015292915050565b6000546001600160a01b0316331461401557600080fd5b6001600160a01b0382166000908152600160208181526040909220835190926140449284019190850190614c44565b50805460ff60a01b196001600160a01b038086166001600160a01b0319938416178216600160a01b908117855560048054600181810183556000929092528654600b909102600080516020615e02833981519152810180549097169190941617808655865483900460ff161515909202919093161783559083018054849392600080516020615de28339815191520191906140de90615d1f565b6140e9929190614cec565b50600282810180546140fe9284019190614d67565b50600382810180546141139284019190614d67565b50600482810180546141289284019190614da6565b506005828101805461413d9284019190614da6565b50600682810180546141529284019190614e1a565b50600782810180546141679284019190614e1a565b506008828101805461417c9284019190614eba565b50600982810180546141919284019190614eba565b50600a82810180546141a69284019190614f50565b505050505050565b6141b66150cd565b33600090815260026020908152604080832085845290915290206003015460ff166141e057600080fd5b33600090815260026020908152604080832085845282529182902082516080810184528154815260018201805485518186028101860190965280865291949293858101939290830182828015613f865760200282019190600052602060002090815481526020019060010190808311613f72575050505050815260200160028201805480602002602001604051908101604052809291908181526020018280548015613fde5760200282019190600052602060002090815481526020019060010190808311613fca5750505091835250506003919091015460ff16151560209091015292915050565b336000818152600160205260409020546001600160a01b0316146142ec57600080fd5b60005b8351811015614bb65760005b336000908152600360205260408120865190919087908590811061432f57634e487b7160e01b600052603260045260246000fd5b60200260200101518152602001908152602001600020600101805490508110156146105760005b84518110156145fd576000878152600660205260409020855186908390811061438f57634e487b7160e01b600052603260045260246000fd5b602090810291909101810151825460018181018555600094855283852090910191909155898352600690915260409091208101805460ff1916909117905584518590829081106143ef57634e487b7160e01b600052603260045260246000fd5b602002602001015160036000336001600160a01b03166001600160a01b03168152602001908152602001600020600088868151811061443e57634e487b7160e01b600052603260045260246000fd5b60200260200101518152602001908152602001600020600101838154811061447657634e487b7160e01b600052603260045260246000fd5b906000526020600020015414156145eb578381815181106144a757634e487b7160e01b600052603260045260246000fd5b602002602001015160036000336001600160a01b03166001600160a01b0316815260200190815260200160002060008886815181106144f657634e487b7160e01b600052603260045260246000fd5b60200260200101518152602001908152602001600020600201838154811061452e57634e487b7160e01b600052603260045260246000fd5b9060005260206000200160008282546145479190615cdc565b9250508190555083818151811061456e57634e487b7160e01b600052603260045260246000fd5b602002602001015160036000336001600160a01b03166001600160a01b0316815260200190815260200160002060008886815181106145bd57634e487b7160e01b600052603260045260246000fd5b6020026020010151815260200190815260200160002060000160008282546145e59190615cdc565b90915550505b806145f581615d5a565b915050614356565b508061460881615d5a565b9150506142fb565b503360009081526003602052604081208551829087908590811061464457634e487b7160e01b600052603260045260246000fd5b60200260200101518152602001908152602001600020600101805490506001600160401b0381111561468657634e487b7160e01b600052604160045260246000fd5b6040519080825280602002602001820160405280156146af578160200160208202803683370190505b503360009081526003602052604081208751929350909182908890869081106146e857634e487b7160e01b600052603260045260246000fd5b60200260200101518152602001908152602001600020600201805490506001600160401b0381111561472a57634e487b7160e01b600052604160045260246000fd5b604051908082528060200260200182016040528015614753578160200160208202803683370190505b5090506000805b33600090815260036020526040812089519091908a908890811061478e57634e487b7160e01b600052603260045260246000fd5b60200260200101518152602001908152602001600020600201805490508110156149a657336000908152600360205260408120895182908b90899081106147e557634e487b7160e01b600052603260045260246000fd5b60200260200101518152602001908152602001600020600201828154811061481d57634e487b7160e01b600052603260045260246000fd5b906000526020600020015411156149945733600090815260036020526040812089519091908a908890811061486257634e487b7160e01b600052603260045260246000fd5b60200260200101518152602001908152602001600020600101818154811061489a57634e487b7160e01b600052603260045260246000fd5b90600052602060002001548483815181106148c557634e487b7160e01b600052603260045260246000fd5b60200260200101818152505060036000336001600160a01b03166001600160a01b03168152602001908152602001600020600089878151811061491857634e487b7160e01b600052603260045260246000fd5b60200260200101518152602001908152602001600020600201818154811061495057634e487b7160e01b600052603260045260246000fd5b906000526020600020015483838151811061497b57634e487b7160e01b600052603260045260246000fd5b60209081029190910101528161499081615d5a565b9250505b8061499e81615d5a565b91505061475a565b506000816001600160401b038111156149cf57634e487b7160e01b600052604160045260246000fd5b6040519080825280602002602001820160405280156149f8578160200160208202803683370190505b50905060005b82811015614a6b57848181518110614a2657634e487b7160e01b600052603260045260246000fd5b6020026020010151828281518110614a4e57634e487b7160e01b600052603260045260246000fd5b602090810291909101015280614a6381615d5a565b9150506149fe565b5033600090815260036020526040812089518392908b9089908110614aa057634e487b7160e01b600052603260045260246000fd5b602002602001015181526020019081526020016000206001019080519060200190614acc929190615093565b5060005b82811015614b3d57838181518110614af857634e487b7160e01b600052603260045260246000fd5b6020026020010151828281518110614b2057634e487b7160e01b600052603260045260246000fd5b602090810291909101015280614b3581615d5a565b915050614ad0565b5033600090815260036020526040812089518392908b9089908110614b7257634e487b7160e01b600052603260045260246000fd5b602002602001015181526020019081526020016000206002019080519060200190614b9e929190615093565b50505050508080614bae90615d5a565b9150506142ef565b5033600090815260026020908152604080832089845290915281208054879290614be1908490615cc4565b90915550503360009081526002602081815260408084208a85528252832060018082018054808301825590865283862001989098559182018054808901825590845290832001969096559590955250506003909101805460ff1916909117905550565b828054614c5090615d1f565b90600052602060002090601f016020900481019282614c725760008555614cb8565b82601f10614c8b57805160ff1916838001178555614cb8565b82800160010185558215614cb8579182015b82811115614cb8578251825591602001919060010190614c9d565b50614cc49291506150f7565b5090565b5080546000825560020290600052602060002090810190614ce9919061510c565b50565b828054614cf890615d1f565b90600052602060002090601f016020900481019282614d1a5760008555614cb8565b82601f10614d2b5780548555614cb8565b82800160010185558215614cb857600052602060002091601f016020900482015b82811115614cb8578254825591600101919060010190614d4c565b828054828255906000526020600020908101928215614cb857600052602060002091820182811115614cb8578254825591600101919060010190614d4c565b828054828255906000526020600020906002028101928215614e0e5760005260206000209160020282015b82811115614e0e57825482546001600160a01b0319166001600160a01b039091161782556001808401549083015560029283019290910190614dd1565b50614cc492915061510c565b828054828255906000526020600020906005028101928215614eae5760005260206000209160050282015b82811115614eae578254825560018084015490830180546001600160a01b039283166001600160a01b0319918216179091556002808601549085018054919093169116179055600380840154908301556004808401549083015560059283019290910190614e45565b50614cc4929150615132565b828054828255906000526020600020906004028101928215614f445760005260206000209160040282015b82811115614f44578254825560018084015490830180546001600160a01b039283166001600160a01b03199182161790915560028086015490850180549190931691161790556003808401549083015560049283019290910190614ee5565b50614cc4929150615174565b828054828255906000526020600020906003028101928215614fca5760005260206000209160030282015b82811115614fca57828260008201548160000155600182015481600101556002820181600201908054614fad90615d1f565b614fb8929190614cec565b50505091600301919060030190614f7b565b50614cc49291506151af565b508054614fe290615d1f565b6000825580601f10614ff45750614ce9565b601f016020900490600052602060002090810190614ce991906150f7565b5080546000825590600052602060002090810190614ce991906150f7565b5080546000825560050290600052602060002090810190614ce99190615132565b5080546000825560040290600052602060002090810190614ce99190615174565b5080546000825560030290600052602060002090810190614ce991906151af565b828054828255906000526020600020908101928215614cb85791602002820182811115614cb8578251825591602001919060010190614c9d565b60405180608001604052806000815260200160608152602001606081526020016000151581525090565b5b80821115614cc457600081556001016150f8565b5b80821115614cc45780546001600160a01b03191681556000600182015560020161510d565b5b80821115614cc45760008082556001820180546001600160a01b03199081169091556002830180549091169055600382018190556004820155600501615133565b5b80821115614cc45760008082556001820180546001600160a01b031990811690915560028301805490911690556003820155600401615175565b80821115614cc4576000808255600182018190556151d06002830182614fd6565b506003016151af565b80356001600160a01b03811681146111ef57600080fd5b600082601f830112615200578081fd5b8135602061521561521083615ca1565b615c71565b8281528181019085830183850287018401881015615231578586fd5b855b8581101561524f57813584529284019290840190600101615233565b5090979650505050505050565b803580151581146111ef57600080fd5b600082601f83011261527c578081fd5b81356001600160401b0381111561529557615295615d8b565b6152a8601f8201601f1916602001615c71565b8181528460208386010111156152bc578283fd5b816020850160208301379081016020019190915292915050565b600060a082840312156152e7578081fd5b6152f160a0615c71565b905081358152615303602083016151d9565b6020820152615314604083016151d9565b6040820152606082013560608201526080820135608082015292915050565b600060208284031215615344578081fd5b61534d826151d9565b9392505050565b60008060408385031215615366578081fd5b61536f836151d9565b915060208301356001600160401b03811115615389578182fd5b6153958582860161526c565b9150509250929050565b600080604083850312156153b1578182fd5b6153ba836151d9565b946020939093013593505050565b6000608082840312156153d9578081fd5b6153e36080615c71565b823581526153f3602084016151d9565b6020820152615404604084016151d9565b6040820152606083013560608201528091505092915050565b600060a0828403121561542e578081fd5b61534d83836152d6565b600080600060e0848603121561544c578081fd5b61545685856152d6565b925060a08401356001600160401b0380821115615471578283fd5b61547d878388016151f0565b935060c0860135915080821115615492578283fd5b5061549f868287016151f0565b9150509250925092565b6000602082840312156154ba578081fd5b5035919050565b600080604083850312156154d3578182fd5b8235915060208301356001600160401b03811115615389578182fd5b600080600060608486031215615503578283fd5b8335925060208401356001600160401b0381111561551f578283fd5b61552b8682870161526c565b92505061553a604085016151d9565b90509250925092565b600080600080600060a0868803121561555a578283fd5b85359450602080870135945060408701356001600160401b038082111561557f578586fd5b818901915089601f830112615592578586fd5b81356155a061521082615ca1565b8181528481019084860160408402860187018e10156155bd57898afd5b8995505b8386101561560a576040818f0312156155d857898afd5b6155e26040615c71565b6155eb826151d9565b81528188013588820152835260019590950194918601916040016155c1565b50975050506060890135925080831115615622578384fd5b50506156308882890161526c565b92505061563f6080870161525c565b90509295509295909350565b60008060006060848603121561565f578081fd5b833592506020840135915060408401356001600160401b03811115615682578182fd5b61549f8682870161526c565b6000806000606084860312156156a2578081fd5b505081359360208301359350604090920135919050565b60008060008060008060c087890312156156d1578384fd5b86359550602087013594506040870135935060608701356001600160401b03808211156156fc578283fd5b6157088a838b016151f0565b9450608089013591508082111561571d578283fd5b6157298a838b016151f0565b935060a089013591508082111561573e578283fd5b5061574b89828a016151f0565b9150509295509295509295565b6000815180845260208085019450808401835b838110156157b557815180518852838101516001600160a01b03908116858a015260408083015190911690890152606090810151908801526080909601959082019060010161576b565b509495945050505050565b6000815180845260208085019450808401835b838110156157b557815180516001600160a01b0316885283015183880152604090960195908201906001016157d3565b6000815180845260208085018081965082840281019150828601855b8581101561586957828403895281518051855285810151868601526040908101516060918601829052906158558187018361592e565b9a87019a955050509084019060010161581f565b5091979650505050505050565b6000815180845260208085019450808401835b838110156157b557815180518852838101516001600160a01b03908116858a015260408083015190911690890152606080820151908901526080908101519088015260a09096019590820190600101615889565b6000815180845260208085019450808401835b838110156157b5578151875295820195908201906001016158f0565b6002811061592a57634e487b7160e01b600052602160045260246000fd5b9052565b60008151808452615946816020860160208601615cf3565b601f01601f19169290920160200192915050565b6000825161596c818460208701615cf3565b9190910192915050565b815460009081906002810460018083168061599257607f831692505b60208084108214156159b257634e487b7160e01b87526022600452602487fd5b8180156159c657600181146159d757615a03565b60ff19861689528489019650615a03565b60008a815260209020885b868110156159fb5781548b8201529085019083016159e2565b505084890196505b509498975050505050505050565b6001600160a01b03841681528215156020820152606060408201819052600090615a3d9083018461592e565b95945050505050565b60006020825261534d60208301846158dd565b60006020825261534d602083018461592e565b600060208252615a886020830184516001600160a01b03169052565b60208301518015156040840152506040830151610180806060850152615ab26101a085018361592e565b91506060850151601f1980868503016080870152615ad084836158dd565b935060808701519150808685030160a0870152615aed84836158dd565b935060a08701519150808685030160c0870152615b0a84836157c0565b935060c08701519150808685030160e0870152615b2784836157c0565b935060e08701519150610100818786030181880152615b468584615876565b945080880151925050610120818786030181880152615b658584615876565b945080880151925050610140818786030181880152615b848584615758565b945080880151925050610160818786030181880152615ba38584615758565b908801518782039092018488015293509050615bbf8382615803565b9695505050505050565b60006020825282516020830152602083015160806040840152615bef60a08401826158dd565b90506040840151601f19848303016060850152615c0c82826158dd565b9150506060840151151560808401528091505092915050565b83815260608101615c39602083018561590c565b826040830152949350505050565b8481526020810184905260808101615c62604083018561590c565b82606083015295945050505050565b604051601f8201601f191681016001600160401b0381118282101715615c9957615c99615d8b565b604052919050565b60006001600160401b03821115615cba57615cba615d8b565b5060209081020190565b60008219821115615cd757615cd7615d75565b500190565b600082821015615cee57615cee615d75565b500390565b60005b83811015615d0e578181015183820152602001615cf6565b83811115612dbe5750506000910152565b600281046001821680615d3357607f821691505b60208210811415615d5457634e487b7160e01b600052602260045260246000fd5b50919050565b6000600019821415615d6e57615d6e615d75565b5060010190565b634e487b7160e01b600052601160045260246000fd5b634e487b7160e01b600052604160045260246000fdfe68b37f68a2bc54c3d620d48da778df9369fa9e2a3a8fef7d7e57cecd1e860d8c036b6384b5eca791c62761152d0c79bb0604c104a5fb6f4eb0703f3154bb3db08a35acfbc15ff81a39ae7d344fd709f28e8600b4aa8c65c6b64bfe7fe36bd19c8a35acfbc15ff81a39ae7d344fd709f28e8600b4aa8c65c6b64bfe7fe36bd19b227887aafc5cf62347d1151727ff1d51b157f84ee8159c8b3b37ae225fd1c06da26469706673582212205bbd20f3b053c006b486ed08e24876d9f420723f374ed87b94ffafb6e92c83c264736f6c63430008020033",
  "immutableReferences": {},
  "source": "// SPDX-License-Identifier: MIT\npragma solidity ^0.8;\npragma experimental ABIEncoderV2;\n\ncontract SupplyChainNetwork {\n    address public networkOwner = msg.sender;\n    struct CompanyContract {\n        uint id;\n        address from;\n        address to;\n        uint productId;\n    }\n    struct CompanyProduct {\n        address companyId;\n        uint productId;\n    }\n    struct Request {\n        uint id;\n        address from;\n        address to;\n        uint productId;\n        uint quantity;\n    }\n    struct Supply {\n        uint total;\n        uint[] supplyId;\n        uint[] quantities;\n        bool exist;\n    }\n    struct PastSupply {\n        uint[] pastSupply;\n        bool exist;\n    }\n    struct DeleteRequest {\n        uint id;\n        uint approvals;\n        string code;\n    }\n    struct Company {\n        address owner;\n        bool exist;\n        string name;\n        uint[] listOfSupply;\n        uint[] listOfPrerequisites;\n        CompanyProduct[] upstream;\n        CompanyProduct[] downstream;\n        Request[] incomingRequests;\n        Request[] outgoingRequests;\n        CompanyContract[] incomingContract;\n        CompanyContract[] outgoingContract;\n        DeleteRequest[] deleteRequest;\n    }\n    mapping(address => Company) public companies;\n    mapping(address => mapping(uint => Supply)) public companySupplies;\n    mapping(address => mapping(uint => Supply)) public companyPrerequisiteSupplies;\n    Company[] public headCompanies;\n    string[] public productNames;\n    mapping(uint => PastSupply) public pastSupplies; // uint[] refers to supplyId from MongoDB\n    enum STATE {\n        APPROVED,\n        REJECTED\n    }\n    event Requests(uint indexed requestId, address indexed from, address indexed to, uint productId, uint quantity, STATE state, uint256 timestamp);\n    event Contracts(uint indexed contractId, address indexed from, address indexed to, uint productId, STATE state, uint256 timestamp);\n\n    function getCompany(address owner) public view returns (Company memory) {\n        return companies[owner];\n    }\n    function addCompany(address owner, string memory name) public {\n        require(msg.sender == networkOwner);\n        Company storage company = companies[owner];\n        company.name = name;\n        company.owner = owner;\n        company.exist = true;\n        headCompanies.push(company);\n    }\n    function getHeadCompaniesLength() public view returns (uint) {\n        return headCompanies.length;\n    }\n    function addProduct(uint productId, string memory productName, address company_address) public {\n        require(companies[msg.sender].exist || msg.sender == networkOwner);\n        for(uint i = 0; i < productNames.length; i++) {\n            if(keccak256(abi.encodePacked(productNames[i])) == keccak256(abi.encodePacked(productName))) {\n                revert();\n            }\n        }\n        if(msg.sender == networkOwner) {\n            companies[company_address].listOfSupply.push(productId);\n        } else {\n            companies[msg.sender].listOfSupply.push(productId);\n        }\n        productNames.push(productName);\n    }\n    // TODO: change where only networkOwner can call this function\n    function addProductOwner(uint productId, string memory productName) public {\n        require(companies[msg.sender].exist);\n        for(uint i = 0; i < companies[msg.sender].listOfSupply.length; i++) {\n            if(companies[msg.sender].listOfSupply[i] == productId) {\n                revert();\n            }\n        }\n        companies[msg.sender].listOfSupply.push(productId);\n        productNames.push(productName);\n    }\n    function getPastSupply(uint supplyId) public view returns (uint[] memory) {\n        require(pastSupplies[supplyId].exist);\n        return pastSupplies[supplyId].pastSupply;\n    }\n    function getSupply(uint productId) public view returns (Supply memory) {\n        require(companySupplies[msg.sender][productId].exist);\n        return companySupplies[msg.sender][productId];\n    }\n    function getPrerequisiteSupply(uint productId) public view returns (Supply memory) {\n        require(companies[msg.sender].owner == msg.sender);\n        return companyPrerequisiteSupplies[msg.sender][productId];\n    }\n    function convertToSupply(uint productId, uint numberOfSupply, uint supplyId) public {\n        for(uint i = 0; i < companies[msg.sender].listOfSupply.length; i++) {\n            if(companies[msg.sender].listOfSupply[i] == productId) {\n                companySupplies[msg.sender][productId].total += numberOfSupply;\n                companySupplies[msg.sender][productId].supplyId.push(supplyId);\n                companySupplies[msg.sender][productId].quantities.push(numberOfSupply);\n                companySupplies[msg.sender][productId].exist = true;\n                return;\n            }\n        }\n        revert();\n    }\n    function convertPrerequisiteToSupply(uint newSupplyProductId, uint numberOfNewSupply, uint newSupplyId, uint[] memory prerequisiteProductIds, uint[] memory prerequisiteSupplyIds, uint[] memory prerequisiteQuantities) public {\n        require(companies[msg.sender].owner == msg.sender);\n        for(uint i = 0; i < prerequisiteProductIds.length; i++) { // loops through prerequisite product IDs\n            for(uint j = 0; j < companyPrerequisiteSupplies[msg.sender][prerequisiteProductIds[i]].supplyId.length; j++) { // loops through storage prerequisite supply IDs\n                for(uint k = 0; k < prerequisiteSupplyIds.length; k++) { // loops through prerequisite supply ID passed in by backend, indicates the supply IDs to be deducted\n                    pastSupplies[newSupplyId].pastSupply.push(prerequisiteSupplyIds[k]); // adds all prerequisite supply IDs that is part of creating the new supply\n                    pastSupplies[newSupplyId].exist = true;\n                    if(companyPrerequisiteSupplies[msg.sender][prerequisiteProductIds[i]].supplyId[j] == prerequisiteSupplyIds[k]) {\n                        companyPrerequisiteSupplies[msg.sender][prerequisiteProductIds[i]].quantities[j] -= prerequisiteQuantities[k]; // deducts the storage prerequisite supply quantity\n                        companyPrerequisiteSupplies[msg.sender][prerequisiteProductIds[i]].total -= prerequisiteQuantities[k]; // deducts the total storage of prerequisite supply quantity\n                    }\n                }\n            }\n            // removing supply IDs that is below and equal to 0 quantity\n            uint[] memory newSupplyIds = new uint[](companyPrerequisiteSupplies[msg.sender][prerequisiteProductIds[i]].supplyId.length);\n            uint[] memory newQuantities = new uint[](companyPrerequisiteSupplies[msg.sender][prerequisiteProductIds[i]].quantities.length);\n            uint newSize = 0;\n            for (uint j = 0; j < companyPrerequisiteSupplies[msg.sender][prerequisiteProductIds[i]].quantities.length; j++) {\n                if (companyPrerequisiteSupplies[msg.sender][prerequisiteProductIds[i]].quantities[j] > 0) {\n                    newSupplyIds[newSize] = companyPrerequisiteSupplies[msg.sender][prerequisiteProductIds[i]].supplyId[j];\n                    newQuantities[newSize] = companyPrerequisiteSupplies[msg.sender][prerequisiteProductIds[i]].quantities[j];\n                    newSize++;\n                }\n            }\n            uint[] memory finalArray = new uint[](newSize);\n            for (uint k = 0; k < newSize; k++) {\n                finalArray[k] = newSupplyIds[k];\n            }\n            companyPrerequisiteSupplies[msg.sender][prerequisiteProductIds[i]].supplyId = finalArray;\n            for (uint k = 0; k < newSize; k++) {\n                finalArray[k] = newQuantities[k];\n            }\n            companyPrerequisiteSupplies[msg.sender][prerequisiteProductIds[i]].quantities = finalArray;\n        }\n        // adds the new supply to storage\n        companySupplies[msg.sender][newSupplyProductId].total += numberOfNewSupply;\n        companySupplies[msg.sender][newSupplyProductId].supplyId.push(newSupplyId); \n        companySupplies[msg.sender][newSupplyProductId].quantities.push(numberOfNewSupply);\n        companySupplies[msg.sender][newSupplyProductId].exist = true;\n    }\n    function sendRequest(Request memory request) public {\n        require(request.from == msg.sender);\n        companies[request.from].outgoingRequests.push(request);\n        companies[request.to].incomingRequests.push(request);\n    }\n    function approveRequest(Request memory request, uint[] memory supplyIds, uint[] memory quantities) public {\n        require(request.to == msg.sender);\n        // reduce the supply quantity of to company\n        for(uint i = 0; i < companySupplies[request.to][request.productId].supplyId.length; i++) {\n            for(uint j = 0; j < supplyIds.length; j++) {\n                if(companySupplies[request.to][request.productId].supplyId[i] == supplyIds[j]) {\n                    companySupplies[request.to][request.productId].total -= quantities[j];\n                    companySupplies[request.to][request.productId].quantities[i] -= quantities[j];\n                }\n            }\n        }\n        // removing supply IDs that is below and equal to 0 quantity\n        uint[] memory newSupplyIds = new uint[](companySupplies[request.to][request.productId].supplyId.length);\n        uint[] memory newQuantities = new uint[](companySupplies[request.to][request.productId].quantities.length);\n        uint newSize = 0;\n        for (uint i = 0; i < companySupplies[request.to][request.productId].quantities.length; i++) {\n            if (companySupplies[request.to][request.productId].quantities[i] > 0) {\n                newSupplyIds[newSize] = companySupplies[request.to][request.productId].supplyId[i];\n                newQuantities[newSize] = companySupplies[request.to][request.productId].quantities[i];\n                newSize++;\n            }\n        }\n        uint[] memory finalArray = new uint[](newSize);\n        for (uint k = 0; k < newSize; k++) {\n            finalArray[k] = newSupplyIds[k];\n        }\n        companySupplies[request.to][request.productId].supplyId = finalArray;\n        for (uint k = 0; k < newSize; k++) {\n            finalArray[k] = newQuantities[k];\n        }\n        companySupplies[request.to][request.productId].quantities = finalArray;\n        // increment the supply quantity for from company\n        for(uint i = 0; i < supplyIds.length; i++) {\n            bool added = false;\n            for(uint j = 0; j < companyPrerequisiteSupplies[request.from][request.productId].supplyId.length; j++) {\n                if(companyPrerequisiteSupplies[request.from][request.productId].supplyId[j] == supplyIds[i]) {\n                    companyPrerequisiteSupplies[request.from][request.productId].quantities[j] += quantities[i];\n                    added = true;\n                }\n            }\n            if(!added) {\n                companyPrerequisiteSupplies[request.from][request.productId].supplyId.push(supplyIds[i]);\n                companyPrerequisiteSupplies[request.from][request.productId].quantities.push(quantities[i]);\n            }\n            companyPrerequisiteSupplies[request.from][request.productId].total += quantities[i];\n        }\n        // remove the request from outgoingContract\n        for(uint i = 0; i < companies[request.from].outgoingRequests.length; i++) {\n            if(companies[request.from].outgoingRequests[i].id == request.id) {\n                companies[request.from].outgoingRequests[i] = companies[request.from].outgoingRequests[companies[request.from].outgoingRequests.length - 1];\n                break;\n            }\n        }\n        companies[request.from].outgoingRequests.pop();\n        // remove the contract request from incomingContract\n        for(uint i = 0; i < companies[request.to].incomingRequests.length; i++) {\n            if(companies[request.to].incomingRequests[i].id == request.id) {\n                companies[request.to].incomingRequests[i] = companies[request.to].incomingRequests[companies[request.to].incomingRequests.length - 1];\n                break;\n            }\n        }\n        companies[request.to].incomingRequests.pop();\n        emit Requests(request.id, request.from, request.to, request.productId, request.quantity, STATE.APPROVED, block.timestamp);\n    }\n    function declineRequest(Request memory request) public {\n        require(request.to == msg.sender);\n        // remove the request from outgoingContract\n        for(uint i = 0; i < companies[request.from].outgoingRequests.length; i++) {\n            if(companies[request.from].outgoingRequests[i].id == request.id) {\n                companies[request.from].outgoingRequests[i] = companies[request.from].outgoingRequests[companies[request.from].outgoingRequests.length - 1];\n                break;\n            }\n        }\n        companies[request.from].outgoingRequests.pop();\n        // remove the contract request from incomingContract\n        for(uint i = 0; i < companies[request.to].incomingRequests.length; i++) {\n            if(companies[request.to].incomingRequests[i].id == request.id) {\n                companies[request.to].incomingRequests[i] = companies[request.to].incomingRequests[companies[request.to].incomingRequests.length - 1];\n                break;\n            }\n        }\n        companies[request.to].incomingRequests.pop();\n        emit Requests(request.id, request.from, request.to, request.productId, request.quantity, STATE.REJECTED, block.timestamp);\n    }\n    // The sender sends contract to ask which PRODUCT it wants\n    function sendContract(CompanyContract memory companyContract) public {\n        require(msg.sender == companyContract.from);\n        // put inside outgoing contract to track down which company and what product I've asked for\n        companies[companyContract.from].outgoingContract.push(companyContract);\n        // gets who sends the contract and what product he wants from MY stash\n        companies[companyContract.to].incomingContract.push(companyContract);\n    }\n    function approveContract(CompanyContract memory companyContract) public {\n        require(msg.sender == companyContract.to);\n        // sets pre requisite supply exists\n        companyPrerequisiteSupplies[companyContract.from][companyContract.productId].exist = true;\n        // pushes new product in the contract sender's list of prerequisites\n        companies[companyContract.from].listOfPrerequisites.push(companyContract.productId);\n        // adds a new company in the contract sender's list of downstreams\n        companies[companyContract.from].downstream.push(CompanyProduct({\n            companyId: companyContract.to,\n            productId: companyContract.productId\n        }));\n        // adds a new company in the supplier's list of upstreams\n        companies[companyContract.to].upstream.push(CompanyProduct({\n            companyId: companyContract.from,\n            productId: companyContract.productId\n        }));\n        // if supplier is a headCompany, remove it\n        for(uint i = 0; i < headCompanies.length; i++) {\n            if(headCompanies[i].owner == msg.sender) {\n                headCompanies[i] = headCompanies[headCompanies.length - 1];\n                headCompanies.pop();\n                break;\n            }\n        }\n        // remove the contract request from outgoingContract\n        for(uint i = 0; i < companies[companyContract.from].outgoingContract.length; i++) {\n            if(companies[companyContract.from].outgoingContract[i].id == companyContract.id) {\n                companies[companyContract.from].outgoingContract[i] = companies[companyContract.from].outgoingContract[companies[companyContract.from].outgoingContract.length - 1];\n                break;\n            }\n        }\n        companies[companyContract.from].outgoingContract.pop();\n        // remove the contract request from incomingContract\n        for(uint i = 0; i < companies[companyContract.to].incomingContract.length; i++) {\n            if(companies[companyContract.to].incomingContract[i].id == companyContract.id) {\n                companies[companyContract.to].incomingContract[i] = companies[companyContract.to].incomingContract[companies[companyContract.to].incomingContract.length - 1];\n                break;\n            }\n        }\n        companies[companyContract.to].incomingContract.pop();\n        emit Contracts(companyContract.id, companyContract.from, companyContract.to, companyContract.productId, STATE.APPROVED, block.timestamp);\n    }\n    function declineContract(CompanyContract memory companyContract) public {\n        require(msg.sender == companyContract.to);\n        // remove the contract request from outgoingContract\n        for(uint i = 0; i < companies[companyContract.from].outgoingContract.length; i++) {\n            if(companies[companyContract.from].outgoingContract[i].id == companyContract.id) {\n                companies[companyContract.from].outgoingContract[i] = companies[companyContract.from].outgoingContract[companies[companyContract.from].outgoingContract.length - 1];\n                break;\n            }\n        }\n        companies[companyContract.from].outgoingContract.pop();\n        // remove the contract request from incomingContract\n        for(uint i = 0; i < companies[companyContract.to].incomingContract.length; i++) {\n            if(companies[companyContract.to].incomingContract[i].id == companyContract.id) {\n                companies[companyContract.to].incomingContract[i] = companies[companyContract.to].incomingContract[companies[companyContract.to].incomingContract.length - 1];\n                break;\n            }\n        }\n        companies[companyContract.to].incomingContract.pop();\n        emit Contracts(companyContract.id, companyContract.from, companyContract.to, companyContract.productId, STATE.REJECTED, block.timestamp);\n    }\n    function sendDeleteRequest(uint id, uint productId, string memory code) public {\n        for(uint i = 0; i < companies[msg.sender].listOfSupply.length; i++) {\n            if(companies[msg.sender].listOfSupply[i] == productId) {\n                companies[msg.sender].deleteRequest.push(DeleteRequest({\n                    id: id,\n                    approvals: 0,\n                    code: code\n                }));\n                return;\n            }\n        }\n        revert();\n    }\n    function addApproval(uint id, string memory code, address owner) public {\n        for(uint i = 0; i < companies[owner].deleteRequest.length; i++) {\n            if(companies[owner].deleteRequest[i].id == id && keccak256(abi.encodePacked(companies[owner].deleteRequest[i].code)) == keccak256(abi.encodePacked(code))) {\n                companies[owner].deleteRequest[i].approvals += 1;\n                return;\n            }\n        }\n        revert();\n    }\n    function deleteSupply(uint id, uint productId, CompanyProduct[] memory upstreamLeft, string memory code, bool isHeadCompany) public {\n        for(uint i = 0; i < companies[msg.sender].deleteRequest.length; i++) {\n            if(companies[msg.sender].deleteRequest[i].id == id && keccak256(abi.encodePacked(companies[msg.sender].deleteRequest[i].code)) == keccak256(abi.encodePacked(code)) && companies[msg.sender].deleteRequest[i].approvals == companies[msg.sender].upstream.length) {\n                // loops through all the upstream company of msg.sender\n                for(uint j = 0; j < companies[msg.sender].upstream.length; j++) {\n                    // remove msg.sender in all upstream company's downstream\n                    for(uint k = 0; k < companies[companies[msg.sender].upstream[j].companyId].downstream.length; k++) {\n                        if(companies[companies[msg.sender].upstream[j].companyId].downstream[k].companyId == msg.sender && companies[companies[msg.sender].upstream[j].companyId].downstream[k].productId == productId) {\n                            companies[companies[msg.sender].upstream[j].companyId].downstream[k] = companies[companies[msg.sender].upstream[j].companyId].downstream[companies[companies[msg.sender].upstream[j].companyId].downstream.length - 1];\n                            companies[companies[msg.sender].upstream[j].companyId].downstream.pop();\n                            break;\n                        }\n                    }\n                }\n                // removes all upstream and adds back upstream that does not use the deleted product ID\n                delete companies[msg.sender].upstream;\n                for(uint j = 0; j < upstreamLeft.length; j++) {\n                    companies[msg.sender].upstream.push(upstreamLeft[j]);\n                }\n                // if current does not have anymore upstream, push self to headCompanies\n                if(upstreamLeft.length == 0 && !isHeadCompany) {\n                    headCompanies.push(companies[msg.sender]);\n                }\n                // delete msg.sender from product owner\n                for(uint j = 0; j < companies[msg.sender].listOfSupply.length; j++) {\n                    if(companies[msg.sender].listOfSupply[j] == productId) {\n                        companies[msg.sender].listOfSupply[j] = companies[msg.sender].listOfSupply[companies[msg.sender].listOfSupply.length - 1];\n                        companies[msg.sender].listOfSupply.pop();\n                    }\n                }\n                // removes request from outgoingDeleteRequest since operation is done.\n                companies[msg.sender].deleteRequest[i] = companies[msg.sender].deleteRequest[companies[msg.sender].deleteRequest.length - 1];\n                companies[msg.sender].deleteRequest.pop();\n                return;\n            }\n        }\n        revert();\n    }\n}\n",
  "sourcePath": "/Users/darennathanieljanto/Documents/GitHub/fyp-contract-v2/contracts/SupplyChainNetwork.sol",
  "compiler": {
    "name": "solc",
    "version": "0.8.2+commit.661d1103.Emscripten.clang"
  },
  "schemaVersion": "3.4.15",
  "updatedAt": "2024-03-11T11:30:00.500Z",
  "networkType": "ethereum",
  "devdoc": {
    "kind": "dev",
    "methods": {},
    "version": 1
  },
  "userdoc": {
    "kind": "user",
    "methods": {},
    "version": 1
  }
}