{
  "contractName": "SupplyChainNetwork",
  "abi": [
    {
      "anonymous": false,
      "inputs": [
        {
          "indexed": true,
          "internalType": "uint256",
          "name": "contractId",
          "type": "uint256"
        },
        {
          "indexed": true,
          "internalType": "address",
          "name": "from",
          "type": "address"
        },
        {
          "indexed": true,
          "internalType": "address",
          "name": "to",
          "type": "address"
        },
        {
          "indexed": false,
          "internalType": "uint256",
          "name": "productId",
          "type": "uint256"
        },
        {
          "indexed": false,
          "internalType": "enum SupplyChainNetwork.STATE",
          "name": "state",
          "type": "uint8"
        },
        {
          "indexed": false,
          "internalType": "uint256",
          "name": "timestamp",
          "type": "uint256"
        }
      ],
      "name": "Contracts",
      "type": "event"
    },
    {
      "anonymous": false,
      "inputs": [
        {
          "indexed": true,
          "internalType": "uint256",
          "name": "requestId",
          "type": "uint256"
        },
        {
          "indexed": true,
          "internalType": "address",
          "name": "from",
          "type": "address"
        },
        {
          "indexed": true,
          "internalType": "address",
          "name": "to",
          "type": "address"
        },
        {
          "indexed": false,
          "internalType": "uint256",
          "name": "productId",
          "type": "uint256"
        },
        {
          "indexed": false,
          "internalType": "uint256",
          "name": "quantity",
          "type": "uint256"
        },
        {
          "indexed": false,
          "internalType": "enum SupplyChainNetwork.STATE",
          "name": "state",
          "type": "uint8"
        },
        {
          "indexed": false,
          "internalType": "uint256",
          "name": "timestamp",
          "type": "uint256"
        }
      ],
      "name": "Requests",
      "type": "event"
    },
    {
      "inputs": [
        {
          "internalType": "address",
          "name": "",
          "type": "address"
        }
      ],
      "name": "companies",
      "outputs": [
        {
          "internalType": "address",
          "name": "owner",
          "type": "address"
        },
        {
          "internalType": "bool",
          "name": "exist",
          "type": "bool"
        },
        {
          "internalType": "string",
          "name": "name",
          "type": "string"
        }
      ],
      "stateMutability": "view",
      "type": "function",
      "constant": true
    },
    {
      "inputs": [
        {
          "internalType": "address",
          "name": "",
          "type": "address"
        },
        {
          "internalType": "uint256",
          "name": "",
          "type": "uint256"
        }
      ],
      "name": "companyPrerequisiteSupplies",
      "outputs": [
        {
          "internalType": "uint256",
          "name": "total",
          "type": "uint256"
        },
        {
          "internalType": "bool",
          "name": "exist",
          "type": "bool"
        }
      ],
      "stateMutability": "view",
      "type": "function",
      "constant": true
    },
    {
      "inputs": [
        {
          "internalType": "address",
          "name": "",
          "type": "address"
        },
        {
          "internalType": "uint256",
          "name": "",
          "type": "uint256"
        }
      ],
      "name": "companySupplies",
      "outputs": [
        {
          "internalType": "uint256",
          "name": "total",
          "type": "uint256"
        },
        {
          "internalType": "bool",
          "name": "exist",
          "type": "bool"
        }
      ],
      "stateMutability": "view",
      "type": "function",
      "constant": true
    },
    {
      "inputs": [
        {
          "internalType": "uint256",
          "name": "",
          "type": "uint256"
        }
      ],
      "name": "headCompanies",
      "outputs": [
        {
          "internalType": "address",
          "name": "owner",
          "type": "address"
        },
        {
          "internalType": "bool",
          "name": "exist",
          "type": "bool"
        },
        {
          "internalType": "string",
          "name": "name",
          "type": "string"
        }
      ],
      "stateMutability": "view",
      "type": "function",
      "constant": true
    },
    {
      "inputs": [],
      "name": "networkOwner",
      "outputs": [
        {
          "internalType": "address",
          "name": "",
          "type": "address"
        }
      ],
      "stateMutability": "view",
      "type": "function",
      "constant": true
    },
    {
      "inputs": [
        {
          "internalType": "uint256",
          "name": "",
          "type": "uint256"
        }
      ],
      "name": "pastSupplies",
      "outputs": [
        {
          "internalType": "bool",
          "name": "exist",
          "type": "bool"
        }
      ],
      "stateMutability": "view",
      "type": "function",
      "constant": true
    },
    {
      "inputs": [
        {
          "internalType": "uint256",
          "name": "",
          "type": "uint256"
        }
      ],
      "name": "productNames",
      "outputs": [
        {
          "internalType": "string",
          "name": "",
          "type": "string"
        }
      ],
      "stateMutability": "view",
      "type": "function",
      "constant": true
    },
    {
      "inputs": [
        {
          "internalType": "address",
          "name": "owner",
          "type": "address"
        }
      ],
      "name": "getCompany",
      "outputs": [
        {
          "components": [
            {
              "internalType": "address",
              "name": "owner",
              "type": "address"
            },
            {
              "internalType": "bool",
              "name": "exist",
              "type": "bool"
            },
            {
              "internalType": "string",
              "name": "name",
              "type": "string"
            },
            {
              "internalType": "uint256[]",
              "name": "listOfSupply",
              "type": "uint256[]"
            },
            {
              "internalType": "uint256[]",
              "name": "listOfPrerequisites",
              "type": "uint256[]"
            },
            {
              "components": [
                {
                  "internalType": "address",
                  "name": "companyId",
                  "type": "address"
                },
                {
                  "internalType": "uint256",
                  "name": "productId",
                  "type": "uint256"
                }
              ],
              "internalType": "struct SupplyChainNetwork.CompanyProduct[]",
              "name": "upstream",
              "type": "tuple[]"
            },
            {
              "components": [
                {
                  "internalType": "address",
                  "name": "companyId",
                  "type": "address"
                },
                {
                  "internalType": "uint256",
                  "name": "productId",
                  "type": "uint256"
                }
              ],
              "internalType": "struct SupplyChainNetwork.CompanyProduct[]",
              "name": "downstream",
              "type": "tuple[]"
            },
            {
              "components": [
                {
                  "internalType": "uint256",
                  "name": "id",
                  "type": "uint256"
                },
                {
                  "internalType": "address",
                  "name": "from",
                  "type": "address"
                },
                {
                  "internalType": "address",
                  "name": "to",
                  "type": "address"
                },
                {
                  "internalType": "uint256",
                  "name": "productId",
                  "type": "uint256"
                },
                {
                  "internalType": "uint256",
                  "name": "quantity",
                  "type": "uint256"
                }
              ],
              "internalType": "struct SupplyChainNetwork.Request[]",
              "name": "incomingRequests",
              "type": "tuple[]"
            },
            {
              "components": [
                {
                  "internalType": "uint256",
                  "name": "id",
                  "type": "uint256"
                },
                {
                  "internalType": "address",
                  "name": "from",
                  "type": "address"
                },
                {
                  "internalType": "address",
                  "name": "to",
                  "type": "address"
                },
                {
                  "internalType": "uint256",
                  "name": "productId",
                  "type": "uint256"
                },
                {
                  "internalType": "uint256",
                  "name": "quantity",
                  "type": "uint256"
                }
              ],
              "internalType": "struct SupplyChainNetwork.Request[]",
              "name": "outgoingRequests",
              "type": "tuple[]"
            },
            {
              "components": [
                {
                  "internalType": "uint256",
                  "name": "id",
                  "type": "uint256"
                },
                {
                  "internalType": "address",
                  "name": "from",
                  "type": "address"
                },
                {
                  "internalType": "address",
                  "name": "to",
                  "type": "address"
                },
                {
                  "internalType": "uint256",
                  "name": "productId",
                  "type": "uint256"
                }
              ],
              "internalType": "struct SupplyChainNetwork.CompanyContract[]",
              "name": "incomingContract",
              "type": "tuple[]"
            },
            {
              "components": [
                {
                  "internalType": "uint256",
                  "name": "id",
                  "type": "uint256"
                },
                {
                  "internalType": "address",
                  "name": "from",
                  "type": "address"
                },
                {
                  "internalType": "address",
                  "name": "to",
                  "type": "address"
                },
                {
                  "internalType": "uint256",
                  "name": "productId",
                  "type": "uint256"
                }
              ],
              "internalType": "struct SupplyChainNetwork.CompanyContract[]",
              "name": "outgoingContract",
              "type": "tuple[]"
            },
            {
              "components": [
                {
                  "internalType": "uint256",
                  "name": "id",
                  "type": "uint256"
                },
                {
                  "internalType": "uint256",
                  "name": "approvals",
                  "type": "uint256"
                },
                {
                  "internalType": "string",
                  "name": "code",
                  "type": "string"
                }
              ],
              "internalType": "struct SupplyChainNetwork.DeleteRequest[]",
              "name": "deleteRequest",
              "type": "tuple[]"
            }
          ],
          "internalType": "struct SupplyChainNetwork.Company",
          "name": "",
          "type": "tuple"
        }
      ],
      "stateMutability": "view",
      "type": "function",
      "constant": true
    },
    {
      "inputs": [
        {
          "internalType": "address",
          "name": "owner",
          "type": "address"
        },
        {
          "internalType": "string",
          "name": "name",
          "type": "string"
        }
      ],
      "name": "addCompany",
      "outputs": [],
      "stateMutability": "nonpayable",
      "type": "function"
    },
    {
      "inputs": [],
      "name": "getHeadCompaniesLength",
      "outputs": [
        {
          "internalType": "uint256",
          "name": "",
          "type": "uint256"
        }
      ],
      "stateMutability": "view",
      "type": "function",
      "constant": true
    },
    {
      "inputs": [
        {
          "internalType": "uint256",
          "name": "productId",
          "type": "uint256"
        },
        {
          "internalType": "string",
          "name": "productName",
          "type": "string"
        },
        {
          "internalType": "address",
          "name": "company_address",
          "type": "address"
        }
      ],
      "name": "addProduct",
      "outputs": [],
      "stateMutability": "nonpayable",
      "type": "function"
    },
    {
      "inputs": [
        {
          "internalType": "uint256",
          "name": "productId",
          "type": "uint256"
        },
        {
          "internalType": "string",
          "name": "productName",
          "type": "string"
        }
      ],
      "name": "addProductOwner",
      "outputs": [],
      "stateMutability": "nonpayable",
      "type": "function"
    },
    {
      "inputs": [
        {
          "internalType": "uint256",
          "name": "supplyId",
          "type": "uint256"
        }
      ],
      "name": "getPastSupply",
      "outputs": [
        {
          "internalType": "uint256[]",
          "name": "",
          "type": "uint256[]"
        }
      ],
      "stateMutability": "view",
      "type": "function",
      "constant": true
    },
    {
      "inputs": [
        {
          "internalType": "uint256",
          "name": "productId",
          "type": "uint256"
        }
      ],
      "name": "getSupply",
      "outputs": [
        {
          "components": [
            {
              "internalType": "uint256",
              "name": "total",
              "type": "uint256"
            },
            {
              "internalType": "uint256[]",
              "name": "supplyId",
              "type": "uint256[]"
            },
            {
              "internalType": "uint256[]",
              "name": "quantities",
              "type": "uint256[]"
            },
            {
              "internalType": "bool",
              "name": "exist",
              "type": "bool"
            }
          ],
          "internalType": "struct SupplyChainNetwork.Supply",
          "name": "",
          "type": "tuple"
        }
      ],
      "stateMutability": "view",
      "type": "function",
      "constant": true
    },
    {
      "inputs": [
        {
          "internalType": "uint256",
          "name": "productId",
          "type": "uint256"
        }
      ],
      "name": "getPrerequisiteSupply",
      "outputs": [
        {
          "components": [
            {
              "internalType": "uint256",
              "name": "total",
              "type": "uint256"
            },
            {
              "internalType": "uint256[]",
              "name": "supplyId",
              "type": "uint256[]"
            },
            {
              "internalType": "uint256[]",
              "name": "quantities",
              "type": "uint256[]"
            },
            {
              "internalType": "bool",
              "name": "exist",
              "type": "bool"
            }
          ],
          "internalType": "struct SupplyChainNetwork.Supply",
          "name": "",
          "type": "tuple"
        }
      ],
      "stateMutability": "view",
      "type": "function",
      "constant": true
    },
    {
      "inputs": [
        {
          "internalType": "uint256",
          "name": "productId",
          "type": "uint256"
        },
        {
          "internalType": "uint256",
          "name": "numberOfSupply",
          "type": "uint256"
        },
        {
          "internalType": "uint256",
          "name": "supplyId",
          "type": "uint256"
        }
      ],
      "name": "convertToSupply",
      "outputs": [],
      "stateMutability": "nonpayable",
      "type": "function"
    },
    {
      "inputs": [
        {
          "internalType": "uint256",
          "name": "newSupplyProductId",
          "type": "uint256"
        },
        {
          "internalType": "uint256",
          "name": "numberOfNewSupply",
          "type": "uint256"
        },
        {
          "internalType": "uint256",
          "name": "newSupplyId",
          "type": "uint256"
        },
        {
          "internalType": "uint256[]",
          "name": "prerequisiteProductIds",
          "type": "uint256[]"
        },
        {
          "internalType": "uint256[]",
          "name": "prerequisiteSupplyIds",
          "type": "uint256[]"
        },
        {
          "internalType": "uint256[]",
          "name": "prerequisiteQuantities",
          "type": "uint256[]"
        }
      ],
      "name": "convertPrerequisiteToSupply",
      "outputs": [],
      "stateMutability": "nonpayable",
      "type": "function"
    },
    {
      "inputs": [
        {
          "components": [
            {
              "internalType": "uint256",
              "name": "id",
              "type": "uint256"
            },
            {
              "internalType": "address",
              "name": "from",
              "type": "address"
            },
            {
              "internalType": "address",
              "name": "to",
              "type": "address"
            },
            {
              "internalType": "uint256",
              "name": "productId",
              "type": "uint256"
            },
            {
              "internalType": "uint256",
              "name": "quantity",
              "type": "uint256"
            }
          ],
          "internalType": "struct SupplyChainNetwork.Request",
          "name": "request",
          "type": "tuple"
        }
      ],
      "name": "sendRequest",
      "outputs": [],
      "stateMutability": "nonpayable",
      "type": "function"
    },
    {
      "inputs": [
        {
          "components": [
            {
              "internalType": "uint256",
              "name": "id",
              "type": "uint256"
            },
            {
              "internalType": "address",
              "name": "from",
              "type": "address"
            },
            {
              "internalType": "address",
              "name": "to",
              "type": "address"
            },
            {
              "internalType": "uint256",
              "name": "productId",
              "type": "uint256"
            },
            {
              "internalType": "uint256",
              "name": "quantity",
              "type": "uint256"
            }
          ],
          "internalType": "struct SupplyChainNetwork.Request",
          "name": "request",
          "type": "tuple"
        },
        {
          "internalType": "uint256[]",
          "name": "supplyIds",
          "type": "uint256[]"
        },
        {
          "internalType": "uint256[]",
          "name": "quantities",
          "type": "uint256[]"
        }
      ],
      "name": "approveRequest",
      "outputs": [],
      "stateMutability": "nonpayable",
      "type": "function"
    },
    {
      "inputs": [
        {
          "components": [
            {
              "internalType": "uint256",
              "name": "id",
              "type": "uint256"
            },
            {
              "internalType": "address",
              "name": "from",
              "type": "address"
            },
            {
              "internalType": "address",
              "name": "to",
              "type": "address"
            },
            {
              "internalType": "uint256",
              "name": "productId",
              "type": "uint256"
            },
            {
              "internalType": "uint256",
              "name": "quantity",
              "type": "uint256"
            }
          ],
          "internalType": "struct SupplyChainNetwork.Request",
          "name": "request",
          "type": "tuple"
        }
      ],
      "name": "declineRequest",
      "outputs": [],
      "stateMutability": "nonpayable",
      "type": "function"
    },
    {
      "inputs": [
        {
          "components": [
            {
              "internalType": "uint256",
              "name": "id",
              "type": "uint256"
            },
            {
              "internalType": "address",
              "name": "from",
              "type": "address"
            },
            {
              "internalType": "address",
              "name": "to",
              "type": "address"
            },
            {
              "internalType": "uint256",
              "name": "productId",
              "type": "uint256"
            }
          ],
          "internalType": "struct SupplyChainNetwork.CompanyContract",
          "name": "companyContract",
          "type": "tuple"
        }
      ],
      "name": "sendContract",
      "outputs": [],
      "stateMutability": "nonpayable",
      "type": "function"
    },
    {
      "inputs": [
        {
          "components": [
            {
              "internalType": "uint256",
              "name": "id",
              "type": "uint256"
            },
            {
              "internalType": "address",
              "name": "from",
              "type": "address"
            },
            {
              "internalType": "address",
              "name": "to",
              "type": "address"
            },
            {
              "internalType": "uint256",
              "name": "productId",
              "type": "uint256"
            }
          ],
          "internalType": "struct SupplyChainNetwork.CompanyContract",
          "name": "companyContract",
          "type": "tuple"
        }
      ],
      "name": "approveContract",
      "outputs": [],
      "stateMutability": "nonpayable",
      "type": "function"
    },
    {
      "inputs": [
        {
          "components": [
            {
              "internalType": "uint256",
              "name": "id",
              "type": "uint256"
            },
            {
              "internalType": "address",
              "name": "from",
              "type": "address"
            },
            {
              "internalType": "address",
              "name": "to",
              "type": "address"
            },
            {
              "internalType": "uint256",
              "name": "productId",
              "type": "uint256"
            }
          ],
          "internalType": "struct SupplyChainNetwork.CompanyContract",
          "name": "companyContract",
          "type": "tuple"
        }
      ],
      "name": "declineContract",
      "outputs": [],
      "stateMutability": "nonpayable",
      "type": "function"
    },
    {
      "inputs": [
        {
          "internalType": "uint256",
          "name": "id",
          "type": "uint256"
        },
        {
          "internalType": "uint256",
          "name": "productId",
          "type": "uint256"
        },
        {
          "internalType": "string",
          "name": "code",
          "type": "string"
        }
      ],
      "name": "sendDeleteRequest",
      "outputs": [],
      "stateMutability": "nonpayable",
      "type": "function"
    },
    {
      "inputs": [
        {
          "internalType": "uint256",
          "name": "id",
          "type": "uint256"
        },
        {
          "internalType": "string",
          "name": "code",
          "type": "string"
        },
        {
          "internalType": "address",
          "name": "owner",
          "type": "address"
        }
      ],
      "name": "addApproval",
      "outputs": [],
      "stateMutability": "nonpayable",
      "type": "function"
    },
    {
      "inputs": [
        {
          "internalType": "uint256",
          "name": "id",
          "type": "uint256"
        },
        {
          "internalType": "uint256",
          "name": "productId",
          "type": "uint256"
        },
        {
          "components": [
            {
              "internalType": "address",
              "name": "companyId",
              "type": "address"
            },
            {
              "internalType": "uint256",
              "name": "productId",
              "type": "uint256"
            }
          ],
          "internalType": "struct SupplyChainNetwork.CompanyProduct[]",
          "name": "upstreamLeft",
          "type": "tuple[]"
        },
        {
          "internalType": "string",
          "name": "code",
          "type": "string"
        }
      ],
      "name": "deleteSupply",
      "outputs": [],
      "stateMutability": "nonpayable",
      "type": "function"
    }
  ],
  "bytecode": "0x6080604052600080546001600160a01b0319163317905534801561002257600080fd5b50615e4180620000336000396000f3fe608060405234801561001057600080fd5b506004361061013e5760003560e01c8063244033cf146101435780632e1b181e14610158578063355e6ce814610188578063460c7d63146101aa578063461a218a146101e05780634f36e0b3146101f35780635bd9668c1461020457806360349e031461021757806362bc56e61461022a5780636cbcb9ad1461024a5780637043ef891461025d57806376d1094f146102705780637d7a14341461028357806389f3fecf146102965780638f96fedf146102a957806391c103f7146102bc5780639c8316c5146102dc578063aca0ad79146102ef578063b33cf82b14610336578063d20b483514610349578063de4495551461035c578063e595028214610391578063e6f4cc18146103b1578063ed234e20146103d1578063f77ee79d146103e4578063fa309ae6146103f7575b600080fd5b610156610151366004615615565b61040a565b005b60005461016b906001600160a01b031681565b6040516001600160a01b0390911681526020015b60405180910390f35b61019b610196366004615310565b6104fa565b60405161017f939291906159db565b6101d06101b8366004615486565b60066020526000908152604090206001015460ff1681565b604051901515815260200161017f565b6101566101ee3660046153fa565b6105b6565b60045460405190815260200161017f565b6101566102123660046153a5565b610a8a565b61019b610225366004615486565b610b76565b61023d610238366004615310565b610bc0565b60405161017f9190615a36565b6101566102583660046153a5565b6111f4565b61015661026b3660046154cc565b61169f565b61015661027e3660046153a5565b611839565b610156610291366004615658565b6120b5565b6101566102a43660046154cc565b6121b8565b6101566102b7366004615415565b612334565b6102cf6102ca366004615486565b613141565b60405161017f9190615a10565b6101566102ea36600461549e565b6131c2565b6103216102fd36600461537c565b60036020818152600093845260408085209091529183529120805491015460ff1682565b6040805192835290151560208301520161017f565b6101566103443660046153fa565b6132b2565b610156610357366004615520565b6133aa565b61032161036a36600461537c565b60026020908152600092835260408084209091529082529020805460039091015460ff1682565b6103a461039f366004615486565b613e27565b60405161017f9190615a23565b6103c46103bf366004615486565b613ed3565b60405161017f9190615b93565b6101566103df366004615331565b613feb565b6103c46103f2366004615486565b61419b565b610156610405366004615683565b6142b6565b60005b336000908152600160205260409020600201548110156104ef5733600090815260016020526040902060020180548491908390811061045c57634e487b7160e01b600052603260045260246000fd5b906000526020600020015414156104dd573360009081526001602081815260408084208151606081018352898152808401868152928101888152600a90920180548087018255908752958490208151600390970201958655915193850193909355915180519293926104d49260028501920190614c31565b505050506104f5565b806104e781615d24565b91505061040d565b50600080fd5b505050565b6001602081905260009182526040909120805491810180546001600160a01b03841693600160a01b900460ff1692919061053390615ce9565b80601f016020809104026020016040519081016040528092919081815260200182805461055f90615ce9565b80156105ac5780601f10610581576101008083540402835291602001916105ac565b820191906000526020600020905b81548152906001019060200180831161058f57829003601f168201915b5050505050905083565b60408101516001600160a01b031633146105cf57600080fd5b60005b6020808301516001600160a01b03166000908152600190915260409020600701548110156107805781516020808401516001600160a01b0316600090815260019091526040902060070180548390811061063c57634e487b7160e01b600052603260045260246000fd5b906000526020600020906005020160000154141561076e57602080830180516001600160a01b0390811660009081526001938490526040808220935190921681522060079081015491019161069091615ca6565b815481106106ae57634e487b7160e01b600052603260045260246000fd5b90600052602060002090600502016001600084602001516001600160a01b03166001600160a01b03168152602001908152602001600020600701828154811061070757634e487b7160e01b600052603260045260246000fd5b60009182526020909120825460059092020190815560018083015490820180546001600160a01b039283166001600160a01b031991821617909155600280850154908401805491909316911617905560038083015490820155600491820154910155610780565b8061077881615d24565b9150506105d2565b506020808201516001600160a01b031660009081526001909152604090206007018054806107be57634e487b7160e01b600052603160045260246000fd5b6000828152602081206005600019909301928302018181556001810180546001600160a01b031990811690915560028201805490911690556003810182905560040181905591555b6040808301516001600160a01b03166000908152600160205220600601548110156109b05781516040808401516001600160a01b0316600090815260016020522060060180548390811061086a57634e487b7160e01b600052603260045260246000fd5b906000526020600020906005020160000154141561099e57604080830180516001600160a01b0390811660009081526001602081905284822093519092168152929092206006908101549101916108c091615ca6565b815481106108de57634e487b7160e01b600052603260045260246000fd5b90600052602060002090600502016001600084604001516001600160a01b03166001600160a01b03168152602001908152602001600020600601828154811061093757634e487b7160e01b600052603260045260246000fd5b60009182526020909120825460059092020190815560018083015490820180546001600160a01b039283166001600160a01b0319918216179091556002808501549084018054919093169116179055600380830154908201556004918201549101556109b0565b806109a881615d24565b915050610806565b506040808201516001600160a01b031660009081526001602052206006018054806109eb57634e487b7160e01b600052603160045260246000fd5b60008281526020808220600560001990940193840201828155600181810180546001600160a01b0319908116909155600283018054909116905560038201849055600490910192909255919092556040808401519184015184516060860151608087015193516001600160a01b039586169693909516949193600080516020615d6c83398151915293610a7f934290615c11565b60405180910390a450565b80602001516001600160a01b0316336001600160a01b031614610aac57600080fd5b602080820180516001600160a01b039081166000908152600180855260408083206009018054808401825590845286842088516004928302909101908155865181850180549188166001600160a01b0319928316179055838a01805160028085018054928b169285168317905560608d018051600396870155918952958820600801805480890182559089529a9097209a51999093029099019788559551928701805493861693891693909317909255905190850180549190931695169490941790559151910155565b60048181548110610b8657600080fd5b60009182526020909120600b9091020180546001820180546001600160a01b0383169450600160a01b90920460ff16929161053390615ce9565b610c2f60405180610180016040528060006001600160a01b03168152602001600015158152602001606081526020016060815260200160608152602001606081526020016060815260200160608152602001606081526020016060815260200160608152602001606081525090565b6001600160a01b0382811660009081526001602081815260409283902083516101808101855281549586168152600160a01b90950460ff1615159185019190915290810180549192840191610c8390615ce9565b80601f0160208091040260200160405190810160405280929190818152602001828054610caf90615ce9565b8015610cfc5780601f10610cd157610100808354040283529160200191610cfc565b820191906000526020600020905b815481529060010190602001808311610cdf57829003601f168201915b5050505050815260200160028201805480602002602001604051908101604052809291908181526020018280548015610d5457602002820191906000526020600020905b815481526020019060010190808311610d40575b5050505050815260200160038201805480602002602001604051908101604052809291908181526020018280548015610dac57602002820191906000526020600020905b815481526020019060010190808311610d98575b5050505050815260200160048201805480602002602001604051908101604052809291908181526020016000905b82821015610e22576000848152602090819020604080518082019091526002850290910180546001600160a01b03168252600190810154828401529083529092019101610dda565b50505050815260200160058201805480602002602001604051908101604052809291908181526020016000905b82821015610e97576000848152602090819020604080518082019091526002850290910180546001600160a01b03168252600190810154828401529083529092019101610e4f565b50505050815260200160068201805480602002602001604051908101604052809291908181526020016000905b82821015610f2e5760008481526020908190206040805160a08101825260058602909201805483526001808201546001600160a01b039081168587015260028301541692840192909252600381015460608401526004015460808301529083529092019101610ec4565b50505050815260200160078201805480602002602001604051908101604052809291908181526020016000905b82821015610fc55760008481526020908190206040805160a08101825260058602909201805483526001808201546001600160a01b039081168587015260028301541692840192909252600381015460608401526004015460808301529083529092019101610f5b565b50505050815260200160088201805480602002602001604051908101604052809291908181526020016000905b828210156110525760008481526020908190206040805160808101825260048602909201805483526001808201546001600160a01b0390811685870152600283015416928401929092526003015460608301529083529092019101610ff2565b50505050815260200160098201805480602002602001604051908101604052809291908181526020016000905b828210156110df5760008481526020908190206040805160808101825260048602909201805483526001808201546001600160a01b039081168587015260028301541692840192909252600301546060830152908352909201910161107f565b505050508152602001600a8201805480602002602001604051908101604052809291908181526020016000905b828210156111e45783829060005260206000209060030201604051806060016040529081600082015481526020016001820154815260200160028201805461115390615ce9565b80601f016020809104026020016040519081016040528092919081815260200182805461117f90615ce9565b80156111cc5780601f106111a1576101008083540402835291602001916111cc565b820191906000526020600020905b8154815290600101906020018083116111af57829003601f168201915b5050505050815250508152602001906001019061110c565b505050508152505090505b919050565b80604001516001600160a01b0316336001600160a01b03161461121657600080fd5b60005b6020808301516001600160a01b03166000908152600190915260409020600901548110156113bd5781516020808401516001600160a01b0316600090815260019091526040902060090180548390811061128357634e487b7160e01b600052603260045260246000fd5b90600052602060002090600402016000015414156113ab57602080830180516001600160a01b039081166000908152600193849052604080822093519092168152206009908101549101916112d791615ca6565b815481106112f557634e487b7160e01b600052603260045260246000fd5b90600052602060002090600402016001600084602001516001600160a01b03166001600160a01b03168152602001908152602001600020600901828154811061134e57634e487b7160e01b600052603260045260246000fd5b60009182526020909120825460049092020190815560018083015490820180546001600160a01b039283166001600160a01b03199182161790915560028085015490840180549190931691161790556003918201549101556113bd565b806113b581615d24565b915050611219565b506020808201516001600160a01b031660009081526001909152604090206009018054806113fb57634e487b7160e01b600052603160045260246000fd5b6000828152602081206004600019909301928302018181556001810180546001600160a01b0319908116909155600282018054909116905560030181905591555b6040808301516001600160a01b03166000908152600160205220600801548110156115dc5781516040808401516001600160a01b031660009081526001602052206008018054839081106114a057634e487b7160e01b600052603260045260246000fd5b90600052602060002090600402016000015414156115ca57604080830180516001600160a01b0390811660009081526001602081905284822093519092168152929092206008908101549101916114f691615ca6565b8154811061151457634e487b7160e01b600052603260045260246000fd5b90600052602060002090600402016001600084604001516001600160a01b03166001600160a01b03168152602001908152602001600020600801828154811061156d57634e487b7160e01b600052603260045260246000fd5b60009182526020909120825460049092020190815560018083015490820180546001600160a01b039283166001600160a01b03199182161790915560028085015490840180549190931691161790556003918201549101556115dc565b806115d481615d24565b91505061143c565b506040808201516001600160a01b0316600090815260016020522060080180548061161757634e487b7160e01b600052603160045260246000fd5b60008281526020808220600460001990940193840201828155600181810180546001600160a01b0319908116909155600283018054909116905560039091019290925591909255604080840151918401518451606086015192516001600160a01b039485169592909416939092600080516020615dec83398151915292610a7f924290615bef565b60005b6001600160a01b0382166000908152600160205260409020600a01548110156104ef576001600160a01b0382166000908152600160205260409020600a0180548591908390811061170357634e487b7160e01b600052603260045260246000fd5b9060005260206000209060030201600001541480156117b857508260405160200161172e9190615924565b60408051601f1981840301815291815281516020928301206001600160a01b038516600090815260019093529120600a0180548390811061177f57634e487b7160e01b600052603260045260246000fd5b90600052602060002090600302016002016040516020016117a09190615940565b60405160208183030381529060405280519060200120145b15611827576001600160a01b0382166000908152600160208190526040909120600a018054839081106117fb57634e487b7160e01b600052603260045260246000fd5b9060005260206000209060030201600101600082825461181b9190615c8e565b909155506104f5915050565b8061183181615d24565b9150506116a2565b80604001516001600160a01b0316336001600160a01b03161461185b57600080fd5b602080820180516001600160a01b0390811660009081526003808552604080832060608801805185529087528184208301805460ff191660019081179091558651861685528088528285208251940180548083018255908652888620019390935585518516845281842082518084018452838a018051881682528351828b019081526005909301805480880182559088528a8820925160029182029093018054938a166001600160a01b031994851617815593519387019390935551871686528489528386208451808601909552975187168452915183890190815260049097018054808601825590865297852092519702909101805496909416951694909417825591519201919091555b600454811015611c2f57336001600160a01b03166004828154811061199c57634e487b7160e01b600052603260045260246000fd5b60009182526020909120600b90910201546001600160a01b03161415611c1d57600480546119cc90600190615ca6565b815481106119ea57634e487b7160e01b600052603260045260246000fd5b90600052602060002090600b020160048281548110611a1957634e487b7160e01b600052603260045260246000fd5b600091825260209091208254600b9092020180546001600160a01b0319166001600160a01b0390921691909117808255825460ff600160a01b918290041615150260ff60a01b199091161781556001808301805491830191611a7a90615ce9565b611a85929190614cb5565b5060028281018054611a9a9284019190614d30565b5060038281018054611aaf9284019190614d30565b5060048281018054611ac49284019190614d6f565b5060058281018054611ad99284019190614d6f565b5060068281018054611aee9284019190614de3565b5060078281018054611b039284019190614de3565b5060088281018054611b189284019190614e83565b5060098281018054611b2d9284019190614e83565b50600a8281018054611b429284019190614f19565b509050506004805480611b6557634e487b7160e01b600052603160045260246000fd5b600082815260208120600b6000199093019283020180546001600160a81b031916815590611b966001830182614f9f565b611ba4600283016000614fde565b611bb2600383016000614fde565b611bc0600483016000614ffc565b611bce600583016000614ffc565b611bdc60068301600061501d565b611bea60078301600061501d565b611bf860088301600061503e565b611c0660098301600061503e565b611c14600a8301600061505f565b50509055611c2f565b80611c2781615d24565b915050611967565b5060005b6020808301516001600160a01b0316600090815260019091526040902060090154811015611dd75781516020808401516001600160a01b03166000908152600190915260409020600901805483908110611c9d57634e487b7160e01b600052603260045260246000fd5b9060005260206000209060040201600001541415611dc557602080830180516001600160a01b03908116600090815260019384905260408082209351909216815220600990810154910191611cf191615ca6565b81548110611d0f57634e487b7160e01b600052603260045260246000fd5b90600052602060002090600402016001600084602001516001600160a01b03166001600160a01b031681526020019081526020016000206009018281548110611d6857634e487b7160e01b600052603260045260246000fd5b60009182526020909120825460049092020190815560018083015490820180546001600160a01b039283166001600160a01b0319918216179091556002808501549084018054919093169116179055600391820154910155611dd7565b80611dcf81615d24565b915050611c33565b506020808201516001600160a01b03166000908152600190915260409020600901805480611e1557634e487b7160e01b600052603160045260246000fd5b6000828152602081206004600019909301928302018181556001810180546001600160a01b0319908116909155600282018054909116905560030181905591555b6040808301516001600160a01b0316600090815260016020522060080154811015611ff65781516040808401516001600160a01b03166000908152600160205220600801805483908110611eba57634e487b7160e01b600052603260045260246000fd5b9060005260206000209060040201600001541415611fe457604080830180516001600160a01b039081166000908152600160208190528482209351909216815292909220600890810154910191611f1091615ca6565b81548110611f2e57634e487b7160e01b600052603260045260246000fd5b90600052602060002090600402016001600084604001516001600160a01b03166001600160a01b031681526020019081526020016000206008018281548110611f8757634e487b7160e01b600052603260045260246000fd5b60009182526020909120825460049092020190815560018083015490820180546001600160a01b039283166001600160a01b0319918216179091556002808501549084018054919093169116179055600391820154910155611ff6565b80611fee81615d24565b915050611e56565b506040808201516001600160a01b0316600090815260016020522060080180548061203157634e487b7160e01b600052603160045260246000fd5b600082815260208082206004600019909401938402018281556001810180546001600160a01b0319908116909155600282018054909116905560030182905591909255604080840151918401518451606086015192516001600160a01b039485169592909416939092600080516020615dec83398151915292610a7f924290615bef565b60005b336000908152600160205260409020600201548110156104ef5733600090815260016020526040902060020180548591908390811061210757634e487b7160e01b600052603260045260246000fd5b906000526020600020015414156121a65733600090815260026020908152604080832087845290915281208054859290612142908490615c8e565b9091555050336000908152600260208181526040808420888552825283206001808201805480830182559086528386200187905592810180548085018255908552918420909101869055918690526003909101805460ff19169091179055506104f5565b806121b081615d24565b9150506120b8565b33600090815260016020526040902054600160a01b900460ff16806121e757506000546001600160a01b031633145b6121f057600080fd5b60005b600554811015612292578260405160200161220e9190615924565b604051602081830303815290604052805190602001206005828154811061224557634e487b7160e01b600052603260045260246000fd5b9060005260206000200160405160200161225f9190615940565b60405160208183030381529060405280519060200120141561228057600080fd5b8061228a81615d24565b9150506121f3565b506000546001600160a01b03163314156122d8576001600160a01b03811660009081526001602081815260408320600201805492830181558352909120018390556122fd565b3360009081526001602081815260408320600201805492830181558352909120018390555b60058054600181018255600091909152825161232e91600080516020615d8c83398151915201906020850190614c31565b50505050565b60408301516001600160a01b0316331461234d57600080fd5b60005b6040808501516001600160a01b0316600090815260026020908152828220606088015183529052206001015481101561253c5760005b8351811015612529578381815181106123af57634e487b7160e01b600052603260045260246000fd5b6020908102919091018101516040808801516001600160a01b031660009081526002845281812060608a0151825290935290912060010180548490811061240657634e487b7160e01b600052603260045260246000fd5b906000526020600020015414156125175782818151811061243757634e487b7160e01b600052603260045260246000fd5b6020908102919091018101516040808801516001600160a01b031660009081526002845281812060608a01518252909352822080549192909161247b908490615ca6565b925050819055508281815181106124a257634e487b7160e01b600052603260045260246000fd5b6020908102919091018101516040808801516001600160a01b03166000908152600280855282822060608b01518352909452209091018054849081106124f857634e487b7160e01b600052603260045260246000fd5b9060005260206000200160008282546125119190615ca6565b90915550505b8061252181615d24565b915050612386565b508061253481615d24565b915050612350565b506040808401516001600160a01b0316600090815260026020908152828220606087015183529052908120600101546001600160401b0381111561259057634e487b7160e01b600052604160045260246000fd5b6040519080825280602002602001820160405280156125b9578160200160208202803683370190505b506040808601516001600160a01b031660009081526002602081815283832060608a01518452905291812090910154919250906001600160401b0381111561261157634e487b7160e01b600052604160045260246000fd5b60405190808252806020026020018201604052801561263a578160200160208202803683370190505b5090506000805b6040808801516001600160a01b031660009081526002602081815283832060608c01518452905291902001548110156127f5576040808801516001600160a01b031660009081526002602081815283832060608c0151845290529181209091018054839081106126c157634e487b7160e01b600052603260045260246000fd5b906000526020600020015411156127e3576040808801516001600160a01b031660009081526002602090815282822060608b0151835290522060010180548290811061271d57634e487b7160e01b600052603260045260246000fd5b906000526020600020015484838151811061274857634e487b7160e01b600052603260045260246000fd5b6020908102919091018101919091526040808901516001600160a01b03166000908152600280845282822060608c01518352909352200180548290811061279f57634e487b7160e01b600052603260045260246000fd5b90600052602060002001548383815181106127ca57634e487b7160e01b600052603260045260246000fd5b6020908102919091010152816127df81615d24565b9250505b806127ed81615d24565b915050612641565b506000816001600160401b0381111561281e57634e487b7160e01b600052604160045260246000fd5b604051908082528060200260200182016040528015612847578160200160208202803683370190505b50905060005b828110156128ba5784818151811061287557634e487b7160e01b600052603260045260246000fd5b602002602001015182828151811061289d57634e487b7160e01b600052603260045260246000fd5b6020908102919091010152806128b281615d24565b91505061284d565b506040808801516001600160a01b031660009081526002602090815282822060608b01518352815291902082516128f992600190920191840190615080565b5060005b8281101561296a5783818151811061292557634e487b7160e01b600052603260045260246000fd5b602002602001015182828151811061294d57634e487b7160e01b600052603260045260246000fd5b60209081029190910101528061296281615d24565b9150506128fd565b506040808801516001600160a01b031660009081526002602081815283832060608c0151845281529290912083516129aa93919092019190840190615080565b5060005b8651811015612c83576000805b6020808b01516001600160a01b0316600090815260038252604080822060608e015183529092522060010154811015612b2457888381518110612a0e57634e487b7160e01b600052603260045260246000fd5b6020908102919091018101518b8201516001600160a01b0316600090815260038352604080822060608f0151835290935291909120600101805483908110612a6657634e487b7160e01b600052603260045260246000fd5b90600052602060002001541415612b1257878381518110612a9757634e487b7160e01b600052603260045260246000fd5b6020908102919091018101518b8201516001600160a01b0316600090815260038352604080822060608f0151835290935291909120600201805483908110612aef57634e487b7160e01b600052603260045260246000fd5b906000526020600020016000828254612b089190615c8e565b9091555060019250505b80612b1c81615d24565b9150506129bb565b5080612c04576020808a01516001600160a01b0316600090815260038252604080822060608d01518352909252208851600190910190899084908110612b7a57634e487b7160e01b600052603260045260246000fd5b6020908102919091018101518254600181018455600093845282842001558a8101516001600160a01b0316825260038152604080832060608d0151845290915290208751600290910190889084908110612be457634e487b7160e01b600052603260045260246000fd5b602090810291909101810151825460018101845560009384529190922001555b868281518110612c2457634e487b7160e01b600052603260045260246000fd5b6020908102919091018101518a8201516001600160a01b0316600090815260038352604080822060608e01518352909352918220805491929091612c69908490615c8e565b90915550829150612c7b905081615d24565b9150506129ae565b5060005b6020808901516001600160a01b0316600090815260019091526040902060070154811015612e355787516020808a01516001600160a01b03166000908152600190915260409020600701805483908110612cf157634e487b7160e01b600052603260045260246000fd5b9060005260206000209060050201600001541415612e2357602080890180516001600160a01b03908116600090815260019384905260408082209351909216815220600790810154910191612d4591615ca6565b81548110612d6357634e487b7160e01b600052603260045260246000fd5b9060005260206000209060050201600160008a602001516001600160a01b03166001600160a01b031681526020019081526020016000206007018281548110612dbc57634e487b7160e01b600052603260045260246000fd5b60009182526020909120825460059092020190815560018083015490820180546001600160a01b039283166001600160a01b031991821617909155600280850154908401805491909316911617905560038083015490820155600491820154910155612e35565b80612e2d81615d24565b915050612c87565b506020808801516001600160a01b03166000908152600190915260409020600701805480612e7357634e487b7160e01b600052603160045260246000fd5b6000828152602081206005600019909301928302018181556001810180546001600160a01b031990811690915560028201805490911690556003810182905560040181905591555b6040808901516001600160a01b03166000908152600160205220600601548110156130655787516040808a01516001600160a01b03166000908152600160205220600601805483908110612f1f57634e487b7160e01b600052603260045260246000fd5b906000526020600020906005020160000154141561305357604080890180516001600160a01b039081166000908152600160208190528482209351909216815292909220600690810154910191612f7591615ca6565b81548110612f9357634e487b7160e01b600052603260045260246000fd5b9060005260206000209060050201600160008a604001516001600160a01b03166001600160a01b031681526020019081526020016000206006018281548110612fec57634e487b7160e01b600052603260045260246000fd5b60009182526020909120825460059092020190815560018083015490820180546001600160a01b039283166001600160a01b031991821617909155600280850154908401805491909316911617905560038083015490820155600491820154910155613065565b8061305d81615d24565b915050612ebb565b506040808801516001600160a01b031660009081526001602052206006018054806130a057634e487b7160e01b600052603160045260246000fd5b600082815260208082206005600019909401938402018281556001810180546001600160a01b0319908116909155600282018054909116905560038101839055600401829055919092556040808a0151918a01518a5160608c015160808d015193516001600160a01b039586169693909516949193600080516020615d6c83398151915293613130934290615c11565b60405180910390a450505050505050565b60008181526006602052604090206001015460609060ff1661316257600080fd5b600082815260066020908152604091829020805483518184028101840190945280845290918301828280156131b657602002820191906000526020600020905b8154815260200190600101908083116131a2575b50505050509050919050565b33600090815260016020526040902054600160a01b900460ff166131e557600080fd5b60005b3360009081526001602052604090206002015481101561325f5733600090815260016020526040902060020180548491908390811061323757634e487b7160e01b600052603260045260246000fd5b9060005260206000200154141561324d57600080fd5b8061325781615d24565b9150506131e8565b503360009081526001602081815260408320600201805480840182559084528184200185905560058054928301815590925282516104f592600080516020615d8c83398151915290920191840190614c31565b60208101516001600160a01b031633146132cb57600080fd5b602080820180516001600160a01b039081166000908152600180855260408083206007018054808401825590845286842088516005928302909101908155865181850180549188166001600160a01b0319928316179055838a01805160028085018054928b169285168317905560608d01805160038088019190915560808f018051600498890155938b52978a206006018054808b018255908b529c9099209c519b909502909b01998a559751948901805495881695821695909517909455955190870180549190951692169190911790925551908301559151910155565b60005b336000908152600160205260409020600a01548110156104ef57336000908152600160205260409020600a018054869190839081106133fc57634e487b7160e01b600052603260045260246000fd5b9060005260206000209060030201600001541480156134a85750816040516020016134279190615924565b60408051601f19818403018152918152815160209283012033600090815260019093529120600a0180548390811061346f57634e487b7160e01b600052603260045260246000fd5b90600052602060002090600302016002016040516020016134909190615940565b60405160208183030381529060405280519060200120145b80156134fc57503360009081526001602052604090206004810154600a9091018054839081106134e857634e487b7160e01b600052603260045260246000fd5b906000526020600020906003020160010154145b15613e155760005b3360009081526001602052604090206004015481101561396a5760005b336000908152600160208190526040822060040180549192918590811061355857634e487b7160e01b600052603260045260246000fd5b600091825260208083206002909202909101546001600160a01b031683528201929092526040019020600501548110156139575733600081815260016020819052604082206004018054919291869081106135c357634e487b7160e01b600052603260045260246000fd5b600091825260208083206002909202909101546001600160a01b03168352820192909252604001902060050180548390811061360f57634e487b7160e01b600052603260045260246000fd5b60009182526020909120600290910201546001600160a01b03161480156136c9575033600090815260016020819052604082206004018054899391908690811061366957634e487b7160e01b600052603260045260246000fd5b600091825260208083206002909202909101546001600160a01b0316835282019290925260400190206005018054839081106136b557634e487b7160e01b600052603260045260246000fd5b906000526020600020906002020160010154145b1561394557336000908152600160208190526040822060040180549192918590811061370557634e487b7160e01b600052603260045260246000fd5b600091825260208083206002909202909101546001600160a01b031683528281019390935260409182018120338252600193849052918120600401805460059093019392839291908790811061376b57634e487b7160e01b600052603260045260246000fd5b600091825260208083206002909202909101546001600160a01b031683528201929092526040019020600501546137a29190615ca6565b815481106137c057634e487b7160e01b600052603260045260246000fd5b90600052602060002090600202016001600060016000336001600160a01b03166001600160a01b03168152602001908152602001600020600401858154811061381957634e487b7160e01b600052603260045260246000fd5b600091825260208083206002909202909101546001600160a01b03168352820192909252604001902060050180548390811061386557634e487b7160e01b600052603260045260246000fd5b60009182526020808320845460029093020180546001600160a01b0319166001600160a01b0390931692909217825560019384015491840191909155338252829052604081206004018054859081106138ce57634e487b7160e01b600052603260045260246000fd5b600091825260208083206002909202909101546001600160a01b03168352820192909252604001902060050180548061391757634e487b7160e01b600052603160045260246000fd5b60008281526020812060026000199093019283020180546001600160a01b0319168155600101559055613957565b8061394f81615d24565b915050613521565b508061396281615d24565b915050613504565b5033600090815260016020526040812061398991600490910190614ffc565b60005b8351811015613a275733600090815260016020526040902084516004909101908590839081106139cc57634e487b7160e01b600052603260045260246000fd5b602090810291909101810151825460018082018555600094855293839020825160029092020180546001600160a01b0319166001600160a01b0390921691909117815591015191015580613a1f81615d24565b91505061398c565b508251613b8c57336000908152600160208190526040822060048054808401825593528054600b909302600080516020615dcc833981519152810180546001600160a01b0319166001600160a01b039590951694909417808555825460ff600160a01b918290041615150260ff60a01b199091161784559181018054919392600080516020615dac8339815191520191613ac090615ce9565b613acb929190614cb5565b5060028281018054613ae09284019190614d30565b5060038281018054613af59284019190614d30565b5060048281018054613b0a9284019190614d6f565b5060058281018054613b1f9284019190614d6f565b5060068281018054613b349284019190614de3565b5060078281018054613b499284019190614de3565b5060088281018054613b5e9284019190614e83565b5060098281018054613b739284019190614e83565b50600a8281018054613b889284019190614f19565b5050505b60005b33600090815260016020526040902060020154811015613cd357336000908152600160205260409020600201805486919083908110613bde57634e487b7160e01b600052603260045260246000fd5b90600052602060002001541415613cc15733600090815260016020819052604090912060020180549091613c1191615ca6565b81548110613c2f57634e487b7160e01b600052603260045260246000fd5b600091825260208083209091015433835260019091526040909120600201805483908110613c6d57634e487b7160e01b600052603260045260246000fd5b6000918252602080832090910192909255338152600190915260409020600201805480613caa57634e487b7160e01b600052603160045260246000fd5b600190038181906000526020600020016000905590555b80613ccb81615d24565b915050613b8f565b50336000908152600160208190526040909120600a0180549091613cf691615ca6565b81548110613d1457634e487b7160e01b600052603260045260246000fd5b906000526020600020906003020160016000336001600160a01b03166001600160a01b03168152602001908152602001600020600a018281548110613d6957634e487b7160e01b600052603260045260246000fd5b906000526020600020906003020160008201548160000155600182015481600101556002820181600201908054613d9f90615ce9565b613daa929190614cb5565b5050336000908152600160205260409020600a01805490915080613dde57634e487b7160e01b600052603160045260246000fd5b6000828152602081206003600019909301928302018181556001810182905590613e0b6002830182614f9f565b505090555061232e565b80613e1f81615d24565b9150506133ad565b60058181548110613e3757600080fd5b906000526020600020016000915090508054613e5290615ce9565b80601f0160208091040260200160405190810160405280929190818152602001828054613e7e90615ce9565b8015613ecb5780601f10613ea057610100808354040283529160200191613ecb565b820191906000526020600020905b815481529060010190602001808311613eae57829003601f168201915b505050505081565b613edb6150ba565b336000818152600160205260409020546001600160a01b031614613efe57600080fd5b33600090815260036020908152604080832085845282529182902082516080810184528154815260018201805485518186028101860190965280865291949293858101939290830182828015613f7357602002820191906000526020600020905b815481526020019060010190808311613f5f575b5050505050815260200160028201805480602002602001604051908101604052809291908181526020018280548015613fcb57602002820191906000526020600020905b815481526020019060010190808311613fb7575b50505091835250506003919091015460ff16151560209091015292915050565b6000546001600160a01b0316331461400257600080fd5b6001600160a01b0382166000908152600160208181526040909220835190926140319284019190850190614c31565b50805460ff60a01b196001600160a01b038086166001600160a01b0319938416178216600160a01b908117855560048054600181810183556000929092528654600b909102600080516020615dcc833981519152810180549097169190941617808655865483900460ff161515909202919093161783559083018054849392600080516020615dac8339815191520191906140cb90615ce9565b6140d6929190614cb5565b50600282810180546140eb9284019190614d30565b50600382810180546141009284019190614d30565b50600482810180546141159284019190614d6f565b506005828101805461412a9284019190614d6f565b506006828101805461413f9284019190614de3565b50600782810180546141549284019190614de3565b50600882810180546141699284019190614e83565b506009828101805461417e9284019190614e83565b50600a82810180546141939284019190614f19565b505050505050565b6141a36150ba565b33600090815260026020908152604080832085845290915290206003015460ff166141cd57600080fd5b33600090815260026020908152604080832085845282529182902082516080810184528154815260018201805485518186028101860190965280865291949293858101939290830182828015613f735760200282019190600052602060002090815481526020019060010190808311613f5f575050505050815260200160028201805480602002602001604051908101604052809291908181526020018280548015613fcb5760200282019190600052602060002090815481526020019060010190808311613fb75750505091835250506003919091015460ff16151560209091015292915050565b336000818152600160205260409020546001600160a01b0316146142d957600080fd5b60005b8351811015614ba35760005b336000908152600360205260408120865190919087908590811061431c57634e487b7160e01b600052603260045260246000fd5b60200260200101518152602001908152602001600020600101805490508110156145fd5760005b84518110156145ea576000878152600660205260409020855186908390811061437c57634e487b7160e01b600052603260045260246000fd5b602090810291909101810151825460018181018555600094855283852090910191909155898352600690915260409091208101805460ff1916909117905584518590829081106143dc57634e487b7160e01b600052603260045260246000fd5b602002602001015160036000336001600160a01b03166001600160a01b03168152602001908152602001600020600088868151811061442b57634e487b7160e01b600052603260045260246000fd5b60200260200101518152602001908152602001600020600101838154811061446357634e487b7160e01b600052603260045260246000fd5b906000526020600020015414156145d85783818151811061449457634e487b7160e01b600052603260045260246000fd5b602002602001015160036000336001600160a01b03166001600160a01b0316815260200190815260200160002060008886815181106144e357634e487b7160e01b600052603260045260246000fd5b60200260200101518152602001908152602001600020600201838154811061451b57634e487b7160e01b600052603260045260246000fd5b9060005260206000200160008282546145349190615ca6565b9250508190555083818151811061455b57634e487b7160e01b600052603260045260246000fd5b602002602001015160036000336001600160a01b03166001600160a01b0316815260200190815260200160002060008886815181106145aa57634e487b7160e01b600052603260045260246000fd5b6020026020010151815260200190815260200160002060000160008282546145d29190615ca6565b90915550505b806145e281615d24565b915050614343565b50806145f581615d24565b9150506142e8565b503360009081526003602052604081208551829087908590811061463157634e487b7160e01b600052603260045260246000fd5b60200260200101518152602001908152602001600020600101805490506001600160401b0381111561467357634e487b7160e01b600052604160045260246000fd5b60405190808252806020026020018201604052801561469c578160200160208202803683370190505b503360009081526003602052604081208751929350909182908890869081106146d557634e487b7160e01b600052603260045260246000fd5b60200260200101518152602001908152602001600020600201805490506001600160401b0381111561471757634e487b7160e01b600052604160045260246000fd5b604051908082528060200260200182016040528015614740578160200160208202803683370190505b5090506000805b33600090815260036020526040812089519091908a908890811061477b57634e487b7160e01b600052603260045260246000fd5b602002602001015181526020019081526020016000206002018054905081101561499357336000908152600360205260408120895182908b90899081106147d257634e487b7160e01b600052603260045260246000fd5b60200260200101518152602001908152602001600020600201828154811061480a57634e487b7160e01b600052603260045260246000fd5b906000526020600020015411156149815733600090815260036020526040812089519091908a908890811061484f57634e487b7160e01b600052603260045260246000fd5b60200260200101518152602001908152602001600020600101818154811061488757634e487b7160e01b600052603260045260246000fd5b90600052602060002001548483815181106148b257634e487b7160e01b600052603260045260246000fd5b60200260200101818152505060036000336001600160a01b03166001600160a01b03168152602001908152602001600020600089878151811061490557634e487b7160e01b600052603260045260246000fd5b60200260200101518152602001908152602001600020600201818154811061493d57634e487b7160e01b600052603260045260246000fd5b906000526020600020015483838151811061496857634e487b7160e01b600052603260045260246000fd5b60209081029190910101528161497d81615d24565b9250505b8061498b81615d24565b915050614747565b506000816001600160401b038111156149bc57634e487b7160e01b600052604160045260246000fd5b6040519080825280602002602001820160405280156149e5578160200160208202803683370190505b50905060005b82811015614a5857848181518110614a1357634e487b7160e01b600052603260045260246000fd5b6020026020010151828281518110614a3b57634e487b7160e01b600052603260045260246000fd5b602090810291909101015280614a5081615d24565b9150506149eb565b5033600090815260036020526040812089518392908b9089908110614a8d57634e487b7160e01b600052603260045260246000fd5b602002602001015181526020019081526020016000206001019080519060200190614ab9929190615080565b5060005b82811015614b2a57838181518110614ae557634e487b7160e01b600052603260045260246000fd5b6020026020010151828281518110614b0d57634e487b7160e01b600052603260045260246000fd5b602090810291909101015280614b2281615d24565b915050614abd565b5033600090815260036020526040812089518392908b9089908110614b5f57634e487b7160e01b600052603260045260246000fd5b602002602001015181526020019081526020016000206002019080519060200190614b8b929190615080565b50505050508080614b9b90615d24565b9150506142dc565b5033600090815260026020908152604080832089845290915281208054879290614bce908490615c8e565b90915550503360009081526002602081815260408084208a85528252832060018082018054808301825590865283862001989098559182018054808901825590845290832001969096559590955250506003909101805460ff1916909117905550565b828054614c3d90615ce9565b90600052602060002090601f016020900481019282614c5f5760008555614ca5565b82601f10614c7857805160ff1916838001178555614ca5565b82800160010185558215614ca5579182015b82811115614ca5578251825591602001919060010190614c8a565b50614cb19291506150e4565b5090565b828054614cc190615ce9565b90600052602060002090601f016020900481019282614ce35760008555614ca5565b82601f10614cf45780548555614ca5565b82800160010185558215614ca557600052602060002091601f016020900482015b82811115614ca5578254825591600101919060010190614d15565b828054828255906000526020600020908101928215614ca557600052602060002091820182811115614ca5578254825591600101919060010190614d15565b828054828255906000526020600020906002028101928215614dd75760005260206000209160020282015b82811115614dd757825482546001600160a01b0319166001600160a01b039091161782556001808401549083015560029283019290910190614d9a565b50614cb19291506150f9565b828054828255906000526020600020906005028101928215614e775760005260206000209160050282015b82811115614e77578254825560018084015490830180546001600160a01b039283166001600160a01b0319918216179091556002808601549085018054919093169116179055600380840154908301556004808401549083015560059283019290910190614e0e565b50614cb192915061511f565b828054828255906000526020600020906004028101928215614f0d5760005260206000209160040282015b82811115614f0d578254825560018084015490830180546001600160a01b039283166001600160a01b03199182161790915560028086015490850180549190931691161790556003808401549083015560049283019290910190614eae565b50614cb1929150615161565b828054828255906000526020600020906003028101928215614f935760005260206000209160030282015b82811115614f9357828260008201548160000155600182015481600101556002820181600201908054614f7690615ce9565b614f81929190614cb5565b50505091600301919060030190614f44565b50614cb192915061519c565b508054614fab90615ce9565b6000825580601f10614fbd5750614fdb565b601f016020900490600052602060002090810190614fdb91906150e4565b50565b5080546000825590600052602060002090810190614fdb91906150e4565b5080546000825560020290600052602060002090810190614fdb91906150f9565b5080546000825560050290600052602060002090810190614fdb919061511f565b5080546000825560040290600052602060002090810190614fdb9190615161565b5080546000825560030290600052602060002090810190614fdb919061519c565b828054828255906000526020600020908101928215614ca55791602002820182811115614ca5578251825591602001919060010190614c8a565b60405180608001604052806000815260200160608152602001606081526020016000151581525090565b5b80821115614cb157600081556001016150e5565b5b80821115614cb15780546001600160a01b0319168155600060018201556002016150fa565b5b80821115614cb15760008082556001820180546001600160a01b03199081169091556002830180549091169055600382018190556004820155600501615120565b5b80821115614cb15760008082556001820180546001600160a01b031990811690915560028301805490911690556003820155600401615162565b80821115614cb1576000808255600182018190556151bd6002830182614f9f565b5060030161519c565b80356001600160a01b03811681146111ef57600080fd5b600082601f8301126151ed578081fd5b813560206152026151fd83615c6b565b615c3b565b828152818101908583018385028701840188101561521e578586fd5b855b8581101561523c57813584529284019290840190600101615220565b5090979650505050505050565b600082601f830112615259578081fd5b81356001600160401b0381111561527257615272615d55565b615285601f8201601f1916602001615c3b565b818152846020838601011115615299578283fd5b816020850160208301379081016020019190915292915050565b600060a082840312156152c4578081fd5b6152ce60a0615c3b565b9050813581526152e0602083016151c6565b60208201526152f1604083016151c6565b6040820152606082013560608201526080820135608082015292915050565b600060208284031215615321578081fd5b61532a826151c6565b9392505050565b60008060408385031215615343578081fd5b61534c836151c6565b915060208301356001600160401b03811115615366578182fd5b61537285828601615249565b9150509250929050565b6000806040838503121561538e578182fd5b615397836151c6565b946020939093013593505050565b6000608082840312156153b6578081fd5b6153c06080615c3b565b823581526153d0602084016151c6565b60208201526153e1604084016151c6565b6040820152606083013560608201528091505092915050565b600060a0828403121561540b578081fd5b61532a83836152b3565b600080600060e08486031215615429578081fd5b61543385856152b3565b925060a08401356001600160401b038082111561544e578283fd5b61545a878388016151dd565b935060c086013591508082111561546f578283fd5b5061547c868287016151dd565b9150509250925092565b600060208284031215615497578081fd5b5035919050565b600080604083850312156154b0578182fd5b8235915060208301356001600160401b03811115615366578182fd5b6000806000606084860312156154e0578283fd5b8335925060208401356001600160401b038111156154fc578283fd5b61550886828701615249565b925050615517604085016151c6565b90509250925092565b60008060008060808587031215615535578182fd5b8435935060208086013593506040808701356001600160401b038082111561555b578586fd5b818901915089601f83011261556e578586fd5b813561557c6151fd82615c6b565b81815285810190848701868402860188018e101561559857898afd5b8995505b838610156155e25786818f0312156155b257898afd5b6155bb87615c3b565b6155c4826151c6565b8152818901358982015283526001959095019491870191860161559c565b509750505060608901359350808411156155fa578485fd5b50505061560987828801615249565b91505092959194509250565b600080600060608486031215615629578081fd5b833592506020840135915060408401356001600160401b0381111561564c578182fd5b61547c86828701615249565b60008060006060848603121561566c578081fd5b505081359360208301359350604090920135919050565b60008060008060008060c0878903121561569b578384fd5b86359550602087013594506040870135935060608701356001600160401b03808211156156c6578384fd5b6156d28a838b016151dd565b945060808901359150808211156156e7578384fd5b6156f38a838b016151dd565b935060a0890135915080821115615708578283fd5b5061571589828a016151dd565b9150509295509295509295565b6000815180845260208085019450808401835b8381101561577f57815180518852838101516001600160a01b03908116858a0152604080830151909116908901526060908101519088015260809096019590820190600101615735565b509495945050505050565b6000815180845260208085019450808401835b8381101561577f57815180516001600160a01b03168852830151838801526040909601959082019060010161579d565b6000815180845260208085018081965082840281019150828601855b85811015615833578284038952815180518552858101518686015260409081015160609186018290529061581f818701836158f8565b9a87019a95505050908401906001016157e9565b5091979650505050505050565b6000815180845260208085019450808401835b8381101561577f57815180518852838101516001600160a01b03908116858a015260408083015190911690890152606080820151908901526080908101519088015260a09096019590820190600101615853565b6000815180845260208085019450808401835b8381101561577f578151875295820195908201906001016158ba565b600281106158f457634e487b7160e01b600052602160045260246000fd5b9052565b60008151808452615910816020860160208601615cbd565b601f01601f19169290920160200192915050565b60008251615936818460208701615cbd565b9190910192915050565b815460009081906002810460018083168061595c57607f831692505b602080841082141561597c57634e487b7160e01b87526022600452602487fd5b81801561599057600181146159a1576159cd565b60ff198616895284890196506159cd565b60008a815260209020885b868110156159c55781548b8201529085019083016159ac565b505084890196505b509498975050505050505050565b6001600160a01b03841681528215156020820152606060408201819052600090615a07908301846158f8565b95945050505050565b60006020825261532a60208301846158a7565b60006020825261532a60208301846158f8565b600060208252615a526020830184516001600160a01b03169052565b60208301518015156040840152506040830151610180806060850152615a7c6101a08501836158f8565b91506060850151601f1980868503016080870152615a9a84836158a7565b935060808701519150808685030160a0870152615ab784836158a7565b935060a08701519150808685030160c0870152615ad4848361578a565b935060c08701519150808685030160e0870152615af1848361578a565b935060e08701519150610100818786030181880152615b108584615840565b945080880151925050610120818786030181880152615b2f8584615840565b945080880151925050610140818786030181880152615b4e8584615722565b945080880151925050610160818786030181880152615b6d8584615722565b908801518782039092018488015293509050615b8983826157cd565b9695505050505050565b60006020825282516020830152602083015160806040840152615bb960a08401826158a7565b90506040840151601f19848303016060850152615bd682826158a7565b9150506060840151151560808401528091505092915050565b83815260608101615c0360208301856158d6565b826040830152949350505050565b8481526020810184905260808101615c2c60408301856158d6565b82606083015295945050505050565b604051601f8201601f191681016001600160401b0381118282101715615c6357615c63615d55565b604052919050565b60006001600160401b03821115615c8457615c84615d55565b5060209081020190565b60008219821115615ca157615ca1615d3f565b500190565b600082821015615cb857615cb8615d3f565b500390565b60005b83811015615cd8578181015183820152602001615cc0565b8381111561232e5750506000910152565b600281046001821680615cfd57607f821691505b60208210811415615d1e57634e487b7160e01b600052602260045260246000fd5b50919050565b6000600019821415615d3857615d38615d3f565b5060010190565b634e487b7160e01b600052601160045260246000fd5b634e487b7160e01b600052604160045260246000fdfe68b37f68a2bc54c3d620d48da778df9369fa9e2a3a8fef7d7e57cecd1e860d8c036b6384b5eca791c62761152d0c79bb0604c104a5fb6f4eb0703f3154bb3db08a35acfbc15ff81a39ae7d344fd709f28e8600b4aa8c65c6b64bfe7fe36bd19c8a35acfbc15ff81a39ae7d344fd709f28e8600b4aa8c65c6b64bfe7fe36bd19b227887aafc5cf62347d1151727ff1d51b157f84ee8159c8b3b37ae225fd1c06da26469706673582212204d6ed7dca9db00a16c1125f3b3c15182770e2adeadd92c95f12bc4cfdedd7f9f64736f6c63430008020033",
  "immutableReferences": {},
  "source": "// SPDX-License-Identifier: MIT\npragma solidity ^0.8;\npragma experimental ABIEncoderV2;\n\ncontract SupplyChainNetwork {\n    address public networkOwner = msg.sender;\n    struct CompanyContract {\n        uint id;\n        address from;\n        address to;\n        uint productId;\n    }\n    struct CompanyProduct {\n        address companyId;\n        uint productId;\n    }\n    struct Request {\n        uint id;\n        address from;\n        address to;\n        uint productId;\n        uint quantity;\n    }\n    struct Supply {\n        uint total;\n        uint[] supplyId;\n        uint[] quantities;\n        bool exist;\n    }\n    struct PastSupply {\n        uint[] pastSupply;\n        bool exist;\n    }\n    struct DeleteRequest {\n        uint id;\n        uint approvals;\n        string code;\n    }\n    struct Company {\n        address owner;\n        bool exist;\n        string name;\n        uint[] listOfSupply;\n        uint[] listOfPrerequisites;\n        CompanyProduct[] upstream;\n        CompanyProduct[] downstream;\n        Request[] incomingRequests;\n        Request[] outgoingRequests;\n        CompanyContract[] incomingContract;\n        CompanyContract[] outgoingContract;\n        DeleteRequest[] deleteRequest;\n    }\n    mapping(address => Company) public companies;\n    mapping(address => mapping(uint => Supply)) public companySupplies;\n    mapping(address => mapping(uint => Supply)) public companyPrerequisiteSupplies;\n    Company[] public headCompanies;\n    string[] public productNames;\n    mapping(uint => PastSupply) public pastSupplies; // uint[] refers to supplyId from MongoDB\n    enum STATE {\n        APPROVED,\n        REJECTED\n    }\n    event Requests(uint indexed requestId, address indexed from, address indexed to, uint productId, uint quantity, STATE state, uint256 timestamp);\n    event Contracts(uint indexed contractId, address indexed from, address indexed to, uint productId, STATE state, uint256 timestamp);\n\n    function getCompany(address owner) public view returns (Company memory) {\n        return companies[owner];\n    }\n    function addCompany(address owner, string memory name) public {\n        require(msg.sender == networkOwner);\n        Company storage company = companies[owner];\n        company.name = name;\n        company.owner = owner;\n        company.exist = true;\n        headCompanies.push(company);\n    }\n    function getHeadCompaniesLength() public view returns (uint) {\n        return headCompanies.length;\n    }\n    function addProduct(uint productId, string memory productName, address company_address) public {\n        require(companies[msg.sender].exist || msg.sender == networkOwner);\n        for(uint i = 0; i < productNames.length; i++) {\n            if(keccak256(abi.encodePacked(productNames[i])) == keccak256(abi.encodePacked(productName))) {\n                revert();\n            }\n        }\n        if(msg.sender == networkOwner) {\n            companies[company_address].listOfSupply.push(productId);\n        } else {\n            companies[msg.sender].listOfSupply.push(productId);\n        }\n        productNames.push(productName);\n    }\n    // TODO: change where only networkOwner can call this function\n    function addProductOwner(uint productId, string memory productName) public {\n        require(companies[msg.sender].exist);\n        for(uint i = 0; i < companies[msg.sender].listOfSupply.length; i++) {\n            if(companies[msg.sender].listOfSupply[i] == productId) {\n                revert();\n            }\n        }\n        companies[msg.sender].listOfSupply.push(productId);\n        productNames.push(productName);\n    }\n    function getPastSupply(uint supplyId) public view returns (uint[] memory) {\n        require(pastSupplies[supplyId].exist);\n        return pastSupplies[supplyId].pastSupply;\n    }\n    function getSupply(uint productId) public view returns (Supply memory) {\n        require(companySupplies[msg.sender][productId].exist);\n        return companySupplies[msg.sender][productId];\n    }\n    function getPrerequisiteSupply(uint productId) public view returns (Supply memory) {\n        require(companies[msg.sender].owner == msg.sender);\n        return companyPrerequisiteSupplies[msg.sender][productId];\n    }\n    function convertToSupply(uint productId, uint numberOfSupply, uint supplyId) public {\n        for(uint i = 0; i < companies[msg.sender].listOfSupply.length; i++) {\n            if(companies[msg.sender].listOfSupply[i] == productId) {\n                companySupplies[msg.sender][productId].total += numberOfSupply;\n                companySupplies[msg.sender][productId].supplyId.push(supplyId);\n                companySupplies[msg.sender][productId].quantities.push(numberOfSupply);\n                companySupplies[msg.sender][productId].exist = true;\n                return;\n            }\n        }\n        revert();\n    }\n    function convertPrerequisiteToSupply(uint newSupplyProductId, uint numberOfNewSupply, uint newSupplyId, uint[] memory prerequisiteProductIds, uint[] memory prerequisiteSupplyIds, uint[] memory prerequisiteQuantities) public {\n        require(companies[msg.sender].owner == msg.sender);\n        for(uint i = 0; i < prerequisiteProductIds.length; i++) { // loops through prerequisite product IDs\n            for(uint j = 0; j < companyPrerequisiteSupplies[msg.sender][prerequisiteProductIds[i]].supplyId.length; j++) { // loops through storage prerequisite supply IDs\n                for(uint k = 0; k < prerequisiteSupplyIds.length; k++) { // loops through prerequisite supply ID passed in by backend, indicates the supply IDs to be deducted\n                    pastSupplies[newSupplyId].pastSupply.push(prerequisiteSupplyIds[k]); // adds all prerequisite supply IDs that is part of creating the new supply\n                    pastSupplies[newSupplyId].exist = true;\n                    if(companyPrerequisiteSupplies[msg.sender][prerequisiteProductIds[i]].supplyId[j] == prerequisiteSupplyIds[k]) {\n                        companyPrerequisiteSupplies[msg.sender][prerequisiteProductIds[i]].quantities[j] -= prerequisiteQuantities[k]; // deducts the storage prerequisite supply quantity\n                        companyPrerequisiteSupplies[msg.sender][prerequisiteProductIds[i]].total -= prerequisiteQuantities[k]; // deducts the total storage of prerequisite supply quantity\n                    }\n                }\n            }\n            // removing supply IDs that is below and equal to 0 quantity\n            uint[] memory newSupplyIds = new uint[](companyPrerequisiteSupplies[msg.sender][prerequisiteProductIds[i]].supplyId.length);\n            uint[] memory newQuantities = new uint[](companyPrerequisiteSupplies[msg.sender][prerequisiteProductIds[i]].quantities.length);\n            uint newSize = 0;\n            for (uint j = 0; j < companyPrerequisiteSupplies[msg.sender][prerequisiteProductIds[i]].quantities.length; j++) {\n                if (companyPrerequisiteSupplies[msg.sender][prerequisiteProductIds[i]].quantities[j] > 0) {\n                    newSupplyIds[newSize] = companyPrerequisiteSupplies[msg.sender][prerequisiteProductIds[i]].supplyId[j];\n                    newQuantities[newSize] = companyPrerequisiteSupplies[msg.sender][prerequisiteProductIds[i]].quantities[j];\n                    newSize++;\n                }\n            }\n            uint[] memory finalArray = new uint[](newSize);\n            for (uint k = 0; k < newSize; k++) {\n                finalArray[k] = newSupplyIds[k];\n            }\n            companyPrerequisiteSupplies[msg.sender][prerequisiteProductIds[i]].supplyId = finalArray;\n            for (uint k = 0; k < newSize; k++) {\n                finalArray[k] = newQuantities[k];\n            }\n            companyPrerequisiteSupplies[msg.sender][prerequisiteProductIds[i]].quantities = finalArray;\n        }\n        // adds the new supply to storage\n        companySupplies[msg.sender][newSupplyProductId].total += numberOfNewSupply;\n        companySupplies[msg.sender][newSupplyProductId].supplyId.push(newSupplyId); \n        companySupplies[msg.sender][newSupplyProductId].quantities.push(numberOfNewSupply);\n        companySupplies[msg.sender][newSupplyProductId].exist = true;\n    }\n    function sendRequest(Request memory request) public {\n        require(request.from == msg.sender);\n        companies[request.from].outgoingRequests.push(request);\n        companies[request.to].incomingRequests.push(request);\n    }\n    function approveRequest(Request memory request, uint[] memory supplyIds, uint[] memory quantities) public {\n        require(request.to == msg.sender);\n        // reduce the supply quantity of to company\n        for(uint i = 0; i < companySupplies[request.to][request.productId].supplyId.length; i++) {\n            for(uint j = 0; j < supplyIds.length; j++) {\n                if(companySupplies[request.to][request.productId].supplyId[i] == supplyIds[j]) {\n                    companySupplies[request.to][request.productId].total -= quantities[j];\n                    companySupplies[request.to][request.productId].quantities[i] -= quantities[j];\n                }\n            }\n        }\n        // removing supply IDs that is below and equal to 0 quantity\n        uint[] memory newSupplyIds = new uint[](companySupplies[request.to][request.productId].supplyId.length);\n        uint[] memory newQuantities = new uint[](companySupplies[request.to][request.productId].quantities.length);\n        uint newSize = 0;\n        for (uint i = 0; i < companySupplies[request.to][request.productId].quantities.length; i++) {\n            if (companySupplies[request.to][request.productId].quantities[i] > 0) {\n                newSupplyIds[newSize] = companySupplies[request.to][request.productId].supplyId[i];\n                newQuantities[newSize] = companySupplies[request.to][request.productId].quantities[i];\n                newSize++;\n            }\n        }\n        uint[] memory finalArray = new uint[](newSize);\n        for (uint k = 0; k < newSize; k++) {\n            finalArray[k] = newSupplyIds[k];\n        }\n        companySupplies[request.to][request.productId].supplyId = finalArray;\n        for (uint k = 0; k < newSize; k++) {\n            finalArray[k] = newQuantities[k];\n        }\n        companySupplies[request.to][request.productId].quantities = finalArray;\n        // increment the supply quantity for from company\n        for(uint i = 0; i < supplyIds.length; i++) {\n            bool added = false;\n            for(uint j = 0; j < companyPrerequisiteSupplies[request.from][request.productId].supplyId.length; j++) {\n                if(companyPrerequisiteSupplies[request.from][request.productId].supplyId[j] == supplyIds[i]) {\n                    companyPrerequisiteSupplies[request.from][request.productId].quantities[j] += quantities[i];\n                    added = true;\n                }\n            }\n            if(!added) {\n                companyPrerequisiteSupplies[request.from][request.productId].supplyId.push(supplyIds[i]);\n                companyPrerequisiteSupplies[request.from][request.productId].quantities.push(quantities[i]);\n            }\n            companyPrerequisiteSupplies[request.from][request.productId].total += quantities[i];\n        }\n        // remove the request from outgoingContract\n        for(uint i = 0; i < companies[request.from].outgoingRequests.length; i++) {\n            if(companies[request.from].outgoingRequests[i].id == request.id) {\n                companies[request.from].outgoingRequests[i] = companies[request.from].outgoingRequests[companies[request.from].outgoingRequests.length - 1];\n                break;\n            }\n        }\n        companies[request.from].outgoingRequests.pop();\n        // remove the contract request from incomingContract\n        for(uint i = 0; i < companies[request.to].incomingRequests.length; i++) {\n            if(companies[request.to].incomingRequests[i].id == request.id) {\n                companies[request.to].incomingRequests[i] = companies[request.to].incomingRequests[companies[request.to].incomingRequests.length - 1];\n                break;\n            }\n        }\n        companies[request.to].incomingRequests.pop();\n        emit Requests(request.id, request.from, request.to, request.productId, request.quantity, STATE.APPROVED, block.timestamp);\n    }\n    function declineRequest(Request memory request) public {\n        require(request.to == msg.sender);\n        // remove the request from outgoingContract\n        for(uint i = 0; i < companies[request.from].outgoingRequests.length; i++) {\n            if(companies[request.from].outgoingRequests[i].id == request.id) {\n                companies[request.from].outgoingRequests[i] = companies[request.from].outgoingRequests[companies[request.from].outgoingRequests.length - 1];\n                break;\n            }\n        }\n        companies[request.from].outgoingRequests.pop();\n        // remove the contract request from incomingContract\n        for(uint i = 0; i < companies[request.to].incomingRequests.length; i++) {\n            if(companies[request.to].incomingRequests[i].id == request.id) {\n                companies[request.to].incomingRequests[i] = companies[request.to].incomingRequests[companies[request.to].incomingRequests.length - 1];\n                break;\n            }\n        }\n        companies[request.to].incomingRequests.pop();\n        emit Requests(request.id, request.from, request.to, request.productId, request.quantity, STATE.REJECTED, block.timestamp);\n    }\n    // The sender sends contract to ask which PRODUCT it wants\n    function sendContract(CompanyContract memory companyContract) public {\n        require(msg.sender == companyContract.from);\n        // put inside outgoing contract to track down which company and what product I've asked for\n        companies[companyContract.from].outgoingContract.push(companyContract);\n        // gets who sends the contract and what product he wants from MY stash\n        companies[companyContract.to].incomingContract.push(companyContract);\n    }\n    function approveContract(CompanyContract memory companyContract) public {\n        require(msg.sender == companyContract.to);\n        // sets pre requisite supply exists\n        companyPrerequisiteSupplies[companyContract.from][companyContract.productId].exist = true;\n        // pushes new product in the contract sender's list of prerequisites\n        companies[companyContract.from].listOfPrerequisites.push(companyContract.productId);\n        // adds a new company in the contract sender's list of downstreams\n        companies[companyContract.from].downstream.push(CompanyProduct({\n            companyId: companyContract.to,\n            productId: companyContract.productId\n        }));\n        // adds a new company in the supplier's list of upstreams\n        companies[companyContract.to].upstream.push(CompanyProduct({\n            companyId: companyContract.from,\n            productId: companyContract.productId\n        }));\n        // if supplier is a headCompany, remove it\n        for(uint i = 0; i < headCompanies.length; i++) {\n            if(headCompanies[i].owner == msg.sender) {\n                headCompanies[i] = headCompanies[headCompanies.length - 1];\n                headCompanies.pop();\n                break;\n            }\n        }\n        // remove the contract request from outgoingContract\n        for(uint i = 0; i < companies[companyContract.from].outgoingContract.length; i++) {\n            if(companies[companyContract.from].outgoingContract[i].id == companyContract.id) {\n                companies[companyContract.from].outgoingContract[i] = companies[companyContract.from].outgoingContract[companies[companyContract.from].outgoingContract.length - 1];\n                break;\n            }\n        }\n        companies[companyContract.from].outgoingContract.pop();\n        // remove the contract request from incomingContract\n        for(uint i = 0; i < companies[companyContract.to].incomingContract.length; i++) {\n            if(companies[companyContract.to].incomingContract[i].id == companyContract.id) {\n                companies[companyContract.to].incomingContract[i] = companies[companyContract.to].incomingContract[companies[companyContract.to].incomingContract.length - 1];\n                break;\n            }\n        }\n        companies[companyContract.to].incomingContract.pop();\n        emit Contracts(companyContract.id, companyContract.from, companyContract.to, companyContract.productId, STATE.APPROVED, block.timestamp);\n    }\n    function declineContract(CompanyContract memory companyContract) public {\n        require(msg.sender == companyContract.to);\n        // remove the contract request from outgoingContract\n        for(uint i = 0; i < companies[companyContract.from].outgoingContract.length; i++) {\n            if(companies[companyContract.from].outgoingContract[i].id == companyContract.id) {\n                companies[companyContract.from].outgoingContract[i] = companies[companyContract.from].outgoingContract[companies[companyContract.from].outgoingContract.length - 1];\n                break;\n            }\n        }\n        companies[companyContract.from].outgoingContract.pop();\n        // remove the contract request from incomingContract\n        for(uint i = 0; i < companies[companyContract.to].incomingContract.length; i++) {\n            if(companies[companyContract.to].incomingContract[i].id == companyContract.id) {\n                companies[companyContract.to].incomingContract[i] = companies[companyContract.to].incomingContract[companies[companyContract.to].incomingContract.length - 1];\n                break;\n            }\n        }\n        companies[companyContract.to].incomingContract.pop();\n        emit Contracts(companyContract.id, companyContract.from, companyContract.to, companyContract.productId, STATE.REJECTED, block.timestamp);\n    }\n    function sendDeleteRequest(uint id, uint productId, string memory code) public {\n        for(uint i = 0; i < companies[msg.sender].listOfSupply.length; i++) {\n            if(companies[msg.sender].listOfSupply[i] == productId) {\n                companies[msg.sender].deleteRequest.push(DeleteRequest({\n                    id: id,\n                    approvals: 0,\n                    code: code\n                }));\n                return;\n            }\n        }\n        revert();\n    }\n    function addApproval(uint id, string memory code, address owner) public {\n        for(uint i = 0; i < companies[owner].deleteRequest.length; i++) {\n            if(companies[owner].deleteRequest[i].id == id && keccak256(abi.encodePacked(companies[owner].deleteRequest[i].code)) == keccak256(abi.encodePacked(code))) {\n                companies[owner].deleteRequest[i].approvals += 1;\n                return;\n            }\n        }\n        revert();\n    }\n    function deleteSupply(uint id, uint productId, CompanyProduct[] memory upstreamLeft, string memory code) public {\n        for(uint i = 0; i < companies[msg.sender].deleteRequest.length; i++) {\n            if(companies[msg.sender].deleteRequest[i].id == id && keccak256(abi.encodePacked(companies[msg.sender].deleteRequest[i].code)) == keccak256(abi.encodePacked(code)) && companies[msg.sender].deleteRequest[i].approvals == companies[msg.sender].upstream.length) {\n                // loops through all the upstream company of msg.sender\n                for(uint j = 0; j < companies[msg.sender].upstream.length; j++) {\n                    // remove msg.sender in all upstream company's downstream\n                    for(uint k = 0; k < companies[companies[msg.sender].upstream[j].companyId].downstream.length; k++) {\n                        if(companies[companies[msg.sender].upstream[j].companyId].downstream[k].companyId == msg.sender && companies[companies[msg.sender].upstream[j].companyId].downstream[k].productId == productId) {\n                            companies[companies[msg.sender].upstream[j].companyId].downstream[k] = companies[companies[msg.sender].upstream[j].companyId].downstream[companies[companies[msg.sender].upstream[j].companyId].downstream.length - 1];\n                            companies[companies[msg.sender].upstream[j].companyId].downstream.pop();\n                            break;\n                        }\n                    }\n                }\n                // removes all upstream and adds back upstream that does not use the deleted product ID\n                delete companies[msg.sender].upstream;\n                for(uint j = 0; j < upstreamLeft.length; j++) {\n                    companies[msg.sender].upstream.push(upstreamLeft[j]);\n                }\n                // if current does not have anymore upstream, push self to headCompanies\n                if(upstreamLeft.length == 0) {\n                    headCompanies.push(companies[msg.sender]);\n                }\n                // delete msg.sender from product owner\n                for(uint j = 0; j < companies[msg.sender].listOfSupply.length; j++) {\n                    if(companies[msg.sender].listOfSupply[j] == productId) {\n                        companies[msg.sender].listOfSupply[j] = companies[msg.sender].listOfSupply[companies[msg.sender].listOfSupply.length - 1];\n                        companies[msg.sender].listOfSupply.pop();\n                    }\n                }\n                // removes request from outgoingDeleteRequest since operation is done.\n                companies[msg.sender].deleteRequest[i] = companies[msg.sender].deleteRequest[companies[msg.sender].deleteRequest.length - 1];\n                companies[msg.sender].deleteRequest.pop();\n                return;\n            }\n        }\n        revert();\n    }\n}\n",
  "sourcePath": "/Users/darennathanieljanto/Documents/GitHub/fyp-contract-v2/contracts/SupplyChainNetwork.sol",
  "compiler": {
    "name": "solc",
    "version": "0.8.2+commit.661d1103.Emscripten.clang"
  },
  "schemaVersion": "3.4.15",
  "updatedAt": "2024-01-22T07:53:08.598Z",
  "networkType": "ethereum",
  "devdoc": {
    "kind": "dev",
    "methods": {},
    "version": 1
  },
  "userdoc": {
    "kind": "user",
    "methods": {},
    "version": 1
  }
}